:020000040800F2
:1000000068050020C50100080D0B0008D90900088B
:10001000090B0008B5070008651300080000000080
:10002000000000000000000000000000750E000845
:10003000B907000800000000C50B00080110000807
:10004000DF010008DF010008DF010008DF01000810
:10005000DF010008DF010008DF010008DF01000800
:10006000DF010008DF010008DF010008DF010008F0
:10007000DF010008DF010008DF010008DF010008E0
:10008000DF010008DF010008DF010008DF010008D0
:10009000DF010008DF010008DF010008DF010008C0
:1000A000DF010008DF010008DF010008DF010008B0
:1000B000DF010008DF010008DF010008DF010008A0
:1000C000DF010008DF010008DF010008DF01000890
:1000D000DF010008DF010008DF010008DF01000880
:1000E000BD070008DF010008DF010008DF0100088C
:1000F000DF010008DF010008DF010008DF01000860
:10010000DF010008DF010008DF010008DF0100084F
:10011000DF010008DF01000889100008DF01000886
:10012000DF010008DF010008DF010008DF0100082F
:10013000DF010008DF010008DF010008DF0100081F
:10014000DF010008DF010008DF010008DF0100080F
:10015000DF010008DF010008DF010008DF010008FF
:10016000DF010008DF010008DF010008DF010008EF
:10017000DF010008DF010008DF010008DF010008DF
:10018000DF010008DF010008DF010008DF010008CF
:10019000DF010008DF010008DF010008DF010008BF
:1001A0000000000000000000DF010008DFF810D0B0
:1001B00000F060FA00480047ED270008AFF3008028
:1001C000680500200648804706480047FEE7FEE72E
:1001D000FEE7FEE7FEE7FEE7FEE7FEE7FEE7FEE7F7
:1001E00005100008AD0100082DE9F0410024061BB0
:1001F000254671F1000605DA01240027D0EB07003F
:1002000067EB0101161E73F1000605DA0027D2EB39
:100210000702012567EB030300F040F886460E460F
:1002200017469C46AC4204D00025D0EB050E65EB8A
:10023000010624B10020D2EB000760EB030C7046EE
:1002400031463A466346BDE8F08100F0004230F0A6
:1002500000400AD0C10D01F56071C0F3160042EAFA
:100260000151C20840071143704700200146704702
:1002700030B50B46014600202022012409E021FA76
:1002800002F59D4205D303FA02F5491B04FA02F573
:100290002844151EA2F10102F1DC30BD2DE9F05F0A
:1002A0000546002092469B468846064681464024E5
:1002B0001BE0284641464746224600F0FCF95346DB
:1002C0005A46C01A914110D311461846224600F0F2
:1002D000E3F92D1A67EB01084F4622460120002161
:1002E00000F0DAF917EB00094E41201EA4F10104D9
:1002F000DFDC484631462A464346BDE8F09F2DE9FB
:10030000FE4F804681EA0300C00F0C46009021F0AA
:10031000004123F00045B8EB0200A94105D2404658
:10032000214690461C460B46024623F000401043EF
:1003300047D0270DC7F30A00C3F30A510290401AB1
:10034000019040286BDAC3F3130040F4801B00983F
:10035000924620B10023D2EB030A63EB0B0B01980A
:100360005946C0F14002504600F096F906460D4647
:1003700050465946019A00F0AEF910EB0800614171
:10038000002487EA115284EAE7731A4340D0009AA6
:1003900062B3019A012A4FEA075215DC001B61EB98
:1003A00002014FF0004202EA0752CDE90042001C70
:1003B00041F5801132462B4600F0AEF903B0BDE89E
:1003C000F08F40462146F9E7001B61EB0201001C5B
:1003D00041F5801300185B412018A2F5001747EB88
:1003E000030140EAD570B6196D4111E06D084FEA7E
:1003F000360645EAC0754FEA0752001B61EB020161
:10040000001C41F5801149084FEA300000195141A4
:1004100032462B4603B0BDE8F04F00F06EB90098AD
:10042000012240000023D0EB020263EBE07300984E
:1004300021464FEAE074B8EB000061EB0401E9E704
:1004400083F000435BE781F0004158E72DE9FE4F60
:1004500081EA030404F0004421F0004100944FF0CD
:10046000000B23F0004350EA01045ED052EA03047B
:100470005BD0C3F30A54C1F30A552C44A4F2F334FD
:100480000194A0FB0254C1F3130141F48011C3F3A2
:10049000130343F4801301FB024400FB034E840A60
:1004A000970A44EA815447EA8357A4FB07680295F8
:1004B0008D0A05FB07854FEA932C04FB0C54270596
:1004C000029D4FEA065847EA1637B5EB08056EEB72
:1004D000070C870E920E47EA811742EA8312A7FBA8
:1004E0000201B6EB0B0164EB00042B0D43EA0C3365
:1004F0005E1844EB1C50DA465146E7FB0201C5F397
:1005000013044FEA0B3343EA14534FEA0432019CBD
:1005100043EA0603A4F10C040294009CCDE900B464
:1005200000F0FAF803B0BDE8F08F00200146F9E7CB
:100530002DE9F04D81EA030404F0004B21F0004561
:1005400014464FF0000A23F0004150EA050220D083
:1005500054EA01021DD0C5F30A570246C5F313033E
:10056000C1F31300C1F30A5640F4801543F480131D
:10057000A7EB0608101BD64608F2FD3873EB050002
:1005800002D308F1010801E092185B41B8F1000FB5
:1005900003DA00200146BDE8F08D00204FF4801101
:1005A000064684460EE0171B73EB050705D3121BA6
:1005B00063EB050306434CEA010C49084FEA30009F
:1005C00092185B4150EA0107EDD152EA030012D0C4
:1005D00082EA040083EA0501084305D0101BAB4101
:1005E00006D20122002306E000224FF0004302E081
:1005F0006FF0010253101AEB06004CEB085110EBA0
:100600000A0041EB0B01BDE8F04D00F076B8C1F3F4
:100610000A52C1F3130140F2FF3341F480119A42B0
:1006200002DA00200146704740F233439A42A2F2B8
:10063000334202DC524200F03EB800F02DB8000018
:1006400030B5041E71F1000404DB4FF00044404259
:1006500064EB0101141E73F1000405DB1C464FF02E
:100660000043524263EB0403994208BF904230BDFD
:1006700000207047064C074D06E0E06840F001039B
:1006800094E8070098471034AC42F6D3FFF792FD88
:100690000031000820310008202A04DB203A00FA4B
:1006A00002F1002070479140C2F1200320FA03F3C9
:1006B000194390407047202A04DB203A21FA02F0C7
:1006C0000021704721FA02F3D040C2F1200291408C
:1006D000084319467047202A06DBCB17203A41FA17
:1006E00002F043EAE07306E041FA02F3D040C2F1BF
:1006F0002002914008431946704710B5141E73F14B
:10070000000408DA401C41F1000192185B411A43D1
:1007100001D120F0010010BD2DE9F04D92469B461D
:1007200011B1B1FA81F202E0B0FA80F220329046C3
:10073000FFF7B2FF04460F4640EA0A0041EA0B0108
:1007400053465A46084313D0114653EA010019D0C4
:10075000C8F140025046FFF7AEFF05460E46504630
:1007600059464246FFF798FF084305D0012004E0B0
:1007700020463946BDE8F08D0020054346EAE07684
:100780002C4337430A986305E40AA0EB08000022D3
:10079000FD0A44EA47540A3002D500200146E9E741
:1007A000010510196941DDE9084500196941BDE8F5
:1007B000F04DA2E700BFFEE77047000010B54FF410
:1007C000004000F043F8012805D1C00300F006F80E
:1007D00001200149087010BD140000200149086083
:1007E00070470000143C01401CB50121880300F053
:1007F0000BFA0F21032000F03FFB4FF40040009064
:1008000000208DF804000C208DF8050001208DF8E3
:100810000600684600F026F81CBD00001CB501214A
:10082000082000F0D1F900208DF804004FF40040BA
:10083000009001208DF8070003208DF8050069461F
:10084000014800F059F81CBD000C02400146002090
:10085000034A12680A400AB1012000E000207047F4
:10086000143C0140002123498279002A3AD00A46EB
:10087000126803689A430B461A600A1D12680368DF
:100880009A430B1D1A60027911440A6803681A43DF
:100890000A60184A0832126803689A43154B0833F5
:1008A0001A601A1D126803689A43124B0C331A60BF
:1008B0004279102A0ED11A1F126803681A430D4B91
:1008C00008331A601A1D126803681A43094B0C3367
:1008D0001A600DE00749427911440A6803681A4317
:1008E0000A6005E0027911440A6803689A430A60C5
:1008F00070470000003C0140F0B50A46002100238B
:10090000002400BF3DE0012505FA01F3156805EA62
:1009100003049C4234D105684F000326BE40B54312
:10092000056015794E00B5400668354305601579B8
:10093000012D02D01579022D16D185684F000326AE
:10094000BE40B543856055794E00B5408668354355
:100950008560456801268E40B543456045689679B7
:100960008E40B6B235434560C5684F000326BE4091
:10097000B543C560D5794E00B540C6683543C560FE
:10098000491C1029BFD3F0BDF0B5002300244D074A
:10099000ED0E02FA05F3CE1000F1200555F82650B1
:1009A0004E07F70E0F26BE40B543CF1000F12006CC
:1009B00046F82750CE1000F1200555F8265045EA9C
:1009C0000304CE1000F1200545F82640F0BD0A04CE
:1009D000826170478161704700BFFEE710B52DED61
:1009E000028B0446F0EE408AB0EE608AC4ED008AC5
:1009F00084ED018A204600F003F8BDEC028B10BDA7
:100A000010B52DED048B044694ED000AD4ED010AD7
:100A100080EE201AB0EE419A9FED2B0AC0EE090A33
:100A2000F0EE609AB0EE690A01F09CF8B0EE408AF0
:100A30009FED260A00F0BCFCF0EE000A60EE200AF2
:100A4000B7EE000A00EE880A08EE080AF0EE408AC7
:100A500028EE080AC0EE280AC4ED040A94ED040A40
:100A6000F0EE000A20EE200A84ED050A94ED040A57
:100A700084ED060AB7EE000A18EE080AF0EE000A46
:100A800020EE200AC0EE280AC4ED070A9FED0F0AE7
:100A900000F08EFCF0EE000A60EE200AB7EE000ACD
:100AA00000EEC80A08EE080AC0EE280AC4ED080ADB
:100AB0009FED070A84ED020A9FED050A84ED030A03
:100AC000BDEC048B10BD0000DA0F4940DA0F493F3E
:100AD0000000000070B505460C4604210948FFF7E8
:100AE00076FF0A2001F029FE284600F0A7F92046EB
:100AF00000F0A4F904210348FFF76CFF0A2001F07D
:100B00001CFE70BD0008024000BFFEE7704708B53C
:100B10004FF4A06000F04CF828208DF80000002071
:100B20008DF801008DF8020001208DF80300684661
:100B300000F002F808BD000070B5002100230F226C
:100B4000C4781CB3174C246804F4E064C4F5E06472
:100B5000C4F30721C1F10404E3B20A4144789C4084
:100B6000E1B28478144021430C07210E0E4C057825
:100B70006155047804F01F050124AC4005786D111F
:100B8000AD0005F1E025C5F8004109E0047804F066
:100B90001F050124AC40054D0678761145F8264026
:100BA00070BD00000CED00E000E400E080E100E03A
:100BB00002490143024A1160704700000000FA0533
:100BC0000CED00E07047000029B1064A12680243AC
:100BD000044B1A6004E0034A12688243014B1A6016
:100BE000704700003038024029B1064A12680243BB
:100BF000044B1A6004E0034A12688243014B1A60F6
:100C0000704700004038024029B1064A126802438A
:100C1000044B1A6004E0034A12688243014B1A60D5
:100C20007047000044380240F0B500210022002443
:100C3000022500260223324F3F6807F00C0121B144
:100C4000042905D0082937D105E02E4F076036E08A
:100C50002D4F076033E02A4F3F1F3F68C7F3805690
:100C6000274F3F1F3F6807F03F036EB1264FB7FB8A
:100C7000F3F7DFF88CC0ACF1040CDCF800C0CCF367
:100C8000881C07FB0CF40CE01E4FB7FBF3F7DFF8F2
:100C900070C0ACF1040CDCF800C0CCF3881C07FB7E
:100CA0000CF4174F3F1F3F68C7F301477F1C7D00BF
:100CB000B4FBF5F7076002E0124F076000BF00BF0A
:100CC0000F4F3F6807F0F0010909104F7A5C076881
:100CD000D74047600A4F3F6807F4E051890A0B4F3D
:100CE0007A5C4768D7408760054F3F6807F46041EA
:100CF000490B064F7A5C4768D740C760F0BD0000DB
:100D0000083802400024F40000366E010000002084
:100D100021B1028842F04002028004E002884FF6CE
:100D2000BF731A400280704700B585B001210803E7
:100D3000FFF76AFF1820ADF80C000120ADF808009D
:100D40000220ADF806000020ADF81000ADF8040058
:100D5000ADF80000ADF80E004FF48270ADF802005F
:100D60004FF40070ADF80A006946024800F048F8F8
:100D700005B000BD003001401CB501210846FFF759
:100D800023FF02208DF8040000208DF806002020AB
:100D9000009000208DF8070003208DF805006946BB
:100DA0000F48FFF7A9FD8020009069460C48FFF727
:100DB000A3FD4020009069460948FFF79DFD0522EC
:100DC00011460748FFF7E0FD052206210448FFF71A
:100DD000DBFD052207210248FFF7D6FD1CBD000000
:100DE000000002400246002013890B400BB1012095
:100DF00000E0002070470146888970478181704774
:100E000010B50022028802F441520B884C8823431B
:100E10008C882343CC8823430C8923434C89234368
:100E20008C892343CC8923431A430280838B4FF25E
:100E3000FF74234083830B8A038210BD10B50446E0
:100E400000BF02210A48FFF7CDFF0028F9D0214654
:100E50000748FFF7D3FF00BF01210548FFF7C2FF96
:100E60000028F9D00248FFF7C6FFC0B210BD00004D
:100E7000003001407047000030B500228B071C0F86
:100E80000F2303FA04F20B4B8C1053F824309343D6
:100E9000084C8D1044F8253023468C1053F824302C
:100EA0008C07240F00FA04F42343024C8D1044F8FD
:100EB000253030BD083801400CB50020019000906D
:100EC0004148006840F480303F49086000BF3E4818
:100ED000006800F4003000900198401C01900098D8
:100EE00018B90198B0F5A04FF1D13748006800F467
:100EF000003010B10120009001E000200090009827
:100F0000012860D130484030006840F080502E49C0
:100F1000403108602D48006840F440402B4908608B
:100F200029480830006828490831086008460068E8
:100F300040F4004008600846006840F4A050086093
:100F40002348091F0860081F006840F08070091FCF
:100F5000086000BF1C48006800F000700028F9D04D
:100F60001A48006840F480301849086000BF1748EC
:100F7000406800F480300028F9D01448006840F43C
:100F800000301249086000BF1048406800F400308B
:100F90000028F9D040F205700E4908600A48083070
:100FA000006820F00300084908310860084600681E
:100FB00040F00200086000BF03480830006800F0FD
:100FC0000C000828F8D10CBD003802400070004029
:100FD000185A4007003C0240042808D14FF0E02195
:100FE000096941F004014FF0E022116107E04FF080
:100FF000E021096921F004014FF0E02211617047FE
:101000007047000010B51548006840F4700013499F
:1010100008601348006840F0010011490860002092
:101020000F49083108600E4800680E4908400C4915
:1010300008600D48091D0860081F006820F4802022
:10104000091F0860002006490C310860FFF734FFD3
:101050004FF0006001498039086010BD88ED00E064
:1010600000380240FFFFF6FE1030002410B50446A1
:1010700000204FF0E02108610420FFF7ADFF014898
:10108000048010BD1200002010B50121044800F0BA
:1010900018F8012803D10121014800F003F810BD20
:1010A00000100040CA430282704721B1028842F01A
:1010B0000102028004E002884FF6FE731A400280AB
:1010C000704730B50246002000230024158A05EA47
:1010D0000103958905EA010413B10CB1012000E078
:1010E000002030BD01894FF6F87211400181704730
:1010F00000220288184B98420ED0184B98420BD011
:10110000B0F1804F08D0164B984205D0154B98424D
:1011100002D0154B984204D14FF68F731A404B887A
:101120001A43124B984207D0114B984204D04FF605
:10113000FF431A400B891A4302804B68C3620B8835
:101140000385054B984202D0044B984201D18B7A1B
:1011500003860123838270470000014000040140A0
:101160000004004000080040000C00400010004057
:10117000001400400EB501211020FFF735FD0B488B
:10118000FFF7B0FF0020ADF80800ADF802004FF601
:10119000FE7001902C20ADF8000000208DF80A00B0
:1011A00069460248FFF7A4FF0EBD00000010004092
:1011B00000B587B001218807FFF716FD0121102037
:1011C000FFF702FD02208DF8180000208DF81A00AC
:1011D0004FF48070059001208DF81B0003208DF8DE
:1011E000190005A91748FFF787FB02208DF81800A2
:1011F0008020059005A91348FFF77EFB08221146C1
:101200001048FFF7C1FB082207210E48FFF7BCFB7F
:101210004FF4E13001900020ADF810000C20ADF843
:101220000E000020ADF80C00ADF80A00ADF8080083
:1012300001A9054800F028F80121034800F00AF848
:1012400007B000BD001002400078004010B5FFF765
:10125000AFFF10BD21B1828942F40052828104E0C7
:1012600082894DF6FF731A40828170470246002042
:10127000B1F5007F00D100BF13880B400BB10120F6
:1012800000E00020704700002DE9FF4705460E46AC
:101290000024A14600BFA046B08900B100BF2C8A3F
:1012A00024F44054F08804432C82AC8941F20C6051
:1012B0008443B08831890843718908430443AC8171
:1012C000AC8A24F44074B0890443AC826846FFF7CA
:1012D000ABFC2048854202D01F48854202D1DDF890
:1012E0000C9001E0DDF80890A88900F4004040B1BE
:1012F00009EBC90000EB091031684900B0FBF1F7B8
:1013000007E009EBC90000EB091031688900B0FB68
:10131000F1F76420B7FBF0F004012009642101FB20
:101320001078A88900F4004040B1322000EBC800DA
:10133000B0FBF1F000F00700044308E0322000EBBE
:1013400008106421B0FBF1F000F00F0004432C8181
:10135000BDE8FF870010014000140140C1F30802FE
:101360008280704700BFFEE70FB4054B10B503A99C
:10137000044A029800F05EFE10BC5DF814FB000009
:10138000C9270008200000204100080218BF0420DF
:101390000A0E18BF40F001004FF07F4232EA01010F
:1013A00008BF40F00200012808BF05207047000078
:1013B00010EE101A08B5444A6846B2EB410F28D91E
:1013C0004FF0E640B0EB410F94BF00204FF0FF30EC
:1013D00000900098002861DB60EE000A10F0010F19
:1013E00045D010F0020FDFED391A9FED391A00EEEB
:1013F000E11ADFED381A40EE811A21EEA01AF0EE64
:10140000400A40EE010A08BFF1EE600AB0EE600A41
:1014100008BD314B21F0004293423CD911F0004FFE
:10142000DFED2E0A20EE201ADFED2D0A19BF31EE76
:10143000601A71EE200A31EE201A71EE600ABDEEDC
:10144000E01A11EE100A9FED271A00F0030000EEDB
:10145000C10A9FED251A009000EEC10A9FED231AE4
:1014600000EEC10A9FED221A00EEC10AB1E79FED1E
:10147000211A9FED210A10F0020F00EE810A9FED64
:101480001F1A00EE801AB7EE000A00EE810A18BF9C
:10149000B1EE400A08BD00F04BFC9AE710EE100ACE
:1014A0004000B0F17F4F3CBFB7EE000A08BD07D146
:1014B0004FF0010000F0F6FCBDE8084000F020BC51
:1014C000BDE8084000F016BCB61F927E336D4C3963
:1014D000DA82083CA0AA2ABE490E494683F9223F77
:1014E0000000004B0000C93F00A0FD390020A233DE
:1014F0001A61342CB93AB2BACA9F2A3DDDFFFFBE49
:1015000010B510EE100A2DED068BB7EE001A10EE96
:10151000901AB0EE418A0022A0F5000CDFEDFE9A91
:101520004FF00073BCF1FE4F4FF07F4403EB410CD2
:1015300080F0B481BCF1804FC0F02082F7490144B3
:101540009FEDF73AB1F5005F40F2D48200F58021BB
:10155000CB0C03F00F0101EE901AC3F307137F3B8E
:10156000A0EBC350B8EEE12A00EE100A1A44DFEDFA
:10157000ED2AF0EE411A42EE221AF0EE613A70EED8
:10158000232A30EE632A12EE900A00F500606FF312
:101590000B0001EE900A73EEE13A33EE804AC1EEA1
:1015A000223A22EE230A10EE100A00F500606FF3D3
:1015B0000B0000EE100A00EE612A00EE442A62EEF3
:1015C000232A70EE221A21EEA12ADFEDD73A02EE8D
:1015D000233A23EE023A20EE012A22EE811A03EE8C
:1015E000211A32EE010A10EE100A00F500606FF3C6
:1015F0000B0000EE100A72EE401A31EE812A9FEDC8
:10160000CB1A60EE011A9FEDCA1A20EE011A9FED67
:10161000C90A02EE001A31EE810A10EE100A00F536
:1016200000606FF30B0000EE100AC34871EEC01AA1
:1016300031EE812A784400EBC10090ED003AD0ED04
:10164000011A100101EE100AF8EEC12A32EE211A39
:1016500031EE001A31EE031A31EE221A11EE100AA1
:1016600000F500606FF30B0009EE100A39EE621A04
:1016700031EE431A31EE400A30EE610A32EE40AAF2
:1016800010EE900A002100F500606FF30B0008EEE9
:10169000900A084670EEE8AAFEF7EAFF29EE280A4B
:1016A00000F00C01F0EEC00A10EE900AB0F18B4F82
:1016B0000DDD10EE900AB4EB400F08D310EE100AC7
:1016C0004FF08B4262F31E0008EE900A13E069EEC1
:1016D0002A0A38EEAA1A4AEE010A30EE201A11EE52
:1016E000100A00F500606FF30B0008EE900A30EE70
:1016F000680A70EE209A0C20FEF7BAFF38EEA90AAD
:10170000B5EEC00AF1EE10FA34BFFEEE000AF6EEB6
:10171000000A30EE800ABDEEC00A10EE100A011178
:1017200000EE101AF8EEC00A00EE100AB8EEC00A79
:1017300038EEC00A30EE290ADFED801A9FED801ADC
:1017400000EE211ADFED7F1A7F4900F00F0040EE16
:10175000011A21EE800A794401EB800191ED001A13
:101760007A49794401EB8001D1ED001A784901EE04
:10177000801A794401EB8000764990ED000A31EE41
:10178000001AB0EEE00A10EE100A884215DA10EEE8
:10179000100AB4EB400F10D39FED6F0A30EE800AB1
:1017A000DFED6E0A20EE200A68EE010ABDEC068B22
:1017B000BCEEC00A20EE200A10BD10EE100A6849E7
:1017C000884243DA10EE100AB4EB400F3ED3BDEE70
:1017D000E00A68EE010A10EE100A00EBD072511018
:1017E000C90501F17E5100EE101AA0EB6200C005A0
:1017F00060EE200A00F17E5000EE100A60EE808A52
:1018000018EE900AB4EB400F0FD1022000F04AFB13
:1018100000F07EFA10EE101A18EE100ABDEC068BDE
:1018200061F31E0000EE100A10BD18EE900A400091
:1018300011D018EE900AFFF7A7FD042808BF00F0AA
:101840006FFAB0EE680ABDEC068B10BDF5EEC00A6B
:10185000F1EE10FA0FD2022000F024FB00F060FA43
:1018600010EE101A18EE100ABDEC068B61F31E0084
:1018700000EE100A10BD022000F014FB00F048FA40
:1018800010EE101AB0EE480A10EE100ABDEC068BEE
:1018900061F31E0000EE100A10BD00BFBCF1804FC6
:1018A0006CD300BF00F1FF43B3F1FE4F24D200BF61
:1018B000B0EEC00A10EE100AC1F3C7537F2B0DDB48
:1018C000972BBFF63BAEC3F196034FF0010C0CFA19
:1018D00003F3A3F1010C1CEA010F08D0012000F072
:1018E000E1FABDEC068BBDE8104000F009BA0B42EE
:1018F00018BFBFEE008A21E643001CBF4FF0807383
:10190000B3EB400F34D96FF01A02DFED161A20EE58
:10191000210A10EE100A27E000000000001080C02D
:10192000ABAAAA3E0000803D7EE24C3E00B03842A9
:10193000D49AB8BB3BAA384268190000FC596337F7
:10194000C9FF753A1872313D061900003A190000B6
:10195000AA1800000000FC420000FE420000004BFC
:10196000000040430000004D10F0004FA0D1E5E51D
:10197000A0F50003B3F1FE4F21D2DFE503EB4103F5
:10198000B3F1007F11D3F5EEC00AF1EE10FA05D1E4
:10199000430018BFB4EB400F76D883E701F0004155
:1019A00041F0FC5100EE901A7CE7B3F1807F06D243
:1019B00010EE903AA3F5000300EE903A72E720F0A3
:1019C00000426FF0FF4C604C02EB0C03A34210D3BB
:1019D00021F000439C44A4450BD3B0F17E5F18BFB7
:1019E0005FEA410C50D0B2F1FF4F98BFB3F1FF4F07
:1019F00005D9BDEC068BBDE8104000F07EB9B0F112
:101A0000FF4F0FD0C1F3C7527F2A09DB972A11DAA3
:101A1000C2F19602012303FA02F2531E0B4205D0D3
:101A2000002208E011F0004F55D128E00A4218BF0B
:101A3000012200D1022210F5000F13D028B3B0F11B
:101A4000004F26D010F1814F4FD04FF0FE42B2EB45
:101A5000400F94BF01200020012202EBE171884277
:101A600039D10CE011F0004F02D0012A38D032E019
:101A7000012A02BF9FED350ABDEC068B10BD9FED1C
:101A8000340ABDEC068B10BD2FE011F0004F0CD1D5
:101A900021E0B1F1FF4F1ED011F5000F05D011F07C
:101AA000004F15D00AB1012A08D0022000F0FAF93F
:101AB000BDEC068BBDE8104000F012B9022000F02A
:101AC000F1F900F00DF9BDEC068BB1EE400A10BD46
:101AD0000AB1012A04D0B0EE690ABDEC068B10BD34
:101AE000BDEC068B9FED1B0A10BDBDEC068BB7EE5F
:101AF000000A10BD30EE410AB5EE001A9FED172A1C
:101B000000EE413AB6EE001A60EE001A00EE431AFB
:101B100061EEC11A9FED101A20EE011A20EE020AA2
:101B20009FED0F2A01EE820A71EE001A11EE900A63
:101B300000F500606FF30B0009EE100A31EE491A50
:101B400031EE00AA9CE50000FFFF3F00000080FF8F
:101B50000000807F0000008000B0B841D49A38BBFC
:101B60003BAAB84100B510EE101A2DED028B81B0E2
:101B70004D4A6846B2EB410F3CD94FF0E640B0EB1E
:101B8000410F94BF00204FF0FF3000900098B0EE5E
:101B9000408A00285FDB28EE080ADFED440A9FED4B
:101BA000441A00EE201ADFED430A40EE010A9FEDD1
:101BB000421A00EE201ADFED410A10F0010F40EE4C
:101BC000010A9FED3F1A00EE201A61EE000AB0EE06
:101BD000480A08EE200A02BF01B0BDEC028B00BD2E
:101BE000BFEE001A01B0C1EE000ABDEC028BB0EEF0
:101BF000600A00BD334B21F00042934228D911F016
:101C0000004FDFED310A20EE201ADFED300A19BF58
:101C100031EE601A71EE200A31EE201A71EE600A80
:101C2000BDEEE01A11EE100A9FED291A00F0030034
:101C300000EEC10A9FED271A009000EEC10A9FED49
:101C4000261A00EEC10A9FED251A00EEC10A9DE793
:101C500000F06EF89AE718EE100A4000B0F17F4FDE
:101C60000DD218EE100AFFF78FFB042808BF00F012
:101C700057F8B0EE480A01B0BDEC028B00BD09D1A7
:101C8000012000F00FF901B0BDEC028B5DF804EB10
:101C900000F036B801B0B0EE480ABDEC028B5DF83A
:101CA00004EB00F027B80000B61F927EBBE9223C8F
:101CB0000C6D063B8A76CE3CACB5593D35A1083E4D
:101CC00029AAAA3E490E494683F9223F0000004B4B
:101CD0000000C93F00A0FD390020A2331A61342C56
:101CE000DFED030AB7EE001A81EE200A704700000C
:101CF0000000000030EE000A704730EE200A704706
:101D0000DFED020A80EEA00A70470000000000002C
:101D10009FED020A20EE000A7047000000000070EC
:101D20009FED020A20EE000A70470000000000103C
:101D30002DE9F0014FF07F42B2EB410F9FBF4FF012
:101D4000FF310160BDE8F00170474FF0004242EA08
:101D50000123C1F3C752783A551112F01F0C434CBE
:101D6000CCF120067C44C1F3C752A2F178024FEABD
:101D7000621204EB820254F8254008BFD2E90156F2
:101D800012D0556804FA0CF425FA06F73C4397681C
:101D900005FA0CF527FA06F8D26807FA0CFCF240AF
:101DA00045EA08054CEA0206A4FB034CA5FB0352D6
:101DB000A6FB03631D449D4234BF01260026131970
:101DC000334416B1934202D903E0934201D2012277
:101DD00000E00022624402F1200C9206DC0C42EA90
:101DE000443200EE102A5B03DFED210AF8EEC01A40
:101DF00000EE103A4FEA9C1C11F0004FB8EE400A7A
:101E0000C0F800C020EE201A00EE105ADFED190ACB
:101E1000B8EE400A20EE200A71EE810A70EE800AC8
:101E200010EE902A02F500626FF30B0200EE902A8A
:101E300070EEE11A31EEC11ADFED101A30EE411AE0
:101E40009FED0D0A20EE800A01EE210A9FED0C1A8B
:101E500000EE810A04BFBDE8F0017047CCF180516B
:101E60000160BDE8F001B1EE400A70477813000050
:101E7000000000360000802C22AAFD29DB0FC92FAC
:101E80000000C92F02E008C8121F08C1002AFAD1B9
:101E900070477047002001E001C1121F002AFBD1EA
:101EA00070470000014908607047000024000020CE
:101EB0002DE9FF5F82B00021DDE90430020DDDF87D
:101EC00040B0034318D044F61050A2F2FF32424310
:101ED0001514119801281FD0A5EB0B00401C5FEAD8
:101EE000000A4FF000064E4FDFF83891B0465046DA
:101EF00015D5CAF1000413E0119801244AA3012862
:101F000001D16FEA0B010298119AC0E90031C0E9D2
:101F1000024206B0BDE8F09FCBF10000DFE70446C7
:101F20000021404A491842EB0450CDE9001012E06C
:101F3000E00707D032463B4640464946FEF786FA60
:101F40008046894632463B4610461946FEF77EFAE1
:101F500006460F466410002CEAD1DDE90401DDE9F4
:101F60000023BAF1000F06DAFEF770FA42464B463C
:101F7000FEF76CFA05E0FEF7DBFA42464B46FEF749
:101F8000D7FA04460E460022284BFEF759FB03D829
:101F90004FF0FF30014607E00022254B2046314636
:101FA000FEF7ADF9FEF733FB102409E0002C0ADB45
:101FB0000A220023FEF772F9039B30321A55641E81
:101FC00050EA0102F2D1641C039AC4F111031444D3
:101FD000119A012A03D0012208430DD10AE00843D7
:101FE00004D000204FF0110B119072E7A3EB0B050A
:101FF0006D1E0DE05B4504DD4FF0000205F10105AB
:1020000004E003DA4FF00002A5F10105002AECD04C
:1020100002981199C0E90231C0E9004579E7000052
:10202000000014400000F03F300000000000F043CA
:102030000000E03F2DE9FF4F95B09A4688460646DE
:102040000025EEE1252877D100242746F94A012111
:10205000039400E0044316F8013F203B01FA03F02B
:102060001042F7D130782A2811D06FF02F03307842
:10207000A0F13002092A16D8039A44F0020402EBB8
:10208000820203EB42021044761C0390EFE758F8FB
:10209000042B0392002A03DA504244F400540390C4
:1020A00044F00204761C30782E2816D116F8010F61
:1020B00044F004042A280DD06FF02F023078A0F1EC
:1020C0003003092B09D807EB870302EB4303C7183A
:1020D000761CF3E758F8047B761C30786C280FD018
:1020E00006DC4C2817D068280DD06A2814D104E0EB
:1020F000742810D07A280FD10DE044F400140AE0BF
:1021000044F4801401E044F440147278824202D115
:1021100004F58014761C761C307866280BD013DC0E
:10212000582877D009DC002875D04528F6D04628F5
:10213000F4D047281AD193E118E0632835D06428F9
:1021400079D0652812D18BE1702873D008DC67281C
:10215000F1D069286FD06E280DD06F2806D1ACE081
:1021600073282CD0752874D0782853D052461799EC
:1021700090476D1C54E1C4F30250022809D0032893
:102180000DD0D8F8001004280DD00D6008F1040817
:1021900046E1D8F80010EA17C1E90052F6E7D8F88E
:1021A00000100D80F2E70D70F0E718F8041B8DF8B1
:1021B000001000208DF80100EB46012003E058F8E4
:1021C00004BB4FF0FF3061074FF0000102D40DE077
:1021D00009F101018946B9420FDA8145F8DB1BF8A4
:1021E00009100029F4D108E009F101018946814272
:1021F000FADB1BF809100029F6D103985346A0EB2F
:10220000090721463846179A00F080FA284400EB67
:10221000090507E044E008E10DE01BF8010B524618
:1022200017999047B9F10109F7D25346214638462C
:10223000179AF2E039E00A21C4F302524FF0000B82
:102240000091022A06D058F8040BC117032A09D0BE
:102250000AE023E008F1070020F00702F2E802019B
:10226000904605E000B2C117042A01D140B2C1175F
:10227000002906DA0A460021404261EB02012D22C4
:1022800002E0220504D52B228DF80420012203E070
:10229000E20701D02022F7E7914657E00A2100E04B
:1022A00010214FF0000B00910BE010214FF0000BBC
:1022B00044F004040827009103E008204FF0000BCD
:1022C0000090C4F30252022A05D058F8040B0021F2
:1022D000032A08D008E008F1070020F00702F2E81E
:1022E0000201904603E080B2042A00D1C0B24FF050
:1022F000000922072AD53278702A07D0DDF800C0FD
:102300008CF0100C5CEA0B0C05D00EE040228DF82E
:102310000420012208E050EA010306D030238DF8A2
:1023200004308DF8052002229146009B83F00803BB
:1023300053EA0B030AD150EA010201D1620705D525
:1023400030228DF804204FF001097F1E3278582A80
:1023500004D039A20C920CAA02920BE03BA2F9E73E
:102360005B46009AFDF79AFF0C9B9B5C029A521EFB
:102370000292137050EA0102F2D1029804A9081ADD
:1023800000F1200B600702D524F4803400E001271F
:102390005F4502DDA7EB0B0000E0002000EB0B0126
:1023A000009003984944401A0390E00306D4534632
:1023B0002146179A039800F0A9F90544002706E082
:1023C00001A85246C05D179990476D1C7F1C4F4570
:1023D000F6DBE0030CD553462146179A039800F02C
:1023E00095F9054404E030205246179990476D1C3A
:1023F0000099481E00900029F5DC08E00298029937
:1024000052460078491C0291179990476D1CBBF108
:102410000001ABF1010BF1DC5BE100F065F9054473
:10242000761C307800287FF40DAE19B02846BDE840
:10243000F08F00000928010030313233343536374F
:102440003839616263646566000000003031323300
:1024500034353637383941424344454600000000A0
:10246000600700D4062708F1070020F00700F0E815
:102470000223804603F0004C5FEA0C0001D097A0D5
:1024800009E0200501D596A005E0E00701D095A060
:1024900001E0AFF24C001390307823F00043652840
:1024A0000CD006DC452809D046281DD047287FD10E
:1024B0003BE0662818D067287AD136E00021112F3A
:1024C00001DB112000E0781CCDE9000104A90CA873
:1024D000FFF7EEFCDDE90D010C9A4FF0000B07F160
:1024E0000109109200914EE04FF000400097CDE9B5
:1024F000011004A90CA8FFF7DBFCDDE90D020C9B21
:102500000F994FF0000B91461093009211B9791C6E
:1025100000EB0109B7EB090003D4C0F1FF3B07F161
:102520000109A9EB0700019042E0012F00DA012721
:102530000021112F01DD112000E03846CDE9000116
:1025400004A90CA8FFF7B4FCDDE90D010C9A009179
:102550004FF0000BB946109221070FD4009A4A455C
:1025600003DA914601E0A9F10109B9F1010F05DD96
:10257000109AA9F10101515C3029F4D0B84202DA75
:1025800010F1040F03DA0121CDE9011010E0002859
:1025900003DC8344A9EB000102E0411C494500DD56
:1025A0008946A0EB0B00401C01904FF000400290C8
:1025B000200705D40198484502DB4FF0FF30019019
:1025C00000208DF84B0002980DF14B07B0F1004F41
:1025D00025D002200C902B200D90029800280CDAB8
:1025E000404202902D200D9007E00A210298FDF74D
:1025F0003FFE3031029007F8011D0C99481E0C90E7
:102600000029F2DC02980028EFD1791E0D9808709D
:10261000307800F0200040F0450007F8020D11A8C6
:10262000C01BC01D02901398007800B1012000EB80
:102630000901019801EBE071029801440398401AE6
:10264000401E0390E00306D453462146179A039890
:1026500000F05CF805441398007818B152461799B9
:1026600090476D1CE00323D553462146179A0398E3
:1026700000F04CF805441BE0BBF1000F07DB0098AD
:10268000584504DD1098179910F80B0001E01799D0
:1026900030205246904701980BF1010B401E05F186
:1026A0000105019004D12E205246179990476D1CC8
:1026B000B9F10001A9F10109DEDC05E017F8010B11
:1026C0005246179990476D1C0299481E02900029A6
:1026D000F4DC53462146179A03989EE62D0000002D
:1026E0002B000000200000002DE9F04104460025E9
:1026F0001E461746880404D405E039462020B0471A
:102700006D1C641EF9D52846BDE8F0812DE9F04125
:10271000044600251E469046C80301D5302700E038
:102720002027880404D505E041463846B0476D1C93
:10273000641EF9D52846BDE8F08170B504460A202C
:1027400094FBF0F594FBF0F100FB114604E042F23B
:10275000107000F00BF86D1E002DF8D12EB14FF463
:102760007A7106FB01F000F001F870BD0146114AD4
:1027700012884A434FF0E0235A6100229A611A46B8
:10278000126942F001021A6100BF4FF0E0221069A5
:1027900000F001021AB100F48032002AF5D04FF0A7
:1027A000E022126922F001024FF0E0231A610022B8
:1027B0009A6170471200002010B5FEF7A8F9FEF7E5
:1027C0002DF8FEF711F810BD70B504460D46E1B2C4
:1027D0000548FEF7C3FD00BF80210348FEF746FD14
:1027E0000028F9D0204670BD007800409CB018A8A1
:1027F000FEF71AFAB420FEF739FCFEF727FD00F0C9
:10280000B9FB00F0A3F800F0C1FBFFF7D5FF04A867
:1028100000F070FB002006E004A931F810102DF83C
:102820001010411CC8B20828F6DB684600F00AFB0D
:102830000649087008E004A800F034F904A800F084
:10284000DFF80A20FFF779FFF5E70000100000200D
:10285000B0EE401A9FED290AF0EE400A0020284908
:10286000284A127801EB820181ED001A2549097886
:10287000491C052291FBF2F302FB1311214A11704E
:102880002149097801BB11460978E9B901211E4A9D
:10289000117000BF0AE01A4901EB800191ED000AB6
:1028A00030EE200AF0EE400A411CC8B20528F2DBE7
:1028B000B1EE040AC0EE801A1449C1ED001AF1EE1F
:1028C000041A80EEA10A70470F49097811B9B0EED9
:1028D000410AF8E700200AE0094901EB800191ED87
:1028E000000A30EE200AF0EE400A411CC8B205286A
:1028F000F2DBF1EE041A80EEA10AE4E7000000002A
:10290000540100201C0000201D00002018000020A1
:102910001CB501210420FEF757F901208DF80400B1
:1029200000208DF806000420009000208DF807009C
:1029300003208DF8050069460348FDF7DDFF0421FB
:102940000148FEF747F81CBD0008024010B5FFF72C
:10295000DFFF80216B20FEF7BDF86420FFF7EDFE5E
:1029600000216B20FEF7B6F818211B20FEF7B2F805
:1029700000211C20FEF7AEF800216C20FEF7AAF81B
:1029800001216B20FEF7A6F800211920FEF7A2F81E
:1029900003211A20FEF79EF880213720FEF79AF8CF
:1029A00001213820FEF796F8002417E004EBC4015B
:1029B0000E4A02EB8100DFED0E0A9FED0E0AFEF7D4
:1029C0000DF804EBC4010C4A02EB8100F3EE0E0A91
:1029D0009FED080AFEF702F8601CC4B2032CE5DB89
:1029E000B7EE000A054880ED0F0A10BD2800002050
:1029F0000000A04200007A44940000200001002062
:102A000010B52DED028B0446214890ED000ADFED54
:102A1000210A80EE201AB0EE418ADFED1F0AB0EEE7
:102A2000480AFEF76DFDF7EE000A30EEC00ADFED52
:102A30001B0A20EE200A84ED120A94ED0C0ADFED49
:102A4000150A80EE201AB0EE418ADFED130AB0EECF
:102A5000480AFEF755FDF7EE000A70EEC00A94ED45
:102A6000120A9FED0E1A11EE200A84ED130A94ED5E
:102A7000130A10EE101A0846FDF7E7FB41EC180B9D
:102A800053EC182B06A0FEF76FFCBDEC028B10BDBB
:102A90001800002000507D44AEDC423E002A2D4745
:102AA00025660A002DE9F05F2DED028B0446022118
:102AB000002000F067F920610221102000F062F987
:102AC000606161896069A0EB0120A061A069C31702
:102AD000A1890022A0FB015C03FB01C100FB0211E4
:102AE0004FF4000200232846FDF77EFB4FF4FA6105
:102AF00010EB010921894FF00002A0694FEAE07351
:102B0000A1FB005C02FB00C001FB03014FF040028F
:102B10004FF000032846FDF767FBA388002252040C
:102B200042EAD3325B04C0185141C4E90801E1888C
:102B30000022A069C317A1FB005C02FB00C001FBDF
:102B40000301802200232846FDF74EFB6388002204
:102B5000120442EA13421B04C0185141C4E90A019D
:102B6000002020646064A063E0636063B9F5FA6FDD
:102B70007EDAA06980FB00514FF000420023284616
:102B8000FDF732FB60634FEAE9704FF4FA62B9EB8C
:102B9000020160F10000A1FB012300FB013301FBF6
:102BA000003105230020A2FB035C01FB03C102FBF3
:102BB0000011022203462846FDF716FBC4E90E0168
:102BC0004FEAE9704FF4FA62B9EB020160F10000DC
:102BD000A1FB012300FB013301FB0033052100278A
:102BE000A2FB015C03FB01C102FB071104223B466F
:102BF0002846FDF7F9FAC4E910015F48814540DA3B
:102C00004FEAE97040F2DC5219EB020140F100009A
:102C1000A1FB012300FB013301FB00310723002549
:102C2000A2FB030601FB036102FB05130546D4E981
:102C30000E12691843EB0200C4E90E104FEAE97066
:102C400040F2DC5219EB020140F10000A1FB01232C
:102C500000FB013301FB00330B210020A2FB015CD0
:102C600003FB01C102FB001102220346284600E0DB
:102C700007E0FDF7B9FAD4E91032C0185141C4E9B0
:102C80001001606BA9EB0009D4E90E23D4E9081008
:102C9000891A60EB0300C4E90810D4E90A30D4E9CA
:102CA0001012591A60EB0200C4E90A100023D4E99B
:102CB0000A122069A0FB017B03FB01B100FB02119A
:102CC0004FF400123846FDF78FFA0746D4E908237F
:102CD000BD1A61EB03014FF4004200232846FDF7C3
:102CE00083FA824600EE10AAB8EEC00ADFED230A8E
:102CF00080EE201A84ED0C1A94ED0C0A10EE101AD6
:102D00000846FDF7A2FA41EC180B53EC182B1CA057
:102D1000FEF72AFB00EE109AB8EEC00ADFED170AA4
:102D200080EE201A84ED071A94ED070A10EE101AAF
:102D30000846FDF78AFA41EC180B53EC182B10A04B
:102D4000FEF712FBD4ED0C0AB0EE600AFFF780FD2F
:102D500084ED0C0A94ED0C0A10EE101A0846FDF7EB
:102D600074FA41EC180B53EC182B05A0FEF7FCFA93
:102D7000BDEC028BBDE8F09F24FAFFFF0000C842C3
:102D800025662C0070B506460D4680211548FDF7D6
:102D90001EFE06F140012944C8B2FEF74FF828464E
:102DA00000F0C4F880210F48FDF714FE80210D4883
:102DB000FDF70DFE0020FEF741F80020FEF73EF87B
:102DC000044624020020FEF739F8044324020020C0
:102DD000FEF734F8044380210248FDF7FBFD20464E
:102DE00070BD0000000C024070B50546002400BF15
:102DF00023E080211248FDF7EAFD6100A031C8B24E
:102E0000FEF71CF80020FEF719F825F8140035F835
:102E100014004FF6FF7101EA002025F8140000208D
:102E2000FEF70CF835F81410084325F8140080213B
:102E30000348FDF7CFFD601CC4B2082CD9DB70BD80
:102E4000000C024030B502460021D489D08900F43C
:102E50007F40D081002321E003F0010020B1581011
:102E600012F81000414004E0581032F8100081EAD6
:102E7000202108250EE001F4004028B14FF4405015
:102E800080EA410081B203E04FF6FF7000EA4101A1
:102E9000681EC5B2002DEEDC581C03B2102BDBDB24
:102EA0000F2000EA2131D48104F00F00884201D1C3
:102EB000012030BD0020FCE71CB501210820FDF7F2
:102EC00083FE01208DF8040000208DF8060080208C
:102ED000009000208DF8070003208DF8050069465A
:102EE0000348FDF709FD80210148FDF773FD1CBD76
:102EF000000C024010B50446FFF7DEFF00F004F8B6
:102F00002046FFF771FF10BD10B580210648FDF780
:102F10005EFD1E20FDF792FF0320FFF70EFC8021CF
:102F20000148FDF757FD10BD000C024010B50446E6
:102F3000092C1BD2DFE804F0051A0A1A0E1A121A1D
:102F400016004FF46170FFF711FC10E00320FFF74B
:102F5000F4FB0CE00420FFF7F0FB08E00620FFF78D
:102F6000ECFB04E00A20FFF7E8FB00E000BF00BF35
:102F700010BD000010B5FDF7FFFEFDF7D5FE0121E5
:102F80000148FDF7C5FE10BD0030014010B5FEF749
:102F9000F1F801210148FEF788F810BD001000404B
:102FA00000000000000000000000B33FB2BE7D3A08
:102FB00000002E40DFCF513800007E40BF51FABAEA
:102FC00000E0A44019DAC3BA00E0C840C2ED8AB9F3
:102FD0000040EB40CD1F2CBA001006412AFFFABA80
:102FE00000C01541DFCFD13700D024419A97703A05
:102FF0000050334189478E3600404141E75B9D38A0
:1030000000B04E41C00A98B900A05B41558F943A78
:1030100000306841DA92C0BA0040744162B3C63AE7
:103020000000803F00A0853F00908B3F00C0913F93
:103030000030983F00F09E3F00F0A53F0050AD3FAC
:103040000000B53F0000BD3F0060C53F0020CE3FFF
:103050000040D73F00C0E03F00C0EA3F0020F53FFE
:10306000000000007D36AC397D3C3839EBDCF438AB
:10307000320A7E39124C26399B6AED39A4EE833927
:103080007F661E39F6398A392B426539A482113997
:103090005B991F39C3EECD39DDE7C637A5A22F39BD
:1030A0000000803FC3AA853FC2958B3FD3C3913FA9
:1030B000F037983F32F59E3FD7FEA53F3F58AD3FD2
:1030C000F304B53FA408BD3F2A67C53F8C24CE3F1B
:1030D000FD44D73FDFCCE03FC7C0EA3F7D25F53F49
:1030E000000000006E83F9A22915444ED15727FC39
:1030F000C0DD34F5999562DB4190433CAB6351FEF2
:10310000203100080000002028000000841E000874
:10311000483100082800002040050000941E0008E7
:10312000000000000102030401020304060708096D
:10313000000000000000000000507D44000000007E
:08314000000000000000000087
:04000005080001AD41
:00000001FF
