:020000040800F2
:1000000040310020E10100082905000835040008FE
:1000100025050008BD020008C90B0008000000000B
:10002000000000000000000000000000490100087E
:10003000D5020008000000008D010008F907000843
:10004000FB010008FB010008FB010008FB010008A0
:10005000FB010008FB010008FB010008FB01000890
:10006000FB010008FB010008FB010008FB01000880
:10007000FB010008FB010008FB010008FB01000870
:10008000FB010008FB010008FB010008FB01000860
:10009000FB010008FB010008FB010008FB01000850
:1000A000FB010008FB010008FB010008FB01000840
:1000B000FB010008FB010008FB010008FB01000830
:1000C000FB010008FB010008FB010008FB01000820
:1000D000FB010008FB010008FB010008FB01000810
:1000E000FB010008FB010008FB010008FB01000800
:1000F000FB010008FB010008FB010008FB010008F0
:10010000FB010008FB010008FB010008FB010008DF
:10011000FB010008FB010008FB010008B90800080A
:10012000FB010008FB010008FB010008FB010008BF
:10013000DFF810D000F0B0F800480047E50E0008E6
:10014000AFF3008040310020224B19680868B0E806
:10015000F00F80F30988BFF36F8F4FF0000080F33A
:1001600011884EF00D0E7047000000000648006830
:10017000006880F3088862B661B6BFF34F8FBFF3A3
:100180006F8F00DF00BF00BF08ED00E0EFF30980D4
:10019000BFF36F8F0F4B1A6820E9F00F106008B59E
:1001A0004FF0500080F31188BFF34F8FBFF36F8F74
:1001B00002F01CFA4FF0000080F31188BDE80840FF
:1001C00019680868B0E8F00F80F30988BFF36F8FF3
:1001D000704700BF40000020EFF30580704700002B
:1001E0000648804706480047FEE7FEE7FEE7FEE7D1
:1001F000FEE7FEE7FEE7FEE7FEE7FEE75908000838
:100200003101000840EA01039B0703D009E008C957
:10021000121F08C0042AFAD203E011F8013B00F8CB
:10022000013B521EF9D27047D2B201E000F8012B17
:10023000491EFBD270470022F6E710B513460A4666
:1002400004461946FFF7F0FF204610BD421C10F887
:10025000011B0029FBD1801A7047034611F8012BBE
:1002600000F8012B002AF9D11846704730B50B462B
:10027000014600202022012409E021FA02F59D42D6
:1002800005D303FA02F5491B04FA02F52844151EAA
:10029000A2F10102F1DC30BD064C074D06E0E0683A
:1002A00040F0010394E8070098471034AC42F6D3BD
:1002B000FFF742FF103300083033000800BFFEE7AD
:1002C00010B500F091FB00200149086010BD00004E
:1002D0002C000020704700001CB5064801210023B7
:1002E0008022CDE9001004A1064802F09DFC02F036
:1002F00013F91CBD3400002073746172745F746163
:10030000736B0000411C00082DE9F04102460025F6
:100310000026002000230024002791F803C00CF0E1
:100320000F0591F803C00CF0100CBCF1000F03D0C6
:1003300091F802C04CEA050591F800C0BCF1000F2D
:1003400031D0146800202BE04FF0010C0CFA00F3C0
:10035000B1F800C00CEA03069E4220D183004FF0A2
:100360000F0C0CFA03F7BC4305FA03FC4CEA040437
:1003700091F803C0BCF1280F06D14FF0010C0CFA24
:1003800000FCC2F814C00AE091F803C0BCF1480FA9
:1003900005D14FF0010C0CFA00FCC2F810C0401C53
:1003A0000828D1D31460B1F800C0BCF1FF0F34DDD0
:1003B000546800202EE000F1080C4FF0010808FA04
:1003C0000CF3B1F800C00CEA03069E4221D1830071
:1003D0004FF00F0C0CFA03F7BC4305FA03FC4CEA90
:1003E000040491F803C0BCF1280F05D100F1080CFA
:1003F00008FA0CF8C2F8148091F803C0BCF1480F59
:1004000007D100F1080C4FF0010808FA0CF8C2F807
:100410001080401C0828CED35460BDE8F08102460D
:10042000002093680B400BB1012000E000207047D2
:100430000161704700BFFEE710B504461C48007814
:10044000012820D101211B48FFF7E9FF012806D030
:100450004FF400511848FFF7E2FF012813D114B9F7
:1004600000201349087001211248FFF7D8FF012826
:1004700000D110BD4FF400510F48FFF7D0FF012805
:1004800001D10220F5E701210A48FFF7C8FF012842
:100490000BD04FF400510848FFF7C1FF012804D0EA
:1004A0000120034908700020E3E70020E1E7000095
:1004B00030000020000801400010014008B5012173
:1004C000082000F097F810208DF803002020ADF8E8
:1004D000000003208DF8020069460F48FFF714FF63
:1004E0000120ADF8000069460B48FFF70DFF022020
:1004F000ADF8000069460848FFF706FF02210648EC
:10050000FFF796FF01210448FFF792FF20210248E0
:10051000FFF78EFF08BD0000000C014010B5FFF78B
:10052000CDFF10BD00BFFEE7704708B54FF4A060D7
:1005300000F046F837208DF8000001208DF8030008
:100540008DF801008DF80200684600F001F808BD42
:1005500070B5002100230F22C47804B3154C246821
:1005600004F4E064C4F5E064210AC1F10403CA4064
:10057000447804FA03F184781440214309010E4CB5
:100580000678A155047804F01F050124AC400578D5
:100590006D11AD0005F1E025C5F8004109E00478D2
:1005A00004F01F050124AC40044D0678761145F88F
:1005B000264070BD0CED00E000E400E080E100E0CA
:1005C00002490143024A1160704700000000FA0529
:1005D0000CED00E029B1064AD2690243044BDA610E
:1005E00004E0034AD2698243014BDA61704700009C
:1005F0000010024029B1064A92690243044B9A61F5
:1006000004E0034A92698243014B9A6170470000FB
:100610000010024030B500210022002400232D4D9F
:100620006D6805F00C0121B1042905D0082923D1FA
:1006300005E0294D056022E0274D05601FE0254DAE
:100640006D6805F47012234D6D6805F48034022541
:1006500005EB92421CB9214D554305600BE01D4D41
:100660006D6805F400351DB11C4D5543056002E071
:10067000194D5543056002E0174D056000BF00BFEE
:10068000144D6D6805F0F0010909154D6B5C0568A6
:10069000DD4045600F4D6D6805F4E061090A104DBD
:1006A0006B5C4568DD4085600A4D6D6805F46051FE
:1006B000C90A0B4D6B5C4568DD40C560054D6D6832
:1006C00005F44041890B074D6B5CC568B5FBF3F53C
:1006D000056130BD0010024000127A0000093D00A3
:1006E000000000201000002010B500F001F810BD3F
:1006F0000CB50020019000903348006840F4803031
:100700003149086000BF3048006800F400300090B4
:100710000198401C0190009818B90198B0F5A06F9D
:10072000F1D12948006800F4003010B10120009098
:1007300001E0002000900098012843D12348006880
:1007400040F01000214908600846006820F00700CA
:1007500008600846006840F0020008601A484068D7
:10076000194948600846406848600846406840F4B7
:10077000806048600846406820F47C104860084665
:10078000406840F4E81048600846006840F0807017
:10079000086000BF0C48006800F000700028F9D025
:1007A0000948406820F0030007494860084640684F
:1007B00040F00200486000BF0348406800F00C00B1
:1007C0000828F9D10CBD00000010024000200240B2
:1007D000042808D14FF0E021096941F004014FF0ED
:1007E000E022116107E04FF0E021096921F00401E6
:1007F0004FF0E0221161704710B502F049FA01286C
:1008000001D002F013F810BD70B5044600204FF07F
:10081000E0210861401FFFF7DBFFE11704EB517196
:10082000C1F3CF010B4A1180E11704EB5171CD10D8
:100830004FF47A7045434FF0E020006940F0020029
:100840004FF0E021086108464561006940F0010071
:10085000086170BD2800002010B51348006840F002
:1008600001001149086008464068104908400E49D7
:100870004860084600680E4908400B490860084671
:10088000006820F4802008600846406820F4FE00DC
:1008900048604FF41F008860FFF726FF4FF00060AC
:1008A0000449086010BD0000001002400000FFF87D
:1008B000FFFFF6FE08ED00E010B50121074800F04B
:1008C00020F8012808D106480068401C0449086047
:1008D0000121024800F006F810BD0000001400409D
:1008E0002C000020CA430282704721B1028842F0E6
:1008F0000102028004E002884FF6FE731A40028073
:10090000704730B50246002000230024158A05EA0E
:100910000103958905EA010413B10CB1012000E03F
:10092000002030BD1AB183890B43838102E08389A3
:100930008B438381704701894FF6F8721140018122
:1009400070470000002202881D4B98420ED01D4BBC
:1009500098420BD0B0F1804F08D01B4B984205D085
:100960001A4B984202D01A4B984204D14FF68F731B
:100970001A404B881A43174B984207D0164B98429F
:1009800004D04FF6FF431A40CB881A4302808B886D
:1009900083850B8803850A4B98420BD0094B9842FC
:1009A00008D00E4B984205D00D4B984202D00D4B0B
:1009B000984201D10B7A038601238382704700009D
:1009C000002C0140003401400004004000080040B9
:1009D000000C0040001000400014004000400140A6
:1009E00000440140004801400EB501212020FFF7DE
:1009F000F1FD1048FFF79FFF0020ADF8020009202D
:100A0000ADF804004720ADF8000069460948FFF73B
:100A100099FF01210748FFF765FFFFF786FD0122D7
:100A200011460448FFF77EFF01210248FFF75DFFF2
:100A30000EBD00000014004021B1828942F4005232
:100A4000828104E082894DF6FF731A4082817047EB
:100A500000B585B0012144F20400FFF7CBFD4FF44F
:100A60000070ADF8100018208DF8130003208DF8E9
:100A7000120004A91348FFF747FC4FF48060ADF85B
:100A8000100004208DF8130004A90E48FFF73CFC69
:100A90004FF4E13000900020ADF80C000C20ADF8D0
:100AA0000A000020ADF80800ADF80600ADF804001B
:100AB0006946054800F018F801210348FFF7BCFF1C
:100AC00005B000BD0008014000380140024600208A
:100AD000B1F5007F00D100BF13880B400BB101209E
:100AE00000E00020704700002DE9F04786B0054681
:100AF0000E460024A24600BFA1460027B08900B1DF
:100B000000BF2F462C8A4CF6FF700440F088044347
:100B10002C82AC894EF6F3100440B088318908432A
:100B2000718908430443AC81AC8A4FF6FF4004400E
:100B3000B0890443AC8201A8FFF76CFD1F488742CF
:100B400002D1DDF810A001E0DDF80CA0A88900F4C6
:100B5000004040B10AEBCA0000EB0A1031684900BE
:100B6000B0FBF1F807E00AEBCA0000EB0A103168AD
:100B70008900B0FBF1F86420B8FBF0F00401200913
:100B8000642101FB1089A88900F4004040B13220A3
:100B900000EBC900B0FBF1F000F00700044308E0EF
:100BA000322000EB09106421B0FBF1F000F00F00DF
:100BB00004432C8106B0BDE8F087000000380140F6
:100BC000C1F308028280704700BFFEE70FB4054BF7
:100BD00010B503A9044A029800F02CF810BC5DF887
:100BE00014FB0000C10E0008C40000200FB4084B25
:100BF00010B504A902AA039800F01CF8044602A943
:100C0000002000F0F3F8204610BC5DF814FB000053
:100C1000ED0D000802E008C8121F08C1002AFAD131
:100C200070477047002001E001C1121F002AFBD16C
:100C3000704700002DE9FF4F8BB09A460F460546DE
:100C4000002606E025280BD052460D9990476D1CD2
:100C5000761C28780028F5D10FB03046BDE8F08F1B
:100C60000024A0460122604900E0044315F8013F3A
:100C7000203B02FA03F00842F7D128782E2817D13A
:100C800015F8010F44F004042A280ED06FF02F024B
:100C90002878A0F1300109290AD808EB880102EB75
:100CA000410100EB01086D1CF2E757F8048B6D1C45
:100CB000287869283ED006DC0028CDD063280BD0E8
:100CC000642804D136E0732810D075284BD05246E2
:100CD0000D999047761C85E017F8040B8DF80000FD
:100CE00000208DF80100E946012003E057F8049B3D
:100CF0004FF0FF3061074FF0000401D40AE0641C9C
:100D000044450DDA8442FADB19F804100029F6D1C3
:100D100006E0641C8442FCDB19F804100029F8D1B9
:100D2000264404E019F8010B52460D999047641EC1
:100D3000F8D257E001CF4FF00A0B002802DA404208
:100D40002D2102E0210504D52B218DF8241001214D
:100D500003E0E10705D02021F7E70DF12009089114
:100D60000CE00021F9E701CF4FF00A0BF9E75946F3
:100D7000FFF77CFA01F1300209F8012D0028F6D1C5
:100D8000ADEB090000F1200B600701D44FF0010822
:100D9000D84502DDA8EB0B0000E0002080460024CF
:100DA00006E009A85246005D0D999047641C761C28
:100DB00008988442F5DB04E0302052460D999047B4
:100DC000761CB8F10001A8F10108F5DC05E019F87E
:100DD000010B52460D999047761CBBF10001ABF117
:100DE000010BF4DC6D1C34E7092801000A68531C70
:100DF0000B601070704700002DE9F04707463E4633
:100E00002EB940F25B521DA124A0FFF7DFFE274858
:100E10000068864201D100242DE001F01DF87569BB
:100E20002348D0F800802348D0F8009001F05EF805
:100E3000454501D04D4501D102241CE01E488542A4
:100E400012D1B06A70B90324002007E006F15C01FA
:100E5000095C012901D1022402E0401C0128F5DBD4
:100E600000BF08E0022406E01448854200D00DB916
:100E7000042400E001242046BDE8F0872E2E5C4DBE
:100E80006964646C6577617265735C46726565520E
:100E9000544F535C7461736B732E63004572726FB1
:100EA000723A2025732C2025640D0A004000002092
:100EB000440000204800002004050020F004002029
:100EC00070B504460D46E1B20548FFF779FE00BF54
:100ED00080210348FFF7FAFD0028F9D0204670BDB5
:100EE0000038014010B5FFF7B3FD4820FFF78CFC38
:100EF000FFF714FBFFF7F0F9002010BD2DE9F041DA
:100F000005460E462948076800202949096881F8E6
:100F10005D0027480068001D00F0F2FE50B924482B
:100F2000006890F82C10012088402249096881430C
:100F300020480160681CD8B9D6B11F4948681C49CF
:100F4000096888601A4982680968CA60184909688E
:100F5000091D8268516016490968091D8160164A99
:100F6000134909684A6111460968491C11601AE071
:100F70007C190F4800684460BC4207D20C480168E5
:100F8000091D0E48006800F041FF0CE008480168A8
:100F9000091D0B48006800F039FF0A4800688442C8
:100FA00001D208480460BDE8F08100005400002030
:100FB00040000020580000200405002048000020C8
:100FC000440000207000002010B5044600F044FFEB
:100FD00031480068401C304908603048006840B91A
:100FE0002E4804600846006801280DD100F002FA7E
:100FF0000AE02B48006838B928480068C06AE16AEE
:10100000884201D82548046026480068401C2549CC
:10101000086008460068606494F82C10012088403D
:1010200021490968084320490860E16A01EB810110
:101030001E4A02EB81014868A0608268E260211DBF
:10104000826851608160E16A01EB8101174A02EB1D
:1010500081026261E16A01EB8101144A52F82110B8
:10106000491CE26A02EB8202104B43F8221000F0A6
:101070003DFF0B48006868B108480068C06AE16A33
:10108000884207D24FF0805009490860BFF34F8F64
:10109000BFF36F8F10BD0000500000204000002003
:1010A0005C0000206C00002058000020340200206A
:1010B00004ED00E010B500F0CFFE10480068D0B994
:1010C0000F4800F093FE0F4800F090FE0C480E49C8
:1010D00008600C480D49086000221021052001F02D
:1010E000BFFB064908600846006820B108A1034814
:1010F000006800F0ADFF00F0F9FE10BD9000002088
:10110000180500202C050020880000208C000020FD
:10111000546D72510000000010B516E000F09CFE06
:101120000C48C068C468201D00F0EAFD0A48006849
:10113000401E0949086009480068401E07490860C8
:1011400000F0D4FE204600F05FF804480068002854
:10115000E4D110BDF0040020500000204C0000201D
:1011600070B504460D46206C70B1216CE0680144F6
:10117000E160D4E90210884201D32168E160284689
:10118000226CE168FFF73EF870BD2DE9F04104469E
:101190000F4615464FF00008A66B206C48B9206832
:1011A00000282CD1A06801F07BFE80460020A060C2
:1011B00025E07DB93946226C6068FFF723F8216C81
:1011C000606808446060D4E90101884217D3206850
:1011D000606014E03946226CE068FFF713F8216C78
:1011E000E068411AE1602168E068884203D2216C1E
:1011F000A068411AE160022D01D106B1761E701C73
:10120000A0634046BDE8F08110B50446206B00F0B5
:10121000ABFE204600F0A8FE10BD00000146084AC3
:10122000126812680AB9012200E000220A600A6806
:1012300022B9034A1268D268106800E000207047A3
:101240008800002030B54FF42053154800F0070403
:101250002CB1C01D20F00700114C041B1B1B0246C3
:10126000104C226000240F4D6C60D018083820F01C
:1012700007000D4C206000240B4D2D686C600A4D5A
:101280002D682C601146441A4C60074C24680C6091
:10129000064D4C682C60064D4C682C6030BD00003B
:1012A000400500209C000020A4000020AC0000208D
:1012B000A800002000BFFFF72FFF064800680128A4
:1012C000F9D94FF0805004490860BFF34F8FBFF346
:1012D0006F8FF0E73402002004ED00E02DE9F041CB
:1012E00006460D4617469846069C0DB9246000E058
:1012F0002760E66325640121204601F0F7FA84F8AF
:1013000050800020A064BDE8F08100002DE9F05F6E
:1013100082460F4690469B460A9E0C9C4FEA8801E7
:10132000A522206BFEF780FFA8F10100216B01EBE5
:10133000800929F0070909F0070008B9012000E039
:10134000002028B940F26B321EA126A0FFF73EFC18
:101350007FB1002507E0795D04F134004155785DE7
:1013600000B902E06D1C102DF5D300BF0021432011
:101370000155202E01D2012000E0002028B94FF4B1
:10138000687210A117A0FFF721FC202E00D31F26A2
:10139000E662E664201D00F036FD04F1180000F05E
:1013A00032FD2461C6F12000A06164625A465146B4
:1013B000484600F033FC20600B9808B10B9804609D
:1013C000BDE8F09F2E2E5C4D6964646C6577617298
:1013D00065735C4672656552544F535C7461736B00
:1013E000732E63004572726F723A2025732C20258C
:1013F000640D0A0010B5002407E004EB84010F4AD5
:1014000002EB810000F0F2FC641C202CF5D30C48A8
:1014100000F0ECFC0B4800F0E9FC0B4800F0E6FCA7
:101420000A4800F0E3FC0A4800F0E0FC04480949DF
:10143000086004480849086010BD0000340200201C
:10144000B4040020C8040020DC040020F0040020C4
:1014500004050020440000204800002010B501468B
:10146000164800E0006803688B42FBD302464368DD
:1014700013448B4204D143684C68234443600146C3
:101480000A464B6813440468A34211D10C4C03680C
:101490002468A34208D04B680468646823444B6006
:1014A00003681B680B6005E0054B1B680B6001E0DF
:1014B00003680B60884200D0016010BD9C000020D2
:1014C000A40000202DE9F04104460D4616461F46B3
:1014D0004FF0000865602461B5420CD8F01BA1698B
:1014E000884202D34FF0010811E0211D094800682D
:1014F00000F08CFC0BE0BE4204D2BD4202D34FF0A0
:10150000010804E0211D0448006800F07FFC40460B
:10151000BDE8F0818C0000208800002070B50546F1
:1015200000F09AFCA86B08B9012400E0002400F048
:10153000DDFC204670BD2DE9F04707460C4690467D
:101540000026206848B3204641684968416000F1A0
:10155000080142688A4202D1416849684160416895
:10156000D1F80C9000BF204641684968416000F105
:10157000080142688A4202D1416849684160416875
:10158000CD6806EBC60007EB8001434601222846E2
:1015900000F098FE761C4D45E5D13046BDE8F08759
:1015A000F1B50098846C00262CB940F6E33223A1F3
:1015B0002AA0FFF70BFBA06BE16B884201D2012050
:1015C00000E0002028B940F6E4321CA123A0FFF778
:1015D000FDFAA06BE16B88422DD294F945500022B0
:1015E00069462046FFF7D1FD0646681C60B9606A6F
:1015F00008B9012000E00020E0B904F1240001F066
:10160000D5FCB8B1012615E000F08EFB0746BD42BF
:101610000FD27F2D01D0012000E0002028B940F634
:10162000044206A10DA0FFF7D1FA681C40B284F86D
:10163000450000BF00BF3046F8BD00002E2E5C4DB7
:101640006964646C6577617265735C467265655246
:10165000544F535C71756575652E63004572726FEA
:10166000723A2025732C2025640D0A0070B50546BA
:101670000E460E480068C068C468201D00F040FB9C
:1016800094F8280000F0040028B13246294620468C
:1016900000F0FEF805E094F8280000F0FE0084F861
:1016A00028002046216A884770BD0000880000207D
:1016B00070B586B08AE0029800280CDA03AE2EB925
:1016C00040F20B3247A150A0FFF780FAD6E9002084
:1016D000B168904700BF0298002877DB049C6069DE
:1016E00008B9012000E0002010B9201D00F008FB1F
:1016F00001A800F0F9F8054602980A2864D2DFE84C
:1017000000F06305072E365306082F3700BF00BFD1
:1017100000BF94F8280040F0010084F828000398E6
:10172000A269811803462A462046FFF7CBFEA8B1DE
:1017300094F8280000F0040038B10398A2698118D9
:101740002A46204600F0A4F805E094F8280000F0AE
:10175000FE0084F828002046216A884735E000BF53
:1017600094F8280000F0FE0084F828002DE000BF67
:1017700094F8280040F0010084F828000398A06144
:10178000A06908B1012000E0002028B940F25E32D3
:1017900014A11DA0FFF71AFAA06941192B462A4689
:1017A0002046FFF78FFE10E094F8280000F00200BA
:1017B00018B9204600F0D8FB05E094F8280000F0A6
:1017C000FE0084F8280000E000BF00BF002202A94C
:1017D0001148006801F006F900287FF46CAF06B0EC
:1017E00070BD00002E2E5C4D6964646C657761727B
:1017F00065735C4672656552544F535C74696D65E0
:1018000072732E63000000004572726F723A2025D9
:10181000732C2025640D0A0090000020F8B50546C1
:101820000C4600F0DBFE684600F05EF806460098C5
:1018300020BB44B9B54206D801F05CFC31462846CD
:10184000FFF714FF1CE03CB10E480068006808B9BF
:10185000012000E000200446A91B22460A48006837
:1018600000F03AFC01F046FC50B94FF080500749B7
:101870000860BFF34F8FBFF36F8F01E001F03AFCB8
:10188000F8BD00008C0000209000002004ED00E076
:1018900070B504460D46164604E0A069054420468E
:1018A000216A8847A06941192B4632462046FFF736
:1018B00009FE0028F1D170BD09480068006808B928
:1018C000012000E0002020B14FF0FF300549086002
:1018D00005E003480068C068006802490860704776
:1018E000440000207000002070B5044601F0E0F9CB
:1018F000054607480068854204D200F00BF8012035
:10190000206001E00020206001480560284670BD8D
:101910009800002070B508E00D480068C0680468B1
:101920004FF0FF312046FFF7A1FE0948006800682C
:1019300008B9012000E000200028EDD00448056827
:1019400004480068024908600248056070BD000054
:10195000880000208C0000200246002101E0521C7B
:10196000491C1078A528FAD0890888B27047000071
:101970000B480068401C08B9012000E0002020B995
:10198000D12208A115A0FFF721F900BF502080F354
:101990001188BFF34F8FBFF36F8F00BF00BFFEE70B
:1019A000B80000202E2E5C4D6964646C657761720E
:1019B00065735C4672656552544F535C706F727408
:1019C00061626C655C525644535C41524D5F434DBD
:1019D000335C706F72742E63000000004572726F8A
:1019E000723A2025732C2025640D0A0008B500BF2B
:1019F0006846FFF713FC044620460099FFF70EFFE8
:101A0000FFF756FEF4E770B5044600F025FA94F9A6
:101A1000455019E0A06C30B12046FFF7C1FD88B1F8
:101A200000F000FD0EE0606A08B9012000E000202F
:101A300038B904F1240001F0B9FA18B100F0F2FC51
:101A400000E003E0681E45B2002DE3DC00BFFF208C
:101A500084F8450000F04AFA00F0FEF994F9445089
:101A600010E0206908B9012000E0002048B904F125
:101A7000100001F09BFA08B100F0D4FC681E45B2DA
:101A800000E001E0002DECDC00BFFF2084F8440002
:101A900000F02CFA70BD70B505460E46314628465A
:101AA000FEF7DBFB2846FEF7D1FB044602E02020D0
:101AB0002855641C0F2CFAD300202855281970BD16
:101AC0002DE9F04705464FF0000900F087FD3D483D
:101AD000006808B9FFF7B6FB75B105F00700C0F163
:101AE0001008C8F1FF30A84201D2012000E0002018
:101AF00008B9454400E00025012000EBE57000280E
:101B00004DD0002D4BD030480068854247D82F4E2D
:101B10003046046801E0264624686068A84202D284
:101B200020680028F7D127480068844237D0306801
:101B300000F10809206830606068401B102813D944
:101B4000671907F0070008B9012000E0002020B95C
:101B5000DC221FA12BA0FFF739F86068401B7860DA
:101B600065603846FFF77AFC174960680968081A0B
:101B7000154908600846006826490968884203D26A
:101B80001148006823490860606840F000406060C8
:101B90000020206020480068401C1F49086001F0B8
:101BA000A9FA09F0070008B9012000E0002028B9CF
:101BB0004FF48E7206A113A0FFF708F84846BDE85F
:101BC000F0870000A4000020A80000209C00002056
:101BD0002E2E5C4D6964646C6577617265735C463A
:101BE00072656552544F535C706F727461626C65BC
:101BF0005C4D656D4D616E675C686561705F342E2C
:101C0000630000004572726F723A2025732C202504
:101C1000640D0A00AC000020B0000020001F4FF04F
:101C200080730360001F21F001030360001F034B5A
:101C300003601438026020387047000071190008F2
:101C40001CB5044600F008F90C480221002380224C
:101C5000CDE900100AA10C4800F0E6FF0B48032173
:101C600000238022CDE9001009A10B4800F0DCFF21
:101C7000002000F097FA00F039F91CBD3800002070
:101C80007461736B310000009D1C00083C00002053
:101C90007461736B32000000B91C000809E005484C
:101CA000006880F00100034908604FF4FA7000F00A
:101CB00039FAF4E70C0C01400E4800F045FB0D49E1
:101CC0000DA0FEF783FF13E00020FEF7B5FB0446EE
:101CD000012C0AD1074908A0FEF778FF054800F05B
:101CE00033FB044904A0FEF771FF0A2000F01AFA42
:101CF000EAE70000C800002025730D0A000000007C
:101D000001460A69D1E901309860D1E901035860C0
:101D10005068884201D188685060002008611068CE
:101D2000401E10601068704701480068704700004E
:101D3000500000202DE9F041054688461646002453
:101D4000202700F04BFC2248006880453AD300BFB2
:101D50007F1E07EB87021F4B03EB820104EBC402DB
:101D600005EB82000122FFF7E6FB0444002FEFD1D0
:101D700004EBC40105EB8100022217490968FFF753
:101D8000DAFB044404EBC40105EB81000222134991
:101D90000968FFF7D0FB044404EBC40105EB8100A4
:101DA00004220F49FFF7C7FB044404EBC40105EB11
:101DB000810003220B49FFF7BEFB044416B10A4819
:101DC0000068306001F096F92046BDE8F08100001F
:101DD0005000002034020020440000204800002071
:101DE000F0040020040500202C00002000F1080170
:101DF00041604FF0FF31816000F10801C160016175
:101E000000210160704700210161704710B5024652
:101E10000B685C1C0CB9106907E002F1080000E0D7
:101E20004068446824689C42FAD944684C604C6815
:101E3000A160886041600A611468641C146010BD70
:101E400042684A6093688B6093685960916008614A
:101E500003685B1C0360704710B500BF502080F31F
:101E60001188BFF34F8FBFF36F8F00BF0B4800681F
:101E7000401C0A4908600846006801280DD108483E
:101E80000068C0B208B9012000E0002028B94FF472
:101E9000BB7204A111A0FEF799FE10BDB80000208E
:101EA00004ED00E02E2E5C4D6964646C6577617210
:101EB00065735C4672656552544F535C706F727403
:101EC00061626C655C525644535C41524D5F434DB8
:101ED000335C706F72742E63000000004572726F85
:101EE000723A2025732C2025640D0A0010B50B488A
:101EF000006828B940F27D1209A117A0FEF766FE1E
:101F000006480068401E054908600846006820B978
:101F1000002080F3118800BF00BF10BDB800002072
:101F20002E2E5C4D6964646C6577617265735C46E6
:101F300072656552544F535C706F727461626C6568
:101F40005C525644535C41524D5F434D335C706F5D
:101F500072742E63000000004572726F723A202581
:101F6000732C2025640D0A0070B506463546002EF8
:101F700031D0083D2C466068C00F28B940F22F12BE
:101F800015A122A0FEF722FE206808B9012000E07A
:101F9000002028B94FF498720FA11CA0FEF716FE7E
:101FA0006068C00FB8B12068A8B9606820F0004030
:101FB000606000F013FB194960680968084417491C
:101FC00008602046FFF74AFA15480068401C14498B
:101FD000086001F08FF870BD2E2E5C4D6964646C52
:101FE0006577617265735C4672656552544F535CE8
:101FF000706F727461626C655C4D656D4D616E678A
:102000005C686561705F342E630000004572726F1A
:10201000723A2025732C2025640D0A00A8000020A8
:10202000B400002000204FF0E021086188610748DB
:102030000068C0084FF47A71B0FBF1F0401E4FF019
:10204000E02148610320086170470000140000206F
:102050002DE9F04105460F4600262DB940F6D8225D
:1020600010A118A0FEF7B2FDBFB1002412E019487C
:1020700000EBC4004068A84203D1164800EBC40638
:102080000AE036B9134850F8340010B9114800EB93
:10209000C406641C082CEAD300BF0EB1376075601B
:1020A000BDE8F0812E2E5C4D6964646C65776172C9
:1020B00065735C4672656552544F535C7175657506
:1020C000652E63004572726F723A2025732C2025AD
:1020D000640D0A00F40100202DE9F04105460E468A
:1020E00017462C46FFF7B8FE94F94400401C10B97F
:1020F000002084F8440094F94500401C10B90020E9
:1021000084F84500FFF7F2FEA06B28B93A46314645
:1021100004F1240000F0BCF92046FFF774FCBDE890
:10212000F081000070B504460025ACB10F4800688E
:1021300008B9012000E0002028B940F22D520CA17E
:1021400013A0FEF743FD00F049FA00212046FEF7F8
:10215000D5FE00F0CFFF05463DB94FF08050104945
:102160000860BFF34F8FBFF36F8F70BD7C000020FE
:102170002E2E5C4D6964646C6577617265735C4694
:1021800072656552544F535C7461736B732E6300B8
:102190004572726F723A2025732C2025640D0A0057
:1021A00004ED00E070B50546FFF756FE15B92F485F
:1021B000006800E028460446201DFFF7A1FD78B91D
:1021C000E06A00EB80002A4951F8200040B994F8F9
:1021D0002C10012088402749096881432548016067
:1021E000A06A18B104F11800FFF78AFD22480068C0
:1021F000401C214908601D480068844209D1211D06
:102200001E48FFF71DFE1E480068401C1C49086060
:1022100006E01C480068401E1A490860FFF74CFBA6
:10222000FFF764FE11480068844202D02046FEF7A2
:10223000EBFF15480068C0B10C480068844214D117
:102240001248006808B9012000E0002028B94FF4C6
:1022500098620FA116A0FEF7B9FC4FF08050184904
:102260000860BFF34F8FBFF36F8F70BD4000002039
:1022700034020020580000206C000020F0040020F0
:102280004C000020500000205C0000207C0000205A
:102290002E2E5C4D6964646C6577617265735C4673
:1022A00072656552544F535C7461736B732E630097
:1022B0004572726F723A2025732C2025640D0A0036
:1022C00004ED00E02DE9F04107460C4690461E461D
:1022D00017B91C48006800E038460546256005F13E
:1022E00034006060E86A2061286BE061686CA0607F
:1022F000E86C6061686DA061052E12D0114800681D
:10230000854202D1002020730FE02673032E0CD1EA
:1023100000F064F9A86A08B10220207300F0EAFE18
:1023200003E02846FEF768FD2073B8F1000F04D0E3
:10233000286BFFF711FB208401E000202084BDE81A
:10234000F0810000400000202DE9F84306460020FF
:1023500030702748D0F800800146096801EBC101C0
:102360008800FFF7ADFB0546002D3FD06A46414689
:102370002846FFF7DFFC804664210098B0FBF1F0AF
:102380000090009800282ED000242AE004EBC4001E
:1023900005EB800080690099B0FBF1F704EBC40005
:1023A00005EB800041683046FFF775FB064657B1E4
:1023B00004EBC40005EB80003B460EA18269304669
:1023C000FEF714FC08E004EBC40005EB80000CA150
:1023D00082693046FEF70AFC3046FDF737FF0644B7
:1023E000641C4445D2D32846FFF7BEFDBDE8F88300
:1023F000500000200925750909257525250D0A00BD
:1024000009257509093C3125250D0A00034909688C
:1024100001600349096841607047000068000020BE
:10242000540000200120014908607047640000202A
:1024300070B504460D462CB940F61F4207A10FA007
:10244000FEF7C4FB1148016818312046FFF7DEFC97
:1024500001212846FEF752FD70BD00002E2E5C4D76
:102460006964646C6577617265735C467265655218
:10247000544F535C7461736B732E63004572726FBB
:10248000723A2025732C2025640D0A00400000209C
:1024900070B504460E4615462CB940F6554211A1BA
:1024A00018A0FEF793FB60681A490968C8611949CA
:1024B000826809680A6217490968183182685160A0
:1024C0001449096818318160124909688C622168D1
:1024D000491C21600DB14FF0FF3629463046FEF70A
:1024E0000DFD70BD2E2E5C4D6964646C6577617264
:1024F00065735C4672656552544F535C7461736BCF
:10250000732E63004572726F723A2025732C20255A
:10251000640D0A00400000201CB51C4800210B4639
:102520008022CDE900101AA11B4800F07DFB044673
:10253000012C02D100F0ACFE0446012C17D100BFE3
:10254000502080F31188BFF34F8FBFF36F8F00BF10
:102550004FF0FF3011490860012011490860002048
:1025600010490860FDF7ACFE00F0BAF80BE0601C03
:1025700008B1012000E0002028B940F623020AA19A
:1025800011A0FEF723FB144800681CBD7400002056
:1025900049444C4500000000B512000870000020BE
:1025A0005C000020540000202E2E5C4D6964646C99
:1025B0006577617265735C4672656552544F535C12
:1025C0007461736B732E63004572726F723A2025CB
:1025D000732C2025640D0A00780000200248006852
:1025E000401C0149086070477C00002010B5284855
:1025F000006818B101202749086047E000202549FC
:102600000860254800682549086008460068244994
:10261000096888420BD92349096801F15400496DC2
:102620001E4A12681E4B1B68D21A114401601B48D7
:1026300000681B4908601C480068B0FA80F0C0F1CF
:102640001F0404EB8400194951F8200008B101204F
:1026500000E0002028B940F6074215A11CA0FEF7B3
:10266000B5FA04EB8401114A02EB81004168496824
:10267000416000F1080142688A4202D1416849681C
:1026800041604168C968074A116000BF10BD000081
:102690007C000020640000202C000020840000202A
:1026A000800000204000002058000020340200205C
:1026B0002E2E5C4D6964646C6577617265735C464F
:1026C00072656552544F535C7461736B732E630073
:1026D0004572726F723A2025732C2025640D0A0012
:1026E0001CB53B4C204600780190FF202146087025
:1026F0000846007800909DF8000000F0F0009DF87A
:102700000010884201D1012000E0002028B94FF4D8
:10271000917230A13DA0FEF759FA9DF8000000F03B
:1027200050003E49087007203D49086009E03C48D8
:102730000068401E3A4908609DF800004006000EFF
:1027400000909DF8000000F080008028EFD0344811
:102750000068C0F10700042801D1012000E000203A
:1027600028B94FF49B721BA128A0FEF72FFA2C4822
:102770000068C0F10700042801D1012000E000201A
:1027800028B940F23F1213A120A0FEF71FFA2448F7
:1027900000680002224908600846008800F4E060F2
:1027A00008600B49019808701E48006840F47000EA
:1027B0001C4908600846006840F070400860FFF758
:1027C00031FC002018490860FDF7D0FC00201CBD3A
:1027D00000E400E02E2E5C4D6964646C65776172E4
:1027E00065735C4672656552544F535C706F7274CA
:1027F00061626C655C525644535C41524D5F434D7F
:10280000335C706F72742E63000000004572726F4B
:10281000723A2025732C2025640D0A00BC0000208C
:10282000C000002020ED00E0B800002010B500BF7F
:10283000502080F31188BFF34F8FBFF36F8F00BF1D
:1028400000F03CFA18B14FF080500449086000BF16
:10285000002080F3118800BF10BD000004ED00E0EF
:102860002DE9F84305460E4617460024E5B1601EE3
:10287000B0FBF5F0B04217D305FB06F010F1550F91
:1028800012D805FB06F909F15400FFF719F90446BF
:102890008CB1A04608F154083B46424631462846D2
:1028A0000094FEF71BFD06E02CB94FF4F27203A171
:1028B0000AA0FEF78BF92046BDE8F8832E2E5C4D6A
:1028C0006964646C6577617265735C4672656552B4
:1028D000544F535C71756575652E63004572726F58
:1028E000723A2025732C2025640D0A002DE9F04151
:1028F00005460E4601272C462CB94FF497722CA1A1
:1029000033A0FEF763F9002C42D0E06B00283FD0E3
:102910004FF0FF31E06BB1FBF0F0216C884237D310
:10292000FFF79AFAD4E90F12206801FB0200A060B9
:102930000020A06320686060E06B401E226C21686C
:1029400000FB0211E160FF2084F8440084F8450098
:102950009EB9206908B9012000E00020A8B904F15F
:10296000100000F023FB80B14FF080501C4908603C
:10297000BFF34F8FBFF36F8F07E004F11000FFF735
:1029800035FA04F12400FFF731FAFFF7AFFA00E05F
:1029900000270FB1012000E0002028B940F26312A7
:1029A00003A10BA0FEF712F93846BDE8F081000044
:1029B0002E2E5C4D6964646C6577617265735C464C
:1029C00072656552544F535C71756575652E630071
:1029D0004572726F723A2025732C2025640D0A000F
:1029E00004ED00E02DE9F74183B005460E464FF0B7
:1029F00000082C462CB940F26B524CA153A0FEF7B4
:102A0000E5F80EB9206C08B9012000E0002028B9D3
:102A100040F26F5245A14DA0FEF7D8F800F038F90A
:102A200008B9059808B9012000E0002028B940F253
:102A300074523EA145A0FEF7C9F800BFFFF70CFA9B
:102A4000A76BF7B131462046FEF78AFB781EA063DC
:102A5000206908B9012000E0002060B904F11000ED
:102A600000F0A4FA38B14FF080503C490860BFF341
:102A70004F8FBFF36F8FFFF739FA012006B0BDE823
:102A8000F081059818B9FFF731FA0020F6E7B8F1A0
:102A9000000F04D101A8FFF7B9FC4FF00108FFF7C0
:102AA00025FAFFF79BFDFFF7D7F994F94400401C86
:102AB00010B9002084F8440094F94500401C10B976
:102AC000002084F84500FFF711FA05A901A800F0DD
:102AD00047F8F0B92046FEF721FDA0B104F124002B
:102AE0000599FFF7A5FC2046FEF78DFF00F002FBDD
:102AF0000028A3D14FF0805018490860BFF34F8FD2
:102B0000BFF36F8F9AE72046FEF77DFF00F0F2FAE1
:102B100094E72046FEF777FF00F0ECFA2046FEF738
:102B2000FDFC00288AD00020A8E700002E2E5C4D76
:102B30006964646C6577617265735C467265655241
:102B4000544F535C71756575652E63004572726FE5
:102B5000723A2025732C2025640D0A0004ED00E054
:102B600070B506460C462EB94FF450621FA127A03F
:102B7000FEF72CF82CB940F601521CA123A0FEF759
:102B800025F8FFF769F9254802687068131A244888
:102B9000006890F85D0030B100202149096881F893
:102BA0005D0001251EE02068401C08B9002519E0E1
:102BB0001C4930680968884206D07068904203D882
:102BC0000125002020600DE02068984207D9206888
:102BD000C01A20603046FFF719FC002502E00020F3
:102BE00020600125FFF782F9284670BD2E2E5C4D2E
:102BF0006964646C6577617265735C467265655281
:102C0000544F535C7461736B732E63004572726F23
:102C1000723A2025732C2025640D0A0054000020F0
:102C200040000020680000202DE9FF4F85B080465D
:102C300089461746DDE912ABB800FEF741FF0646AC
:102C400076B16020FEF73CFF04462CB1602120469F
:102C5000FDF7F1FA266304E03046FFF785F900E05E
:102C600000247CB10020CDE900ABCDE902403A461A
:102C700049464046089BFEF749FB2046FEF7A4F96B
:102C8000012501E04FF0FF35284609B0BDE8F08F7F
:102C90000549096809B9012005E00449096809B92D
:102CA000022000E0002070475C0000207C00002033
:102CB0000149086870470000540000202DE9F041E8
:102CC0004FF000085F48006800287DD15E4800682A
:102CD000451C5D480560002D1DD15C4800680068FA
:102CE00008B9012000E0002028B940F6C82258A108
:102CF0005FA0FDF76BFF55480768614800685349BE
:102D000008605F4807605F480068401C5D490860D4
:102D1000FEF7D2FD00BF5C480068854277D300BF54
:102D20004A480068006808B9012000E0002020B18E
:102D30004FF0FF305449086068E044480068C068BC
:102D4000C4686668B54202D24F4806605EE06069BA
:102D5000D4E902128A60D4E902214A60211D426846
:102D60008A4201D1E1684160002262610168491E26
:102D70000160A06A98B1A06AD4E907128A60D4E918
:102D800007214A6004F1180142688A4201D1216A90
:102D900041600022A2620168491E016000BF94F8F0
:102DA0002C100120884039490968084337490860D8
:102DB000E16A01EB8101364A02EB81014868A060BB
:102DC0008268E260211D00E033E08268516081602A
:102DD000E16A01EB81012E4A02EB81026261E16A44
:102DE00001EB81012A4A52F82110491CE26A02EBE8
:102DF0008202274B43F822102649E06A0968C96A13
:102E000088428DD94FF001088AE700E000BF2148D1
:102E10000068C06A00EB80001D4951F820000128BD
:102E200001D94FF001081C48006808B14FF00108B3
:102E300004E01A480068401C184908604046BDE894
:102E4000F08100007C00002054000020440000209D
:102E50002E2E5C4D6964646C6577617265735C46A7
:102E600072656552544F535C7461736B732E6300CB
:102E70004572726F723A2025732C2025640D0A006A
:102E8000480000206800002070000020580000204A
:102E90003402002040000020640000206000002078
:102EA00070B505462C460026002D5ED030480068DF
:102EB000844201D1012000E0002028B941F25902EA
:102EC0002CA134A0FDF782FE206D28B941F25A02F0
:102ED00028A130A0FDF77AFE206D401E2065E16C30
:102EE000E06A884241D0206D00283ED1201DFEF7C7
:102EF00007FF40B994F82C1001208840294909683F
:102F0000814328480160E06CE062E06AC0F1200083
:102F1000A06194F82C1001208840224909680843D8
:102F200020490860E16A01EB81011F4A02EB81013F
:102F30004868A0608268E260211D826851608160FB
:102F4000E16A01EB8101184A02EB81026261E16AE8
:102F500001EB8101144A52F82110491CE26A02EB8C
:102F60008202114B43F822100126304670BD00004A
:102F7000400000202E2E5C4D6964646C65776172A0
:102F800065735C4672656552544F535C7461736B34
:102F9000732E63004572726F723A2025732C2025C0
:102FA000640D0A00580000203402002070B5064667
:102FB000F068C4682CB940F685423CA143A0FDF7F7
:102FC00005FEA06AD4E907128A60D4E907214A60A5
:102FD00004F1180142688A4201D1216A416000224D
:102FE000A2620168491E01603C48006800283DD18A
:102FF0006069D4E902128A60D4E902214A60211D85
:1030000042688A4201D1E168416000226261016840
:10301000491E016094F82C1001208840304909684D
:1030200008432F490860E16A01EB81012D4A02EB58
:1030300081014868A0608268E260211D8268516059
:103040008160E16A01EB8101264A02EB8102626143
:10305000E16A01EB8101234A52F82110491CE26A1E
:1030600002EB82021F4B43F8221010E01E49486811
:10307000E0618268226204F1180182685160816017
:10308000194AA26211460968491C116000BF17491C
:10309000E06A0968C96A884204D9012501201449F7
:1030A000086000E00025284670BD00002E2E5C4D13
:1030B0006964646C6577617265735C4672656552BC
:1030C000544F535C7461736B732E63004572726F5F
:1030D000723A2025732C2025640D0A007C00002004
:1030E0005800002034020020DC04002040000020B2
:1030F0006400002070B5002400265048006828B9FC
:1031000040F696024EA156A0FDF760FDFEF7A4FE24
:103110004A480068401E494908600846006800287F
:103120007ED15348006800287AD05BE05148C068DF
:10313000C468A06AD4E907128A60D4E907214A600A
:1031400004F1180142688A4201D1216A41600022DB
:10315000A2620168491E01606069D4E902128A60B6
:10316000D4E902214A60211D42688A4201D1E16806
:103170004160002262610168491E016094F82C10D0
:10318000012088403C49096808433B490860E16ADE
:1031900001EB8101394A02EB81014868A060826835
:1031A000E260211D826851608160E16A01EB81016A
:1031B000324A02EB81026261E16A01EB81012F4A2E
:1031C00052F82110491CE26A02EB82022B4B43F8B1
:1031D00022102B49E06A0968C96A884202D301209B
:1031E000284908602348006808B9012000E0002051
:1031F00000289BD00CB1FEF75FFB2348056865B142
:1032000000BFFFF75BFD10B101201E4908606D1E75
:10321000002DF6D100201C4908601A48006800E023
:1032200008E038B10126300718490860BFF34F8F16
:10323000BFF36F8FFEF75AFE304670BD7C00002052
:103240002E2E5C4D6964646C6577617265735C46B3
:1032500072656552544F535C7461736B732E6300D7
:103260004572726F723A2025732C2025640D0A0076
:1032700050000020DC040020580000203402002010
:1032800040000020640000206000002004ED00E009
:103290001CB50024FDF70EFF0B48006858B10B4821
:1032A0001F2100234FF48072CDE9001008A10A48C5
:1032B000FFF7BAFC04462CB940F2191207A110A07E
:1032C000FDF784FC20461CBD9000002094000020E7
:1032D000546D722053766300ED1900082E2E5C4D5C
:1032E0006964646C6577617265735C46726565528A
:1032F000544F535C74696D6572732E630000000057
:103300004572726F723A2025732C2025640D0A00D5
:103310003033000800000020C8000000140C000832
:10332000F8330008C800002078300000240C0008A2
:10333000000000000102030401020304060708095B
:103340000204060800A24A04000000000000000079
:103350000102030406070809000000000000000045
:10336000010000000000000000000000000000005C
:10337000000000000000000000000000000000004D
:10338000000000000000000000000000000000003D
:10339000000000000000000000000000000000002D
:1033A00000000000000000001F00000000000000FE
:1033B000000000000000000000000000000000000D
:1033C00000000000000000000000000000000000FD
:1033D00000000000000000000000000000000000ED
:1033E0000000000000000000AAAAAAAA0000000035
:0833F0000000000000000000D5
:0400000508000131BD
:00000001FF
