:020000040800F2
:1000000060050020C5010008CD090008F9050008B9
:10001000C9090008D70300085512000800000000B5
:10002000000000000000000000000000650D000856
:10003000DB03000800000000850A0008F10E00083C
:10004000DF010008DF010008DF010008DF01000810
:10005000DF010008DF010008DF010008DF01000800
:10006000DF010008DF010008DF010008DF010008F0
:10007000DF010008DF010008DF010008DF010008E0
:10008000DF010008DF010008DF010008DF010008D0
:10009000DF010008DF010008DF010008DF010008C0
:1000A000DF010008DF010008DF010008DF010008B0
:1000B000DF010008DF010008DF010008DF010008A0
:1000C000DF010008DF010008DF010008DF01000890
:1000D000DF010008DF010008DF010008DF01000880
:1000E000DD030008DF010008DF010008DF01000870
:1000F000DF010008DF010008DF010008DF01000860
:10010000DF010008DF010008DF010008DF0100084F
:10011000DF010008DF010008790F0008DF01000897
:10012000DF010008DF010008DF010008DF0100082F
:10013000DF010008DF010008DF010008DF0100081F
:10014000DF010008DF010008DF010008DF0100080F
:10015000DF010008DF010008DF010008DF010008FF
:10016000DF010008DF010008DF010008DF010008EF
:10017000DF010008DF010008DF010008DF010008DF
:10018000DF010008DF010008DF010008DF010008CF
:10019000DF010008DF010008DF010008DF010008BF
:1001A0000000000000000000DF010008DFF810D0B0
:1001B00000F0E0F800480047251D0008AFF300807C
:1001C000600500200648804706480047FEE7FEE736
:1001D000FEE7FEE7FEE7FEE7FEE7FEE7FEE7FEE7F7
:1001E000F50E0008AD0100082DE9F0410024061BC2
:1001F000254671F1000605DA01240027D0EB07003F
:1002000067EB0101161E73F1000605DA0027D2EB39
:100210000702012567EB030300F043F886460E460C
:1002200017469C46AC4204D00025D0EB050E65EB8A
:10023000010624B10020D2EB000760EB030C7046EE
:1002400031463A466346BDE8F081F0B4CA17CB0F99
:1002500050405140C61841F100054FEAC372314683
:1002600028004FF0960303D0B623F0BC00F053B83B
:1002700030460021F9E730B50B4601460020202228
:10028000012409E021FA02F59D4205D303FA02F5A3
:10029000491B04FA02F52844151EA2F10102F1DC03
:1002A00030BD2DE9F05F0546002092469B4688460A
:1002B0000646814640241BE02846414647462246E2
:1002C00000F079F853465A46C01A914110D31146AE
:1002D0001846224600F060F82D1A67EB01084F46D9
:1002E00022460120002100F057F817EB00094E418B
:1002F000201EA4F10104DFDC484631462A4643466D
:10030000BDE8F09F0029A8BF7047401C490008BF06
:1003100020F00100704710B4B0FA80FC00FA0CF035
:1003200050EA010404BF10BC704749B1CCF120046D
:1003300021FA04F411FA0CF118BF012121430843FA
:10034000A3EB0C01CB1D4FEA00614FEA102042BF26
:10035000002010BC704700EBC35010440029A4BF1C
:1003600010BC7047401C490008BF20F0010010BCC1
:1003700070470000064C074D06E0E06840F00103BE
:1003800094E8070098471034AC42F6D3FFF712FF09
:100390005C1E00087C1E0008202A04DB203A00FABC
:1003A00002F1002070479140C2F1200320FA03F3CC
:1003B000194390407047202A04DB203A21FA02F0CA
:1003C0000021704721FA02F3D040C2F1200291408F
:1003D00008431946704700BFFEE7704710B54FF459
:1003E000004000F043F8012805D1C00300F006F8F2
:1003F00001200149087010BD10000020014908606B
:1004000070470000143C01401CB50121880300F036
:100410005BFB0F21032000F0A7FC4FF4004000908D
:1004200000208DF804000C208DF8050001208DF8C7
:100430000600684600F026F81CBD00001CB501212E
:10044000082000F021FB00208DF804004FF400404C
:10045000009001208DF8070003208DF80500694603
:10046000014800F059F81CBD000C02400146002074
:10047000034A12680A400AB1012000E000207047D8
:10048000143C0140002123498279002A3AD00A46CF
:10049000126803689A430B461A600A1D12680368C3
:1004A0009A430B1D1A60027911440A6803681A43C3
:1004B0000A60184A0832126803689A43154B0833D9
:1004C0001A601A1D126803689A43124B0C331A60A3
:1004D0004279102A0ED11A1F126803681A430D4B75
:1004E00008331A601A1D126803681A43094B0C334B
:1004F0001A600DE00749427911440A6803681A43FB
:100500000A6005E0027911440A6803689A430A60A8
:1005100070470000003C0140F0B50A46002100236E
:10052000002400BF3DE0012505FA01F3156805EA46
:1005300003049C4234D105684F000326BE40B543F6
:10054000056015794E00B54006683543056015799C
:10055000012D02D01579022D16D185684F00032692
:10056000BE40B543856055794E00B5408668354339
:100570008560456801268E40B5434560456896799B
:100580008E40B6B235434560C5684F000326BE4075
:10059000B543C560D5794E00B540C6683543C560E2
:1005A000491C1029BFD3F0BDF0B5002300244D072E
:1005B000ED0E02FA05F3CE1000F1200555F8265095
:1005C0004E07F70E0F26BE40B543CF1000F12006B0
:1005D00046F82750CE1000F1200555F8265045EA80
:1005E0000304CE1000F1200545F82640F0BD0A04B2
:1005F000826170478161704700BFFEE7F0EE400AFC
:1006000090ED072AD0ED022AF0EE601A42EE621A4F
:1006100090ED082AD0ED032A42EE621AB0EE611A7C
:10062000D0ED051A90ED022A61EE821A90ED042AAF
:1006300042EE011A90ED062AD0ED032A42EE221A6C
:10064000B0EE610AD0ED021AC0ED031A80ED021A75
:10065000704710B52DED028B0446F0EE408AB0EEE7
:10066000608AC4ED008A84ED018A204600F004F817
:10067000BDEC028B10BD000010B52DED048B0446BF
:1006800094ED000AD4ED010A80EE201AB0EE419AF2
:100690009FED2B0AC0EE090AF0EE609AB0EE690AEF
:1006A00000F0C4FEB0EE408A9FED260A00F0F8FD8F
:1006B000F0EE000A60EE200AB7EE000A00EE880AAB
:1006C00008EE080AF0EE408A28EE080AC0EE280A72
:1006D000C4ED040A94ED040AF0EE000A20EE200AAC
:1006E00084ED050A94ED040A84ED060AB7EE000ACB
:1006F00018EE080AF0EE000A20EE200AC0EE280AE2
:10070000C4ED070A9FED0F0A00F0CAFDF0EE000AE3
:1007100060EE200AB7EE000A00EEC80A08EE080AEA
:10072000C0EE280AC4ED080A9FED070A84ED020A0C
:100730009FED050A84ED030ABDEC048B10BD00009B
:10074000DA0F4940DA0F493F000000007FB5044648
:100750000025684600F004F9002616E01DF80600A2
:1007600024F8150014F81500000200B224F8150052
:10077000701CC6B234F915001DF80610084324F8A1
:100780001500681CC5B2701CC6B2062EE6DB00253B
:1007900008261AE01DF80610A01D20F8151010F804
:1007A0001500000201B2A01D20F81510701CC6B281
:1007B000A01D30F915001DF806100843A11D21F8F1
:1007C0001500681CC5B2701CC6B20E2EE2DBB4F96F
:1007D00000100EA000F040FDB4F902100BA000F0D4
:1007E0003BFDB4F9041009A000F036FDB4F9061081
:1007F00006A000F031FDB4F9081004A000F02CFDB3
:10080000B4F90A1003A000F027FD7FBD2568642C11
:10081000000000002568640A000000002DE9F04790
:1008200081464948007858B9484601F081F938B105
:100830000120454908709FED450A084680ED0E0AE3
:100840004148007848B14048407830B9484601F006
:1008500021F910B101203C494870002416E039F913
:10086000140000EE100AF8EEC00A9FED391A80EE6F
:10087000810A3548D0ED0F0A80EE201A09F10C00EC
:1008800000EB840080ED001A601CC4B2032CE6DB90
:10089000002424E02C48083000EBC4004FF48062B0
:1008A0000023D0E900713846FFF79EFC09F10602EB
:1008B00032F91420D317151A63EB01012846FFF70C
:1008C000C4FC00EE100ADFED230A80EE201A09F1C5
:1008D000180000EB840080ED001A601CC4B2032CE9
:1008E000D8DB00242BE009F10C0101EB8401D1EDF0
:1008F000000AB0EE600A04EBC401174A02EB810063
:10090000FFF77CFE09F10C0000EB840080ED000A8B
:1009100009F1180101EB8401D1ED000AB0EE600A83
:1009200004EBC4010D4A02EB8100FFF767FE09F1F9
:10093000180000EB840080ED000A601CC4B2032C98
:10094000D1DBBDE8F08700001801002000000000A6
:10095000000080466F128341AC0000204000002060
:1009600070B5054604210A48FFF741FEBB2000F0A0
:10097000DDF9002405E0002000F0D8F92855601CBE
:10098000C4B20E2CF7DB04210148FFF733FE70BD23
:100990000008024070B505460C4604210948FFF7DF
:1009A00026FE0A2001F064F9284600F0BFF920462F
:1009B00000F0BCF904210348FFF71CFE0A2001F0F7
:1009C00057F970BD0008024000BFFEE7704708B548
:1009D0004FF4A06000F04CF828208DF800000020B3
:1009E0008DF801008DF8020001208DF803006846A3
:1009F00000F002F808BD000070B5002100230F22AE
:100A0000C4781CB3174C246804F4E064C4F5E064B3
:100A1000C4F30721C1F10404E3B20A4144789C40C5
:100A2000E1B28478144021430C07210E0E4C057866
:100A30006155047804F01F050124AC4005786D1160
:100A4000AD0005F1E025C5F8004109E0047804F0A7
:100A50001F050124AC40054D0678761145F8264067
:100A600070BD00000CED00E000E400E080E100E07B
:100A700002490143024A1160704700000000FA0574
:100A80000CED00E07047000029B1064A12680243ED
:100A9000044B1A6004E0034A12688243014B1A6057
:100AA000704700003038024029B1064A12680243FC
:100AB000044B1A6004E0034A12688243014B1A6037
:100AC000704700004038024029B1064A12680243CC
:100AD000044B1A6004E0034A12688243014B1A6017
:100AE0007047000044380240F0B500210022002485
:100AF000022500260223324F3F6807F00C0121B186
:100B0000042905D0082937D105E02E4F076036E0CB
:100B10002D4F076033E02A4F3F1F3F68C7F38056D1
:100B2000274F3F1F3F6807F03F036EB1264FB7FBCB
:100B3000F3F7DFF88CC0ACF1040CDCF800C0CCF3A8
:100B4000881C07FB0CF40CE01E4FB7FBF3F7DFF833
:100B500070C0ACF1040CDCF800C0CCF3881C07FBBF
:100B60000CF4174F3F1F3F68C7F301477F1C7D0000
:100B7000B4FBF5F7076002E0124F076000BF00BF4B
:100B80000F4F3F6807F0F0010909104F7A5C0768C2
:100B9000D74047600A4F3F6807F4E051890A0B4F7E
:100BA0007A5C4768D7408760054F3F6807F460412B
:100BB000490B064F7A5C4768D740C760F0BD00001C
:100BC000083802400024F40000366E0100000020C6
:100BD00021B1028842F04002028004E002884FF610
:100BE000BF731A400280704700B585B00121080329
:100BF000FFF76AFF1820ADF80C000120ADF80800DF
:100C00000220ADF806000020ADF81000ADF8040099
:100C1000ADF80000ADF80E004FF48270ADF80200A0
:100C20004FF40070ADF80A006946024800F060F821
:100C300005B000BD003001401CB501210520FFF7C3
:100C400023FF02208DF8040000208DF806002020EC
:100C5000009000208DF8070003208DF805006946FC
:100C60001A48FFF759FC8020009069461748FFF7A3
:100C700053FC4020009069461448FFF74DFC0522C4
:100C800011461248FFF790FC052206210F48FFF796
:100C90008BFC052207210D48FFF786FC01208DF80B
:100CA000040000208DF806000420009000208DF83C
:100CB000070003208DF8050069460548FFF72CFC66
:100CC00004210348FFF796FC1CBD00000000024011
:100CD000000802400246002013890B400BB101209E
:100CE00000E0002070470146888970478181704785
:100CF00010B50022028802F441520B884C8823432D
:100D00008C882343CC8823430C8923434C89234379
:100D10008C892343CC8923431A430280838B4FF26F
:100D2000FF74234083830B8A038210BD10B50446F1
:100D300000BF02210A48FFF7CDFF0028F9D0214665
:100D40000748FFF7D3FF00BF01210548FFF7C2FFA7
:100D50000028F9D00248FFF7C6FFC0B210BD00005E
:100D6000003001407047000030B500228B071C0F97
:100D70000F2303FA04F20B4B8C1053F824309343E7
:100D8000084C8D1044F8253023468C1053F824303D
:100D90008C07240F00FA04F42343024C8D1044F80E
:100DA000253030BD083801400CB50020019000907E
:100DB0004148006840F480303F49086000BF3E4829
:100DC000006800F4003000900198401C01900098E9
:100DD00018B90198B0F5A04FF1D13748006800F478
:100DE000003010B10120009001E000200090009838
:100DF000012860D130484030006840F080502E49D2
:100E0000403108602D48006840F440402B4908609C
:100E100029480830006828490831086008460068F9
:100E200040F4004008600846006840F4A0500860A4
:100E30002348091F0860081F006840F08070091FE0
:100E4000086000BF1C48006800F000700028F9D05E
:100E50001A48006840F480301849086000BF1748FD
:100E6000406800F480300028F9D01448006840F44D
:100E700000301249086000BF1048406800F400309C
:100E80000028F9D040F205700E4908600A48083081
:100E9000006820F00300084908310860084600682F
:100EA00040F00200086000BF03480830006800F00E
:100EB0000C000828F8D10CBD00380240007000403A
:100EC000185A4007003C0240042808D14FF0E021A6
:100ED000096941F004014FF0E022116107E04FF091
:100EE000E021096921F004014FF0E022116170470F
:100EF0007047000010B51548006840F470001349B1
:100F000008601348006840F00100114908600020A3
:100F10000F49083108600E4800680E4908400C4926
:100F200008600D48091D0860081F006820F4802033
:100F3000091F0860002006490C310860FFF734FFE4
:100F40004FF0006001498039086010BD88ED00E075
:100F500000380240FFFFF6FE1030002410B50446B2
:100F600000204FF0E02108610420FFF7ADFF0148A9
:100F7000048010BD1200002010B50121044800F0CB
:100F800018F8012803D10121014800F003F810BD31
:100F900000100040CA430282704721B1028842F02B
:100FA0000102028004E002884FF6FE731A400280BC
:100FB000704730B50246002000230024158A05EA58
:100FC0000103958905EA010413B10CB1012000E089
:100FD000002030BD01894FF6F87211400181704741
:100FE00000220288184B98420ED0184B98420BD022
:100FF000B0F1804F08D0164B984205D0154B98425F
:1010000002D0154B984204D14FF68F731A404B888B
:101010001A43124B984207D0114B984204D04FF616
:10102000FF431A400B891A4302804B68C3620B8846
:101030000385054B984202D0044B984201D18B7A2C
:1010400003860123838270470000014000040140B1
:101050000004004000080040000C00400010004068
:10106000001400400EB501211020FFF71DFD0B48B4
:10107000FFF7B0FF0020ADF80800ADF802004FF612
:10108000FE7001902C20ADF8000000208DF80A00C1
:1010900069460248FFF7A4FF0EBD000000100040A3
:1010A00000B587B001218807FFF7FEFC0121102061
:1010B000FFF7EAFC02208DF8180000208DF81A00D6
:1010C0004FF48070059001208DF81B0003208DF8EF
:1010D000190005A91748FFF71FFA02208DF818001C
:1010E0008020059005A91348FFF716FA082211463B
:1010F0001048FFF759FA082207210E48FFF754FA63
:101100004FF4613001900020ADF810000C20ADF8D4
:101110000E000020ADF80C00ADF80A00ADF8080094
:1011200001A9054800F028F80121034800F00AF859
:1011300007B000BD001002400078004010B5FFF776
:10114000AFFF10BD21B1828942F40052828104E0D8
:1011500082894DF6FF731A40828170470246002053
:10116000B1F5007F00D100BF13880B400BB1012007
:1011700000E00020704700002DE9FF4705460E46BD
:101180000024A14600BFA046B08900B100BF2C8A50
:1011900024F44054F08804432C82AC8941F20C6062
:1011A0008443B08831890843718908430443AC8182
:1011B000AC8A24F44074B0890443AC826846FFF7DB
:1011C00093FC2048854202D01F48854202D1DDF8B9
:1011D0000C9001E0DDF80890A88900F4004040B1CF
:1011E00009EBC90000EB091031684900B0FBF1F7C9
:1011F00007E009EBC90000EB091031688900B0FB7A
:10120000F1F76420B7FBF0F004012009642101FB31
:101210001078A88900F4004040B1322000EBC800EB
:10122000B0FBF1F000F00700044308E0322000EBCF
:1012300008106421B0FBF1F000F00F0004432C8192
:10124000BDE8FF870010014000140140C1F308020F
:101250008280704700BFFEE70FB4054B10B503A9AD
:10126000044A029800F074FA10BC5DF814FB000008
:10127000011D0008140000204100080218BF0420CE
:101280000A0E18BF40F001004FF07F4232EA010120
:1012900008BF40F00200012808BF05207047000089
:1012A00010EE101A08B5444A6846B2EB410F28D92F
:1012B0004FF0E640B0EB410F94BF00204FF0FF30FD
:1012C00000900098002861DB60EE000A10F0010F2A
:1012D00045D010F0020FDFED391A9FED391A00EEFC
:1012E000E11ADFED381A40EE811A21EEA01AF0EE75
:1012F000400A40EE010A08BFF1EE600AB0EE600A53
:1013000008BD314B21F0004293423CD911F0004F0F
:10131000DFED2E0A20EE201ADFED2D0A19BF31EE87
:10132000601A71EE200A31EE201A71EE600ABDEEED
:10133000E01A11EE100A9FED271A00F0030000EEEC
:10134000C10A9FED251A009000EEC10A9FED231AF5
:1013500000EEC10A9FED221A00EEC10AB1E79FED2F
:10136000211A9FED210A10F0020F00EE810A9FED75
:101370001F1A00EE801AB7EE000A00EE810A18BFAD
:10138000B1EE400A08BD00F023F99AE710EE100A0A
:101390004000B0F17F4F3CBFB7EE000A08BD07D157
:1013A0004FF0010000F0CEF9BDE8084000F000B9B0
:1013B000BDE8084000F0F8B8B61F927E336D4C3996
:1013C000DA82083CA0AA2ABE490E494683F9223F88
:1013D0000000004B0000C93F00A0FD390020A233EF
:1013E0001A61342CB93AB2BACA9F2A3DDDFFFFBE5A
:1013F00010B52DED028BB1EEC08A18EE100A20F068
:101400000040C0F1FF40C00F0AD010EE100A20F0DB
:101410000040C0F1FF40C00F04BF012000F092F96E
:10142000B0EE480ABDEC028B10BD000000B510EE16
:10143000101A2DED028B81B04D4A6846B2EB410F78
:101440003CD94FF0E640B0EB410F94BF00204FF085
:10145000FF3000900098B0EE408A00285FDB28EE55
:10146000080ADFED440A9FED441A00EE201ADFED72
:10147000430A40EE010A9FED421A00EE201ADFED0A
:10148000410A10F0010F40EE010A9FED3F1A00EEF5
:10149000201A61EE000AB0EE480A08EE200A02BFE8
:1014A00001B0BDEC028B00BDBFEE001A01B0C1EE71
:1014B000000ABDEC028BB0EE600A00BD334B21F098
:1014C0000042934228D911F0004FDFED310A20EE9F
:1014D000201ADFED300A19BF31EE601A71EE200AD2
:1014E00031EE201A71EE600ABDEEE01A11EE100A1C
:1014F0009FED291A00F0030000EEC10A9FED271AA4
:10150000009000EEC10A9FED261A00EEC10A9FED81
:10151000251A00EEC10A9DE700F05AF89AE718EE86
:10152000100A4000B0F17F4F0DD218EE100AFFF7FD
:10153000A3FE042808BF00F043F8B0EE480A01B04B
:10154000BDEC028B00BD09D1012000F0FBF801B019
:10155000BDEC028B5DF804EB00F02AB801B0B0EEF0
:10156000480ABDEC028B5DF804EB00F01DB80000EA
:10157000B61F927EBBE9223C0C6D063B8A76CE3CC0
:10158000ACB5593D35A1083E29AAAA3E490E4946A7
:1015900083F9223F0000004B0000C93F00A0FD3945
:1015A0000020A2331A61342C30EE000A704700008C
:1015B000DFED020A80EEA00A704700000000000084
:1015C0009FED020A20EE000A7047000000000010A4
:1015D0002DE9F0014FF07F42B2EB410F9FBF4FF07A
:1015E000FF310160BDE8F00170474FF0004242EA70
:1015F0000123C1F3C752783A551112F01F0C434C26
:10160000CCF120067C44C1F3C752A2F178024FEA24
:10161000621204EB820254F8254008BFD2E9015659
:1016200012D0556804FA0CF425FA06F73C43976883
:1016300005FA0CF527FA06F8D26807FA0CFCF24016
:1016400045EA08054CEA0206A4FB034CA5FB03523D
:10165000A6FB03631D449D4234BF012600261319D7
:10166000334416B1934202D903E0934201D20122DE
:1016700000E00022624402F1200C9206DC0C42EAF7
:10168000443200EE102A5B03DFED210AF8EEC01AA7
:1016900000EE103A4FEA9C1C11F0004FB8EE400AE1
:1016A000C0F800C020EE201A00EE105ADFED190A33
:1016B000B8EE400A20EE200A71EE810A70EE800A30
:1016C00010EE902A02F500626FF30B0200EE902AF2
:1016D00070EEE11A31EEC11ADFED101A30EE411A48
:1016E0009FED0D0A20EE800A01EE210A9FED0C1AF3
:1016F00000EE810A04BFBDE8F0017047CCF18051D3
:101700000160BDE8F001B1EE400A70473408000006
:10171000000000360000802C22AAFD29DB0FC92F13
:101720000000C92F02E008C8121F08C1002AFAD120
:1017300070477047002001E001C1121F002AFBD151
:101740007047000001490860704700001800002041
:101750002DE9FF4F8BB088460546002606E0252878
:101760000BD0DDE90D1290476D1C761C28780028FF
:10177000F5D10FB03046BDE8F08F0024A146A24657
:101780000122AE4900E0044315F8013F203B02FA74
:1017900003F00842F7D128782A2810D06FF02F02E2
:1017A0002878A0F13001092915D809EB890102EB4D
:1017B000410144F0020400EB01096D1CF0E758F808
:1017C000041B5FEA010903D544F40054C9F1000980
:1017D00044F002046D1C28782E2817D115F8010F4B
:1017E00044F004042A280ED06FF02F022878A0F1CC
:1017F000300109290AD80AEB8A0102EB410100EB0A
:10180000010A6D1CF2E758F804AB6D1C28786C28AF
:101810000FD006DC4C2817D068280DD06A2814D1C8
:1018200004E0742810D07A280FD10DE044F400149D
:101830000AE044F4801401E044F4401469788142E1
:1018400002D104F580146D1C6D1C2878692865D0C0
:1018500006DC00288DD0632827D0642806D15DE0FF
:101860006E2808D073282AD0752877D0DDE90D12AC
:101870009047761CE0E0C4F30250022809D0032808
:101880000DD0D8F8001004280DD00E6008F104081F
:10189000D2E0D8F80010F217C1E90062F6E7D8F8F4
:1018A00000100E80F2E70E70F0E718F8041B8DF8B8
:1018B000001000208DF80100EB46012003E058F8ED
:1018C00004BB4FF0FF3061074FF0000701D40AE07E
:1018D0007F1C57450DDA8742FADB1BF807100029F9
:1018E000F6D106E07F1C8742FCDB1BF807100029BD
:1018F000F8D1DDE90D23A9EB07008146214600F070
:10190000B1F83044C61904E0DDE90D121BF8010BF3
:1019100090477F1EF8D22146484688E058F8040BCD
:10192000C4F302514FF00A0B032900D100B204297D
:1019300000D140B2002802DA40422D2102E0210508
:1019400005D52B218DF82410012104E006E0E107E4
:1019500010D02021F6E708AF089113E058F8040BE7
:10196000C4F302514FF00A0B032900D180B20429BD
:1019700000D1C0B20021EEE75946FEF77CFC3031C1
:1019800007F8011D0028F7D1ADEB070000F1200B8F
:10199000600702D524F4803401E04FF0010ADA45F3
:1019A00002DDAAEB0B0000E00020824600EB0B01F9
:1019B00008980144A9EB01000A90E00306D4DDE990
:1019C0000D2321460A9800F04DF806444FF0000917
:1019D00008E009A911F80900DDE90D12904709F1A5
:1019E0000109761C08998945F3DBE0030CD5DDE994
:1019F0000D2321460A9800F035F8064404E0DDE99D
:101A00000D1230209047761CBAF10001AAF1010AAC
:101A1000F5DC05E0DDE90D1217F8010B9047761CA7
:101A2000BBF10001ABF1010BF4DC0A982146DDE9C2
:101A30000D2300F005F806446D1C97E60928010007
:101A40002DE9F041044600251E461746880404D4BB
:101A500005E039462020B0476D1C641EF9D52846A4
:101A6000BDE8F0812DE9F041044600251E46904670
:101A7000C80301D5302700E02027880404D505E0FD
:101A800041463846B0476D1C641EF9D52846BDE86E
:101A9000F081000070B52DED028B054600241BE09F
:101AA00035F9140000EE100AB8EEC00A9FED1D1AB9
:101AB000C0EE010A35F9140000EE100AB8EEC00AB3
:101AC000DFED181A80EE211AB0EE480A00EE810A06
:101AD000B0EE408A601CC4B2032CE1DBB0EE480AD1
:101AE000FFF786FC1048D0ED0E0A30EE200A80ED9C
:101AF0000E0A006C401C0C4908640846006CB0F5E6
:101B0000C87F03D20020BDEC028B70BD064890ED6B
:101B10000E0ADFED060A80EE201A80ED0F1A012072
:101B2000F1E7000000008046180100200000C843D3
:101B30002DE9F0472DED028B8146002425E0484831
:101B400000EBC400D0E9003109F1060030F91400BF
:101B5000C21718185141424A02EBC40203C209F1EC
:101B6000060030F8140010FB00F0C1173C4A183290
:101B700002EBC402D2E90032C0185141384A18328F
:101B800002EBC40203C2601CC4B2032CD7DB34488E
:101B90000838006C401C3249083908640846006C5B
:101BA000B0F5806F04D20020BDEC028BBDE8F08759
:101BB00000244CE02A4800EBC4004FF4806200236C
:101BC000D0E900713846FEF70FFB0546FEF73DFBF6
:101BD00082462348183000EBC400D0E900211046AB
:101BE000FEF733FB08EE900A1D4800EBC40103C961
:101BF000A0FB002601FB006601FB00611046FEF71A
:101C000024FB00EE100ADFED170A80EE201A38EEF2
:101C1000C10ADFED150A80EE208A9FED140AB4EEAA
:101C2000C08AF1EE10FA10DD00200D490839086471
:101C30000022083101EBC4010A604A60084A1832E8
:101C400002EBC40210605060AEE7601CC4B2032C0B
:101C5000B0DB00200249083908640120A4E7000035
:101C6000200100200000804400C07F440000C843E1
:101C700070B504460A2094FBF0F594FBF0F100FBEC
:101C8000114604E042F2107000F00CF86D1E002DB9
:101C9000F8D12EB14FF47A7106FB01F000F002F892
:101CA00070BD00000146114A12884A434FF0E023FC
:101CB0005A6100229A611A46126942F001021A61C1
:101CC00000BF4FF0E022106900F001021AB100F4E9
:101CD0008032002AF5D04FF0E022126922F0010292
:101CE0004FF0E0231A6100229A6170471200002031
:101CF00010B5FEF76CFEFEF7A1FBFEF785FB10BDED
:101D000070B504460D46E1B20548FFF79FFA00BFE3
:101D100080210348FFF722FA0028F9D0204670BD41
:101D200000780040B420FFF719F9FFF707FA00F038
:101D300015F800F079F8FFF7DBFF09E005480078B7
:101D4000012805D10448FEF701FD0348FEF766FDB2
:101D5000F4E70000100000201C00002010B500F087
:101D600057F880216B20FEF715FE6420FFF780FFF7
:101D700000216B20FEF70EFE18211B20FEF70AFE45
:101D800000211C20FEF706FE00216C20FEF702FE5B
:101D900001216B20FEF7FEFD00211920FEF7FAFD60
:101DA00003211A20FEF7F6FD80213720FEF7F2FD11
:101DB00001213820FEF7EEFD002417E004EBC401FA
:101DC0000E4A02EB8100DFED0E0A9FED0E0AFEF7D0
:101DD00040FC04EBC4010C4A02EB8100F3EE0E0A56
:101DE0009FED080AFEF735FC601CC4B2032CE5DB4E
:101DF000B7EE000A054880ED0F0A10BD4000002034
:101E00000000A04200007A44AC000020180100202D
:101E100010B5FEF711FFFEF7E7FE01210148FEF7BE
:101E2000D7FE10BD0030014010B5FFF71BF90121AE
:101E30000148FFF7B2F810BD00100040000000009C
:101E40006E83F9A22915444ED15727FCC0DD34F525
:101E5000999562DB4190433CAB6351FE7C1E0008C8
:101E6000000000201C00000024170008981E000835
:101E70001C0000204405000034170008000000008A
:101E80000102030401020304060708090000000020
:081E900000000000000000004A
:04000005080001AD41
:00000001FF
