:020000040800F2
:100000001808002049010008BF020008B7020008D4
:10001000BB02000891010008BD09000800000000B3
:10002000000000000000000000000000210800089F
:1000300095010008000000002B070008610100087E
:100040006301000863010008630100086301000800
:1000500063010008630100086301000863010008F0
:1000600063010008630100086301000863010008E0
:1000700063010008630100086301000863010008D0
:1000800063010008630100086301000863010008C0
:1000900063010008630100086301000863010008B0
:1000A00063010008630100086301000863010008A0
:1000B0006301000863010008630100086301000890
:1000C0006301000863010008630100086301000880
:1000D0006301000863010008630100086301000870
:1000E0006301000863010008630100086301000860
:1000F0006301000863010008630100086301000850
:10010000630100086301000863010008630100083F
:10011000630100086301000863010008630100082F
:10012000630100086301000863010008630100081F
:10013000DFF810D000F01AF800480047650A000800
:10014000AFF30080180800200648804706480047A3
:10015000FEE7FEE7FEE7FEE7FEE7FEE7FEE7FEE777
:10016000FEE7FEE75D09000831010008064C074D77
:1001700006E0E06840F0010394E807009847103477
:10018000AC42F6D3FFF7D8FFE413000804140008CC
:1001900000BFFEE770472DE9F0410246002500262A
:1001A000002000230024002791F803C00CF00F0565
:1001B00091F803C00CF0100CBCF1000F03D091F8C3
:1001C00002C04CEA050591F800C0BCF1000F31D027
:1001D000146800202BE04FF0010C0CFA00F3B1F88A
:1001E00000C00CEA03069E4220D183004FF00F0CA2
:1001F0000CFA03F7BC4305FA03FC4CEA040491F83B
:1002000003C0BCF1280F06D14FF0010C0CFA00FC22
:10021000C2F814C00AE091F803C0BCF1480F05D140
:100220004FF0010C0CFA00FCC2F810C0401C08286A
:10023000D1D31460B1F800C0BCF1FF0F34DD5468B5
:1002400000202EE000F1080C4FF0010808FA0CF332
:10025000B1F800C00CEA03069E4221D183004FF0A2
:100260000F0C0CFA03F7BC4305FA03FC4CEA040438
:1002700091F803C0BCF1280F05D100F1080C08FA71
:100280000CF8C2F8148091F803C0BCF1480F07D1F4
:1002900000F1080C4FF0010808FA0CF8C2F81080C1
:1002A000401C0828CED35460BDE8F0810AB101613A
:1002B00000E04161704700BFFEE700BFFEE7704706
:1002C00000200CE0002106E00022064B03EBC013E7
:1002D0005A544A1CD1B28029F6DB421CD0B20828FD
:1002E000F0DB7047180000202DE9F04304460D466E
:1002F00016461F46284638E0224631E0002A2DDB0C
:100300007F2A2BDC002829DB3F2827DC4FEAE07C12
:1003100000EB5C7C4FEAEC0CDFF8588008EBCC1C5F
:100320001CF802C003464FEAE07800EB58784FEA29
:10033000E808A0EBC8094FF0010808FA09F82CEA10
:10034000080C01464FEAE07800EB58784FEAE808DD
:10035000DFF8209009EBC81808F802C0511C0AB257
:10036000A1199142CADC411C08B2E9198142C3DCDF
:10037000BDE8F0831800002038B5002406E0002511
:1003800000E06D1CB5F57A7FFBD3641CB4F57A7F71
:10039000F5D30121302000F0C9F914208DF80300B5
:1003A00003208DF802004FF48070ADF8000069461C
:1003B0000848FFF7F0FE0420ADF800006946064843
:1003C000FFF7E9FE012000F073F9012000F07CF94D
:1003D00038BD0000001001400014014070B5054612
:1003E000002411E080212141294009B1012100E0D0
:1003F0000021084600F068F9012000F059F90020BA
:1004000000F056F9601CC4B2082CEBDB012000F0B0
:100410004FF9002000F04CF970BD10B5012000F03C
:1004200053F9012000F044F9002000F04DF90020BC
:1004300000F03EF910BD10B5002000F045F9012094
:1004400000F036F9012000F03FF910BD10B5FFF7BC
:1004500093FFAE2000F042F9D52000F03FF9802054
:1004600000F03CF9A82000F039F93F2000F036F9FF
:10047000D32000F033F9002000F030F9402000F0E4
:100480002DF9A12000F02AF9C82000F027F9DA2080
:1004900000F024F9122000F021F9812000F01EF96B
:1004A000CF2000F01BF9D92000F018F9F12000F05E
:1004B00015F9DB2000F012F9302000F00FF9A4202C
:1004C00000F00CF9A62000F009F98D2000F006F9E3
:1004D000142000F003F9AF2000F000F9FFF7F0FE60
:1004E00000F0D2F810BD70B505460C4645F0B000DE
:1004F00000F0F4F8102141EA141000F0EFF804F0D5
:100500000F0000F0EBF870BDF8B506460F46144634
:100510001D46082D0CD1A4F120000E4901EB00105E
:100520001023082239460090304600F017F80FE0FB
:10053000062D0DD1A4F1200000EB4000064901EB8F
:1005400040000823062239460090304600F006F8A5
:10055000F8BD0000A40A0008941000082DE9FF4F20
:1005600080460E469146DDF834B0002500244A4608
:1005700031464046039BFFF7B7FE00BF5EE0002513
:1005800058E008EB0500002852DB08EB05007F2847
:100590004EDC3046F11706EB5171C9100FB2F1175E
:1005A00006EB5171C910A6EBC10A002E05DA781EC0
:1005B00007B20AF108000FFA80FA3819002817DB91
:1005C0003819072814DC3819224901EBC01008EB50
:1005D0000501405C04FB09511BF8011001FA0AF106
:1005E000084339191B4A02EBC11108EB0502885474
:1005F0003819401C00281BDB3819401C072817DC61
:100600003819401C134901EBC01008EB0501405C90
:1006100004FB09511BF80110CAF1080211410843FB
:100620003919491C0B4A02EBC11108EB0502885429
:10063000681CC5B24D45A4DB601CC4B20399481EBA
:10064000C11700EB5171012202EBE101A14296DCDE
:10065000BDE8FF8F180000202DE9F04106468846CE
:1006600015461F46002409E02A5D04FB076108B215
:100670003B464146FFF748FF601CC4B2285D002896
:10068000F2D1BDE8F081000010B500240BE000219C
:100690002046FFF728FF054901EBC410802100F038
:1006A0002DF8601CC4B2082CF1DB10BD180000202E
:1006B00010B5044622464FF480710248FFF7F6FD5C
:1006C00010BD00000010014010B504462246042170
:1006D0000148FFF7EBFD10BD0014014010B50446C2
:1006E000FFF79BFE7820FFF779FE0020FFF776FEEC
:1006F0002046FFF773FEFFF79EFE10BD70B505465E
:100700000E46FFF78AFE7820FFF768FE4020FFF7CD
:1007100065FE002404E0285DFFF760FE601CC4B2A3
:10072000B442F8DBFFF787FE70BD704729B1064A77
:1007300092690243044B9A6104E0034A926982433E
:10074000014B9A61704700000010024030B5002153
:100750000022002400232D4D6D6805F00C0121B10D
:10076000042905D0082923D105E0294D056022E0A0
:10077000274D05601FE0254D6D6805F47012234D6F
:100780006D6805F48034022505EB92421CB9214DB9
:10079000554305600BE01D4D6D6805F400351DB136
:1007A0001C4D5543056002E0194D5543056002E0BC
:1007B000174D056000BF00BF144D6D6805F0F001D6
:1007C0000909154D6B5C0568DD4045600F4D6D688E
:1007D00005F4E061090A104D6B5C4568DD408560F9
:1007E0000A4D6D6805F46051C90A0B4D6B5C456894
:1007F000DD40C560054D6D6805F44041890B074D2E
:100800006B5CC568B5FBF3F5056130BD00100240B7
:1008100000127A0000093D000000002010000020B6
:10082000704710B500F002F810BD00000CB50020B4
:10083000019000903348006840F4803031490860EE
:1008400000BF3048006800F4003000900198401C60
:100850000190009818B90198B0F5A06FF1D129481E
:10086000006800F4003010B10120009001E0002089
:1008700000900098012843D12348006840F0100000
:10088000214908600846006820F007000860084613
:10089000006840F0020008601A4840681949486042
:1008A0000846406848600846406840F480604860F8
:1008B0000846406820F47C1048600846406840F4D0
:1008C000E81048600846006840F08070086000BF8B
:1008D0000C48006800F000700028F9D00948406812
:1008E00020F00300074948600846406840F00200D5
:1008F000486000BF0348406800F00C000828F9D1A8
:100900000CBD00000010024000200240042808D165
:100910004FF0E021096941F004014FF0E02211613C
:1009200007E04FF0E021096921F004014FF0E022D7
:100930001161704710B5044600204FF0E0210861B6
:10094000401FFFF7E3FF2046E11704EB5171C1F3AD
:10095000CF01014A118010BD1400002010B51348CA
:10096000006840F0010011490860084640681049DD
:1009700008400E494860084600680E4908400B4987
:1009800008600846006820F4802008600846406837
:1009900020F4FE0048604FF41F008860FFF741FF1D
:1009A0004FF000600449086010BD000000100240D4
:1009B0000000FFF8FFFFF6FE08ED00E000BFFEE7D5
:1009C00002E008C8121F08C1002AFAD17047704718
:1009D000002001E001C1121F002AFBD17047000076
:1009E00070B504464FF47A7094FBF0F594FBF0F187
:1009F00000FB114603E0074800F00EF86D1E002DC5
:100A0000F9D12EB14FF47A7106FB01F000F004F831
:100A100070BD000040420F000146114A12884A434F
:100A20004FF0E0235A6100229A611A46126942F09F
:100A300001021A6100BF4FF0E022106900F00102CC
:100A40001AB100F48032002AF5D04FF0E02212698A
:100A500022F001024FF0E0231A6100229A617047F0
:100A60001400002086B001A8FFF770FE4820FFF7B1
:100A700061FFFFF7EBFC062306A200210846FFF703
:100A8000EBFDFFF701FE03E04FF4FA70FFF7A8FF5C
:100A9000FAE700006D6F746F725F73706565643D97
:100AA0000000000000000000000000000000000046
:100AB00000000000000000F800000000000000330B
:100AC0003000000000160E00160E000000000000AE
:100AD0000000000040C07840C0784000043F04049B
:100AE0003F040400007088FC08300000001820FF5C
:100AF000211E0000F008F000E018000000211C0397
:100B00001E211E0000F00888700000001E21232412
:100B100019272110000000160E0000000000000040
:100B200000000000000000E01804020000000007C0
:100B30001820400000020418E000000000402018C7
:100B400007000000404080F0804040000202010F9A
:100B500001020200000000F0000000000101011F7E
:100B600001010100000000000000000000B0700062
:100B70000000000000000000000000000001010172
:100B80000101010100000000000000000030300001
:100B900000000000000000008060180400601806DB
:100BA0000100000000E010080810E000000F102015
:100BB00020100F00001010F8000000000020203F5F
:100BC00020200000007008080888700000302824E9
:100BD000222130000030088888483000001820208A
:100BE00020110E000000C02010F8000000070424AF
:100BF000243F240000F808888808080000192120F4
:100C000020110E0000E0108888180000000F11204D
:100C100020110E0000380808C83808000000003F06
:100C2000000000000070880808887000001C222165
:100C300021221C0000E010080810E0000000312212
:100C400022110F00000000C0C000000000000030B2
:100C500030000000000000C0C0000000000080B0B4
:100C60007000000000008040201008000001020415
:100C7000081020004040404040404000040404046C
:100C80000404040000081020408000000020100828
:100C900004020100007048080808F000000000305D
:100CA00036010000C030C828E810E00007182724EB
:100CB00023140B000000C038E0000000203C230299
:100CC0000227382008F8888888700000203F2020FC
:100CD00020110E00C030080808083800071820202E
:100CE0002010080008F808080810E000203F202025
:100CF00020100F0008F88888E8081000203F202006
:100D00002320180008F88888E8081000203F2000F9
:100D100003000000C0300808083800000718202031
:100D2000221E020008F808000008F808203F2101F0
:100D300001213F20000808F8080800000020203F9B
:100D40002020000000000808F8080800C08080800B
:100D50007F00000008F888C028180800203F200104
:100D60002638200008F8080000000000203F20205E
:100D70002020300008F8F800F8F80800203F003F75
:100D8000003F200008F830C00008F808203F20008D
:100D900007183F00E01008080810E0000F1020209E
:100DA00020100F0008F808080808F000203F210173
:100DB00001010000E01008080810E0000F182424CA
:100DC00038504F0008F8888888887000203F20003D
:100DD000030C3020007088080808380000382021F3
:100DE00021221C00180808F8080818000000203FFD
:100DF0002000000008F808000008F808001F202064
:100E000020201F000878880000C838080000073834
:100E10000E010000F80800F80008F800033C070085
:100E2000073C0300081868808068180820302C03ED
:100E3000032C30200838C800C83808000000203FC4
:100E40002000000010080808C838080020382621B3
:100E500020201800000000FE020202000000007FB7
:100E600040404000000C30C00000000000000001C5
:100E70000638C00000020202FE00000000404040B0
:100E80007F0000000020100804081020000000006F
:100E90000000000000000000000000008080808052
:100EA0008080808000020408000000000000000034
:100EB00000000000000080808080000000192422D3
:100EC00022223F2008F8008080000000003F11200F
:100ED00020110E000000008080800000000E112014
:100EE00020201100000000808088F800000E1120F2
:100EF00020103F200000808080800000001F222200
:100F000022221300008080F0888888180020203F6B
:100F1000202000000000808080808000006B94947E
:100F20009493600008F8008080800000203F21003A
:100F300000203F2000809898000000000020203F03
:100F400020200000000000809898000000C08080F1
:100F5000807F000008F8000080808000203F24028D
:100F60002D302000000808F8000000000020203F7D
:100F7000202000008080808080808000203F200032
:100F80003F20003F008080008080000000203F2143
:100F900000203F200000808080800000001F202073
:100FA00020201F00808000808000000080FFA120A2
:100FB00020110E000000008080808000000E1120B3
:100FC00020A0FF80808080008080800020203F2142
:100FD00020000100000080808080800000332424F5
:100FE00024241900008080E0808000000000001FA1
:100FF000202000008080000000808000001F202052
:1010000020103F20808080000080808000010E3012
:101010000806010080800080008080800F300C0373
:101020000C300F0000808000808080000020312E76
:101030000E312000808080000080808080818E7052
:101040001806010000808080808080000021302C04
:101050002221300000000000807C0202000000001D
:10106000003F404000000000FF00000000000000C2
:10107000FF0000000002027C800000000040403FB2
:101080000000000000804040800000800000000060
:10109000000101000000000000000000002F00001F
:1010A00000000700070000147F147F1400242A7F2B
:1010B0002A120023130864620036495522500000AA
:1010C0000007000000001C224100000041221C001B
:1010D0000014083E08140008083E0808000000A09C
:1010E0006000000808080808000060600000002098
:1010F00010080402003E5149453E0000427F400076
:10110000004261514946002141454B3100181412FB
:101110007F10002745454539003C4A4949300001C8
:101120007109050300364949493600064949291E17
:101130000000363600000000563600000008142279
:101140004100001414141414000041221408000279
:1011500001510906003E4955592E007C1211127C9E
:10116000007F49494936003E41414122007F4141CB
:10117000221C007F49494941007F09090901003EBD
:101180004149497A007F0808087F0000417F4100FB
:10119000002040413F01007F08142241007F404071
:1011A0004040007F020C027F007F0408107F003E59
:1011B0004141413E007F09090906003E4151215E3F
:1011C000007F091929460046494949310001017F3C
:1011D0000101003F4040403F001F2040201F003FD2
:1011E0004038403F00631408146300070870080784
:1011F00000615149454300007F414100000204085D
:101200001020000041417F00000402010204004060
:101210004040404000000102040000205454547833
:10122000007F484444380038444444200038444453
:10123000487F00385454541800087E0901020018F1
:10124000A4A4A47C007F080404780000447D40002E
:10125000004080847D00007F102844000000417F12
:101260004000007C04180478007C080404780038EE
:101270004444443800FC242424180018242418FC76
:10128000007C0804040800485454542000043F44DF
:101290004020003C4040207C001C2040201C003CA2
:1012A0004030403C004428102844001CA0A0A07CF2
:1012B000004464544C440000087F41000000007F5B
:1012C00000000000417F0800000804081008A3ACDB
:1012D000000000000000000000000000000000000E
:1012E000000000583800000000000000000000006E
:1012F00000A1A300000000000000000000000000AA
:101300000000000000001824241800000000000065
:1013100000000000C4E300008060F8074020180FC0
:1013200008C80808281800010000FF00100C03403E
:10133000807F0001061800BAC3001010F01F10F0E3
:1013400000808282E2928A8680004022150816611F
:10135000000040807F0000000000CAC00020202064
:10136000FE2020FF202020FF202020200000000061
:101370007F404047444444474040400000BDE700B0
:10138000000000FE929292FE929292FE00000000F7
:1013900008080484621E010001FE0204040808001B
:1013A000000000FF010101310909090989710101EA
:1013B0000101FFFF80808080808096818080808016
:1013C0008080FFFF01818181FD8991A1C1FD818123
:1013D0008101FFFF808080809F888482819F808040
:1013E0008080FF00041400080000002018000000A6
:1013F000C00900081C1400081800002000080000A4
:10140000D0090008000000000102030401020304E7
:0C1410000607080902040608000000009E
:0400000508000131BD
:00000001FF
