:020000040800F2
:1000000020040020490100082D0A0008FD02000814
:10001000290A0008E1010008B30E000800000000F2
:10002000000000000000000000000000450B000878
:10003000E5010008000000002F0A0008310C00084C
:100040006301000863010008630100086301000800
:1000500063010008630100086301000863010008F0
:1000600063010008630100086301000863010008E0
:1000700063010008630100086301000863010008D0
:1000800063010008630100086301000863010008C0
:1000900063010008630100086301000863010008B0
:1000A00063010008630100086301000863010008A0
:1000B0006301000863010008630100086301000890
:1000C0006301000863010008630100086301000880
:1000D00063010008950C0008630100086301000833
:1000E0006301000863010008630100086301000860
:1000F0006301000863010008630100086301000850
:10010000630100086301000863010008630100083F
:10011000630100086301000863010008630100082F
:10012000630100086301000863010008630100081F
:10013000DFF810D000F042F800480047B510000882
:10014000AFF300802004002006488047064800479F
:10015000FEE7FEE7FEE7FEE7FEE7FEE7FEE7FEE777
:10016000FEE7FEE7350C000831010008D2B201E0DD
:1001700000F8012B491EFBD270470022F6E710B5AC
:1001800013460A4604461946FFF7F0FF204610BD05
:1001900030B50B46014600202022012409E021FA57
:1001A00002F59D4205D303FA02F5491B04FA02F554
:1001B0002844151EA2F10102F1DC30BD064C074DAA
:1001C00006E0E06840F0010394E807009847103427
:1001D000AC42F6D3FFF7B0FF9C110008BC11000839
:1001E00000BFFEE770472DE9F041024600250026DA
:1001F000002000230024002791F803C00CF00F0515
:1002000091F803C00CF0100CBCF1000F03D091F872
:1002100002C04CEA050591F800C0BCF1000F31D0D6
:10022000146800202BE04FF0010C0CFA00F3B1F839
:1002300000C00CEA03069E4220D183004FF00F0C51
:100240000CFA03F7BC4305FA03FC4CEA040491F8EA
:1002500003C0BCF1280F06D14FF0010C0CFA00FCD2
:10026000C2F814C00AE091F803C0BCF1480F05D1F0
:100270004FF0010C0CFA00FCC2F810C0401C08281A
:10028000D1D31460B1F800C0BCF1FF0F34DD546865
:1002900000202EE000F1080C4FF0010808FA0CF3E2
:1002A000B1F800C00CEA03069E4221D183004FF052
:1002B0000F0C0CFA03F7BC4305FA03FC4CEA0404E8
:1002C00091F803C0BCF1280F05D100F1080C08FA21
:1002D0000CF8C2F8148091F803C0BCF1480F07D1A4
:1002E00000F1080C4FF0010808FA0CF8C2F8108071
:1002F000401C0828CED35460BDE8F08100BFFEE763
:1003000021B1028842F48062028004E002884FF644
:10031000FF331A400280704770B502460024002562
:1003200000230020958A138B1B0445EA030626F060
:100330007F4404EA01068E4201D1012000E0002042
:1003400070BD21B1028842F00102028004E00288FF
:100350004FF6FE731A40028070472DE9F0470546BC
:100360000E46144605F0070A2046E11704EB5171CA
:10037000C1F3C707E11704EB5171C910A4EBC10128
:1003800001F0FF09CAF10808BAF1000F32D13FB9F4
:1003900022463146284600F025F900F08DFD74E034
:1003A000B9F1000F0FD108E008223146284600F0CD
:1003B00019F900F081FD08350836381EA7F1010152
:1003C000CFB2F1D161E008E008223146284600F0C2
:1003D00009F900F071FD08350836381EA7F1010152
:1003E000CFB2F1D14A463146284600F0FBF800F082
:1003F00063FD4AE042463146284600F0F3F800F03B
:100400005BFDA4EB0800C4B22046E11704EB517178
:10041000CF10E11704EB5171C910A4EBC10101F039
:10042000FF09464445443FB922463146284600F07C
:10043000D9F800F041FD28E0B9F1000F0FD108E034
:1004400008223146284600F0CDF800F035FD083589
:100450000836381EA7F10101CFB2F1D115E008E04E
:1004600008223146284600F0BDF800F025FD083589
:100470000836381EA7F10101CFB2F1D14A46314604
:10048000284600F0AFF800F017FDBDE8F087000047
:1004900070B505460E464FF4805401212E4800F0F9
:1004A000E7F901E0601E84B22CB12C492A48FFF71D
:1004B00033FF0128F6D124B9012000F095FA01207C
:1004C00070BD0022A021244800F082FA4FF480542D
:1004D00001E0601E84B22CB121491F48FFF71CFFC8
:1004E0000128F6D124B9022000F07EFA0120E7E7C6
:1004F000E9B2194800F075FA4FF4805401E0601E2B
:1005000084B234B11649891E1348FFF705FF01284C
:10051000F5D124B9032000F067FA0120D0E7314675
:100520000D4800F05EFA4FF4805401E0601E84B282
:1005300034B10B49891C0848FFF7EEFE0128F5D1BC
:1005400024B9042000F050FA0120B9E70121024843
:1005500000F09AF90020B3E70054004001000300C6
:100560008200070000B585B00121082000F070FA74
:100570000121480500F05CFA4020ADF810001C2075
:100580008DF8130003208DF8120004A91248FFF71C
:100590002AFE8020ADF8100004A90F48FFF723FEC3
:1005A0004FF48060ADF80A000001ADF80C000B4874
:1005B00000904FF48040ADF806000020ADF8040034
:1005C000ADF808006946064800F088F901210448A2
:1005D000FFF7B7FE05B000BD000C0140801A060011
:1005E000005400402DE9F04107460D4616464FF4F1
:1005F00080540121324800F03BF901E0601E84B2D2
:100600002CB130492E48FFF787FE0128F6D12CB9CE
:10061000012000F0E9F90120BDE8F0810022A021CD
:10062000274800F0D5F94FF4805401E0601E84B2F1
:100630002CB125492248FFF76FFE0128F6D124B9D5
:10064000022000F0D1F90120E6E7F9B21C4800F0E1
:10065000C8F94FF4805401E0601E84B234B11A49E5
:10066000891E1748FFF758FE0128F5D124B9032049
:1006700000F0BAF90120CFE719E02978104800F01E
:10068000B0F94FF4805401E0601E84B234B10E49D9
:10069000891C0B48FFF740FE0128F5D124B904203E
:1006A00000F0A2F90120B7E76D1C701EC6B2002E43
:1006B000E3D10121024800F0E7F80020ACE7000098
:1006C00000540040010003008200070070B504469A
:1006D0000D464FF4805601212D4800F0C9F800BFA7
:1006E0002C492B48FFF718FE0128F9D10022A02140
:1006F000274800F06DF900BF27492548FFF70CFE99
:100700000128F9D1E1B2224800F06BF900BF22497B
:10071000891E1F48FFF700FE0128F8D101211C485F
:1007200000F0A6F800BF1B491948FFF7F5FD0128A6
:10073000F9D10122A021164800F04AF900BF15495D
:10074000491C1348FFF7E8FD0128F8D100211048A3
:10075000FFF7D6FD00BF0F493F310D48FFF7DCFD25
:100760000028F8D00A4800F02FF9287000BF094986
:100770003F310748FFF7D0FD0128F8D10121044897
:1007800000F082F801210248FFF7BAFD70BD0000B9
:100790000054004001000300820007002DE9F041F1
:1007A00006460D4614464FF4805701212D4800F0AF
:1007B0005FF800BF2C492B48FFF7AEFD0128F9D1A7
:1007C0000022A021274800F003F900BF274925484F
:1007D000FFF7A2FD0128F9D1F1B2224800F001F99A
:1007E00000BF2249891E1F48FFF796FD0128F8D156
:1007F00001211C4800F03CF800BF1B491948FFF7D5
:100800008BFD0128F9D10122A021164800F0E0F863
:1008100000BF1549491C1348FFF77EFD0128F8D198
:1008200014E0012C03D100210E48FFF769FD00BF41
:100830000D493F310B48FFF76FFD0028F8D00948FC
:1008400000F0C2F828706D1C601EC4B2002CE8D104
:100850000121044800F018F801210248FFF750FD7B
:10086000BDE8F08100540040010003008200070051
:1008700021B1028842F48072028004E002884FF6BF
:10088000FF631A400280704721B1028842F400726F
:10089000028004E002884FF6FF531A40028070473E
:1008A0000CB50246002000230193009300920B0F29
:1008B000019321F07F41019B1BB1009B14330093F6
:1008C00003E0090C009B18330093009B1B680B404E
:1008D0000BB1012000E000200CBD00002DE9F04329
:1008E00085B004460D460026B1460427DFF8CC80CB
:1008F000A6884FF6C0700640684600F0B9F8DDF8EB
:1009000008802F48B8FBF0F01FFA80F946EA090684
:10091000A68020884FF6FE710840208000262949D5
:10092000286888420CD828684000B8FBF0F087B2ED
:10093000042F00DA04273E4309F10100208427E058
:10094000E8884BF6FF71884206D1286800EB40002A
:10095000B8FBF0F087B209E0286800EBC00101EBBA
:100960000010B8FBF0F087B247F48047C7F30B00E4
:1009700008B947F0010747F4004006434FF496706A
:1009800009FB00F04FF47A7190FBF1F0401C2084D9
:10099000A683208840F00100208026884FF6F5309D
:1009A0000640A8886989084306432680A8892989C2
:1009B0000843208105B0BDE8F083000000127A00F2
:1009C00040420F00A08601000146088AC0B270476D
:1009D00012B141F0010102E04FF6FE7319400182AD
:1009E000704701827047000010B50446214602A0FE
:1009F00000F084FA002010BD3C3C2D454550524F7C
:100A00004D2D4552524F522D3E3E2049324320B586
:100A1000C8B4FDB3ACCAB1216572726F72436F6422
:100A200065203D2025640A0000BFFEE7704770473F
:100A300029B1064AD2690243044BDA6104E0034A51
:100A4000D2698243014BDA61704700000010024016
:100A500029B1064A92690243044B9A6104E0034AB1
:100A600092698243014B9A61704700000010024076
:100A700030B500210022002400232D4D6D6805F0C3
:100A80000C0121B1042905D0082923D105E0294D05
:100A9000056022E0274D05601FE0254D6D6805F4D7
:100AA0007012234D6D6805F48034022505EB9242E7
:100AB0001CB9214D554305600BE01D4D6D6805F4D3
:100AC00000351DB11C4D5543056002E0194D5543DD
:100AD000056002E0174D056000BF00BF144D6D6852
:100AE00005F0F0010909154D6B5C0568DD404560B6
:100AF0000F4D6D6805F4E061090A104D6B5C4568A7
:100B0000DD4085600A4D6D6805F46051C90A0B4DE2
:100B10006B5C4568DD40C560054D6D6805F440417E
:100B2000890B074D6B5CC568B5FBF3F5056130BDFE
:100B30000010024000127A0000093D000000002071
:100B400010000020704710B500F002F810BD000042
:100B50000CB50020019000903348006840F48030CC
:100B60003149086000BF3048006800F40030009050
:100B70000198401C0190009818B90198B0F5A06F39
:100B8000F1D12948006800F4003010B10120009034
:100B900001E0002000900098012843D1234800681C
:100BA00040F01000214908600846006820F003006A
:100BB00008600846006840F0020008601A48406873
:100BC000194948600846406848600846406840F453
:100BD000806048600846406820F47C104860084601
:100BE000406840F4E81048600846006840F08070B3
:100BF000086000BF0C48006800F000700028F9D0C1
:100C00000948406820F003000749486008464068EA
:100C100040F00200486000BF0348406800F00C004C
:100C20000828F9D10CBD000000100240002002404D
:100C30007047000010B51348006840F001001149EA
:100C4000086008464068104908400E494860084658
:100C500000680E4908400B4908600846006820F407
:100C6000802008600846406820F4FE0048604FF489
:100C70001F008860FFF767FF4FF0006004490860BD
:100C800010BD0000001002400000FFF8FFFFF6FE5C
:100C900008ED00E010B540F22551084800F069F871
:100CA000012809D1054800F0FBF8054908700846FD
:100CB0000178024800F0F9F810BD0000003801404A
:100CC0001400002021B1828942F40052828104E0A4
:100CD00082894DF6FF731A408281704700B585B056
:100CE000012144F20400FFF7B3FE4FF40070ADF8A9
:100CF000100018208DF8130003208DF8120004A9AD
:100D00001348FFF770FA4FF48060ADF8100004202C
:100D10008DF8130004A90E48FFF765FA4FF4E1308F
:100D200000900020ADF80C000C20ADF80A00002067
:100D3000ADF80800ADF80600ADF8040069460548B6
:100D400000F042F801210348FFF7BCFF05B000BDE9
:100D5000000801400038014002460020B1F5007F44
:100D600000D100BF13880B400BB1012000E0002030
:100D7000704770B50246002400230025002040F68D
:100D80006A16B14200D100BFC1F3421501F01F0342
:100D9000012606FA03F3012D02D19689334006E0BD
:100DA000022D02D1168A334001E0968A33400C129C
:100DB000012606FA04F41688344013B10CB1012060
:100DC00000E0002070BD00002DE9F04786B0054628
:100DD0000E460024A24600BFA1460027B08900B1FC
:100DE00000BF2F462C8A4CF6FF700440F088044365
:100DF0002C82AC894EF6F3100440B0883189084348
:100E0000718908430443AC81AC8A4FF6FF4004402B
:100E1000B0890443AC8201A8FFF72AFE1F4887422D
:100E200002D1DDF810A001E0DDF80CA0A88900F4E3
:100E3000004040B10AEBCA0000EB0A1031684900DB
:100E4000B0FBF1F807E00AEBCA0000EB0A103168CA
:100E50008900B0FBF1F86420B8FBF0F00401200930
:100E6000642101FB1089A88900F4004040B13220C0
:100E700000EBC900B0FBF1F000F00700044308E00C
:100E8000322000EB09106421B0FBF1F000F00F00FC
:100E900004432C8106B0BDE8F08700000038014013
:100EA00001468888C0F308007047C1F308028280B9
:100EB000704700BFFEE7000010B500BF01210D48DC
:100EC000FFF7D6FC00BF0C490A48FFF7E9FC0028F1
:100ED000F9D00022A0210748FFF77AFD0649491CF6
:100EE0000448FFF7DDFC0028E8D001210148FFF7A6
:100EF000CBFC10BD00540040010000100FB4054BA6
:100F000010B503A9044A029800F018F810BC5DF867
:100F100014FB0000911000081800002002E008C82F
:100F2000121F08C1002AFAD170477047002001E063
:100F300001C1121F002AFBD1704700002DE9FF4FAD
:100F400089B09B460446002506E025280BD05A466A
:100F50000B999047641C6D1C20780028F5D10DB0CA
:100F60002846BDE8F08F0027B8460122474900E037
:100F7000074314F8013F203B02FA03F00842F7D17F
:100F800020782E2819D114F8010F47F004072A28D9
:100F90000ED06FF02F022078A0F1300109290CD873
:100FA00008EB880102EB410100EB0108641CF2E749
:100FB0000A98641C50F8048B0A9020780028CED040
:100FC000642808D0692806D075281ED05A460B9987
:100FD00090476D1C58E00A994FF00A0901C90A911F
:100FE000002802DA40422D2102E0390504D52B21E8
:100FF0008DF82010012103E0F90704D02021F7E744
:101000008A4608AE0DE00021FAE70A994FF00A0976
:1010100001C90A91F7E74946FFF7BAF8303106F8F7
:10102000011D0028F7D1ADEB060000F1200978077B
:1010300001D44FF00108C84502DDA8EB090000E02B
:1010400000208046002706E008A85A46C05D0B999C
:1010500090476D1C7F1C5745F6DB04E030205A4654
:101060000B9990476D1CB8F10001A8F10108F5DC5F
:1010700005E016F8010B5A460B9990476D1CB9F123
:101080000001A9F10109F4DC641C65E709280100ED
:1010900070B504460D46E1B20548FFF706FF00BFF4
:1010A00080210348FFF758FE0028F9D0204670BD84
:1010B00000380140AAB00024442119A8FFF75DF8C8
:1010C000294A07CA16AB07C3442105A8FFF755F8FC
:1010D000254A0C3207CA02AB07C3FFF7FFFDFFF733
:1010E00041FA00BF03E016A80455601CC4B2502C9E
:1010F000F9DB0A210020FFF7CBF9FFF7DDFE01A99C
:101100000020FFF7E3FA9DF8041018A0FFF7F6FEA1
:10111000502216A90320FFF720F9FFF7CDFE502239
:1011200002A90320FFF73AFB002406E002A8015DB4
:101130000FA0FFF7E3FE601CC4B2502CF6DB0024C6
:1011400008E002A8005D16A9095D884200D003E00E
:10115000601CC4B2502CF4DB00BF502C02D105A09F
:10116000FFF7CCFE00BFFEE78411000825640A00EB
:1011700025642000B6C1D0B4B2E2CAD4B3C9B9A6BE
:101180000000000001020304050607080900000032
:10119000000101010101010101000000BC11000872
:1011A000000000201C0000001C0F0008D8110008DF
:1011B0001C000020040400002C0F000800000000A8
:1011C00001020304010203040607080902040608D9
:0811D000000000000000000017
:0400000508000131BD
:00000001FF
