:020000040800F2
:1000000048070020E1010008C9040008190400089D
:10001000C504000855020008DD0A000800000000C1
:10002000000000000000000000000000490100087E
:1000300059020008000000008D0100087508000842
:10004000FB010008FB010008FB010008FB010008A0
:10005000FB010008FB010008FB010008FB01000890
:10006000FB010008FB010008FB010008FB01000880
:10007000FB010008FB010008FB010008FB01000870
:10008000FB010008FB010008FB010008FB01000860
:10009000FB010008FB010008FB010008FB01000850
:1000A000FB010008FB010008FB010008FB01000840
:1000B000FB010008FB010008FB010008FB01000830
:1000C000FB010008FB010008FB010008FB01000820
:1000D000FB010008FB010008FB010008FB01000810
:1000E000FB010008FB010008FB010008FB01000800
:1000F000FB010008FB010008FB010008FB010008F0
:10010000FB010008FB010008FB010008FB010008DF
:10011000FB010008FB010008FB010008FB010008CF
:10012000FB010008FB010008FB010008FB010008BF
:10013000DFF810D000F07CF8004800475D0D0008A3
:10014000AFF3008048070020224B19680868B0E828
:10015000F00F80F30988BFF36F8F4FF0000080F33A
:1001600011884EF00D0E7047000000000648006830
:10017000006880F3088862B661B6BFF34F8FBFF3A3
:100180006F8F00DF00BF00BF08ED00E0EFF30980D4
:10019000BFF36F8F0F4B1A6820E9F00F106008B59E
:1001A0004FF0500080F31188BFF34F8FBFF36F8F74
:1001B00000F01CFE4FF0000080F31188BDE80840FD
:1001C00019680868B0E8F00F80F30988BFF36F8FF3
:1001D000704700BF20000020EFF30580704700004B
:1001E0000648804706480047FEE7FEE7FEE7FEE7D1
:1001F000FEE7FEE7FEE7FEE7FEE7FEE7ED080008A4
:100200003101000830B50B460146002020220124B0
:1002100009E021FA02F59D4205D303FA02F5491BD4
:1002200004FA02F52844151EA2F10102F1DC30BDEA
:10023000064C074D06E0E06840F0010394E8070033
:1002400098471034AC42F6D3FFF776FFBC10000895
:10025000DC10000800BFFEE7704700000549096890
:1002600021F01001034A1160114609680143116031
:10027000704700000020024001460020034A106839
:1002800000F0380008431060704700000020024072
:100290002DE9F0410246002500260020002300241D
:1002A000002791F803C00CF00F0591F803C00CF083
:1002B000100CBCF1000F03D091F802C04CEA050508
:1002C00091F800C0BCF1000F31D0146800202BE081
:1002D0004FF0010C0CFA00F3B1F800C00CEA030671
:1002E0009E4220D183004FF00F0C0CFA03F7BC4361
:1002F00005FA03FC4CEA040491F803C0BCF1280F92
:1003000006D14FF0010C0CFA00FCC2F814C00AE050
:1003100091F803C0BCF1480F05D14FF0010C0CFA65
:1003200000FCC2F810C0401C0828D1D31460B1F8FA
:1003300000C0BCF1FF0F34DD546800202EE000F156
:10034000080C4FF0010808FA0CF3B1F800C00CEAF1
:1003500003069E4221D183004FF00F0C0CFA03F7E5
:10036000BC4305FA03FC4CEA040491F803C0BCF159
:10037000280F05D100F1080C08FA0CF8C2F8148017
:1003800091F803C0BCF1480F07D100F1080C4FF001
:10039000010808FA0CF8C2F81080401C0828CED3D7
:1003A0005460BDE8F081016170471CB5044600202F
:1003B0000190009000F09AF84FF4803000F058F966
:1003C00000F0B4F90090009828B31020FFF746FF22
:1003D0000220FFF751FF002000F03EF94FF480604B
:1003E00000F06CF9002000F075F921464FF48030E0
:1003F00000F082F9012000F079F900BF392000F007
:1004000005F90028FAD0022000F084F900BF00F0BE
:100410001BF90828FBD11CBD00BFFEE708B5012170
:10042000142000F053F80120ADF8000004208DF8EE
:10043000030069460748FFF72BFF4FF40050ADF863
:10044000000004208DF8030069460348FFF720FFF1
:1004500008BD0000000801400010014008B501215E
:10046000082000F033F810208DF803002020ADF8AC
:10047000000003208DF8020069460F48FFF708FFCF
:100480000120ADF8000069460B48FFF701FF02208C
:10049000ADF8000069460848FFF7FAFE0221064859
:1004A000FFF781FF01210448FFF77DFF202102486B
:1004B000FFF779FF08BD0000000C014010B5FFF701
:1004C000CDFF10BD00BFFEE77047000029B1064A0E
:1004D00092690243044B9A6104E0034A92698243A1
:1004E000014B9A6170470000001002400F480068FD
:1004F00040F001000D490860084640680C4908407A
:100500000A494860084600680A49084007490860E7
:100510000846006820F4802008600846406820F4FF
:10052000FE0048604FF41F008860704700100240D2
:100530000000FFF8FFFFF6FE30B500210022002486
:1005400000232D4D6D6805F00C0121B1042905D063
:10055000082923D105E0294D056022E0274D0560DB
:100560001FE0254D6D6805F47012234D6D6805F48C
:100570008034022505EB92421CB9214D554305609C
:100580000BE01D4D6D6805F400351DB11C4D554344
:10059000056002E0194D5543056002E0174D056006
:1005A00000BF00BF144D6D6805F0F0010909154D3D
:1005B0006B5C0568DD4045600F4D6D6805F4E061DA
:1005C000090A104D6B5C4568DD4085600A4D6D6819
:1005D00005F46051C90A0B4D6B5C4568DD40C56090
:1005E000054D6D6805F44041890B074D6B5CC5688E
:1005F000B5FBF3F5056130BD0010024000127A0032
:1006000000093D00000000201000002010B5014648
:100610000022002300204A11012A02D1094C23683C
:1006200006E0022A02D1074C236A01E0054C636A06
:1006300001F01F02012494401C400CB1012000E095
:10064000002010BD001002400248406800F00C007D
:10065000704700000010024001460020034A506825
:1006600020F0F00008435060704700000010024086
:100670001149096821F480310F4A11601146096857
:1006800021F480211160B0F5803F03D0B0F5802FB8
:100690000ED106E00849096841F48031064A11602C
:1006A00007E00549096841F4A021034A116000E010
:1006B00000BF00BF7047000000100240014600204C
:1006C000034A506820F4E06008435060704700001F
:1006D0000010024001460020034A506820F4605098
:1006E00040EAC100506070470010024001490866AE
:1006F000704700000000424202460020044B586848
:1007000020F47C1042EA01031843014B5860704703
:100710000010024001460020034A506820F0030008
:1007200008435060704700000010024038B50020B8
:1007300000900024002500BF3120FFF767FF054629
:100740000098401C00900098B0F5A06F01D0002DDB
:10075000F2D03120FFF75AFF08B1012400E0002455
:10076000204638BD10B500F001F810BD0CB50020D2
:10077000019000903348006840F4803031490860AF
:1007800000BF3048006800F4003000900198401C21
:100790000190009818B90198B0F5A06FF1D12948DF
:1007A000006800F4003010B10120009001E000204A
:1007B00000900098012843D12348006840F01000C1
:1007C000214908600846006820F0030008600846D8
:1007D000006840F0020008601A4840681949486003
:1007E0000846406848600846406840F480604860B9
:1007F0000846406820F47C1048600846406840F491
:10080000E81048600846006840F08070086000BF4B
:100810000C48006800F000700028F9D009484068D2
:1008200020F00300074948600846406840F0020095
:10083000486000BF0348406800F00C000828F9D168
:100840000CBD00000010024000200240042808D126
:100850004FF0E021096941F004014FF0E0221161FD
:1008600007E04FF0E021096921F004014FF0E02298
:100870001161704710B507480068074909780844B6
:100880000449086000F020FB012801D000F002FBC1
:1008900010BD0000180000201C00002070B50446A8
:1008A00000204FF0E0210861401FFFF7CFFFE11764
:1008B00004EB5171C1F3CF010B4A1180E11704EB36
:1008C0005171CD104FF47A7045434FF0E02000692C
:1008D00040F002004FF0E0210861084645610069E0
:1008E00040F00100086170BD1400002010B51348ED
:1008F000006840F00100114908600846406810494E
:1009000008400E494860084600680E4908400B49F7
:1009100008600846006820F48020086008464068A7
:1009200020F4FE0048604FF41F008860FFF71AFFB4
:100930004FF000600449086010BD00000010024044
:100940000000FFF8FFFFF6FE08ED00E021B182890C
:1009500042F40052828104E082894DF6FF731A400E
:100960008281704700B585B0012144F20400FFF791
:10097000ADFD4FF40070ADF8100018208DF8130095
:1009800003208DF8120004A91348FFF781FC4FF4EF
:100990008060ADF8100004208DF8130004A90E4803
:1009A000FFF776FC4FF4E13000900020ADF80C002A
:1009B0000C20ADF80A000020ADF80800ADF80600E4
:1009C000ADF804006946054800F018F80121034815
:1009D000FFF7BCFF05B000BD000801400038014032
:1009E00002460020B1F5007F00D100BF13880B4004
:1009F0000BB1012000E00020704700002DE9F04716
:100A000086B005460E460024A24600BFA146002738
:100A1000B08900B100BF2F462C8A4CF6FF7004400D
:100A2000F08804432C82AC894EF6F3100440B08861
:100A300031890843718908430443AC81AC8A4FF67D
:100A4000FF400440B0890443AC8201A8FFF774FD65
:100A50001F48874202D1DDF810A001E0DDF80CA0AC
:100A6000A88900F4004040B10AEBCA0000EB0A106C
:100A700031684900B0FBF1F807E00AEBCA0000EB6F
:100A80000A1031688900B0FBF1F86420B8FBF0F07F
:100A900004012009642101FB1089A88900F40040A9
:100AA00040B1322000EBC900B0FBF1F000F00700CC
:100AB000044308E0322000EB09106421B0FBF1F0A0
:100AC00000F00F0004432C8106B0BDE8F087000061
:100AD00000380140C1F308028280704700BFFEE782
:100AE0000FB4054B10B503A9044A029800F018F89A
:100AF00010BC5DF814FB0000390D000860000020F8
:100B000002E008C8121F08C1002AFAD170477047D6
:100B1000002001E001C1121F002AFBD17047000034
:100B20002DE9FF4F8BB09A460F460546002606E09A
:100B300025280BD052460D9990476D1C761C2878BD
:100B40000028F5D10FB03046BDE8F08F0024A04654
:100B50000122604900E0044315F8013F203B02FAFE
:100B600003F00842F7D128782E2817D115F8010F85
:100B700044F004042A280ED06FF02F022878A0F148
:100B8000300109290AD808EB880102EB410100EB8A
:100B900001086D1CF2E757F8048B6D1C2878692852
:100BA0003ED006DC0028CDD063280BD0642804D1C9
:100BB00036E0732810D075284BD052460D999047D7
:100BC000761C85E017F8040B8DF8000000208DF8E6
:100BD0000100E946012003E057F8049B4FF0FF3085
:100BE00061074FF0000401D40AE0641C44450DDAAB
:100BF0008442FADB19F804100029F6D106E0641CDF
:100C00008442FCDB19F804100029F8D1264404E0E2
:100C100019F8010B52460D999047641EF8D257E01F
:100C200001CF4FF00A0B002802DA40422D2102E0EA
:100C3000210504D52B218DF82410012103E0E107C3
:100C400005D02021F7E70DF1200908910CE00021E3
:100C5000F9E701CF4FF00A0BF9E75946FFF7D2FA4F
:100C600001F1300209F8012D0028F6D1ADEB0900A1
:100C700000F1200B600701D44FF00108D84502DDD8
:100C8000A8EB0B0000E000208046002406E009A845
:100C90005246005D0D999047641C761C089884426A
:100CA000F5DB04E0302052460D999047761CB8F1F0
:100CB0000001A8F10108F5DC05E019F8010B524626
:100CC0000D999047761CBBF10001ABF1010BF4DCF0
:100CD0006D1C34E70928010030B50446002504E006
:100CE0004FF47A7000F004F86D1CA542F8D330BDC3
:100CF00070B5034600224FF0E02675690D4E368828
:100D000003FB06F44FF0E026B16910E04FF0E02657
:100D1000B06988420BD0884202D20E1A324402E0F7
:100D20002E1A0E4432440146A24200D300E0EDE701
:100D300000BF70BD1400002070B504460D46E1B23E
:100D40000548FFF7C7FE00BF80210348FFF748FEB4
:100D50000028F9D0204670BD003801404FF4E01063
:100D6000FFF723FBFFF7AAFB4820FFF797FDFFF7EC
:100D7000F9FDFFF753FB0EE00748006880F0010023
:100D8000054908604FF47A70FFF7A6FF172203A108
:100D900006A0FFF7A5FEEFE70C0C01402E2E5C55D8
:100DA0007365725C6D61696E2E6300004572726FCF
:100DB000723A2025732C2025640D0A00094800682A
:100DC000006808B9012000E0002020B14FF0FF309A
:100DD0000549086005E003480068C06800680249EA
:100DE00008607047240000205000002010B51B4808
:100DF000006818B101201A4908602DE00020184948
:100E0000086018480068B0FA80F0C0F11F0404EBD5
:100E10008400154951F8200008B1012000E00020AD
:100E200028B940F6074211A115A0FFF759FE04EBBF
:100E300084010D4A02EB810041684968416000F17C
:100E4000080142688A4202D14168496841604168AC
:100E5000C9680F4A116000BF10BD00005C0000208F
:100E60004400002038000020640000202E2E5C4644
:100E700072656552544F535C7461736B732E6300DB
:100E80004572726F723A2025732C2025640D0A007A
:100E90002000002010B500BF502080F31188BFF360
:100EA0004F8FBFF36F8F00BF00F01EF818B14FF0E7
:100EB00080500449086000BF002080F3118800BF03
:100EC00010BD000004ED00E00549096809B90120E2
:100ED00005E00449096809B9022000E000207047D4
:100EE0003C0000205C0000202DE9F0414FF000089C
:100EF0005E48006800287DD15D480068451C5C485C
:100F00000560EDB95B480068006808B9012000E0A1
:100F1000002028B940F6C82257A15CA0FFF7E0FDE9
:100F2000544807685D480068524908605B4807609C
:100F30005B480068401C5A490860FFF73FFF00BF4C
:100F400058480068854277D300BF4A480068006867
:100F500008B9012000E0002020B14FF0FF305149D6
:100F6000086068E043480068C068C4686668B542C5
:100F700002D24C4806605EE06069D4E902128A60E1
:100F8000D4E902214A60211D42688A4201D1E16808
:100F90004160002262610168491E0160A06A98B147
:100FA000A06AD4E907128A60D4E907214A6004F1F3
:100FB000180142688A4201D1216A41600022A2627E
:100FC0000168491E016000BF94F82C100120884080
:100FD00035490968084334490860E16A01EB810139
:100FE000324A02EB81014868A0608268E260211DFC
:100FF000826800E032E051608160E16A01EB8101CA
:101000002A4A02EB81026261E16A01EB8101274A0F
:1010100052F82110491CE26A02EB8202234B43F88A
:1010200022102349E06A0968C96A88428DD94FF0C5
:1010300001088AE700E000BF1D480068C06A00EBB5
:1010400080001A4951F82000012801D94FF0010809
:101050001848006808B14FF0010804E0164800681D
:10106000401C154908604046BDE8F0815C00002046
:1010700034000020240000202E2E5C46726565524C
:10108000544F535C7461736B732E63004572726FBF
:10109000723A2025732C2025640D0A0028000020B8
:1010A000480000205000002038000020640000208C
:1010B000200000204400002040000020DC10000838
:1010C0000000002064000000000B00084011000830
:1010D00064000020E4060000100B0008000000007F
:1010E00001020304010203040607080902040608BA
:1010F00000000000000000000100000000000000EF
:1011000000000000000000000000000000000000DF
:1011100000000000000000000000000000000000CF
:1011200000000000000000000000000000000000BF
:10113000000000001F000000000000000000000090
:0400000508000131BD
:00000001FF
