:020000040800F2
:1000000030040020490100080F040008B303000871
:100010000B040008BD010008AB0F00080000000041
:10002000000000000000000000000000B10B00080C
:10003000470200080000000069080008290D0008B8
:100040006301000863010008630100086301000800
:1000500063010008630100086301000863010008F0
:1000600063010008630100086301000863010008E0
:1000700063010008630100086301000863010008D0
:1000800063010008630100086301000863010008C0
:1000900063010008630100086301000863010008B0
:1000A00063010008630100086301000863010008A0
:1000B0006301000863010008630100086301000890
:1000C0006301000863010008630100086301000880
:1000D000630100088D0D000863010008630100083A
:1000E0006301000863010008630100086301000860
:1000F0006301000863010008630100086301000850
:10010000630100086301000863010008630100083F
:10011000630100086301000863010008630100082F
:10012000630100086301000863010008630100081F
:10013000DFF810D000F030F800480047A5110008A3
:10014000AFF300803004002006488047064800478F
:10015000FEE7FEE7FEE7FEE7FEE7FEE7FEE7FEE777
:10016000FEE7FEE72D0D00083101000830B50B4613
:10017000014600202022012409E021FA02F59D42D7
:1001800005D303FA02F5491B04FA02F52844151EAB
:10019000A2F10102F1DC30BD064C074D06E0E0683B
:1001A00040F0010394E8070098471034AC42F6D3BE
:1001B000FFF7C2FF181200083812000800BFFEE760
:1001C0002DE9F0410746884615460421052000F038
:1001D0002DF80021012000F0EBFE80210A2000F024
:1001E000E8FC002405E0395D092000F0E1FE601C18
:1001F000C4B24445F7DB0321012000F0D9FEFF24FF
:1002000000BF052000F0ACFB0646601EC4B21CB166
:1002100006F004000028F4D0222000F0A1FB287092
:10022000212000F09DFB6870BDE8F08170B50546A7
:100230000C46284600F094FB064626EA04012846B0
:1002400000F0B6FE70BD704731B510480068104927
:10025000B0FBF1F4204600F03DFD0AE000BF4FF096
:10026000E020006900F480300028F8D00098401E9B
:10027000009000980028F1D14FF0E020006920F0B4
:1002800001004FF0E021086138BD000000000020AF
:10029000A08601002DE9F04102460025002600203D
:1002A00000230024002791F803C00CF00F0591F8FB
:1002B00003C00CF0100CBCF1000F03D091F802C089
:1002C0004CEA050591F800C0BCF1000F31D014686C
:1002D00000202BE04FF0010C0CFA00F3B1F800C045
:1002E0000CEA03069E4220D183004FF00F0C0CFA5B
:1002F00003F7BC4305FA03FC4CEA040491F803C07D
:10030000BCF1280F06D14FF0010C0CFA00FCC2F82A
:1003100014C00AE091F803C0BCF1480F05D14FF0BA
:10032000010C0CFA00FCC2F810C0401C0828D1D304
:100330001460B1F800C0BCF1FF0F34DD5468002038
:100340002EE000F1080C4FF0010808FA0CF3B1F8A8
:1003500000C00CEA03069E4221D183004FF00F0C2F
:100360000CFA03F7BC4305FA03FC4CEA040491F8C9
:1003700003C0BCF1280F05D100F1080C08FA0CF8F5
:10038000C2F8148091F803C0BCF1480F07D100F106
:10039000080C4FF0010808FA0CF8C2F81080401C55
:1003A0000828CED35460BDE8F081416170470161F7
:1003B000704700BFFEE710B50446412C24D1082148
:1003C0000846FFF733FF3D21112000F0F1FD8621A3
:1003D000172000F0EDFD7F21262000F0E9FD1E2111
:1003E0002D2000F0E5FD00212C2000F0E1FD8D2105
:1003F0002A2000F0DDFD3E212B2000F0D9FD022057
:10040000FFF722FF00F004F810BD00BFFEE77047C1
:1004100010B5142000F0A4FA044604F0030018B943
:100420000321142000F0C5FB10BDF0B587B00546D0
:10043000002708210846FFF7F9FE00210D2000F0F3
:10044000B7FD80210E20FFF7F1FE93208DF8080004
:1004500020208DF8090001A802AB022202A9009019
:100460000C2000F051F8064686B9002407E002A8E7
:10047000005D285502A8005D4740601CC4B2042CF2
:10048000F5DB02A8005DB84200D0022680210E20D4
:1004900000F08FFB304607B0F0BD2DE9F04387B088
:1004A00006460F46904699468DF808608DF809700B
:1004B000002406E018F8041002AAA01C1154601CC5
:1004C000C4B2062CF6DB002407E019F8041002AAD7
:1004D00004F108001154601CC4B2062CF5DB01A81D
:1004E00002AB0C2202A900900E2000F00DF8054688
:1004F0002DB9082000F034FA00F0080000B90225F8
:10050000284607B0BDE8F0832DE9FE4F0646884631
:1005100091469A46DDF830B002200290002001900A
:1005200000900C2E06D00E2E09D112200190102022
:10053000009005E0772001903020009000E000BF9F
:1005400000BF019840F08001022000F031FD8021C1
:100550000420FFF76BFE0021012000F029FD80211F
:100560000A2000F026FB002505E018F805100920F8
:1005700000F01EFD6D1C4D45F7D33146012000F003
:1005800017FD0C2E03D180210D2000F012FB4FF43B
:100590007A7500BF042000F0E3F904466D1E35B102
:1005A00004F0010018B9009820400028F2D0802102
:1005B0000D20FFF73BFE95B3062000F0D1F900F0C7
:1005C0001B0068BB002002900198204000F0010051
:1005D00008B1012002900C2E24D10A2000F0C0F9AD
:1005E00004460C2000F0BCF900F007072FB1601E94
:1005F00007EBC000CBF8000002E0E000CBF8000001
:1006000004B90124122C00DD1224002505E0092084
:1006100000F0A6F90AF805006D1CA542F7D301E029
:100620000220029080210C2000F0C3FA002101205A
:1006300000F0BEFC0298BDE8FE8FF0B587B005461D
:100640000E4630208DF808008DF809500DF10A0291
:10065000022102A8FFF7B4FD01A802AB042202A9FF
:1006600000900C20FFF750FF074667B901989028CB
:1006700009D1002404E002A8005D3055601CC4B21A
:10068000102CF8DB00E00227384607B0F0BD70B54B
:1006900088B005460C4608210846FFF7C7FD07212C
:1006A0000D2000F085FC0321142000F082FA8DF863
:1006B0000C5002A803AB012203A900900C20FFF705
:1006C00023FF06464EB90298102806D19DF80C006B
:1006D00020709DF80D00607000E00226304608B0E2
:1006E00070BD000010B504211D48FFF760FE012019
:1006F000FFF7AAFD04211A48FFF757FE0120FFF774
:10070000A3FD04211648FFF752FE0120FFF79CFDD0
:100710000F21012000F04CFC00BF012000F020F967
:1007200000F010000028F8D10120FFF78DFD3D21D9
:10073000112000F03DFC1E212D2000F039FC00218D
:100740002C2000F035FC8D212A2000F031FC3E21C8
:100750002B2000F02DFC4021152000F029FC10BDBD
:100760000008014070B588B0054693208DF80C0054
:1007700070208DF80D0000208DF8120000240BE091
:10078000295D03AAA01C11549DF81200295D484060
:100790008DF81200601CC4B2042CF1DB0DF11302C1
:1007A000072103A8FFF70CFD08210846FFF73EFDCF
:1007B00002A803AB092203A900900C20FFF7A4FEB6
:1007C000064626B90298182801D1002600E0022624
:1007D000304608B070BDF0B587B006460F46A02081
:1007E0008DF808008DF809600DF10A02022102A8B7
:1007F000FFF7E6FC01A802AB042202A900900C203E
:10080000FFF782FE054645B90198042805D19DF8F9
:10081000080000F00F000A2800D002250DBB0024BC
:1008200004E0385D02A90855601CC4B2102CF8DB46
:1008300006AA102102A8FFF7C3FC01A802AB1222EE
:1008400002A900900C20FFF75FFE054645B901980C
:10085000042805D19DF8080000F00F000A2800D0F8
:100860000225284607B0F0BD7047000029B1064AAE
:1008700092690243044B9A6104E0034A92698243FD
:10088000014B9A61704700000010024030B5002112
:100890000022002400232D4D6D6805F00C0121B1CC
:1008A000042905D0082923D105E0294D056022E05F
:1008B000274D05601FE0254D6D6805F47012234D2E
:1008C0006D6805F48034022505EB92421CB9214D78
:1008D000554305600BE01D4D6D6805F400351DB1F5
:1008E0001C4D5543056002E0194D5543056002E07B
:1008F000174D056000BF00BF144D6D6805F0F00195
:100900000909154D6B5C0568DD4045600F4D6D684C
:1009100005F4E061090A104D6B5C4568DD408560B7
:100920000A4D6D6805F46051C90A0B4D6B5C456852
:10093000DD40C560054D6D6805F44041890B074DEC
:100940006B5CC568B5FBF3F5056130BD0010024076
:1009500000127A0000093D0014000020240000204D
:1009600070B50446002510210D48FFF71EFD002636
:100970007E2000EA440040F080060A20FFF764FC75
:10098000304600F047F80A20FFF75EFC002000F038
:1009900041F8054610210248FFF709FD284670BDC1
:1009A0000008014021B1028842F04002028004E0C8
:1009B00002884FF6BF731A400280704700B585B0B9
:1009C00001210803FFF752FF1020ADF80C000120B1
:1009D000ADF808000220ADF806000020ADF81000C8
:1009E000ADF80400ADF80000ADF80E004FF48270D1
:1009F000ADF802004FF40070ADF80A0069460448F3
:100A000000F092F801210248FFF7CCFF05B000BDCD
:100A10000030014070B505464FF4805406E0601E7A
:100A200084B21CB9002000F0A3F805E002211048B0
:100A300000F06CF80028F2D000BF29460C4800F006
:100A400071F84FF4805406E0601E84B21CB9012096
:100A500000F08EF805E00121054800F057F8002865
:100A6000F2D000BF024800F05AF8C0B270BD0000DA
:100A70000030014008B501210C20FFF7F7FE2020CF
:100A8000ADF8000018208DF8030003208DF8020057
:100A900069461D48FFF7FEFB8020ADF800001820D6
:100AA0008DF8030003208DF8020069461648FFF711
:100AB000F1FB4020ADF8000004208DF80300032076
:100AC0008DF8020069461048FFF7E4FB1020ADF8EE
:100AD00000008DF8030003208DF8020069460A48E3
:100AE000FFF7D8FB0420ADF8000010208DF80300BC
:100AF00003208DF8020069460348FFF7CBFB102165
:100B00000148FFF754FC08BD0008014002460020E0
:100B100013890B400BB1012000E000207047014613
:100B2000888970478181704710B50022028802F4DD
:100B300041520B884C8823438C882343CC88234321
:100B40000C8923434C8923438C892343CC89234339
:100B50001A430280838B4FF2FF74234083830B8AF6
:100B6000038210BD10B5FFF785FFFFF727FF10BD0B
:100B700010B50446214602A000F038FA002010BD4E
:100B80003C3C2D454550524F4D2D4552524F522D14
:100B90003E3E2053504920B5C8B4FDB3ACCAB12184
:100BA0006572726F72436F6465203D2025640A0090
:100BB000704770B505460C462846FFF7D1FE06463D
:100BC00046EA0401284600F0F3F970BD10B500F0C4
:100BD00001F810BD0CB5002001900090334800686A
:100BE00040F480303149086000BF3048006800F4AC
:100BF000003000900198401C0190009818B90198AD
:100C0000B0F5A06FF1D12948006800F4003010B1B0
:100C10000120009001E0002000900098012843D1BD
:100C20002348006840F01000214908600846006829
:100C300020F0030008600846006840F002000860E9
:100C40001A484068194948600846406848600846A4
:100C5000406840F4806048600846406820F47C109A
:100C600048600846406840F4E8104860084600685C
:100C700040F08070086000BF0C48006800F0007011
:100C80000028F9D00948406820F00300074948606F
:100C90000846406840F00200486000BF03484068D2
:100CA00000F00C000828F9D10CBD00000010024033
:100CB0000020024010B5064800684FF47A71B0FB7E
:100CC000F1F4204600F006F808B100BFFEE710BDC1
:100CD0000000002030B50146B1F1807F01D3012032
:100CE00030BD21F07F40401E4FF0E0225061501790
:100CF0000F22002807DA13071D0E094B00F00F041E
:100D0000241F1D5503E013071C0E064B1C5400BF87
:100D100000204FF0E0229061072010610020DFE703
:100D200018ED00E000E400E07047000010B5134843
:100D3000006840F001001149086008464068104909
:100D400008400E494860084600680E4908400B49B3
:100D500008600846006820F4802008600846406863
:100D600020F4FE0048604FF41F008860FFF72EFF5C
:100D70004FF000600449086010BD00000010024000
:100D80000000FFF8FFFFF6FE08ED00E010B540F2AE
:100D90002551084800F069F8012809D1054800F0FC
:100DA000FBF80549087008460178024800F0F9F898
:100DB00010BD0000003801402800002021B18289C8
:100DC00042F40052828104E082894DF6FF731A409A
:100DD0008281704700B585B0012144F20400FFF71D
:100DE00045FD4FF40070ADF8100018208DF8130089
:100DF00003208DF8120004A91348FFF74BFA4FF4B3
:100E00008060ADF8100004208DF8130004A90E488E
:100E1000FFF740FA4FF4E13000900020ADF80C00ED
:100E20000C20ADF80A000020ADF80800ADF806006F
:100E3000ADF804006946054800F042F80121034876
:100E4000FFF7BCFF05B000BD0008014000380140BD
:100E500002460020B1F5007F00D100BF13880B408F
:100E60000BB1012000E00020704770B5024600245D
:100E700000230025002040F66A16B14200D100BFD1
:100E8000C1F3421501F01F03012606FA03F3012DF9
:100E900002D19689334006E0022D02D1168A3340F2
:100EA00001E0968A33400C12012606FA04F41688F3
:100EB000344013B10CB1012000E0002070BD0000EF
:100EC0002DE9F04786B005460E460024A24600BF35
:100ED000A1460027B08900B100BF2F462C8A4CF6EE
:100EE000FF700440F08804432C82AC894EF6F31066
:100EF0000440B08831890843718908430443AC81B8
:100F0000AC8A4FF6FF400440B0890443AC8201A88C
:100F1000FFF7BCFC1F48874202D1DDF810A001E0BA
:100F2000DDF80CA0A88900F4004040B10AEBCA002B
:100F300000EB0A1031684900B0FBF1F807E00AEB5A
:100F4000CA0000EB0A1031688900B0FBF1F8642098
:100F5000B8FBF0F004012009642101FB1089A88985
:100F600000F4004040B1322000EBC900B0FBF1F0CA
:100F700000F00700044308E0322000EB0910642170
:100F8000B0FBF1F000F00F0004432C8106B0BDE887
:100F9000F08700000038014001468888C0F308004F
:100FA0007047C1F308028280704700BFFEE700006F
:100FB00070B504460D4610210B48FFF7F6F90026E0
:100FC0007E2000EA44060A20FFF73EF93046FFF78C
:100FD00021FD0A20FFF738F92846FFF71BFD1021F5
:100FE0000148FFF7E4F970BD000801400FB4054B5C
:100FF00010B503A9044A029800F018F810BC5DF877
:1010000014FB0000811100082C00002002E008C839
:10101000121F08C1002AFAD170477047002001E072
:1010200001C1121F002AFBD1704700002DE9FF4FBC
:1010300089B09B460446002506E025280BD05A4679
:101040000B999047641C6D1C20780028F5D10DB0D9
:101050002846BDE8F08F0027B8460122474900E046
:10106000074314F8013F203B02FA03F00842F7D18E
:1010700020782E2819D114F8010F47F004072A28E8
:101080000ED06FF02F022078A0F1300109290CD882
:1010900008EB880102EB410100EB0108641CF2E758
:1010A0000A98641C50F8048B0A9020780028CED04F
:1010B000642808D0692806D075281ED05A460B9996
:1010C00090476D1C58E00A994FF00A0901C90A912E
:1010D000002802DA40422D2102E0390504D52B21F7
:1010E0008DF82010012103E0F90704D02021F7E753
:1010F0008A4608AE0DE00021FAE70A994FF00A0986
:1011000001C90A91F7E74946FFF730F8303106F890
:10111000011D0028F7D1ADEB060000F1200978078A
:1011200001D44FF00108C84502DDA8EB090000E03A
:1011300000208046002706E008A85A46C05D0B99AB
:1011400090476D1C7F1C5745F6DB04E030205A4663
:101150000B9990476D1CB8F10001A8F10108F5DC6E
:1011600005E016F8010B5A460B9990476D1CB9F132
:101170000001A9F10109F4DC641C65E709280100FC
:1011800070B504460D46E1B20548FFF70AFF00BFFF
:1011900080210348FFF75CFE0028F9D0204670BD8F
:1011A0000038014086B019A103C9CDE904016420CB
:1011B0000290FFF70FFEFFF77DFDFFF7D3FCFFF76F
:1011C00091FA4120FFF7F7F81FE003A92620FFF767
:1011D0005EFAD0B903A8FFF728F9B0B903A8FFF762
:1011E000C1FA90B903AB04AA04216020FFF755F9B6
:1011F00002A90420FFF7EFFA01A90420FFF71DFA66
:101200009DF8041003A0FFF7F1FEDEE7FFFFFFFFEC
:10121000FFFF000025640A003812000800000020CB
:10122000300000000C100008681200083000002098
:10123000000400001C10000800A24A040000000086
:101240000000000001020304060708090000000076
:101250000102030401020304060708090204060848
:08126000000000000000000086
:0400000508000131BD
:00000001FF
