:020000040800F2
:100000001808002049010008950800084108000868
:1000100091080008AD0600088917000800000000DC
:10002000000000000000000000000000710E000849
:10003000B1060008000000005B0D00086101000827
:100040006301000863010008630100086301000800
:1000500063010008630100086301000863010008F0
:1000600063010008630100086301000863010008E0
:1000700063010008630100086301000863010008D0
:1000800063010008630100086301000863010008C0
:1000900063010008630100086301000863010008B0
:1000A00063010008630100086301000863010008A0
:1000B0006301000863010008630100086301000890
:1000C0006301000863010008630100086301000880
:1000D0006301000863010008630100086301000870
:1000E0006301000863010008630100086301000860
:1000F0006301000863010008630100086301000850
:10010000630100086301000863010008630100083F
:10011000630100086301000863010008630100082F
:10012000630100086301000863010008630100081F
:10013000DFF810D000F0A8FA00480047652000085A
:10014000AFF30080180800200648804706480047A3
:10015000FEE7FEE7FEE7FEE7FEE7FEE7FEE7FEE777
:10016000FEE7FEE75D0F0008310100082DE9FE4FB4
:10017000804681EA0300C00F0C46009021F0004148
:1001800023F00045B8EB0200A94105D240462146C4
:1001900090461C460B46024623F00040104347D0D1
:1001A000270DC7F30A00C3F30A510290401A0190C9
:1001B00040286BDAC3F3130040F4801B009892468A
:1001C00020B10023D2EB030A63EB0B0B01985946D5
:1001D000C0F14002504600F0B0F906460D465046C8
:1001E0005946019A00F0C8F910EB0800614100245B
:1001F00087EA115284EAE7731A4340D0009A62B347
:10020000019A012A4FEA075215DC001B61EB02013B
:100210004FF0004202EA0752CDE90042001C41F5CE
:10022000801132462B4600F0C8F903B0BDE8F08FCC
:1002300040462146F9E7001B61EB0201001C41F535
:10024000801300185B412018A2F5001747EB03014B
:1002500040EAD570B6196D4111E06D084FEA3606D7
:1002600045EAC0754FEA0752001B61EB0201001C12
:1002700041F5801149084FEA3000001951413246DA
:100280002B4603B0BDE8F04F00F088B9009801227A
:1002900040000023D0EB020263EBE073009821469C
:1002A0004FEAE074B8EB000061EB0401E9E783F08A
:1002B00000435BE781F0004158E72DE9FE4F81EAFA
:1002C000030404F0004421F0004100944FF0000BBF
:1002D00023F0004350EA01045ED052EA03045BD0ED
:1002E000C3F30A54C1F30A552C44A4F2F334019425
:1002F000A0FB0254C1F3130141F48011C3F31303B3
:1003000043F4801301FB024400FB034E840A970A66
:1003100044EA815447EA8357A4FB076802958D0A93
:1003200005FB07854FEA932C04FB0C542705029D1F
:100330004FEA065847EA1637B5EB08056EEB070C8F
:10034000870E920E47EA811742EA8312A7FB020149
:10035000B6EB0B0164EB00042B0D43EA0C335E1883
:1003600044EB1C50DA465146E7FB0201C5F3130487
:100370004FEA0B3343EA14534FEA0432019C43EA39
:100380000603A4F10C040294009CCDE900B400F033
:1003900014F903B0BDE8F08F00200146F9E72DE91C
:1003A000F04D81EA030404F0004B21F000451446AF
:1003B0004FF0000A23F0004150EA050220D054EA31
:1003C00001021DD0C5F30A570246C5F31303C1F35A
:1003D0001300C1F30A5640F4801543F48013A7EBD1
:1003E0000608101BD64608F2FD3873EB050002D351
:1003F00008F1010801E092185B41B8F1000F03DA3F
:1004000000200146BDE8F08D00204FF48011064623
:1004100084460EE0171B73EB050705D3121B63EB35
:10042000050306434CEA010C49084FEA30009218D4
:100430005B4150EA0107EDD152EA030012D082EA93
:10044000040083EA0501084305D0101BAB4106D226
:100450000122002306E000224FF0004302E06FF08B
:10046000010253101AEB06004CEB085110EB0A0086
:1004700041EB0B01BDE8F04D00F090B830B5041E23
:1004800071F1000404DB4FF00044404264EB0101D1
:10049000141E73F1000405DB1C464FF0004352426A
:1004A00063EB0403994208BF904230BD30B50B4660
:1004B000014600202022012409E021FA02F59D4294
:1004C00005D303FA02F5491B04FA02F52844151E68
:1004D000A2F10102F1DC30BD2DE9F05F05460020FC
:1004E00092469B4688460646814640241BE02846A5
:1004F00041464746224600F02FF853465A46C01A56
:10050000914110D311461846224600F016F82D1AD4
:1005100067EB01084F4622460120002100F00DF84C
:1005200017EB00094E41201EA4F10104DFDC484610
:1005300031462A464346BDE8F09F202A04DB203A94
:1005400000FA02F1002070479140C2F1200320FA26
:1005500003F3194390407047202A04DB203A21FA24
:1005600002F00021704721FA02F3D040C2F12002CC
:100570009140084319467047202A06DBCB17203AE2
:1005800041FA02F043EAE07306E041FA02F3D04098
:10059000C2F12002914008431946704710B5141E5D
:1005A00073F1000408DA401C41F1000192185B412C
:1005B0001A4301D120F0010010BD2DE9F04D924603
:1005C0009B4611B1B1FA81F202E0B0FA80F220321A
:1005D0009046FFF7B2FF04460F4640EA0A0041EAA0
:1005E0000B0153465A46084313D0114653EA010003
:1005F00019D0C8F140025046FFF7AEFF05460E463F
:10060000504659464246FFF798FF084305D001205F
:1006100004E020463946BDE8F08D0020054346EA57
:10062000E0762C4337430A986305E40AA0EB080000
:100630000022FD0A44EA47540A3002D50020014650
:10064000E9E7010510196941DDE90845001969412B
:10065000BDE8F04DA2E7C1F30A52C1F3130140F225
:10066000FF3341F480119A4202DA002001467047BC
:1006700040F233439A42A2F2334202DC5242FFF785
:100680006BBFFFF75ABF0000064C074D06E0E0685D
:1006900040F0010394E8070098471034AC42F6D3C9
:1006A000FFF74AFD242A0008442A000800BFFEE79D
:1006B0007047000008B50121092000F05FFB1820F9
:1006C0008DF803000120ADF8000003208DF8020032
:1006D0006946024800F004F808BD0000000C014023
:1006E0002DE9F041024600250026002000230024C9
:1006F000002791F803C00CF00F0591F803C00CF02F
:10070000100CBCF1000F03D091F802C04CEA0505B3
:1007100091F800C0BCF1000F31D0146800202BE02C
:100720004FF0010C0CFA00F3B1F800C00CEA03061C
:100730009E4220D183004FF00F0C0CFA03F7BC430C
:1007400005FA03FC4CEA040491F803C0BCF1280F3D
:1007500006D14FF0010C0CFA00FCC2F814C00AE0FC
:1007600091F803C0BCF1480F05D14FF0010C0CFA11
:1007700000FCC2F810C0401C0828D1D31460B1F8A6
:1007800000C0BCF1FF0F34DD546800202EE000F102
:10079000080C4FF0010808FA0CF3B1F800C00CEA9D
:1007A00003069E4221D183004FF00F0C0CFA03F791
:1007B000BC4305FA03FC4CEA040491F803C0BCF105
:1007C000280F05D100F1080C08FA0CF8C2F81480C3
:1007D00091F803C0BCF1480F07D100F1080C4FF0AD
:1007E000010808FA0CF8C2F81080401C0828CED383
:1007F0005460BDE8F0810AB1016100E041617047D9
:1008000010B5074800F00CFD401C642100FB01F40A
:10081000034800F002FD401C94FBF0F0C0B210BD94
:100820000008004010B5044800F0F7FC401C0349E4
:1008300091FBF0F080B210BD0008004040420F0074
:1008400000BFFEE70EB50020ADF800000F20ADF8A8
:1008500008000020ADF80200ADF806000120ADF858
:1008600004006946094800F0DFFC6946074800F0CB
:1008700091FD6946054800F0D7FC5021034800F07F
:10088000C7FD0421014800F0CCFD0EBD000800406A
:1008900000BFFEE7704700001FB5684600F070FD1E
:1008A0006020ADF800000220ADF808000120ADF88E
:1008B00002000A20ADF806006946024800F010FD6B
:1008C0001FBD00000004004000200CE0002106E0F5
:1008D0000022064B03EBC0135A544A1CD1B28029A4
:1008E000F6DB421CD0B20828F0DB7047180000206D
:1008F0002DE9F04304460D4616461F46284638E0CB
:10090000224631E0002A2DDB7F2A2BDC002829DB60
:100910003F2827DC4FEAE07C00EB5C7C4FEAEC0CE4
:10092000DFF8588008EBCC1C1CF802C003464FEAE5
:10093000E07800EB58784FEAE808A0EBC8094FF0E0
:10094000010808FA09F82CEA080C01464FEAE07899
:1009500000EB58784FEAE808DFF8209009EBC81858
:1009600008F802C0511C0AB2A1199142CADC411C0C
:1009700008B2E9198142C3DCBDE8F0831800002009
:1009800038B5002406E0002500E06D1CB5F57A7F3F
:10099000FBD3641CB4F57A7FF5D30121042000F069
:1009A000EDF914208DF8030003208DF802001020CB
:1009B000ADF8000069460848FFF792FE2020ADF828
:1009C000000069460448FFF78BFE012000F08AF919
:1009D000012000F091F938BD0008014070B50546CE
:1009E000002411E080212141294009B1012100E0CA
:1009F0000021084600F080F9012000F073F9002082
:100A000000F070F9601CC4B2082CEBDB012000F090
:100A100069F9002000F066F970BD10B5012000F002
:100A20006BF9012000F05EF9002000F065F900206C
:100A300000F058F910BD10B5002000F05DF901205C
:100A400000F050F9012000F057F910BD10B5FFF784
:100A500097FFAE2000F05AF9D52000F057F980201A
:100A600000F054F9A82000F051F93F2000F04EF9B1
:100A7000D32000F04BF9002000F048F9402000F0AE
:100A800045F9A12000F042F9C82000F03FF9DA2032
:100A900000F03CF9122000F039F9812000F036F91D
:100AA000CF2000F033F9D92000F030F9F12000F028
:100AB0002DF9DB2000F02AF9302000F027F9A420DE
:100AC00000F024F9A62000F021F98D2000F01EF995
:100AD000142000F01BF9AF2000F018F9FFF7F4FE26
:100AE00000F0ECF810BD0FB470B5C2B005460E466C
:100AF00014464AA8019002A8019A499900F046FEBE
:100B000000200190234602AA3146284600F0BEF894
:100B100042B070BC5DF814FB70B505460C4645F05C
:100B2000B00000F0F3F8102141EA141000F0EEF8E4
:100B300004F00F0000F0EAF870BD0000F8B50646BA
:100B40000F4614461D46082D0CD1A4F120000E4975
:100B500001EB00101023082239460090304600F0C7
:100B600017F80FE0062D0DD1A4F1200000EB400096
:100B7000064901EB40000823062239460090304622
:100B800000F006F8F8BD0000E4200008D4260008B4
:100B90002DE9FF4F80460E469146DDF834B0002522
:100BA00000244A4631464046039BFFF7A1FE00BFA2
:100BB0005EE0002558E008EB0500002852DB08EB5A
:100BC00005007F284EDC3046F11706EB5171C91045
:100BD0000FB2F11706EB5171C910A6EBC10A002E36
:100BE00005DA781E07B20AF108000FFA80FA381900
:100BF000002817DB3819072814DC3819224901EBC3
:100C0000C01008EB0501405C04FB09511BF8011002
:100C100001FA0AF1084339191B4A02EBC11108EB2A
:100C2000050288543819401C00281BDB3819401C69
:100C3000072817DC3819401C134901EBC01008EBDA
:100C40000501405C04FB09511BF80110CAF10802C0
:100C5000114108433919491C0B4A02EBC11108EB39
:100C600005028854681CC5B24D45A4DB601CC4B2A3
:100C70000399481EC11700EB5171012202EBE101FB
:100C8000A14296DCBDE8FF8F180000202DE9F0415D
:100C90000646884615461F46002409E02A5D04FBE7
:100CA000076108B23B464146FFF748FF601CC4B2EB
:100CB000285D0028F2D1BDE8F081000010B50024C5
:100CC0000BE000212046FFF727FF054901EBC41088
:100CD000802100F02BF8601CC4B2082CF1DB10BDA1
:100CE0001800002010B50446224610210148FFF7E5
:100CF00082FD10BD0008014010B5044622462021A7
:100D00000148FFF778FD10BD0008014010B504460A
:100D1000FFF783FE7820FFF761FE0020FFF75EFEFD
:100D20002046FFF75BFEFFF786FE10BD70B5054657
:100D30000E46FFF772FE7820FFF750FE4020FFF7C7
:100D40004DFE002404E0285DFFF748FE601CC4B29D
:100D5000B442F8DBFFF76FFE70BD704729B1064A59
:100D6000D2690243044BDA6104E0034AD269824348
:100D7000014BDA61704700000010024029B1064AB9
:100D800092690243044B9A6104E0034A92698243E8
:100D9000014B9A61704700000010024030B50021FD
:100DA0000022002400232D4D6D6805F00C0121B1B7
:100DB000042905D0082923D105E0294D056022E04A
:100DC000274D05601FE0254D6D6805F47012234D19
:100DD0006D6805F48034022505EB92421CB9214D63
:100DE000554305600BE01D4D6D6805F400351DB1E0
:100DF0001C4D5543056002E0194D5543056002E066
:100E0000174D056000BF00BF144D6D6805F0F0017F
:100E10000909154D6B5C0568DD4045600F4D6D6837
:100E200005F4E061090A104D6B5C4568DD408560A2
:100E30000A4D6D6805F46051C90A0B4D6B5C45683D
:100E4000DD40C560054D6D6805F44041890B074DD7
:100E50006B5CC568B5FBF3F5056130BD0010024061
:100E600000127A0000093D00000000201000002060
:100E7000704710B500F002F810BD00000CB500205E
:100E8000019000903348006840F480303149086098
:100E900000BF3048006800F4003000900198401C0A
:100EA0000190009818B90198B0F5A06FF1D12948C8
:100EB000006800F4003010B10120009001E0002033
:100EC00000900098012843D12348006840F01000AA
:100ED000214908600846006820F0070008600846BD
:100EE000006840F0020008601A48406819494860EC
:100EF0000846406848600846406840F480604860A2
:100F00000846406820F47C1048600846406840F479
:100F1000E81048600846006840F08070086000BF34
:100F20000C48006800F000700028F9D009484068BB
:100F300020F00300074948600846406840F002007E
:100F4000486000BF0348406800F00C000828F9D151
:100F50000CBD0000001002400020024010B51348F4
:100F6000006840F0010011490860084640681049D7
:100F700008400E494860084600680E4908400B4981
:100F800008600846006820F4802008600846406831
:100F900020F4FE0048604FF41F008860FFF769FFEF
:100FA0004FF000600449086010BD000000100240CE
:100FB0000000FFF8FFFFF6FE08ED00E0F0B50C467C
:100FC000154600220021068C4FF6FE773E4006842F
:100FD000028B018C4FF60C7632407E1C06EA03161B
:100FE0002E433243104EB0420ED0104EB0420BD0C2
:100FF000B0F1804F08D00E4EB04205D00D4EB04239
:1010000002D00D4EB04206D14FF6FD76314044F08D
:101010000106314305E04FF6F576314044F0010614
:10102000314302830184F0BD002C014000340140B3
:101030000004004000080040000C0040F0B50C46E1
:101040001546002200210026078C4FF6EF7C07EAA8
:101050000C070784028B018C4FF6FF7707EA041612
:1010600040F6FF473A404FF6FF7707EA03373A4327
:101070004FF6FF7707EA05273A43114FB8420ED0E3
:10108000104FB8420BD0B0F1804F08D00E4FB8428D
:1010900005D00E4FB84202D00D4FB84206D14FF6E0
:1010A000DF77394046F01007394305E04FF65F77A8
:1010B000394044F01007394302830184F0BD000039
:1010C000002C0140003401400004004000080040B2
:1010D000000C0040F0B50C46154600220021002609
:1010E000078C4FF6FF6C07EA0C070784828B018C94
:1010F0004FF6FF7707EA04264FF60C773A404FF693
:10110000FF7707EA03172F433A43114FB8420ED037
:10111000104FB8420BD0B0F1804F08D00E4FB842FC
:1011200005D00E4FB84202D00D4FB84206D14FF64F
:10113000FF57394046F48077394305E04FF2FF57B7
:10114000394044F48077394382830184F0BD000044
:10115000002C014000340140000400400008004021
:10116000000C0040F0B50C46154600220021002678
:10117000078C4EF6FF7C07EA0C070784828B018CF4
:101180004FF6FF7707EA043640F6FF473A404FF63E
:10119000FF7707EA05273A434FF6FF7707EA033759
:1011A0003A43114FB8420ED0104FB8420BD0B0F1B5
:1011B000804F08D00E4FB84205D00E4FB84202D033
:1011C0000D4FB84206D14DF6FF77394046F48057AF
:1011D000394305E047F6FF57394044F48057394317
:1011E00082830184F0BD0000002C014000340140E6
:1011F0000004004000080040000C0040CA43028286
:10120000704721B1028842F00102028004E00288A6
:101210004FF6FE731A40028070470146888E704771
:101220000146088F7047000070B505460C462448FB
:1012300085420ED0234885420BD0B5F1804F08D0AF
:101240002148854205D02148854202D02048854268
:1012500000D100E000BF208850B92389A2886188AE
:101260002846FFF7ABFEE188284600F0E3F825E0CA
:10127000208804280AD12389A28861882846FFF79C
:10128000DDFEE188284600F0DEF817E02088082817
:101290000AD12389A28861882846FFF71BFFE188CD
:1012A000284600F0DDF809E02389A28861882846F5
:1012B000FFF758FFE188284600F0DBF870BD00001A
:1012C000002C0140003401400004004000080040B0
:1012D000000C004001894FF6F872114001817047FF
:1012E00070B5002400220023058C4FF6FF663540C0
:1012F0000584028C8388848B4FF68F752C404FF6C3
:10130000FC752C400D882C434FF6FF552A400D8963
:101310004FF6FF7606EA05252A434D8806EA05259D
:101320002A43154DA84202D0144DA8421DD14FF2B8
:10133000FF752A404D894FF6FF7606EA05252A43B8
:101340004FF6FF352A408D8806EA05252A434EF6DA
:10135000FF752B404DF6FF752B408D8906EA05156C
:101360002B43CD8906EA05152B4383808483CD88E2
:101370008587028470BD0000002C014000340140CC
:101380000021018041808180C18001814181818172
:10139000C18170472DE9F04105460C460026012722
:1013A000608808B9022600E00026A088012801D143
:1013B000022700E001272088A0B92389A28861883C
:1013C0002846FFF7FBFDE188284600F033F8238923
:1013D0003A4631462846FFF731FEE188284600F0BC
:1013E00032F813E02389A28861882846FFF726FE99
:1013F000E188284600F027F823893A4631462846F6
:10140000FFF7DCFDE188284600F014F8BDE8F08124
:101410000A46002101894FF68F731940114301815B
:10142000704702894FF6F8731A40028102890A4315
:1014300002817047028B4FF6F3731A400283028BCE
:101440000A4302837047028B4FF2FF331A40028334
:10145000028B4FF6FF7303EA01231A43028370479E
:10146000828B4FF6F3731A408283828B0A43828306
:101470007047828B4FF2FF331A408283828B4FF684
:10148000FF7303EA01231A43828370470022028814
:101490001D4B98420ED01D4B98420BD0B0F1804F9F
:1014A00008D01B4B984205D01A4B984202D01A4BD9
:1014B000984204D14FF68F731A404B881A43174B4A
:1014C000984207D0164B984204D04FF6FF431A407B
:1014D000CB881A4302808B8883850B8803850A4B4F
:1014E00098420BD0094B984208D00E4B984205D039
:1014F0000D4B984202D00D4B984201D10B7A0386D6
:101500000123838270470000002C01400034014019
:101510000004004000080040000C004000100040A3
:1015200000140040004001400044014000480140D8
:101530000EB501210220FFF711FC0D48FFF7CAFE8E
:101540000020ADF80600ADF802006320ADF80400FD
:101550004720ADF8000000208DF8080069460448D7
:10156000FFF794FF01210248FFF748FE0EBD00007F
:10157000000400400EB501210420FFF7EFFB0D48E9
:10158000FFF7A8FE0020ADF80600ADF802004FF608
:10159000FE70ADF804004720ADF8000000208DF883
:1015A000080069460348FFF771FF01210148FFF772
:1015B00025FE0EBD0008004008B501210820FFF7F8
:1015C000DDFB48208DF803004020ADF8000003202B
:1015D0008DF8020069460248FFF782F808BD000056
:1015E000000C014010B5FFF7C5FFFFF7E5FFFFF75F
:1015F00029F901210148FFF704FE10BD0008004051
:1016000010B5FFF795FFFFF755F8FFF745F90121F2
:101610000148FFF7F6FD10BD0004004021B18289AA
:1016200042F40052828104E082894DF6FF731A4031
:101630008281704700B585B0012144F20400FFF7B4
:101640009DFB4FF40070ADF8100018208DF81300CA
:1016500003208DF8120004A91348FFF741F84FF456
:101660008060ADF8100004208DF8130004A90E4826
:10167000FFF736F84FF4E13000900020ADF80C0091
:101680000C20ADF80A000020ADF80800ADF8060007
:10169000ADF804006946054800F00AF80121034846
:1016A000FFF7BCFF05B000BD000801400038014055
:1016B0002DE9F04786B005460E460024A24600BF3D
:1016C000A1460027B08900B100BF2F462C8A4CF6F6
:1016D000FF700440F08804432C82AC894EF6F3106E
:1016E0000440B08831890843718908430443AC81C0
:1016F000AC8A4FF6FF400440B0890443AC8201A895
:10170000FFF74CFB1F48874202D1DDF810A001E033
:10171000DDF80CA0A88900F4004040B10AEBCA0033
:1017200000EB0A1031684900B0FBF1F807E00AEB62
:10173000CA0000EB0A1031688900B0FBF1F86420A0
:10174000B8FBF0F004012009642101FB1089A8898D
:1017500000F4004040B1322000EBC900B0FBF1F0D2
:1017600000F00700044308E0322000EB0910642178
:10177000B0FBF1F000F00F0004432C8106B0BDE88F
:10178000F08700000038014000BFFEE737B514467F
:101790000846064B6A46214600F0DCF804466946D6
:1017A000002000F05AFC20463EBD00005B200008EF
:1017B00002E008C8121F08C1002AFAD1704770471A
:1017C000002001E001C1121F002AFBD17047000078
:1017D0002DE9FF5F82B00021DDE90430020DDDF864
:1017E00040B0034318D044F61050A2F2FF324243F7
:1017F0001514119801281FD0A5EB0B00401C5FEABF
:10180000000A4FF000064E4FDFF83891B0465046C0
:1018100015D5CAF1000413E0119801244AA3012848
:1018200001D16FEA0B010298119AC0E90031C0E9B9
:10183000024206B0BDE8F09FCBF10000DFE70446AE
:101840000021404A491842EB0450CDE9001012E053
:10185000E00707D032463B4640464946FEF72DFD9D
:101860008046894632463B4610461946FEF725FD1E
:1018700006460F466410002CEAD1DDE90401DDE9DB
:101880000023BAF1000F06DAFEF717FD42464B4679
:10189000FEF713FD05E0FEF782FD42464B46FEF7DC
:1018A0007EFD04460E460022284BFEF7E7FD03D8D6
:1018B0004FF0FF30014607E00022254B204631461D
:1018C000FEF754FCFEF7C7FE102409E0002C0ADBEB
:1018D0000A220023FEF700FE039B30321A55641ED5
:1018E00050EA0102F2D1641C039AC4F111031444BA
:1018F000119A012A03D0012208430DD10AE00843BE
:1019000004D000204FF0110B119072E7A3EB0B05F0
:101910006D1E0DE05B4504DD4FF0000205F1010591
:1019200004E003DA4FF00002A5F10105002AECD033
:1019300002981199C0E90231C0E9004579E7000039
:10194000000014400000F03F300000000000F043B1
:101950000000E03F2DE9FF4F95B09A4688460646C5
:101960000025EEE1252877D100242746F94A0121F8
:10197000039400E0044316F8013F203B01FA03F012
:101980001042F7D130782A2811D06FF02F03307829
:10199000A0F13002092A16D8039A44F0020402EB9F
:1019A000820203EB42021044761C0390EFE758F8E2
:1019B000042B0392002A03DA504244F400540390AB
:1019C00044F00204761C30782E2816D116F8010F48
:1019D00044F004042A280DD06FF02F023078A0F1D3
:1019E0003003092B09D807EB870302EB4303C71821
:1019F000761CF3E758F8047B761C30786C280FD0FF
:101A000006DC4C2817D068280DD06A2814D104E0D1
:101A1000742810D07A280FD10DE044F400140AE0A5
:101A200044F4801401E044F440147278824202D1FC
:101A300004F58014761C761C307866280BD013DCF5
:101A4000582877D009DC002875D04528F6D04628DC
:101A5000F4D047281AD193E118E0632835D06428E0
:101A600079D0652812D18BE1702873D008DC672803
:101A7000F1D069286FD06E280DD06F2806D1ACE068
:101A800073282CD0752874D0782853D052461799D3
:101A900090476D1C54E1C4F30250022809D003287A
:101AA0000DD0D8F8001004280DD00D6008F10408FE
:101AB00046E1D8F80010EA17C1E90052F6E7D8F875
:101AC00000100D80F2E70D70F0E718F8041B8DF898
:101AD000001000208DF80100EB46012003E058F8CB
:101AE00004BB4FF0FF3061074FF0000102D40DE05E
:101AF00009F101018946B9420FDA8145F8DB1BF88B
:101B000009100029F4D108E009F101018946814258
:101B1000FADB1BF809100029F6D103985346A0EB15
:101B2000090721463846179A00F080FA284400EB4E
:101B3000090507E044E008E10DE01BF8010B5246FF
:101B400017999047B9F10109F7D253462146384613
:101B5000179AF2E039E00A21C4F302524FF0000B69
:101B60000091022A06D058F8040BC117032A09D0A5
:101B70000AE023E008F1070020F00702F2E8020182
:101B8000904605E000B2C117042A01D140B2C11746
:101B9000002906DA0A460021404261EB02012D22AB
:101BA00002E0220504D52B228DF80420012203E057
:101BB000E20701D02022F7E7914657E00A2100E032
:101BC00010214FF0000B00910BE010214FF0000BA3
:101BD00044F004040827009103E008204FF0000BB4
:101BE0000090C4F30252022A05D058F8040B0021D9
:101BF000032A08D008E008F1070020F00702F2E805
:101C00000201904603E080B2042A00D1C0B24FF036
:101C1000000922072AD53278702A07D0DDF800C0E3
:101C20008CF0100C5CEA0B0C05D00EE040228DF815
:101C30000420012208E050EA010306D030238DF889
:101C400004308DF8052002229146009B83F00803A2
:101C500053EA0B030AD150EA010201D1620705D50C
:101C600030228DF804204FF001097F1E3278582A67
:101C700004D039A20C920CAA02920BE03BA2F9E725
:101C80005B46009AFEF728FC0C9B9B5C029A521E56
:101C90000292137050EA0102F2D1029804A9081AC4
:101CA00000F1200B600702D524F4803400E0012706
:101CB0005F4502DDA7EB0B0000E0002000EB0B010D
:101CC000009003984944401A0390E00306D4534619
:101CD0002146179A039800F0A9F90544002706E069
:101CE00001A85246C05D179990476D1C7F1C4F4557
:101CF000F6DBE0030CD553462146179A039800F013
:101D000095F9054404E030205246179990476D1C20
:101D10000099481E00900029F5DC08E0029802991D
:101D200052460078491C0291179990476D1CBBF1EF
:101D30000001ABF1010BF1DC5BE100F065F905445A
:101D4000761C307800287FF40DAE19B02846BDE827
:101D5000F08F000009280100303132333435363736
:101D600038396162636465660000000030313233E7
:101D70003435363738394142434445460000000087
:101D8000600700D4062708F1070020F00700F0E8FC
:101D90000223804603F0004C5FEA0C0001D097A0BC
:101DA00009E0200501D596A005E0E00701D095A047
:101DB00001E0AFF24C001390307823F00043652827
:101DC0000CD006DC452809D046281DD047287FD1F5
:101DD0003BE0662818D067287AD136E00021112F21
:101DE00001DB112000E0781CCDE9000104A90CA85A
:101DF000FFF7EEFCDDE90D010C9A4FF0000B07F147
:101E00000109109200914EE04FF000400097CDE99B
:101E1000011004A90CA8FFF7DBFCDDE90D020C9B07
:101E20000F994FF0000B91461093009211B9791C55
:101E300000EB0109B7EB090003D4C0F1FF3B07F148
:101E40000109A9EB0700019042E0012F00DA012708
:101E50000021112F01DD112000E03846CDE90001FD
:101E600004A90CA8FFF7B4FCDDE90D010C9A009160
:101E70004FF0000BB946109221070FD4009A4A4543
:101E800003DA914601E0A9F10109B9F1010F05DD7D
:101E9000109AA9F10101515C3029F4D0B84202DA5C
:101EA00010F1040F03DA0121CDE9011010E0002840
:101EB00003DC8344A9EB000102E0411C494500DD3D
:101EC0008946A0EB0B00401C01904FF000400290AF
:101ED000200705D40198484502DB4FF0FF30019000
:101EE00000208DF84B0002980DF14B07B0F1004F28
:101EF00025D002200C902B200D90029800280CDA9F
:101F0000404202902D200D9007E00A210298FEF732
:101F1000CDFA3031029007F8011D0C99481E0C9043
:101F20000029F2DC02980028EFD1791E0D98087084
:101F3000307800F0200040F0450007F8020D11A8AD
:101F4000C01BC01D02901398007800B1012000EB67
:101F50000901019801EBE071029801440398401ACD
:101F6000401E0390E00306D453462146179A039877
:101F700000F05CF805441398007818B152461799A0
:101F800090476D1CE00323D553462146179A0398CA
:101F900000F04CF805441BE0BBF1000F07DB009894
:101FA000584504DD1098179910F80B0001E01799B7
:101FB00030205246904701980BF1010B401E05F16D
:101FC0000105019004D12E205246179990476D1CAF
:101FD000B9F10001A9F10109DEDC05E017F8010BF8
:101FE0005246179990476D1C0299481E029000298D
:101FF000F4DC53462146179A03989EE62D00000014
:102000002B000000200000002DE9F04104460025CF
:102010001E461746880404D405E039462020B04700
:102020006D1C641EF9D52846BDE8F0812DE9F0410C
:10203000044600251E469046C80301D5302700E01F
:102040002027880404D505E041463846B0476D1C7A
:10205000641EF9D52846BDE8F0810A68531C0B6060
:102060001070704708B5FFF7CBFAFFF7BBFAFFF720
:10207000E1FAFEF7EBFC21E0FEF7D4FB1049088003
:10208000FEF7BEFB0F4908700D4800880EA308221A
:10209000002100900846FEF726FD0A4800780DA3AF
:1020A0000822122100900020FEF71DFD08230CA23B
:1020B00012214820FEF7EAFDFEF700FEDCE70000F3
:1020C000140000201600002066726571203D202556
:1020D00064487A0064757479203D2025640000000E
:1020E00025000000000000000000000000000000CB
:1020F00000000000000000F80000000000000033B5
:102100003000000000160E00160E00000000000057
:102110000000000040C07840C0784000043F040444
:102120003F040400007088FC08300000001820FF05
:10213000211E0000F008F000E018000000211C0340
:102140001E211E0000F00888700000001E212324BC
:1021500019272110000000160E00000000000000EA
:1021600000000000000000E018040200000000076A
:102170001820400000020418E00000000040201871
:1021800007000000404080F0804040000202010F44
:1021900001020200000000F0000000000101011F28
:1021A00001010100000000000000000000B070000C
:1021B000000000000000000000000000000101011C
:1021C00001010101000000000000000000303000AB
:1021D0000000000000000000806018040060180685
:1021E0000100000000E010080810E000000F1020BF
:1021F00020100F00001010F8000000000020203F09
:102200002020000000700808088870000030282492
:102210002221300000300888884830000018202033
:1022200020110E000000C02010F800000007042458
:10223000243F240000F8088888080800001921209D
:1022400020110E0000E0108888180000000F1120F7
:1022500020110E0000380808C83808000000003FB0
:10226000000000000070880808887000001C22210F
:1022700021221C0000E010080810E00000003122BC
:1022800022110F00000000C0C0000000000000305C
:1022900030000000000000C0C0000000000080B05E
:1022A00070000000000080402010080000010204BF
:1022B0000810200040404040404040000404040416
:1022C00004040400000810204080000000201008D2
:1022D00004020100007048080808F0000000003007
:1022E00036010000C030C828E810E0000718272495
:1022F00023140B000000C038E0000000203C230243
:102300000227382008F8888888700000203F2020A5
:1023100020110E00C03008080808380007182020D7
:102320002010080008F808080810E000203F2020CE
:1023300020100F0008F88888E8081000203F2020AF
:102340002320180008F88888E8081000203F2000A3
:1023500003000000C03008080838000007182020DB
:10236000221E020008F808000008F808203F21019A
:1023700001213F20000808F8080800000020203F45
:102380002020000000000808F8080800C0808080B5
:102390007F00000008F888C028180800203F2001AE
:1023A0002638200008F8080000000000203F202008
:1023B0002020300008F8F800F8F80800203F003F1F
:1023C000003F200008F830C00008F808203F200037
:1023D00007183F00E01008080810E0000F10202048
:1023E00020100F0008F808080808F000203F21011D
:1023F00001010000E01008080810E0000F18242474
:1024000038504F0008F8888888887000203F2000E6
:10241000030C30200070880808083800003820219C
:1024200021221C00180808F8080818000000203FA6
:102430002000000008F808000008F808001F20200D
:1024400020201F000878880000C8380800000738DE
:102450000E010000F80800F80008F800033C07002F
:10246000073C0300081868808068180820302C0397
:10247000032C30200838C800C83808000000203F6E
:102480002000000010080808C8380800203826215D
:1024900020201800000000FE020202000000007F61
:1024A00040404000000C30C000000000000000016F
:1024B0000638C00000020202FE000000004040405A
:1024C0007F00000000201008040810200000000019
:1024D00000000000000000000000000080808080FC
:1024E00080808080000204080000000000000000DE
:1024F000000000000000808080800000001924227D
:1025000022223F2008F8008080000000003F1120B8
:1025100020110E000000008080800000000E1120BD
:1025200020201100000000808088F800000E11209B
:1025300020103F200000808080800000001F2222A9
:1025400022221300008080F0888888180020203F15
:10255000202000000000808080808000006B949428
:102560009493600008F8008080800000203F2100E4
:1025700000203F2000809898000000000020203FAD
:1025800020200000000000809898000000C080809B
:10259000807F000008F8000080808000203F240237
:1025A0002D302000000808F8000000000020203F27
:1025B000202000008080808080808000203F2000DC
:1025C0003F20003F008080008080000000203F21ED
:1025D00000203F200000808080800000001F20201D
:1025E00020201F00808000808000000080FFA1204C
:1025F00020110E000000008080808000000E11205D
:1026000020A0FF80808080008080800020203F21EB
:10261000200001000000808080808000003324249E
:1026200024241900008080E0808000000000001F4A
:10263000202000008080000000808000001F2020FB
:1026400020103F20808080000080808000010E30BC
:102650000806010080800080008080800F300C031D
:102660000C300F0000808000808080000020312E20
:102670000E312000808080000080808080818E70FC
:102680001806010000808080808080000021302CAE
:102690002221300000000000807C020200000000C7
:1026A000003F404000000000FF000000000000006C
:1026B000FF0000000002027C800000000040403F5C
:1026C000000000000080404080000080000000000A
:1026D000000101000000000000000000002F0000C9
:1026E00000000700070000147F147F1400242A7FD5
:1026F0002A12002313086462003649552250000054
:102700000007000000001C224100000041221C00C4
:102710000014083E08140008083E0808000000A045
:102720006000000808080808000060600000002041
:1027300010080402003E5149453E0000427F40001F
:10274000004261514946002141454B3100181412A5
:102750007F10002745454539003C4A494930000172
:102760007109050300364949493600064949291EC1
:102770000000363600000000563600000008142223
:102780004100001414141414000041221408000223
:1027900001510906003E4955592E007C1211127C48
:1027A000007F49494936003E41414122007F414175
:1027B000221C007F49494941007F09090901003E67
:1027C0004149497A007F0808087F0000417F4100A5
:1027D000002040413F01007F08142241007F40401B
:1027E0004040007F020C027F007F0408107F003E03
:1027F0004141413E007F09090906003E4151215EE9
:10280000007F091929460046494949310001017FE5
:102810000101003F4040403F001F2040201F003F7B
:102820004038403F0063140814630007087008072D
:1028300000615149454300007F4141000002040806
:102840001020000041417F0000040201020400400A
:1028500040404040000001020400002054545478DD
:10286000007F4844443800384444442000384444FD
:10287000487F00385454541800087E09010200189B
:10288000A4A4A47C007F080404780000447D4000D8
:10289000004080847D00007F102844000000417FBC
:1028A0004000007C04180478007C08040478003898
:1028B0004444443800FC242424180018242418FC20
:1028C000007C0804040800485454542000043F4489
:1028D0004020003C4040207C001C2040201C003C4C
:1028E0004030403C004428102844001CA0A0A07C9C
:1028F000004464544C440000087F41000000007F05
:1029000000000000417F0800000804081008A3AC84
:1029100000000000000000000000000000000000B7
:102920000000005838000000000000000000000017
:1029300000A1A30000000000000000000000000053
:10294000000000000000182424180000000000000F
:1029500000000000C4E300008060F8074020180F6A
:1029600008C80808281800010000FF00100C0340E8
:10297000807F0001061800BAC3001010F01F10F08D
:1029800000808282E2928A868000402215081661C9
:10299000000040807F0000000000CAC0002020200E
:1029A000FE2020FF202020FF20202020000000000B
:1029B0007F404047444444474040400000BDE7005A
:1029C000000000FE929292FE929292FE00000000A1
:1029D00008080484621E010001FE020404080800C5
:1029E000000000FF01010131090909098971010194
:1029F0000101FFFF808080808080968180808080C0
:102A00008080FFFF01818181FD8991A1C1FD8181CC
:102A10008101FFFF808080809F888482819F8080E9
:102A20008080FF00442A00080000002018000000F9
:102A3000B01700085C2A00081800002000080000F9
:102A4000C017000800000000010203040102030493
:0C2A500006070809020406080100000047
:0400000508000131BD
:00000001FF
