:020000040800F2
:1000000008040020490100086D030008FB020008F5
:100010006903000891010008D908000800000000E9
:10002000000000000000000000000000B103000814
:1000300095010008000000006F030008610100083E
:100040006301000863010008630100086301000800
:1000500063010008630100086301000863010008F0
:1000600063010008630100086301000863010008E0
:1000700063010008630100086301000863010008D0
:1000800063010008630100086301000863010008C0
:1000900063010008630100086301000863010008B0
:1000A00063010008630100086301000863010008A0
:1000B0006301000863010008630100086301000890
:1000C0006301000863010008630100086301000880
:1000D0006301000863010008630100086301000870
:1000E0006301000863010008630100086301000860
:1000F0006301000863010008630100086301000850
:10010000630100086301000863010008630100083F
:100110006301000863010008630100084D05000841
:10012000630100086301000863010008630100081F
:10013000DFF810D000F01AF80048004781090008E5
:10014000AFF30080080400200648804706480047B7
:10015000FEE7FEE7FEE7FEE7FEE7FEE7FEE7FEE777
:10016000FEE7FEE7ED04000831010008064C074DEC
:1001700006E0E06840F0010394E807009847103477
:10018000AC42F6D3FFF7D8FFAC090008CC09000851
:1001900000BFFEE77047000008B50121082000F00D
:1001A000F7F818208DF803000120ADF800000320B7
:1001B0008DF802006946094800F012F82020ADF8D9
:1001C00000006946054800F00BF80220ADF8000079
:1001D0006946024800F004F808BD0000000C014028
:1001E0002DE9F041024600250026002000230024CE
:1001F000002791F803C00CF00F0591F803C00CF034
:10020000100CBCF1000F03D091F802C04CEA0505B8
:1002100091F800C0BCF1000F31D0146800202BE031
:100220004FF0010C0CFA00F3B1F800C00CEA030621
:100230009E4220D183004FF00F0C0CFA03F7BC4311
:1002400005FA03FC4CEA040491F803C0BCF1280F42
:1002500006D14FF0010C0CFA00FCC2F814C00AE001
:1002600091F803C0BCF1480F05D14FF0010C0CFA16
:1002700000FCC2F810C0401C0828D1D31460B1F8AB
:1002800000C0BCF1FF0F34DD546800202EE000F107
:10029000080C4FF0010808FA0CF3B1F800C00CEAA2
:1002A00003069E4221D183004FF00F0C0CFA03F796
:1002B000BC4305FA03FC4CEA040491F803C0BCF10A
:1002C000280F05D100F1080C08FA0CF8C2F81480C8
:1002D00091F803C0BCF1480F07D100F1080C4FF0B2
:1002E000010808FA0CF8C2F81080401C0828CED388
:1002F0005460BDE8F0810161704700BFFEE7000077
:1003000008B50121082000F043F810208DF8030003
:100310002020ADF8000003208DF8020069460F4848
:10032000FFF75EFF0120ADF8000069460B48FFF7BC
:1003300057FF0220ADF8000069460848FFF750FF5C
:1003400002210648FFF7D7FF01210448FFF7D3FF3A
:1003500020210248FFF7CFFF08BD0000000C01403C
:1003600010B5FFF7CDFF10BD00BFFEE77047704727
:1003700029B1064AD2690243044BDA6104E0034A18
:10038000D2698243014BDA617047000000100240DD
:1003900029B1064A92690243044B9A6104E0034A78
:1003A00092698243014B9A6170470000001002403D
:1003B000704710B500F002F810BD00000CB5002029
:1003C000019000903348006840F480303149086063
:1003D00000BF3048006800F4003000900198401CD5
:1003E0000190009818B90198B0F5A06FF1D1294893
:1003F000006800F4003010B10120009001E00020FE
:1004000000900098012843D12348006840F0100074
:10041000214908600846006820F007000860084687
:10042000006840F0020008601A48406819494860B6
:100430000846406848600846406840F4806048606C
:100440000846406820F47C1048600846406840F444
:10045000E81048600846006840F08070086000BFFF
:100460000C48006800F000700028F9D00948406886
:1004700020F00300074948600846406840F0020049
:10048000486000BF0348406800F00C000828F9D11C
:100490000CBD00000010024000200240042808D1DA
:1004A0004FF0E021096941F004014FF0E0221161B1
:1004B00007E04FF0E021096921F004014FF0E0224C
:1004C0001161704710B5044600204FF0E02108612B
:1004D000401FFFF7E3FF2046E11704EB5171C1F322
:1004E000CF01014A118010BD0000002010B5134853
:1004F000006840F001001149086008464068104952
:1005000008400E494860084600680E4908400B49FB
:1005100008600846006820F48020086008464068AB
:1005200020F4FE0048604FF41F008860FFF741FF91
:100530004FF000600449086010BD00000010024048
:100540000000FFF8FFFFF6FE08ED00E010B50EE03A
:100550000A480088401C094908800121084800F029
:1005600013F80848006880F001000649086001217E
:10057000034800F018F80028EAD110BD020000205E
:10058000002C01400C0C0140CA430282704721B18B
:10059000028842F00102028004E002884FF6FE73F6
:1005A0001A400280704730B5024600200023002424
:1005B000158A05EA0103958905EA010413B10CB116
:1005C000012000E0002030BD01894FF6F872114093
:1005D0000181704770B5002400220023058C4FF67E
:1005E000EF7635400584028C8388048B48F6FF75CE
:1005F0002C404FF6FF452C400D884FF6FF7606EA5B
:1006000005252C434FF6DF752A400D8906EA0515AE
:100610002A434D8806EA05152A43154DA84202D003
:10062000144DA8421DD14FF67F752A404D894FF6D3
:10063000FF7606EA05152A434FF6BF752A408D88D6
:1006400006EA05152A434FF6FF352B404FF2FF759A
:100650002B408D8906EA85052B43CD8906EA850561
:100660002B4383800483CD880587028470BD0000FE
:10067000002C01400034014070B50024002200230A
:10068000058C4FF6FF6635400584028C8388848B89
:100690004FF68F752C404FF6FC752C400D882C437F
:1006A0004FF6FF552A400D894FF6FF7606EA0525DD
:1006B0002A434D8806EA05252A43154DA84202D053
:1006C000144DA8421DD14FF2FF752A404D894FF6B7
:1006D000FF7606EA05252A434FF6FF352A408D8826
:1006E00006EA05252A434EF6FF752B404DF6FF75A9
:1006F0002B408D8906EA05152B43CD8906EA0515A1
:100700002B4383808483CD888587028470BD00005D
:10071000002C01400034014070B500220023002469
:10072000058C4EF6FF7635400584038C8488828BD9
:1007300048F6FF752A404FF6FF452A400D884FF6D0
:10074000FF7606EA05252A434DF6FF752B400D89F5
:1007500006EA05352B434D8806EA05352B430B4D3C
:10076000A84202D00A4DA84208D14BF6FF752C4092
:100770008D894FF6FF7606EA85152C4384808283A7
:10078000CD88A0F84050038470BD0000002C0140CB
:10079000003401400021018041808180C1800181BD
:1007A00041818181C1817047002202881D4B98429E
:1007B0000ED01D4B98420BD0B0F1804F08D01B4B90
:1007C000984205D01A4B984202D01A4B984204D155
:1007D0004FF68F731A404B881A43174B984207D035
:1007E000164B984204D04FF6FF431A40CB881A4369
:1007F00002808B8883850B8803850A4B98420BD037
:10080000094B984208D00E4B984205D00D4B9842A8
:1008100002D00D4B984201D10B7A038601238382CB
:1008200070470000002C01400034014000040040EB
:1008300000080040000C0040001000400014004080
:100840000040014000440140004801400EB5012134
:100850000220FFF78DFD0B48FFF7B6FE0020ADF834
:100860000600ADF802006320ADF8040040F2CF208E
:10087000ADF8000000208DF8080069460148FFF738
:1008800093FF0EBD000400401FB5FFF7DFFFFFF729
:1008900083FC6846FFF77EFF6020ADF80000002073
:1008A000ADF808000120ADF802006420ADF80600A4
:1008B00069460848FFF7E0FE69460648FFF72CFF47
:1008C00069460448FFF786FE01210248FFF75FFEF4
:1008D0001FBD00000004004000BFFEE702E008C8A2
:1008E000121F08C1002AFAD170477047002001E0AA
:1008F00001C1121F002AFBD17047000070B50446E9
:100900004FF47A7094FBF0F594FBF0F100FB114684
:1009100003E0074800F00EF86D1E002DF9D12EB14E
:100920004FF47A7106FB01F000F004F870BD00008E
:1009300040420F000146114A12884A434FF0E0231B
:100940005A6100229A611A46126942F001021A6144
:1009500000BF4FF0E022106900F001021AB100F46C
:100960008032002AF5D04FF0E022126922F0010215
:100970004FF0E0231A6100229A61704700000020C6
:10098000FFF782FF4820FFF79DFDFFF7E9FC09E034
:100990000548006880F00100034908604FF47A7050
:1009A000FFF7ACFFF4E700000C0C0140CC09000895
:1009B0000000002008000000DC080008D40900083E
:1009C0000800002000040000EC08000800000000FF
:0409D0000000000023
:0400000508000131BD
:00000001FF
