:020000040800F2
:10000000600400200501000859050008510500089A
:10001000550500087D0300083711000800000000A6
:1000200000000000000000000000000021070008A0
:100030003904000800000000E10500083508000848
:100040001F0100081F0100081F0100081F01000810
:100050001F0100081F0100081F0100081F01000800
:100060001F0100081F0100081F0100081F010008F0
:100070001F0100081F0100081F0100081F010008E0
:100080001F0100081F0100081F0100081F010008D0
:100090001F0100081F0100081F0100081F010008C0
:1000A0001F010008B50800081F0100081F01000813
:1000B0001F0100081F0100081F0100081F010008A0
:1000C0001F0100081F0100081F0100081F01000890
:1000D0001F0100081F0100081F010008410E000851
:1000E0001F0100081F0100081F010008DFF810D0E1
:1000F00000F032F90048004761110008AFF30080BA
:10010000600400200648804706480047FEE7FEE7F7
:10011000FEE7FEE7FEE7FEE7FEE7FEE7FEE7FEE7B7
:1001200039080008ED000008F0B480EA0102D40F9D
:100130004200B2EB410F02D20246084611464A0085
:1001400042D0C30DDDB2C1F3C752AD1A202D35DA4E
:10015000C1F3160141F4000204B15242C5F1200678
:1001600002FA06F12A411044B3EBD05F23D0C4B1A8
:10017000012DA0EBC35009DCF0BC4FF0004202EAB5
:10018000C352DBB200F5000000F0B8B8400000F147
:10019000807000EBC350A0F1807040EAD17049003C
:1001A00009E0490841EAC071A0EBC35000F5000026
:1001B000400800EBC350F0BC00F097B86142012248
:1001C00002EB4101001BF6E7F0BC704781F00041F3
:1001D000AAE780F00040A7E780EA010210B502F02C
:1001E0000043400022D04A001FD0010E01EB1261F3
:1001F000C0F35600C2F3560240F4000042F400027D
:10020000A0FB022000047F39140400D0401C50EAF7
:10021000124001D44000491EC2B20C0604EBD010BB
:10022000401C4008802A02D003E0002010BD20F0CE
:100230000100002900DA0020184310BD30B480EA24
:10024000010202F0004530F0004221F0004013D0DE
:1002500090B1C30DD40DC2F31601C0F31600E41A19
:1002600041F4000140F400027D34914201D3641C4A
:1002700000E04900002C02DA30BC002070474FF447
:1002800000000023914201D3891A034340084FEA3A
:100290004101F7D151B1914202D14FF0004105E047
:1002A00002D24FF0010101E06FF0010103EBC450F5
:1002B000284430BC00F019B896230022114600F003
:1002C0001DB820F00040C10DC0F3160040F400003E
:1002D0007F2901DA00207047962903DCC1F19601DD
:1002E000C84070479639884070470029A8BF7047BA
:1002F000401C490008BF20F00100704710B4B0FA5C
:1003000080FC00FA0CF050EA010404BF10BC7047F6
:1003100049B1CCF1200421FA04F411FA0CF118BF10
:10032000012121430843A3EB0C01CB1D4FEA0061DF
:100330004FEA102042BF002010BC704700EBC350B2
:1003400010440029A4BF10BC7047401C490008BFDE
:1003500020F0010010BC7047064C074D06E0E06835
:1003600040F0010394E8070098471034AC42F6D3FC
:10037000FFF7C0FEE01300080014000800BFFEE70E
:1003800021B1026842F00102026004E002684FF607
:10039000FE731A400260704700B58BB00121084619
:1003A00000F020F919200390002002900A900D48D7
:1003B00001900020079080200590002008900A48B6
:1003C00000900020069004904FF440500990694638
:1003D000064800F011F801210448FFF7D1FF0BB0E7
:1003E00000BD000020000020044800403000024012
:1003F0000146486880B2704710B50022026847F68F
:10040000F0739A430C6A8B6823430C6923434C694D
:1004100023438C692343CC6923434C6A23438C6A6E
:1004200023431A430260CB6843600B6883604B68C8
:10043000C36010BD4160704770472DE9F04102462E
:1004400000250026002000230024002791F803C087
:100450000CF00F0591F803C00CF0100CBCF1000F6C
:1004600003D091F802C04CEA050591F800C0BCF138
:10047000000F31D0146800202BE04FF0010C0CFA73
:1004800000F3B1F800C00CEA03069E4220D18300BD
:100490004FF00F0C0CFA03F7BC4305FA03FC4CEACF
:1004A000040491F803C0BCF1280F06D14FF0010CF1
:1004B0000CFA00FCC2F814C00AE091F803C0BCF1C9
:1004C000480F05D14FF0010C0CFA00FCC2F810C027
:1004D000401C0828D1D31460B1F800C0BCF1FF0F54
:1004E00034DD546800202EE000F1080C4FF00108C4
:1004F00008FA0CF3B1F800C00CEA03069E4221D1C1
:1005000083004FF00F0C0CFA03F7BC4305FA03FC11
:100510004CEA040491F803C0BCF1280F05D100F1A6
:10052000080C08FA0CF8C2F8148091F803C0BCF16A
:10053000480F07D100F1080C4FF0010808FA0CF839
:10054000C2F81080401C0828CED35460BDE8F0816A
:1005500000BFFEE700BFFEE77047000070B5002156
:1005600000230F22C47804B3154C246804F4E0641B
:10057000C4F5E064210AC1F10403CA40447804FAD6
:1005800003F184781440214309010E4C0678A155EB
:10059000047804F01F050124AC4005786D11AD000E
:1005A00005F1E025C5F8004109E0047804F01F05D5
:1005B0000124AC40044D0678761145F8264070BD04
:1005C0000CED00E000E400E080E100E002490143BE
:1005D000024A1160704700000000FA050CED00E0CF
:1005E0007047000029B1064A52690243044B5A6120
:1005F00004E0034A52698243014B5A61704700008C
:100600000010024029B1064AD2690243044BDA6164
:1006100004E0034AD2698243014BDA61704700006B
:100620000010024029B1064A92690243044B9A61C4
:1006300004E0034A92698243014B9A6170470000CB
:100640000010024030B500210022002400232D4D6F
:100650006D6805F00C0121B1042905D0082923D1CA
:1006600005E0294D056022E0284D05601FE0254D7D
:100670006D6805F47012234D6D6805F48034022511
:1006800005EB92421CB9224D554305600BE01D4D10
:100690006D6805F400351DB11E4D5543056002E03F
:1006A0001A4D5543056002E0174D056000BF00BFBD
:1006B000144D6D6805F0F0010909174D6B5C056874
:1006C000DD4045600F4D6D6805F4E061090A124D8B
:1006D0006B5C4568DD4085600A4D6D6805F46051CE
:1006E000C90A0D4D6B5C4568DD40C560054D6D6800
:1006F00005F44041890B094D6B5CC568B5FBF3F50A
:10070000056130BD0010024000127A0000366E0113
:1007100000093D00001BB700000000201000002071
:10072000704710B500F002F810BD00000CB50020B5
:10073000019000903348006840F4803031490860EF
:1007400000BF3048006800F4003000900198401C61
:100750000190009818B90198B0F5A06FF1D129481F
:10076000006800F4003010B10120009001E000208A
:1007700000900098012843D12348006840F0100001
:10078000214908600846006820F007000860084614
:10079000006840F0020008601A4840681949486043
:1007A0000846406848600846406840F480604860F9
:1007B0000846406820F47C1048600846406840F4D1
:1007C000A02048600846006840F08070086000BFC4
:1007D0000C48006800F000700028F9D00948406813
:1007E00020F00300074948600846406840F00200D6
:1007F000486000BF0348406800F00C000828F9D1A9
:100800000CBD00000010024000200240042808D166
:100810004FF0E021096941F004014FF0E02211613D
:1008200007E04FF0E021096921F004014FF0E022D8
:10083000116170477047000010B51348006840F020
:1008400001001149086008464068104908400E49F7
:100850004860084600680E4908400B490860084691
:10086000006820F4802008600846406820F4FE00FC
:1008700048604FF41F008860FFF753FF4FF000609F
:100880000449086010BD0000001002400000FFF89D
:10089000FFFFF6FE08ED00E010B5044600204FF023
:1008A000E02108610420FFF7B1FF0148048010BD7A
:1008B0001600002010B50121074800F023F8012898
:1008C00008D10121044800F00EF804480068401CDB
:1008D0000249086010BD0000002C014018000020F3
:1008E000CA4302827047CA430282704721B102881C
:1008F00042F00102028004E002884FF6FE731A40C3
:100900000280704730B50246002000230024158A7B
:1009100005EA0103958905EA010413B10CB1012030
:1009200000E0002030BD1AB183890B43838102E0CF
:1009300083898B438381704701894FF6F872114098
:100940000181704770B5002400220023058C4FF60A
:10095000FE7635400584028C8388048B4FF68F75B4
:100960002C40B51E2C400D882C43751E2A400D8945
:100970002A434D882A43144DA8420BD0134DA84258
:1009800008D0134DA84205D0124DA84202D0124DF6
:10099000A84213D14FF6F7752A404D892A434FF6E6
:1009A000FB752A408D882A434FF6FF652B404FF692
:1009B000FF552B408D892B43CD892B4383800483A6
:1009C000CD888586028470BD002C01400034014032
:1009D00000400140004401400048014070B500243F
:1009E00000220023058C4FF6EF7635400584028CFB
:1009F0008388048B48F6FF752C404FF6FF452C404A
:100A00000D884FF6FF7606EA05252C434FF6DF7575
:100A10002A400D8906EA05152A434D8806EA051580
:100A20002A43154DA84202D0144DA8421DD14FF6BD
:100A30007F752A404D894FF6FF7606EA05152A4351
:100A40004FF6BF752A408D8806EA05152A434FF6F2
:100A5000FF352B404FF2FF752B408D8906EA850547
:100A60002B43CD8906EA85052B4383800483CD88FB
:100A70000587028470BD0000002C01400034014055
:100A800070B5002400220023058C4FF6FF66354028
:100A90000584028C8388848B4FF68F752C404FF62B
:100AA000FC752C400D882C434FF6FF552A400D89CC
:100AB0004FF6FF7606EA05252A434D8806EA052506
:100AC0002A43154DA84202D0144DA8421DD14FF221
:100AD000FF752A404D894FF6FF7606EA05252A4321
:100AE0004FF6FF352A408D8806EA05252A434EF643
:100AF000FF752B404DF6FF752B408D8906EA0515D5
:100B00002B43CD8906EA05152B4383808483CD884A
:100B10008587028470BD0000002C01400034014034
:100B200070B5002200230024058C4EF6FF76354078
:100B30000584038C8488828B48F6FF752A404FF623
:100B4000FF452A400D884FF6FF7606EA05252A4321
:100B50004DF6FF752B400D8906EA05352B434D8870
:100B600006EA05352B430B4DA84202D00A4DA84298
:100B700008D14BF6FF752C408D894FF6FF7606EABB
:100B800085152C4384808283CD88A0F8405003844F
:100B900070BD0000002C0140003401408186704788
:100BA0000187704781877047A0F8401070470000A8
:100BB000002202881D4B98420ED01D4B98420BD04C
:100BC000B0F1804F08D01B4B984205D01A4B984289
:100BD00002D01A4B984204D14FF68F731A404B88BB
:100BE0001A43174B984207D0164B984204D04FF641
:100BF000FF431A40CB881A4302808B8883850B8879
:100C000003850A4B98420BD0094B984208D00E4BF3
:100C1000984205D00D4B984202D00D4B984201D11D
:100C20000B7A03860123838270470000002C014069
:100C3000003401400004004000080040000C004067
:100C400000100040001400400040014000440140FA
:100C50000048014008B519208DF8000001208DF8EA
:100C600003008DF801008DF802006846FFF776FC5E
:100C700008BD00000EB50121C802FFF7D3FC1248E1
:100C8000FFF75AFE0020ADF80600ADF802004FF65F
:100C9000FF70ADF804004720ADF8000000208DF88B
:100CA000080069460848FFF783FF01210648FFF75F
:100CB00017FE012211460448FFF735FE01210248C4
:100CC000FFF714FE0EBD0000002C014008B5012105
:100CD0000C20FFF7A7FC18208DF803000120ADF8C9
:100CE000000003208DF8020069461B48FFF7A5FBB2
:100CF0000220ADF8000069461748FFF79EFB4FF44D
:100D00008070ADF8000069461448FFF796FB4FF479
:100D10000070ADF8000069461048FFF78EFB4020D8
:100D2000ADF8000069460C48FFF787FB8020ADF85E
:100D3000000069460848FFF780FB0120ADF800007D
:100D400069460648FFF779FB0220ADF800006946C6
:100D50000248FFF772FB08BD00080140000C01408B
:100D60001FB56020ADF800000020ADF8080001209C
:100D7000ADF802004FF46170ADF806006946000757
:100D8000FFF7E0FD69464FF08040FFF727FE694618
:100D90000B48FFF775FE69460948FFF7C1FE694633
:100DA0000848FFF7CFFD69460648FFF717FE69467A
:100DB0000448FFF765FE69460248FFF7B1FE1FBD14
:100DC00000080040000400400EB501210720FFF795
:100DD00019FC4FF08040FFF7AFFD0020ADF8060092
:100DE000ADF8020040F6C310ADF804004720ADF89E
:100DF000000000208DF8080069464FF08040FFF7A2
:100E0000D7FE0D48FFF798FD69460B48FFF7D0FE67
:100E10000A48FFF791FD69460848FFF7C9FE01211E
:100E20008807FFF763FD01210348FFF75FFD0121FC
:100E30000248FFF75BFD0EBD0004004000080040C3
:100E400010B540F22441234800F0AAF8012840D10F
:100E5000204800881F48001D00881F48FFF7C8FA77
:100E60001E49087008460078B0B91D48007800EBAC
:100E7000C00101EB00101B49085C0F280CD1184879
:100E8000007800EBC00101EB001016490844007E19
:100E900010B90120144908701148007880F0010051
:100EA0000F49087000210C48FFF76AFA0C480078D7
:100EB00000EBC00101EB00100A4908440649303933
:100EC000C86319210448FFF7B5FA01210248FFF76A
:100ED00057FA10BD004800403000024014000020C6
:100EE0001D000020200000201C00002021B182896C
:100EF00042F40052828104E082894DF6FF731A4069
:100F0000828170471FB501218804FFF77BFB1248DF
:100F100000900020ADF80C000420ADF80A0000029B
:100F2000ADF80800C000ADF806004010ADF80400B0
:100F300069460A4800F084F8012240F2244107483B
:100F400000F058F801224021044800F009F801217E
:100F50000248FFF7CBFF1FBDA086010000480040FC
:100F60001AB1838A0B43838202E0838A8B43838294
:100F70007047000008B501210820FFF753FB04204B
:100F80008DF803004002ADF8000003208DF8020048
:100F900069460248FFF751FA08BD0000000C014005
:100FA00070B50246002400230025002040F66A1692
:100FB000B14200D100BFC1F3421501F01F03012669
:100FC00006FA03F3012D02D19689334006E0022D83
:100FD00002D1168A334001E0968A33400C12012672
:100FE00006FA04F41688344013B10CB1012000E075
:100FF000002070BDF0B50346002400260025002027
:1010000040F66A17B94200D100BF1846C1F3421436
:1010100001F01F06012707FA06F5012C01D10C305B
:1010200004E0022C01D1103000E014301AB107683E
:101030002F43076002E00768AF430760F0BD000080
:101040002DE9F04786B005460E460024A24600BFB3
:10105000A1460027B08900B100BF2F462C8A4CF66C
:10106000FF700440F08804432C82AC894EF6F310E4
:101070000440B08831890843718908430443AC8136
:10108000AC8A4FF6FF400440B0890443AC8201A80B
:10109000FFF7D8FA1F48874202D1DDF810A001E01F
:1010A000DDF80CA0A88900F4004040B10AEBCA00AA
:1010B00000EB0A1031684900B0FBF1F807E00AEBD9
:1010C000CA0000EB0A1031688900B0FBF1F8642017
:1010D000B8FBF0F004012009642101FB1089A88904
:1010E00000F4004040B1322000EBC900B0FBF1F049
:1010F00000F00700044308E0322000EB09106421EF
:10110000B0FBF1F000F00F0004432C8106B0BDE805
:10111000F08700000038014008B527208DF8000056
:1011200001208DF803008DF801008DF8020068465B
:10113000FFF714FA08BD00BFFEE702E008C8121F5F
:1011400008C1002AFAD170477047002001E001C1B0
:10115000121F002AFBD1704710B5FFF71DF910BD13
:101160008AB06846FFF76EFA4FF4A060FFF72EFAD8
:101170004820FFF791FB00F08FF800F0BDF819E070
:101180000D480078012815D100200B4908700B4943
:10119000097881F0010101EBC10202EB0111084A5B
:1011A0008818092205A900F00DF8044614B105A815
:1011B00000F078F8E4E700001C0000201D0000208B
:1011C000200000202DE9FE4F05460E4690460024E3
:1011D000002728780F2801D1287E10B10020BDE813
:1011E000FE8FE87D00F0080008B10020F7E7E87DF9
:1011F00000F0040008B10020F1E7B8F1100F01DAA7
:10120000404600E010208146002438E0002026F807
:101210001400002716E004EB44011B4A02EB810195
:1012200001EB87000178491C695C427811418278A2
:101230001140C278914036F81420114326F814105A
:10124000781CC7B2032FE6DB36F81400FFF734F83A
:101250000E490090FEF7BAFF0D490190FEF7BCFF62
:1012600083460C49FEF7EAFF82460949FEF75CFF18
:101270000290FFF726F826F81400601CC4B24C4513
:10128000C4DB0120ABE70000201300080080AA4364
:1012900000007A4400A0AA4410B5FFF75DFF00F0FB
:1012A00037F810BD10B5044621884FF08040FFF795
:1012B00075FC61884FF08040FFF772FCA1880C48F4
:1012C000FFF770FCE1880A48FFF76EFC21890948A6
:1012D000FFF764FC61890748FFF762FCA1890548B4
:1012E000FFF760FCE1890348FFF75EFC10BD0000DA
:1012F000000800400004004010B5FFF7ABFCFFF70A
:10130000B9FCFFF7E3FCFFF75FFDFFF729FD10BD18
:1013100010B5FFF72FFEFFF7F5FDFFF7FDFE10BD3F
:101320000000FF00010007080000000001031F008B
:1013300002003F0500000000020603000300FF0258
:101340000400010A04017F0005000F0700000000EF
:1013500005040F0006007F040000000006070100DE
:101360000700FF010800030908023F0009001F06EB
:1013700000000000090507000A00FF03000000004C
:101380000B00FF000C000708000000000C031F000A
:101390000D003F05000000000D0603000E00FF02D7
:1013A0000F00010A0F017F0010000F07000000006E
:1013B00010040F0011007F0400000000110701005D
:1013C0001200FF011300030913023F0014001F065F
:1013D00000000000140507001500FF0300000000D6
:1013E0000014000800000020200000003A1100084E
:1013F0002014000820000020400400004A110008CA
:1014000000000000010203040102030406070809AA
:1014100002040608000000000000000000000000B8
:04000005080000ED02
:00000001FF
