:020000040800F2
:100000000808002049010008630B00085B0B00088A
:100010005F0B000877090008F912000800000000D3
:100020000000000000000000000000005D1100085A
:10003000390A0008000000000311000861010008EF
:100040006301000863010008630100086301000800
:1000500063010008630100086301000863010008F0
:1000600063010008630100086301000863010008E0
:1000700063010008630100086301000863010008D0
:1000800063010008630100086301000863010008C0
:1000900063010008630100086301000863010008B0
:1000A00063010008630100086301000863010008A0
:1000B0006301000863010008630100086301000890
:1000C0006301000863010008630100086301000880
:1000D0006301000863010008630100086301000870
:1000E0006301000863010008630100086301000860
:1000F0006301000863010008630100086301000850
:10010000630100086301000863010008630100083F
:10011000630100086301000863010008630100082F
:10012000630100086301000863010008630100081F
:10013000DFF810D000F0CAFA00480047A113000809
:10014000AFF30080080800200648804706480047B3
:10015000FEE7FEE7FEE7FEE7FEE7FEE7FEE7FEE777
:10016000FEE7FEE799120008310100082DE9FE4F75
:10017000804681EA0300C00F0C46009021F0004148
:1001800023F00045B8EB0200A94105D240462146C4
:1001900090461C460B46024623F00040104347D0D1
:1001A000270DC7F30A00C3F30A510290401A0190C9
:1001B00040286BDAC3F3130040F4801B009892468A
:1001C00020B10023D2EB030A63EB0B0B01985946D5
:1001D000C0F14002504600F0A7F906460D465046D1
:1001E0005946019A00F0BFF910EB08006141002464
:1001F00087EA115284EAE7731A4340D0009A62B347
:10020000019A012A4FEA075215DC001B61EB02013B
:100210004FF0004202EA0752CDE90042001C41F5CE
:10022000801132462B4600F0BFF903B0BDE8F08FD5
:1002300040462146F9E7001B61EB0201001C41F535
:10024000801300185B412018A2F5001747EB03014B
:1002500040EAD570B6196D4111E06D084FEA3606D7
:1002600045EAC0754FEA0752001B61EB0201001C12
:1002700041F5801149084FEA3000001951413246DA
:100280002B4603B0BDE8F04F00F07FB90098012283
:1002900040000023D0EB020263EBE073009821469C
:1002A0004FEAE074B8EB000061EB0401E9E783F08A
:1002B00000435BE781F0004158E72DE9FE4F81EAFA
:1002C000030404F0004421F0004100944FF0000BBF
:1002D00023F0004350EA01045ED052EA03045BD0ED
:1002E000C3F30A54C1F30A552C44A4F2F334019425
:1002F000A0FB0254C1F3130141F48011C3F31303B3
:1003000043F4801301FB024400FB034E840A970A66
:1003100044EA815447EA8357A4FB076802958D0A93
:1003200005FB07854FEA932C04FB0C542705029D1F
:100330004FEA065847EA1637B5EB08056EEB070C8F
:10034000870E920E47EA811742EA8312A7FB020149
:10035000B6EB0B0164EB00042B0D43EA0C335E1883
:1003600044EB1C50DA465146E7FB0201C5F3130487
:100370004FEA0B3343EA14534FEA0432019C43EA39
:100380000603A4F10C040294009CCDE900B400F033
:100390000BF903B0BDE8F08F00200146F9E72DE925
:1003A000F04D81EA030404F0004B21F000451446AF
:1003B0004FF0000A23F0004150EA050220D054EA31
:1003C00001021DD0C5F30A570246C5F31303C1F35A
:1003D0001300C1F30A5640F4801543F48013A7EBD1
:1003E0000608101BD64608F2FD3873EB050002D351
:1003F00008F1010801E092185B41B8F1000F03DA3F
:1004000000200146BDE8F08D00204FF48011064623
:1004100084460EE0171B73EB050705D3121B63EB35
:10042000050306434CEA010C49084FEA30009218D4
:100430005B4150EA0107EDD152EA030012D082EA93
:10044000040083EA0501084305D0101BAB4106D226
:100450000122002306E000224FF0004302E06FF08B
:10046000010253101AEB06004CEB085110EB0A0086
:1004700041EB0B01BDE8F04D00F087B80EB540F23E
:10048000334102910021CDE900110A460B4600F0EC
:100490008BF803B000BDC1F30A5210B5C1F31301CC
:1004A00040F2FF3341F480119A4201DA002010BD7E
:1004B00040F233439A42A2F2334203DC524200F04C
:1004C00042F810BD904010BD30B5041E71F100041B
:1004D00004DB4FF00044404264EB0101141E73F151
:1004E000000405DB1C464FF00043524263EB04035B
:1004F0008B4208BF824230BD30B5041E71F100044A
:1005000004DB4FF00044404264EB0101141E73F120
:10051000000405DB1C464FF00043524263EB04032A
:10052000994208BF904230BD202A04DB203A00FAED
:1005300002F1002070479140C2F1200320FA03F33A
:10054000194390407047202A04DB203A21FA02F038
:100550000021704721FA02F3D040C2F120029140FD
:10056000084319467047202A06DBCB17203A41FA88
:1005700002F043EAE07306E041FA02F3D040C2F130
:100580002002914008431946704710B5141E73F1BC
:10059000000408DA401C41F1000192185B411A4343
:1005A00001D120F0010010BD2DE9F04D92469B468F
:1005B00011B1B1FA81F202E0B0FA80F22032904635
:1005C000FFF7B2FF04460F4640EA0A0041EA0B017A
:1005D00053465A46084313D0114653EA010019D036
:1005E000C8F140025046FFF7AEFF05460E465046A2
:1005F00059464246FFF798FF084305D0012004E022
:1006000020463946BDE8F08D0020054346EAE076F5
:100610002C4337430A986305E40AA0EB0800002244
:10062000FD0A44EA47540A3002D500200146E9E7B2
:10063000010510196941DDE9084500196941BDE866
:10064000F04DA2E72DE9F041054621F000400C46AF
:10065000284309D0C4F30A5040F23341884205DDF3
:1006600028462146BDE8F0812846FBE740F2FE31EE
:10067000884210DC0CDB4FEA043040EA155050EAA7
:10068000053105D0104804F0004101430020E9E79E
:1006900000200146E6E7A0F233404642C6F14002A0
:1006A00028462146FFF740FF074688462846214650
:1006B0003246FFF748FF43463A46FFF766FF3246A9
:1006C000BDE8F041FFF730BF0000F03F064C074D9A
:1006D00006E0E06840F0010394E807009847103412
:1006E000AC42F6D3FFF728FDD01E0008F01E00082C
:1006F00010B500F06FF84FF4004000F003FD00F07B
:100700003FF8002301220A21164800F0C3F8002315
:1007100002220B21134800F0BDF8002303220C2114
:10072000104800F0B7F801210E4800F047F8012109
:100730000C4800F019F80B4800F008F900BF094810
:1007400000F076F80128FAD0064800F00FF900BF53
:10075000044800F063F80128FAD00121014800F0B4
:10076000FAF810BD0024014021B1826842F0010274
:10077000826003E0826822F001028260704700001C
:1007800000B585B00121480200F0D8FC01208DF8A9
:100790000500002003904FF460200290002000909C
:1007A00003208DF8100001208DF8040069460248EE
:1007B00000F048F805B000BD0024014021B1826876
:1007C00042F48072826003E0826822F48072826068
:1007D0007047000008B50121102000F0AFFC002098
:1007E0008DF803000120ADF8000003208DF8020011
:1007F0006946094800F021F90220ADF80000694679
:10080000054800F01AF90420ADF8000069460248D6
:1008100000F013F908BD000000100140014600205F
:100820008A6802F004020AB1012000E0002070474B
:10083000014600208A6802F008020AB1012000E0A7
:100840000020704730B502460020002350680F4C4E
:1008500020400D790C6844EA0524204350609068DC
:100860000B4C2040D1E902542C434D7944EA450415
:1008700020439060D06A20F470000C7C641EE4B2C7
:10088000234340EA0350D06230BD0000FFFEF0FF7A
:10089000FDF7F1FFF0B504460D4600200021092DBB
:1008A00011DDE068A5F10A0606EB4607072606FA01
:1008B00007F18843A5F10A0606EB460603FA06F19E
:1008C0000843E0600CE0206905EB4507072606FABF
:1008D00007F1884305EB450603FA06F1084320615A
:1008E000072A0FDA606B561E06EB86071F2606FAEC
:1008F00007F18843561E06EB860605FA06F1084303
:10090000606322E00D2A0FDA206BD61F06EB860704
:100910001F2606FA07F18843D61F06EB860605FA5E
:1009200006F10843206310E0E06AA2F10D0606EB31
:1009300086071F2606FA07F18843A2F10D0606EB8B
:10094000860605FA06F10843E062F0BD816841F0D1
:1009500008018160704721B1826842F4A002826080
:1009600003E0826822F4A00282607047816841F04F
:1009700004018160704700BFFEE7000010B500F081
:1009800013F80121014800F003F810BD08000240EF
:1009900021B1026842F00102026004E002684FF6F1
:1009A000FE731A400260704700B58BB00121084603
:1009B00000F0B4FB03200390002002900A900C4842
:1009C00001904FF4806007908020059020200890CF
:1009D0000848009080150690002004904FF4805045
:1009E00009906946044800F009F80BB000BD00000A
:1009F000020000204C2401400800024010B50022F3
:100A0000026847F6F0739A430C6A8B6823430C69BB
:100A100023434C6923438C692343CC6923434C6AA9
:100A200023438C6A23431A430260CB6843600B68FC
:100A300083604B68C36010BD70472DE9F0410246EA
:100A400000250026002000230024002791F803C081
:100A50000CF00F0591F803C00CF0100CBCF1000F66
:100A600003D091F802C04CEA050591F800C0BCF132
:100A7000000F31D0146800202BE04FF0010C0CFA6D
:100A800000F3B1F800C00CEA03069E4220D18300B7
:100A90004FF00F0C0CFA03F7BC4305FA03FC4CEAC9
:100AA000040491F803C0BCF1280F06D14FF0010CEB
:100AB0000CFA00FCC2F814C00AE091F803C0BCF1C3
:100AC000480F05D14FF0010C0CFA00FCC2F810C021
:100AD000401C0828D1D31460B1F800C0BCF1FF0F4E
:100AE00034DD546800202EE000F1080C4FF00108BE
:100AF00008FA0CF3B1F800C00CEA03069E4221D1BB
:100B000083004FF00F0C0CFA03F7BC4305FA03FC0B
:100B10004CEA040491F803C0BCF1280F05D100F1A0
:100B2000080C08FA0CF8C2F8148091F803C0BCF164
:100B3000480F07D100F1080C4FF0010808FA0CF833
:100B4000C2F81080401C0828CED35460BDE8F08164
:100B50000AB1016100E04161704700BFFEE700BFDC
:100B6000FEE7704700200CE0002106E00022064B63
:100B700003EBC0135A544A1CD1B28029F6DB421C45
:100B8000D0B20828F0DB7047080000202DE9F043C0
:100B900004460D4616461F46284638E0224631E0F8
:100BA000002A2DDB7F2A2BDC002829DB3F2827DCCD
:100BB0004FEAE07C00EB5C7C4FEAEC0CDFF85880FD
:100BC00008EBCC1C1CF802C003464FEAE07800EBAF
:100BD00058784FEAE808A0EBC8094FF0010808FA76
:100BE00009F82CEA080C01464FEAE07800EB587847
:100BF0004FEAE808DFF8209009EBC81808F802C0AF
:100C0000511C0AB2A1199142CADC411C08B2E9196F
:100C10008142C3DCBDE8F0830800002038B5002421
:100C200006E0002500E06D1CB5F57A7FFBD3641C5F
:100C3000B4F57A7FF5D30121302000F07FFA14203B
:100C40008DF8030003208DF802004FF48070ADF89A
:100C5000000069460848FFF7F0FE0420ADF80000E8
:100C600069460648FFF7E9FE012000F00DFA012071
:100C700000F016FA38BD00000010014000140140D9
:100C800070B50546002411E080212141294009B1B9
:100C9000012100E00021084600F002FA012000F0E6
:100CA000F3F9002000F0F0F9601CC4B2082CEBDB73
:100CB000012000F0E9F9002000F0E6F970BD10B560
:100CC000012000F0EDF9012000F0DEF9002000F035
:100CD000E7F9002000F0D8F910BD10B5002000F0B1
:100CE000DFF9012000F0D0F9012000F0D9F910BDA2
:100CF00010B5FFF793FFAE2000F0DCF9D52000F02F
:100D0000D9F9802000F0D6F9A82000F0D3F93F20CF
:100D100000F0D0F9D32000F0CDF9002000F0CAF99E
:100D2000402000F0C7F9A12000F0C4F9C82000F06D
:100D3000C1F9DA2000F0BEF9122000F0BBF98120E1
:100D400000F0B8F9CF2000F0B5F9D92000F0B2F9E1
:100D5000F12000F0AFF9DB2000F0ACF9302000F01A
:100D6000A9F9A42000F0A6F9A62000F0A3F98D208F
:100D700000F0A0F9142000F09DF9AF2000F09AF9DE
:100D8000FFF7F0FE00F06CF910BD10B5024601202F
:100D900000E050430B1EA1F10101FAD110BD70B566
:100DA00005460C4645F0B00000F084F9102141EAF8
:100DB000141000F07FF904F00F0000F07BF970BD13
:100DC000F8B506460F4614461D46082D0CD1A4F171
:100DD00020000E4901EB0010102308223946009034
:100DE000304600F081F80FE0062D0DD1A4F120006F
:100DF00000EB4000064901EB40000823062239467B
:100E00000090304600F070F8F8BD00009015000822
:100E1000801B00082DE9FF5F86B0074614461D467B
:100E2000DDF85080169E0022134620462946FFF723
:100E300063FB06D833462B2238460799FFF7C0FFDD
:100E400007E033462D2238460799FFF7B9FF85F0B2
:100E5000004520462946FFF71EFB82465046FFF715
:100E60000DFB22462B46CDE90401FFF723FA044689
:100E70000D460A201599FFF788FF81464846FFF77F
:100E8000FDFA22462B46CDE90001FFF716FACDE91F
:100E9000020100F033FBCDE90401FFF7FCFA8346C1
:100EA000BBFBF9F08244B91908B24346524600969A
:100EB000079900F097F808F1010101FB067108B2EB
:100EC00033462E220799FFF77BFF08F1020101FB51
:100ED000067108B200965A46159B079900F082F8F1
:100EE0000AB0BDE8F09F00002DE9FF4F80460E4696
:100EF0009146DDF834B0002500244A46314640468C
:100F0000039BFFF743FE00BF5EE0002558E008EBBF
:100F10000500002852DB08EB05007F284EDC304638
:100F2000F11706EB5171C9100FB2F11706EB5171B1
:100F3000C910A6EBC10A002E05DA781E07B20AF125
:100F400008000FFA80FA3819002817DB381907282B
:100F500014DC3819224901EBC01008EB0501405C94
:100F600004FB09511BF8011001FA0AF10843391971
:100F70001B4A02EBC11108EB050288543819401CCA
:100F800000281BDB3819401C072817DC3819401CC7
:100F9000134901EBC01008EB0501405C04FB09514B
:100FA0001BF80110CAF10802114108433919491C04
:100FB0000B4A02EBC11108EB05028854681CC5B24C
:100FC0004D45A4DB601CC4B20399481EC11700EB59
:100FD0005171012202EBE101A14296DCBDE8FF8FD5
:100FE000080000202DE9F0470646894617461D46B1
:100FF000DDF82080002417E0281B411E0A20FFF79F
:10100000C4FEB7FBF0F00A21B0FBF1F201FB1200C5
:1010100000F1300A04FB086108B2434652464946D3
:10102000FFF7CEFE601CC4B2AC42E5DBBDE8F08742
:101030002DE9F0410646884615461F46002409E082
:101040002A5D04FB076108B23B464146FFF7B8FE44
:10105000601CC4B2285D0028F2D1BDE8F081000018
:1010600010B500240BE000212046FFF798FE05494B
:1010700001EBC410802100F02DF8601CC4B2082CD4
:10108000F1DB10BD0800002010B5044622464FF4E5
:1010900080710248FFF75CFD10BD000000100140A8
:1010A00010B50446224604210148FFF751FD10BD4A
:1010B0000014014010B50446FFF701FE7820FFF749
:1010C000DFFD0020FFF7DCFD2046FFF7D9FDFFF72D
:1010D00004FE10BD70B505460E46FFF7F0FD782002
:1010E000FFF7CEFD4020FFF7CBFD002404E0285D94
:1010F000FFF7C6FD601CC4B2B442F8DBFFF7EDFD9C
:1011000070BD704701460020034A506820F44040FB
:1011100008435060704700000010024029B1064AA1
:1011200052690243044B5A6104E0034A5269824304
:10113000014B5A61704700000010024029B1064A75
:1011400092690243044B9A6104E0034A9269824324
:10115000014B9A617047000000100240704710B5C3
:1011600000F002F810BD00000CB5002001900090C6
:101170003348006840F480303149086000BF30488F
:10118000006800F4003000900198401C0190009825
:1011900018B90198B0F5A06FF1D12948006800F4A2
:1011A000003010B10120009001E000200090009874
:1011B000012843D12348006840F01000214908600D
:1011C0000846006820F0070008600846006840F004
:1011D000020008601A48406819494860084640689B
:1011E00048600846406840F48060486008464068AF
:1011F00020F47C1048600846406840F4E8104860DD
:101200000846006840F08070086000BF0C48006825
:1012100000F000700028F9D00948406820F0030071
:10122000074948600846406840F00200486000BF37
:101230000348406800F00C000828F9D10CBD0000FC
:101240000010024000200240042808D14FF0E021A5
:10125000096941F004014FF0E022116107E04FF00D
:10126000E021096921F004014FF0E022116170478B
:1012700010B5044600204FF0E0210861401FFFF741
:10128000E3FF2046E11704EB5171C1F3CF01014A9E
:10129000118010BD0000002010B51348006840F018
:1012A00001001149086008464068104908400E498D
:1012B0004860084600680E4908400B490860084627
:1012C000006820F4802008600846406820F4FE0092
:1012D00048604FF41F008860FFF741FF4FF0006047
:1012E0000449086010BD0000001002400000FFF833
:1012F000FFFFF6FE08ED00E000BFFEE702E008C8D1
:10130000121F08C1002AFAD170477047002001E07F
:1013100001C1121F002AFBD17047000070B50446BE
:101320004FF47A7094FBF0F594FBF0F100FB11465A
:1013300003E0074800F00EF86D1E002DF9D12EB124
:101340004FF47A7106FB01F000F004F870BD000064
:1013500040420F000146114A12884A434FF0E023F1
:101360005A6100229A611A46126942F001021A611A
:1013700000BF4FF0E022106900F001021AB100F442
:101380008032002AF5D04FF0E022126922F00102EB
:101390004FF0E0231A6100229A617047000000209C
:1013A0000EB5FFF7EBFAFFF7A3F9FFF7A1FC482012
:1013B000FFF75EFF82E0082341A200210846FFF705
:1013C00037FE08200090424802880423002128208C
:1013D000FFF708FE3E490888FFF750F880460022D4
:1013E0003C4BFEF7DCFF06464FF066323A4BFEF709
:1013F00064FF04460B460820012100912246CDE9F6
:10140000011000215020FFF705FD082333A2102111
:101410000020FFF70DFE082000902D48428804238D
:1014200010212820FFF7DEFD29494888FFF726F81C
:1014300006460022274BFEF7B2FF04464FF0663205
:10144000254BFEF73AFF80460B460820012100910C
:101450004246CDE9011010215020FFF7DBFC0823A4
:1014600022A220210020FFF7E3FD08200090184869
:101470008288042320212820FFF7B4FD144988889E
:10148000FEF7FCFF06460022124BFEF788FF0446DB
:101490004FF06632104BFEF710FF80460B460820D7
:1014A000012100914246CDE9011020215020FFF793
:1014B000B1FCFFF7D5FD6420FFF730FF7BE70000AC
:1014C000414443313A303030302C2B302E305600EE
:1014D000020000200000B04066660A4041444332EA
:1014E0003A303030302C2B302E30560041444333CC
:1014F0003A303030302C2B302E3056002DE9F04D64
:1015000007460E46FFF79EF804460D463A46334618
:10151000FEF7D0FEDFF86CA0DFF86CB01B4B07467F
:10152000884616F0004F4FF000020AD0FEF7CCFFBD
:101530000AD900225B4638464146FEF7DDFF1BD242
:1015400012E0FEF7C1FF08D200225346204629468A
:10155000FEF7ADFE04460D460EE000225B4638461F
:101560004146FEF7C9FF07D80022534620462946C8
:10157000FEF7FCFD04460D463146204665F31E018C
:10158000BDE8F08D0000F03F0000E03F0000E0BF4C
:10159000000000000000000000000000000000004B
:1015A000000000F8000000000000003330000000E0
:1015B00000160E00160E00000000000000000000E3
:1015C00040C07840C0784000043F04043F04040059
:1015D000007088FC08300000001820FF211E000069
:1015E000F008F000E018000000211C031E211E007E
:1015F00000F00888700000001E2123241927211004
:10160000000000160E0000000000000000000000B6
:10161000000000E01804020000000007182040004D
:1016200000020418E000000000402018070000003D
:10163000404080F0804040000202010F01020200A1
:10164000000000F0000000000101011F0101010085
:10165000000000000000000000B07000000000006A
:101660000000000000000000000101010101010173
:10167000000000000000000000303000000000000A
:1016800000000000806018040060180601000000DF
:1016900000E010080810E000000F102020100F00DC
:1016A000001010F8000000000020203F2020000063
:1016B00000700808088870000030282422213000BB
:1016C00000300888884830000018202020110E00C3
:1016D0000000C02010F8000000070424243F24006C
:1016E00000F80888880808000019212020110E0041
:1016F00000E0108888180000000F112020110E0053
:1017000000380808C83808000000003F000000004A
:101710000070880808887000001C222121221C000B
:1017200000E010080810E0000000312222110F0034
:10173000000000C0C00000000000003030000000C9
:10174000000000C0C0000000000080B07000000079
:101750000000804020100800000102040810200052
:10176000404040404040400004040404040404009D
:101770000008102040800000002010080402010032
:10178000007048080808F000000000303601000032
:10179000C030C828E810E0000718272423140B00E5
:1017A0000000C038E0000000203C2302022738205F
:1017B00008F8888888700000203F202020110E0043
:1017C000C03008080808380007182020201008003A
:1017D00008F808080810E000203F202020100F0023
:1017E00008F88888E8081000203F202023201800EF
:1017F00008F88888E8081000203F20000300000057
:10180000C03008080838000007182020221E0200F7
:1018100008F808000008F808203F210101213F20B6
:10182000000808F8080800000020203F20200000E1
:1018300000000808F8080800C08080807F000000D1
:1018400008F888C028180800203F2001263820000A
:1018500008F8080000000000203F20202020300071
:1018600008F8F800F8F80800203F003F003F20008B
:1018700008F830C00008F808203F200007183F0093
:10188000E01008080810E0000F10202020100F00C2
:1018900008F808080808F000203F210101010000B5
:1018A000E01008080810E0000F18242438504F00FA
:1018B00008F8888888887000203F2000030C3020BA
:1018C00000708808080838000038202121221C00F8
:1018D000180808F8080818000000203F2000000041
:1018E00008F808000008F808001F202020201F002A
:1018F0000878880000C83808000007380E0100008A
:10190000F80800F80008F800033C0700073C030053
:10191000081868808068180820302C03032C3020B9
:101920000838C800C83808000000203F2000000028
:1019300010080808C8380800203826212020180080
:10194000000000FE020202000000007F4040400054
:10195000000C30C000000000000000010638C0008C
:1019600000020202FE000000004040407F00000034
:1019700000201008040810200000000000000000F3
:101980000000000000000000808080808080808057
:101990000002040800000000000000000000000039
:1019A00000008080808000000019242222223F2035
:1019B00008F8008080000000003F112020110E0078
:1019C0000000008080800000000E11202020110007
:1019D000000000808088F800000E112020103F20B9
:1019E0000000808080800000001F2222222213003D
:1019F000008080F0888888180020203F2020000088
:101A00000000808080808000006B9494949360003C
:101A100008F8008080800000203F210000203F2047
:101A200000809898000000000020203F2020000047
:101A3000000000809898000000C08080807F000037
:101A400008F8000080808000203F24022D30200014
:101A5000000808F8000000000020203F20200000BF
:101A60008080808080808000203F20003F20003FD9
:101A7000008080008080000000203F2100203F2067
:101A80000000808080800000001F202020201F0098
:101A9000808000808000000080FFA12020110E00C7
:101AA0000000008080808000000E112020A0FF80B8
:101AB000808080008080800020203F212000010065
:101AC00000008080808080000033242424241900BA
:101AD000008080E0808000000000001F20200000C7
:101AE0008080000000808000001F202020103F2008
:101AF000808080000080808000010E300806010098
:101B000080800080008080800F300C030C300F003C
:101B100000808000808080000020312E0E31200067
:101B2000808080000080808080818E701806010097
:101B300000808080808080000021302C22213000B5
:101B400000000000807C020200000000003F4040D6
:101B500000000000FF00000000000000FF00000087
:101B60000002027C800000000040403F00000000B6
:101B70000080404080000080000000000001010063
:101B80000000000000000000002F0000000007001F
:101B9000070000147F147F1400242A7F2A120023D8
:101BA0001308646200364955225000000007000007
:101BB00000001C224100000041221C000014083ECD
:101BC00008140008083E0808000000A06000000893
:101BD00008080808000060600000002010080402E7
:101BE000003E5149453E0000427F400000426151A5
:101BF0004946002141454B31001814127F1000273F
:101C000045454539003C4A49493000017109050301
:101C100000364949493600064949291E0000363632
:101C20000000000056360000000814224100001495
:101C30001414141400004122140800020151090672
:101C4000003E4955592E007C1211127C007F4949F3
:101C50004936003E41414122007F4141221C007F24
:101C600049494941007F09090901003E4149497A32
:101C7000007F0808087F0000417F410000204041AC
:101C80003F01007F08142241007F40404040007F18
:101C9000020C027F007F0408107F003E4141413E5C
:101CA000007F09090906003E4151215E007F0919A4
:101CB00029460046494949310001017F0101003FA1
:101CC0004040403F001F2040201F003F4038403F21
:101CD0000063140814630007087008070061514985
:101CE000454300007F41410000020408102000002D
:101CF00041417F0000040201020400404040404096
:101D0000000001020400002054545478007F48442D
:101D1000443800384444442000384444487F003864
:101D20005454541800087E0901020018A4A4A47C8D
:101D3000007F080404780000447D40000040808457
:101D40007D00007F102844000000417F4000007C9F
:101D500004180478007C08040478003844444438AB
:101D600000FC242424180018242418FC007C0804F7
:101D7000040800485454542000043F444020003CD0
:101D80004040207C001C2040201C003C4030403C57
:101D9000004428102844001CA0A0A07C00446454E7
:101DA0004C440000087F41000000007F000000005C
:101DB000417F0800000804081008A3AC00000000E0
:101DC00000000000000000000000000000000058BB
:101DD00038000000000000000000000000A1A30087
:101DE00000000000000000000000000000000000F3
:101DF000000018242418000000000000000000006B
:101E0000C4E300008060F8074020180F08C80808E5
:101E1000281800010000FF00100C0340807F000123
:101E2000061800BAC3001010F01F10F00080828264
:101E3000E2928A86800040221508166100004080E8
:101E40007F0000000000CAC000202020FE2020FFEC
:101E5000202020FF20202020000000007F4040475D
:101E6000444444474040400000BDE700000000FEFD
:101E7000929292FE929292FE000000000808048462
:101E8000621E010001FE020404080800000000FFB9
:101E90000101013109090909897101010101FFFFEE
:101EA0008080808080809681808080808080FFFF1D
:101EB00001818181FD8991A1C1FD81818101FFFFA6
:101EC000808080809F888482819F80808080FF00C6
:101ED000F01E00080000002008000000FC120008AE
:101EE000F81E000808000020000800000C1300087D
:081EF0000000000000000000EA
:0400000508000131BD
:00000001FF
