:020000040800F2
:100000002004002049010008F507000863030008E8
:10001000F1070008BD010008ED0B0008000000001A
:100020000000000000000000000000000D090008B2
:10003000C101000800000000F7070008F9090008E6
:100040006301000863010008630100086301000800
:1000500063010008630100086301000863010008F0
:1000600063010008630100086301000863010008E0
:1000700063010008630100086301000863010008D0
:1000800063010008630100086301000863010008C0
:1000900063010008630100086301000863010008B0
:1000A00063010008630100086301000863010008A0
:1000B0006301000863010008630100086301000890
:1000C0006301000863010008630100086301000880
:1000D0006301000863010008630100086301000870
:1000E0006301000863010008630100086301000860
:1000F0006301000863010008630100086301000850
:10010000630100086301000863010008630100083F
:10011000630100086301000863010008630100082F
:10012000630100086301000863010008630100081F
:10013000DFF810D000F030F800480047ED0D00085F
:10014000AFF300802004002006488047064800479F
:10015000FEE7FEE7FEE7FEE7FEE7FEE7FEE7FEE777
:10016000FEE7FEE7FD0900083101000830B50B4647
:10017000014600202022012409E021FA02F59D42D7
:1001800005D303FA02F5491B04FA02F52844151EAB
:10019000A2F10102F1DC30BD064C074D06E0E0683B
:1001A00040F0010394E8070098471034AC42F6D3BE
:1001B000FFF7C2FF880E0008A80E000800BFFEE788
:1001C0007047000070B506460C46154601211C48D4
:1001D00000F032FA00BF1B49194800F0D0F800289F
:1001E000F9D00022A021164800F0D6FA00BF164927
:1001F000134800F0C4F80028F9D03146104800F048
:10020000D4FA00BF1049891E0D4800F0B8F8002844
:10021000F8D00EE021780A4800F0C7FA00BF0A497A
:10022000891C074800F0ABF80028F8D0641C681E51
:10023000C5B2002DEED10121014800F009FA70BDD0
:100240000054004001000300820007002DE9F04146
:10025000024600250026002000230024002791F8F4
:1002600003C00CF00F0591F803C00CF0100CBCF1AA
:10027000000F03D091F802C04CEA050591F800C0C8
:10028000BCF1000F31D0146800202BE04FF0010CBE
:100290000CFA00F3B1F800C00CEA03069E4220D12C
:1002A00083004FF00F0C0CFA03F7BC4305FA03FC74
:1002B0004CEA040491F803C0BCF1280F06D14FF0BA
:1002C000010C0CFA00FCC2F814C00AE091F803C05B
:1002D000BCF1480F05D14FF0010C0CFA00FCC2F83C
:1002E00010C0401C0828D1D31460B1F800C0BCF184
:1002F000FF0F34DD546800202EE000F1080C4FF0B1
:10030000010808FA0CF3B1F800C00CEA03069E429B
:1003100021D183004FF00F0C0CFA03F7BC4305FA10
:1003200003FC4CEA040491F803C0BCF1280F05D18A
:1003300000F1080C08FA0CF8C2F8148091F803C018
:10034000BCF1480F07D100F1080C4FF0010808FA82
:100350000CF8C2F81080401C0828CED35460BDE8C9
:10036000F08100BFFEE721B1028842F48062028082
:1003700004E002884FF6FF331A400280704770B5E0
:1003800002460024002500230020958A138B1B04BD
:1003900045EA030626F07F4404EA01068E4201D1B5
:1003A000012000E0002070BD21B1028842F001026E
:1003B000028004E002884FF6FE731A400280704704
:1003C0002DE9F04105460E461446002701217548E7
:1003D00000F032F94FF48050734908600CE0724825
:1003E0000068401E704908600846006820B9042073
:1003F00000F0DEF9BDE8F0816B48006828B16B4978
:100400006848FFF7BCFF0028E9D00022294665486C
:1004100000F0C2F94FF48050634908600BE0624875
:100420000068401E604908600846006818B9052049
:1004300000F0BEF9DEE75C48006828B15C49594825
:10044000FFF79DFF0028EAD00021564800F0ADF9E3
:100450004FF48050544908600BE053480068401E38
:10046000514908600846006818B9062000F0A0F954
:10047000C0E74D48006830B14D49891E4948FFF733
:100480007EFF0028E9D00121464800F0D5F84FF45E
:100490008050454908600BE043480068401E4249CF
:1004A00008600846006818B9072000F081F9A1E744
:1004B0003D48006828B13D493A48FFF760FF0028F1
:1004C000EAD001222946374800F066F94FF48050FF
:1004D000354908600BE034480068401E3249086026
:1004E0000846006818B9082000F062F982E72E4833
:1004F000006830B12D49491C2A48FFF740FF002809
:10050000E9D0002741E0012C1DD100212548FFF74B
:100510002AFF2003244908600BE023480068401E9E
:10052000214908600846006818B9092000F040F920
:1005300060E71D48006830B11C493F311948FFF79A
:100540001EFF0028E9D0174800F022F9F0554FF4BB
:100550008050154908600BE013480068401E12499E
:1005600008600846006818B90A2000F021F941E740
:100570000D48006830B10D493F310A48FFF7FFFED2
:100580000028E9D0641E781C87B2002CBBD1012161
:10059000044800F05DF801210248FFF7E4FE012065
:1005A00028E7000000540040140000200100030070
:1005B0008200070000B585B00121082000F02CF969
:1005C0000121480500F018F91C208DF81300402087
:1005D000ADF8100003208DF8120004A91348FFF7AE
:1005E00035FE8020ADF8100004A91048FFF72EFE5C
:1005F0004FF48060ADF80A000001ADF80C000C4823
:1006000000904FF48040ADF806000020ADF80400E3
:100610004420ADF808006946064800F043F801217F
:100620000448FFF7C1FE05B000BD0000000C01400A
:10063000801A06000054004021B1028842F4807202
:10064000028004E002884FF6FF631A400280704780
:1006500021B1028842F40072028004E002884FF661
:10066000FF531A40028070470CB502460020002359
:100670000193009300920B0F019321F07F41019BA6
:100680001BB1009B1433009303E0090C009B18334B
:100690000093009B1B680B400BB1012000E0002081
:1006A0000CBD00002DE9F04385B004460D46002640
:1006B000B1460427DFF8CC80A6884FF6C07006400C
:1006C000684600F0B9F8DDF808802F48B8FBF0F074
:1006D0001FFA80F946EA0906A68020884FF6FE71C7
:1006E0000840208000262949286888420CD82868BC
:1006F0004000B8FBF0F087B2042F00DA04273E4335
:1007000009F10100208427E0E8884BF6FF71884258
:1007100006D1286800EB4000B8FBF0F087B209E092
:10072000286800EBC00101EB0010B8FBF0F087B2C5
:1007300047F48047C7F30B0008B947F0010747F4B7
:10074000004006434FF4967009FB00F04FF47A71B5
:1007500090FBF1F0401C2084A683208840F001002B
:10076000208026884FF6F5300640A888698908431E
:1007700006432680A88929890843208105B0BDE861
:10078000F083000000127A0040420F00A0860100B2
:100790000146088AC0B2704712B141F0010102E07F
:1007A0004FF6FE73194001827047018270470000C6
:1007B00010B50446214602A000F03CFA002010BD0E
:1007C0003C3C2D454550524F4D2D4552524F522DD8
:1007D0003E3E2049324320B5C8B4FDB3ACCAB12176
:1007E0006572726F72436F6465203D2025640A0054
:1007F00000BFFEE77047704729B1064AD26902433D
:10080000044BDA6104E0034AD2698243014BDA61A6
:10081000704700000010024029B1064A9269024365
:10082000044B9A6104E0034A92698243014B9A6146
:10083000704700000010024030B500210022002463
:1008400000232D4D6D6805F00C0121B1042905D060
:10085000082923D105E0294D056022E0274D0560D8
:100860001FE0254D6D6805F47012234D6D6805F489
:100870008034022505EB92421CB9214D5543056099
:100880000BE01D4D6D6805F400351DB11C4D554341
:10089000056002E0194D5543056002E0174D056003
:1008A00000BF00BF144D6D6805F0F0010909154D3A
:1008B0006B5C0568DD4045600F4D6D6805F4E061D7
:1008C000090A104D6B5C4568DD4085600A4D6D6816
:1008D00005F46051C90A0B4D6B5C4568DD40C5608D
:1008E000054D6D6805F44041890B074D6B5CC5688B
:1008F000B5FBF3F5056130BD0010024000127A002F
:1009000000093D000000002010000020704710B5D5
:1009100000F002F810BD00000CB50020019000901E
:100920003348006840F480303149086000BF3048E7
:10093000006800F4003000900198401C019000987D
:1009400018B90198B0F5A06FF1D12948006800F4FA
:10095000003010B10120009001E0002000900098CC
:10096000012843D12348006840F010002149086065
:100970000846006820F0030008600846006840F060
:10098000020008601A4840681949486008464068F3
:1009900048600846406840F4806048600846406807
:1009A00020F47C1048600846406840F4E810486035
:1009B0000846006840F08070086000BF0C4800687E
:1009C00000F000700028F9D00948406820F00300CA
:1009D000074948600846406840F00200486000BF90
:1009E0000348406800F00C000828F9D10CBD000055
:1009F00000100240002002407047000010B513486C
:100A0000006840F00100114908600846406810493C
:100A100008400E494860084600680E4908400B49E6
:100A200008600846006820F4802008600846406896
:100A300020F4FE0048604FF41F008860FFF767FF56
:100A40004FF000600449086010BD00000010024033
:100A50000000FFF8FFFFF6FE08ED00E021B18289FB
:100A600042F40052828104E082894DF6FF731A40FD
:100A70008281704700B585B0012144F20400FFF780
:100A8000CBFE4FF40070ADF8100018208DF8130065
:100A900003208DF8120004A91348FFF7D7FB4FF489
:100AA0008060ADF8100004208DF8130004A90E48F2
:100AB000FFF7CCFB4FF4E13000900020ADF80C00C4
:100AC0000C20ADF80A000020ADF80800ADF80600D3
:100AD000ADF804006946054800F018F80121034804
:100AE000FFF7BCFF05B000BD000801400038014021
:100AF00002460020B1F5007F00D100BF13880B40F3
:100B00000BB1012000E00020704700002DE9F04704
:100B100086B005460E460024A24600BFA146002727
:100B2000B08900B100BF2F462C8A4CF6FF700440FC
:100B3000F08804432C82AC894EF6F3100440B08850
:100B400031890843718908430443AC81AC8A4FF66C
:100B5000FF400440B0890443AC8201A8FFF76CFE5B
:100B60001F48874202D1DDF810A001E0DDF80CA09B
:100B7000A88900F4004040B10AEBCA0000EB0A105B
:100B800031684900B0FBF1F807E00AEBCA0000EB5E
:100B90000A1031688900B0FBF1F86420B8FBF0F06E
:100BA00004012009642101FB1089A88900F4004098
:100BB00040B1322000EBC900B0FBF1F000F00700BB
:100BC000044308E0322000EB09106421B0FBF1F08F
:100BD00000F00F0004432C8106B0BDE8F087000050
:100BE00000380140C1F308028280704700BFFEE771
:100BF00010B500BF01210D48FFF71EFD00BF0C49D5
:100C00000A48FFF731FD0028F9D00022A02107484B
:100C1000FFF7C2FD0649491C0448FFF725FD0028DF
:100C2000E8D001210148FFF713FD10BD005400403A
:100C3000010000100FB4054B10B503A9044A029837
:100C400000F018F810BC5DF814FB0000C90D000896
:100C50001800002002E008C8121F08C1002AFAD1BB
:100C600070477047002001E001C1121F002AFBD12C
:100C7000704700002DE9FF4F89B09B4604460025D0
:100C800006E025280BD05A460B999047641C6D1C32
:100C900020780028F5D10DB02846BDE8F08F002758
:100CA000B8460122474900E0074314F8013F203BC2
:100CB00002FA03F00842F7D120782E2819D114F84F
:100CC000010F47F004072A280ED06FF02F0220787A
:100CD000A0F1300109290CD808EB880102EB410191
:100CE00000EB0108641CF2E70A98641C50F8048BBE
:100CF0000A9020780028CED0642808D0692806D031
:100D000075281ED05A460B9990476D1C58E00A99D9
:100D10004FF00A0901C90A91002802DA40422D2148
:100D200002E0390504D52B218DF82010012103E0C4
:100D3000F90704D02021F7E78A4608AE0DE000212C
:100D4000FAE70A994FF00A0901C90A91F7E74946FB
:100D5000FFF70CFA303106F8011D0028F7D1ADEB92
:100D6000060000F12009780701D44FF00108C845BA
:100D700002DDA8EB090000E000208046002706E025
:100D800008A85A46C05D0B9990476D1C7F1C5745BB
:100D9000F6DB04E030205A460B9990476D1CB8F101
:100DA0000001A8F10108F5DC05E016F8010B5A4630
:100DB0000B9990476D1CB9F10001A9F10109F4DC10
:100DC000641C65E70928010070B504460D46E1B2D0
:100DD0000548FFF707FF00BF80210348FFF788FEA3
:100DE0000028F9D0204670BD003801401FB500240E
:100DF0000020029003901A4903C9CDE90001FFF7D2
:100E0000D9FBFFF737FE17A0FFF714FF00BF08E07C
:100E100002A90C5502A8015D15A0FFF70BFF601C8D
:100E200084B2082CF4DB13A0FFF704FF082202A908
:100E30000020FFF7C7F9FFF7DBFE08226946A02074
:100E4000FFF7BEFA002406E01DF8041008A0FFF723
:100E5000F1FE601C84B2082CF6DB00BFFEE7000048
:100E6000800E0008D0B4C8EBB5C4D6B5A3BA0A004A
:100E700025642000B6C1B3F6B5C4D6B50A0000009B
:100E80000102030000000000A80E0008000000207E
:100E90001C000000540C0008C40E00081C000020B8
:100EA00004040000640C00080000000001020304B8
:100EB00001020304060708090204060800000000F6
:040EC000000000002E
:0400000508000131BD
:00000001FF
