:020000040800F2
:1000000088710020C5010008CD010008CF0100085B
:10001000D1010008D3010008D5010008000000004C
:10002000000000000000000000000000D7010008F0
:10003000D901000800000000DB010008BD360008FF
:10004000DF010008DF010008DF010008DF01000810
:10005000DF010008DF010008DF010008DF01000800
:10006000DF010008DF010008DF010008DF010008F0
:10007000DF0100086D0B0008DF010008DF01000848
:10008000DF0100089D0B0008DF010008DF01000808
:10009000DF010008DF010008DF010008DF010008C0
:1000A000DF010008DF010008DF010008DF010008B0
:1000B000DF010008DF010008DF010008DF010008A0
:1000C000DF010008DF010008DF010008DF01000890
:1000D000DF010008DF010008DF010008DF01000880
:1000E00025100008DF010008DF010008DF0100081B
:1000F000DF010008DF010008DF010008DF01000860
:10010000DF01000865230008DF010008DF010008A7
:10011000053A0008DF01000835370008DF01000854
:10012000DF010008BD0C0008DF010008ED0C00082D
:10013000DF010008DF010008DF010008DF0100081F
:10014000DF010008DF010008DF010008DF0100080F
:10015000DF010008F50C0008DF010008DF010008DE
:10016000DF010008DF010008DF010008DF010008EF
:10017000DF010008DF010008DF010008DF010008DF
:10018000DF010008DF010008DF010008DF010008CF
:10019000DF010008DF010008DF010008DF010008BF
:1001A0000000000000000000DF010008DFF810D0B0
:1001B00000F0E4FA00480047816C0008AFF30080CB
:1001C000887100200648804706480047FEE7FEE7A2
:1001D000FEE7FEE7FEE7FEE7FEE7FEE7FEE7FEE7F7
:1001E000CD360008AD0100082DE9F05F054600207E
:1001F00092469B4688460646814640241BE0284698
:1002000041464746224600F002F953465A46C01A74
:10021000914110D311461846224600F0E9F82D1AF4
:1002200067EB01084F4622460120002100F0E0F86C
:1002300017EB00094E41201EA4F10104DFDC484603
:1002400031462A464346BDE8F09F40EA01039B073A
:1002500003D009E008C9121F08C0042AFAD203E03B
:1002600011F8013B00F8013B521EF9D27047D2B29F
:1002700001E000F8012B491EFBD270470022F6E78F
:1002800010B513460A4604461946FFF7F0FF20460C
:1002900010BDCAB2401E10F8011F8A4202D00029C8
:1002A000F9D10020704730B504460020034600E035
:1002B0005B1C934203D2E05CCD5C401BF8D030BDA8
:1002C0002DE9F04D81EA030404F0004B21F00045D4
:1002D00014464FF0000A23F0004150EA050220D0F6
:1002E00054EA01021DD0C5F30A570246C5F31303B1
:1002F000C1F31300C1F30A5640F4801543F4801390
:10030000A7EB0608101BD64608F2FD3873EB050074
:1003100002D308F1010801E092185B41B8F1000F27
:1003200003DA00200146BDE8F08D00204FF4801173
:10033000064684460EE0171B73EB050705D3121B18
:1003400063EB050306434CEA010C49084FEA300011
:1003500092185B4150EA0107EDD152EA030012D036
:1003600082EA040083EA0501084305D0101BAB4173
:1003700006D20122002306E000224FF0004302E0F3
:100380006FF0010253101AEB06004CEB085110EB12
:100390000A0041EB0B01BDE8F04D00F048B800F059
:1003A000004230F000400AD0C10D01F56071C0F389
:1003B000160042EA0151C20840071143704700206D
:1003C0000146704730B50B4601460020202201242B
:1003D00009E021FA02F59D4205D303FA02F5491B13
:1003E00004FA02F52844151EA2F10102F1DC30BD29
:1003F000202A04DB203A00FA02F1002070479140E5
:10040000C2F1200320FA03F3194390407047202AD9
:1004100004DB203A21FA02F00021704721FA02F3AE
:10042000D040C2F12002914008431946704710B5F0
:10043000141E73F1000408DA401C41F10001921807
:100440005B411A4301D120F0010010BD2DE9F04DB0
:1004500092469B4611B1B1FA81F202E0B0FA80F205
:1004600020329046FFF7C4FF04460F4640EA0A00D8
:1004700041EA0B0153465A46084313D0114653EA4A
:10048000010019D0C8F140025046FFF7C0FF0546F1
:100490000E46504659464246FFF7AAFF084305D08C
:1004A000012004E020463946BDE8F08D00200543D8
:1004B00046EAE0762C4337430A986305E40AA0EB4A
:1004C00008000022FD0A44EA47540A3002D5002001
:1004D0000146E9E7010510196941DDE90845001900
:1004E0006941BDE8F04DA2E72DE9FE4F804681EA63
:1004F0000300C00F0C46009021F0004123F000459E
:10050000B8EB0200A94105D24046214690461C4660
:100510000B46024623F00040104347D0270DC7F397
:100520000A00C3F30A510290401A019040286BDA86
:10053000C3F3130040F4801B0098924620B10023BF
:10054000D2EB030A63EB0B0B01985946C0F1400252
:100550005046FFF74DFF06460D4650465946019A54
:1005600000F01EF910EB08006141002487EA1152E7
:1005700084EAE7731A4340D0009A62B3019A012AD1
:100580004FEA075215DC001B61EB02014FF00042FD
:1005900002EA0752CDE90042001C41F580113246C3
:1005A0002B46FFF753FF03B0BDE8F08F40462146CE
:1005B000F9E7001B61EB0201001C41F580130018F4
:1005C0005B412018A2F5001747EB030140EAD57004
:1005D000B6196D4111E06D084FEA360645EAC0755F
:1005E0004FEA0752001B61EB0201001C41F580112C
:1005F00049084FEA30000019514132462B4603B0FA
:10060000BDE8F04FFFF713BF009801224000002320
:10061000D0EB020263EBE073009821464FEAE074EE
:10062000B8EB000061EB0401E9E783F000435BE70E
:1006300081F0004158E72DE9FE4F81EA030404F000
:10064000004421F0004100944FF0000B23F00043E0
:1006500050EA01045ED052EA03045BD0C3F30A54AB
:10066000C1F30A552C44A4F2F3340194A0FB0254C4
:10067000C1F3130141F48011C3F3130343F4801356
:1006800001FB024400FB034E840A970A44EA8154AA
:1006900047EA8357A4FB076802958D0A05FB078587
:1006A0004FEA932C04FB0C542705029D4FEA065891
:1006B00047EA1637B5EB08056EEB070C870E920E6E
:1006C00047EA811742EA8312A7FB0201B6EB0B014E
:1006D00064EB00042B0D43EA0C335E1844EB1C5012
:1006E000DA465146E7FB0201C5F313044FEA0B3328
:1006F00043EA14534FEA0432019C43EA0603A4F18F
:100700000C040294009CCDE900B4FFF79FFE03B0F7
:10071000BDE8F08F00200146F9E7C1F30A52C1F3AA
:10072000130140F2FF3341F480119A4202DA0020B3
:100730000146704740F233439A42A2F2334202DC50
:100740005242FFF764BEFFF753BE000030B5041EEF
:1007500071F1000404DB4FF00044404264EB0101FE
:10076000141E73F1000405DB1C464FF00043524297
:1007700063EB0403994208BF904230BD064C074D1D
:1007800006E0E06840F0010394E807009847103461
:10079000AC42F6D3FFF70EFD703C0308903C030813
:1007A000202A06DBCB17203A41FA02F043EAE07335
:1007B00006E041FA02F3D040C2F120029140084322
:1007C0001946704770B500254FF4803400E0641E70
:1007D00024B1802001F09AFD0028F8D014B9032537
:1007E000284670BD40F2FF5001F04CFD2846F8E766
:1007F0002DE9F041064600274848056801E04748D2
:10080000056805F045000028F9D005F0040030B176
:100810000327042001F036FD3846BDE8F08105F0DD
:10082000010028B10127012001F02CFD3846F4E732
:1008300001F066FDB04202D010273846EDE740F2E5
:10084000FF5001F01FFD002001F080FD04463448F8
:10085000204008B93846E0E704F0004008B11C2009
:10086000DBE704F0804008B10920D6E704F000502F
:1008700008B10A20D1E704F0805008B10B20CCE782
:1008800004F0006008B10C20C7E704F0806008B1F4
:100890000D20C2E704F0807008B10E20BDE704F41B
:1008A000000008B10F20B8E704F4800008B1102060
:1008B000B3E704F4001008B11120AEE704F480108F
:1008C00008B11220A9E704F4002008B11320A4E71E
:1008D00004F4802008B114209FE704F4003008B12C
:1008E00015209AE704F4803008B1162095E704F447
:1008F000004008B1172090E704F4804008B11820A8
:100900008BE704F4005008B1192086E704F00800D2
:1009100008B11A2081E738467FE70000342C0140F7
:1009200008E0FFFD70B500251048046801E00F489D
:10093000046804F045000028F9D004F0040028B150
:100940000325042001F09EFC284670BD04F0010040
:1009500028B10125012001F095FC2846F5E740F279
:10096000FF5001F08FFC2846EFE70000342C0140D7
:1009700070B500250B48046801E00A48046804F0DB
:1009800045000028F9D004F0040028B10325042014
:1009900001F078FC284670BD40F2FF5001F072FC77
:1009A0002846F8E7342C01402DE9F04106460F4671
:1009B0004FF000082248056801E02148056805F06D
:1009C00045000028F9D005F0040038B14FF00308C5
:1009D000042001F057FC4046BDE8F08105F001001D
:1009E00030B14FF00108012001F04CFC4046F3E724
:1009F00001F086FCB04203D04FF010084046EBE710
:100A000040F2FF5001F03EFC002001F09FFC044644
:100A100004F4604018B9200C38804046DCE704F448
:100A2000005008B11320D7E704F4804008B110202B
:100A3000D2E704F4004008B10F20CDE74046CBE7F1
:100A4000342C014070B500264FF480350F480468FF
:100A500002E06D1E0D48046804F0450008B9002D41
:100A6000F7D115B104F0040028B10326042001F0E9
:100A700009FC304670BD04F0400028B1002640203B
:100A800001F000FC3046F5E73046F3E7342C014036
:100A900000B58FB00121480501F0B2FA01200490A1
:100AA0000E4802904FF000600090002003900B90E1
:100AB0000C900D90089006904FF4807009900848B3
:100AC000019000200E90079005904FF440300A905E
:100AD0006946044800F06AFA0FB000BD2E000020FD
:100AE000044C00404060024000B591B0012148052F
:100AF00001F086FA11208DF8040001208DF807001E
:100B00008DF805008DF8060001A801F0FDF901201F
:100B10000690134804904FF020600290002005904A
:100B20000D900E900F900A9008904FF480700B90EB
:100B30000C48039000201090099007904FF440302B
:100B40000C9002A9084800F031FA01221021064851
:100B500000F00EFA0121044800F014F911B000BDB4
:100B60002F000020047C0040A060024010B507491F
:100B7000074800F0CBF940B10449054800F0E8F817
:100B800004490548007807F0C6F810BD0080201021
:100B900040600240F40100202E00002010B50749FB
:100BA000074800F0B3F940B10449054800F0D0F817
:100BB00004490548007807F0AEF810BD00802020F9
:100BC000A06002400C0700202F00002000B591B06B
:100BD0000121880501F014FA39208DF80400012064
:100BE0008DF807008DF805008DF8060001A801F0CA
:100BF0008BF945208DF8040001208DF807008DF851
:100C000005008DF8060001A801F07EF9012006908C
:100C1000264804904FF020600290002005900D902F
:100C20000E900F900A9008904FF480700B9020481F
:100C3000039000201090099007904FF440300C90E2
:100C400002A91C4800F0B2F901221021194800F055
:100C50008FF90121174800F095F8012006901648F9
:100C600004904FF0206002904020059000200D90ED
:100C70000E900F900A904FF48060089000200B9027
:100C80000B48039000201090099007904FF44030DB
:100C90000C9002A90748783000F088F90122102151
:100CA0000448783000F064F911B000BD3000002035
:100CB00004140140286402403100002010B50749A7
:100CC000074800F023F940B10449054800F040F816
:100CD00004490548007807F01EF810BD0088001090
:100CE000286402404C1200203000002010B502F0B1
:100CF0002FF810BD10B50649064800F007F930B1CD
:100D00000349044800F024F801200349087010BD8D
:100D100000802020A0640240590000200246094BB8
:100D20009A4201D2084801E00648103801F0005309
:100D30001BB1064B0B40C36002E0044B0B408360C9
:100D40007047000010640240006002407D0F7D0F7C
:100D50000246094B9A4201D2084801E00648103881
:100D600001F000531BB1064B0B40C36002E0044B83
:100D70000B40836070470000106402400060024036
:100D80007D0F7D0F21B1026842F00102026003E095
:100D9000026822F00102026070470000016821F041
:100DA000010101600021016041608160C160016159
:100DB000212141614A49884204D13D21484A103AE3
:100DC00091608CE046491831884205D14FF4746136
:100DD000434A103A916082E041493031884205D15E
:100DE0004FF474113E4A103A916078E03C49483122
:100DF000884205D14FF07461394A103A91606EE033
:100E000037496031884204D13649354A103AD160B9
:100E100065E033497831884204D13349304A103A89
:100E2000D1605CE02E499031884204D12F492C4A90
:100E3000103AD16053E02A49A831884205D14FF0D9
:100E40003D51274A103AD16049E02949884204D1EE
:100E50003D21274A083A116041E02549183188426E
:100E600005D14FF47461224A083A116037E02049F5
:100E70003031884205D14FF474111D4A083A11608F
:100E80002DE01B494831884205D14FF07461184A62
:100E9000083A116023E016496031884204D11149B3
:100EA000134A121F11601AE011497831884204D1A7
:100EB0000D490F4A121F116011E00D49903188420F
:100EC00004D10A490A4A121F116008E00849A831F2
:100ED000884204D14FF03D51054A121F11607047FE
:100EE000106002403D000020400F002000003D2027
:100EF0001064024021B1026842F02002026003E067
:100F0000026822F0200202607047000070B50246BD
:100F1000002000240025124EB24201D2114B01E004
:100F20000F4B103B104E0E4036B11E2606EAD12460
:100F3000166806EA040502E0566906F0800501F02D
:100F400000560EB15C6800E01C68084E344004EAAC
:100F5000010616B10DB1012000E0002070BD0000B7
:100F600010640240006002403C0F3C0F7D0F7D0F7B
:100F700010B501F080034BB122B1436943F0800307
:100F8000436103E0436923F08003436180290BD070
:100F90002AB1036801F01E042343036004E00368E0
:100FA00001F01E04A343036010BD000010B5002231
:100FB0000268134B1A40CC680B6823434C692343E7
:100FC0008C692343CC6923430C6A23434C6A234333
:100FD0008C6A23434C6B23438C6B23431A4302607C
:100FE000426922F00702D1E90B3423431A434261DC
:100FF0000B6943604B6883608B68C36010BD000061
:101000003F801CF008B50D208DF8000001208DF800
:1010100003008DF801008DF80200684600F074FFAF
:1010200008BD000010B54FF4004000F011F8012891
:1010300005D1C00300F006F801200149087010BD79
:10104000320000200149086070470000143C014054
:1010500001460020034A12680A400AB1012000E05C
:1010600000207047143C01402DE9FC4107460D4625
:101070000026002400200090019008205B490860B1
:1010800010204860402088600020C8604FF48060D5
:101090000861084601F098F91020FFF7A9FB044603
:1010A00014B12046BDE8FC815148008800044F4936
:1010B000086037204860402088600020C8604FF4F6
:1010C00080600861084601F07FF93720FFF790FB48
:1010D00004460CB12046E5E74FF0FF304549086073
:1010E00008204860302088600220C8600020086125
:1010F00001204861084601F0DDF800203B49086006
:1011000033204860402088600020C8604FF4806031
:101110000861084601F058F93320FFF769FB0446DF
:101120000CB12046BEE709E04FF4001001F0EEF8E4
:1011300020B101F043F94DF82600761C2E480068D6
:1011400040F22A6108400028EED0082001F0DEF8C5
:1011500028B1082001F096F804242046A2E70220D6
:1011600001F0D4F828B1022001F08CF802242046C6
:1011700098E7202001F0CAF828B1202001F082F879
:10118000062420468EE74FF4007001F0BFF830B11E
:101190004FF4007001F076F80724204682E740F211
:1011A000FF5001F06FF800980006009901F47F41AC
:1011B00040EA0120009901F47F0140EA11200099E2
:1011C00040EA1160686001980006019901F47F41CE
:1011D00040EA0120019901F47F0140EA11200199C0
:1011E00040EA1160286020465CE70000C80100204A
:1011F00040000020DC010020342C0140F0B50A46FC
:1012000000210023002400BF3DE0012505FA01F381
:10121000156805EA03049C4234D105684F00032693
:10122000BE40B543056015794E00B54006683543AC
:1012300005601579012D02D01579022D16D185682A
:101240004F000326BE40B543856055794E00B5403A
:10125000866835438560456801268E40B543456004
:10126000456896798E40B6B235434560C5684F00F3
:101270000326BE40B543C560D5794E00B540C6686B
:101280003543C560491C1029BFD3F0BDF0B500231C
:1012900000244D07ED0E02FA05F3CE1000F12005F3
:1012A00055F826504E07F70E0F26BE40B543CF1017
:1012B00000F1200646F82750CE1000F1200555F821
:1012C000265045EA0304CE1000F1200545F82640DB
:1012D000F0BD0246002013690B400BB1012000E075
:1012E000002070470A0482617047816170470000E6
:1012F00001480068704700003400002010B54FF42A
:1013000080710348FFF7F1FF012003F09BFF10BD40
:101310000004024010B54FF480710348FFF7E2FF6C
:10132000012003F08FFF10BD0004024010B54FF400
:1013300000710348FFF7D9FF012003F083FF10BDC0
:10134000000402401CB54FF40070009000208DF89E
:1013500004008DF8070003208DF805006946024857
:10136000FFF74CFF1CBD00000004024010B54FF415
:1013700000710348FFF7B6FF012003F063FF10BDC3
:10138000000402401CB54FF40070009001208DF85D
:1013900004008DF8060000208DF8070003208DF86A
:1013A000050069460148FFF729FF1CBD0004024003
:1013B00010B54FF400710248FFF78BFF10BD00001D
:1013C0000004024010B50446207830B1012808D04E
:1013D000022807D003280AD105E0601C00F026F897
:1013E00006E005E004E0601C00F02CF800E000BF1F
:1013F00000BF10BD002002490870024908807047F4
:10140000580000206600002010B500200449088024
:101410000449088080210448FEF730FF10BD000019
:101420006600002068000020641300200178034A51
:1014300011700121024A1170704700005C00002009
:101440005B00002085B0014600200DE011F810205F
:101450000DF81020012202EB40028A5C6B4603EB80
:1014600040035A70421CD0B20928EFDBBDF80000DF
:101470000F4A1080BDF802005080BDF80400908033
:10148000BDF80600D080BDF808001081BDF80A0044
:101490005081BDF80C009081BDF80E00D081BDF8E0
:1014A000100010820120034A107005B07047000040
:1014B000880000205A00002000BF05480068044949
:1014C000C8600846006888600020087500BF704743
:1014D0004C12002000BF064880680549C968884250
:1014E00001D1012000E0002080F0010070470000E1
:1014F0004C12002010B5034A8021034806F002FC7C
:1015000010BD00004C120020641200200148007D34
:10151000704700004C12002008B500BF0E488068DC
:101520000D49C968884200D112E00B48C0680078B4
:1015300000900948C068401C0749C8600846C06858
:101540004968884203D1044800680349C86000BF65
:101550009DF8000008BD00004C12002010B5FFF7F8
:10156000C9FFFFF747FF10BD70B5FFF7CFFF012898
:1015700001D1FFF7A1FF7BE0FFF7CEFF04463F4814
:10158000007806286CD2DFE800F003091225384401
:10159000AA2C02D101203949087067E0552C03D1EB
:1015A00002203649087001E0FFF724FF5EE0FFF7F4
:1015B0002BFF334804800020324908800846018808
:1015C0000088401C2F4A10802F48445403202B4988
:1015D00008704BE02B4801880088401C294A108085
:1015E000294844541046018825480088401C8142FF
:1015F00002D104202149087038E02248018800887F
:10160000401C204A10802048445405201B49087083
:101610002CE01C4801880088401C1A4A10801A4897
:101620004454014616480088401C095C164A144878
:101630000088801C105C41EA002511480088401C8D
:1016400081B2104603F043FBA84203D10E48401C70
:10165000FFF7B8FEFFF7D8FE00200849087005E044
:10166000002006490870FFF7CFFE00BF00BF00BF93
:10167000FFF730FF00287FF47FAF70BD58000020D7
:1016800066000020680000206413002010B5FFF7FA
:101690006BFF10BD10B52DED028B0446204890F86D
:1016A000280018B90020BDEC028B10BD208810FB6B
:1016B00000F0618811FB0100A18811FB010000EE20
:1016C000900AF8EEE00AB0EE600A02F02BFCDFEDC3
:1016D000150A80EE208A124890ED0B0A30EE080AB7
:1016E00080ED0B0A006B401C0D4908630846006B37
:1016F000B0F5806F01D20020D5E7094890ED0B0AC4
:10170000DFED090A80EE201A80ED0B1A0120044952
:1017100081F8340005A002F039FB0120C3E7000086
:10172000E41300200000804600008044BCD3CBD9E5
:10173000B6C8BCC6D0A3D7BCCDEAB3C90D0A000059
:1017400010B504467148D0ED000AB4F9060000EE69
:10175000100AB8EEC00A30EE800A6C4880ED000A2C
:10176000D0ED010AB4F9080000EE100AB8EEC00A84
:1017700030EE800A654880ED010AD0ED020AB4F926
:101780000A0000EE100AB8EEC00A30EE800A5F4888
:1017900080ED020AC068E18811FB01005B49C86066
:1017A00008462289016912FB0211016162894169BF
:1017B00012FB02114161406A401C544948620846CC
:1017C000406AB0F5806F01D2002010BD4F4890ED07
:1017D000000A20EE000A9FED4E1AC0EE010A90EDBD
:1017E000030AB8EEC00A30EE600ADFED4A0A80EE66
:1017F000201A80ED061A90ED010A20EE000A9FEDF6
:10180000441AC0EE010A90ED040AB8EEC00A30EEA8
:10181000600ADFED400A80EE201A80ED071A90ED95
:10182000020A20EE000A9FED3A1AC0EE010A90ED7E
:10183000050AB8EEC00A30EE600ADFED360A80EE27
:10184000201A80ED081A90ED000ADFED310A80EED3
:10185000201A80ED001A90ED010ADFED2D0A80EECE
:10186000201A80ED011A90ED020ADFED290A80EEC0
:10187000201A80ED021A90ED060AF7EE000AB4EE87
:10188000E00AF1EE10FA11DC90ED070AF7EE000A1B
:10189000B4EEE00AF1EE10FA08DC90ED080AF7EE7B
:1018A000000AB4EEE00AF1EE10FA25DD9FED1A0A07
:1018B000164880ED000A9FED180A80ED010A9FEDA1
:1018C000160A80ED020A9FED140A80ED060A9FEDCC
:1018D000120A80ED070A9FED100A80ED080A002029
:1018E0000A494862C86000210848016141610BA0B3
:1018F00002F04CFA002068E70120044981F8280032
:101900000EA002F043FA01205FE70000E41300207C
:101910000000804400C07F4400000000B7C9BBFA4B
:10192000CEB4BEB2D6B9A3ACCDD3C2DDD2C7D0A39C
:10193000D7BCCAA7B0DC0D0A00000000CDD3C2DDC1
:10194000D2C7D0A3D7BCCDEAB3C90D0A00000000AE
:10195000C0ED000AF1EE401AC0ED011A80ED021A46
:101960007047000070B505460C46B5F9060000EE5C
:10197000100AB8EEC00A4C48D0ED000A30EE600AFA
:10198000DFED4A0A20EE200ADFED490A80EE201A38
:1019900084ED031AB5F9080000EE100AB8EEC00A8B
:1019A0004148D0ED010A30EE600ADFED400A20EE3A
:1019B000200ADFED3F0A80EE201A84ED041AB5F903
:1019C0000A0000EE100AB8EEC00A3748D0ED020A4D
:1019D00030EE600ADFED350A20EE200ADFED340A32
:1019E00080EE201A84ED051AD4ED051AB0EE611AC6
:1019F000D4ED041AF0EE610AD4ED031AB0EE610AD8
:101A000004F10C00FFF7A4FFB5F9000000EE100A86
:101A1000B8EEC00ADFED270A60EE200A9FED261A15
:101A200080EE810A2048D0ED0B0A80EE201A84ED6A
:101A3000001AB5F9020000EE100AB8EEC00ADFED98
:101A40001D0A20EE200ADFED1C0A80EE201A16483F
:101A500090ED0B0AC1EE000AC4ED010AB5F90400CD
:101A600000EE100AB8EEC00ADFED120A60EE200A9E
:101A70009FED111A80EE810A0B48D0ED0B0A80EE23
:101A8000201A84ED021AD4ED021AB0EE611AD4EDD8
:101A9000011AF0EE610AD4ED001AB0EE610A204698
:101AA000FFF756FF70BD0000E413002034FA8E3CAF
:101AB000333383410AE81C410000804610B50446D8
:101AC00000F024F815E0A11D204600F0ABF90E4807
:101AD00090F8280010B92046FFF732FE0A4890F827
:101AE000280030B1084890F8340010B92046FFF7BC
:101AF000D1FD054890F828000028E4D0024890F86D
:101B000034000028DFD010BDE41300209FED160A3A
:101B1000164880ED000A9FED140A80ED010A9FED42
:101B2000120A80ED020A9FED100A80ED060A9FED71
:101B30000E0A80ED070A9FED0C0A80ED080A0020CE
:101B40000A49486281F82800C860002107480161FD
:101B500041619FED050A80ED0B0A002003490863EF
:101B600081F834007047000000000000E4130020FA
:101B700010B52DED068B0446B0EE409AF0EE609A5B
:101B80004CB1B5EEC09AF1EE10FA04D9F5EEC09A58
:101B9000F1EE10FA02D8BDEC068B10BD89EE89AAD1
:101BA0009FED2A0AC0EE0A0AF0EE60AAB0EE6A0AB9
:101BB00002F0D6F9B0EE408A9FED250A02F00AF94C
:101BC000F0EE000A60EE200AB7EE000A00EE880A86
:101BD000F0EE408A48EE088A28EE080AC0EE280A8D
:101BE000C4ED000A94ED000AF0EE000A20EE200A8F
:101BF00084ED010A94ED000A84ED020AB7EE000AB2
:101C000018EE080AF0EE000A20EE200AC0EE280ABC
:101C1000C4ED030A9FED0E0A02F0DCF8F0EE000AB4
:101C200060EE200AB7EE000A00EEC80A08EE080AC5
:101C3000C0EE280AC4ED040A9FED060A84ED050AE9
:101C40009FED040A84ED060A00BFA4E7DA0F4940BD
:101C5000DA0F493F00000000B0EE401A10B9B0EEB4
:101C6000410A704790ED032AD0ED052AB0EE410AF3
:101C700002EE620A90ED042AD0ED062AF0EE400A48
:101C800042EE620A10EE901AC1F3C752FF2A01D049
:101C9000012200E000220AB9F0EE410A90ED010AAB
:101CA00090ED052A20EE020A90ED002A02EE200AAD
:101CB00090ED022AD0ED062AF0EE401A42EE221AEA
:101CC00090ED050A80ED060AC0ED050AB0EE610A46
:101CD000C7E700000FB410B50498000A10B101283E
:101CE00005D103E004A002F051F801E000E000BFDC
:101CF00000BF10BC5DF814FB746869732069732021
:101D00006865617274626561742066726F6D2051DE
:101D100047432F722F6E000030B5ADF50F7D0024C4
:101D200000F058F8012805D100F02AF820460DF5FA
:101D30000F7D30BD00F032F8E0B100F051F80546FB
:101D40000D4B0E4A2946002005F02EFA88B140F2CC
:101D500013120A4910316846FEF777FA4FF492726F
:101D6000064946A8FEF771FA46A80FC8FFF7B2FF6A
:101D7000012400BF2046DAE7480D0020240C002093
:101D800000BF054800680449C860084600688860CC
:101D90000020087500BF70470C07002000BF0648F0
:101DA00080680549C968884201D1012000E000200F
:101DB00080F00100704700000C07002010B5034AB6
:101DC0004FF4A061024805F09DFF10BD0C070020F4
:101DD000240700200148007D704700000C07002008
:101DE00008B500BF0E4880680D49C968884200D117
:101DF00012E00B48C068007800900948C068401C99
:101E00000749C8600846C0684968884203D1044849
:101E100000680349C86000BF9DF8000008BD0000CD
:101E20000C0700207FB505460C46684600F032F8E6
:101E30009DF801009DF8001040EA012000B22880C2
:101E40009DF803009DF8021040EA012000B268806E
:101E50009DF805009DF8041040EA012000B2A8801A
:101E60009DF809009DF8081040EA012000B220808A
:101E70009DF80B009DF80A1040EA012000B2608036
:101E80009DF80D009DF80C1040EA012000B2A080E2
:101E90007FBD000070B5054604210D48FFF722FA0A
:101EA000012003F0CFF9BB2001F0ACFA002405E0DB
:101EB000002001F0A7FA2855601CC4B20E2CF7DBF5
:101EC00004210348FFF711FA012003F0BBF970BDAC
:101ED0000008024070B505460C4604210948FFF78A
:101EE00001FA012003F0AEF9284601F08BFA2046F2
:101EF00001F088FA04210348FFF7F7F9012003F005
:101F0000A1F970BD0008024070B5002100230F2226
:101F1000C4781CB3174C246804F4E064C4F5E0648E
:101F2000C4F30721C1F10404E3B20A4144789C40A0
:101F3000E1B28478144021430C07210E0E4C057841
:101F40006155047804F01F050124AC4005786D113B
:101F5000AD0005F1E025C5F8004109E0047804F082
:101F60001F050124AC40054D0678761145F8264042
:101F700070BD00000CED00E000E400E080E100E056
:101F800002490143024A1160704700000000FA054F
:101F90000CED00E02DE9F04389B006468946144671
:101FA0001F46182C02D909B0BDE8F08324216846E9
:101FB000FEF764F9A5208DF800005A208DF8010085
:101FC0008DF802608DF80340FFF792F901902246E8
:101FD000494602A8FEF739F90025E846002003E04B
:101FE00018F800104D40401C2028F9D38DF82050DF
:101FF0003A462121684605F09FFE00BFD3E7000066
:1020000029B1064A12680243044B1A6004E0034AED
:1020100012688243014B1A6070470000303802405A
:1020200029B1064A12680243044B1A6004E0034ACD
:1020300012688243014B1A6070470000403802402A
:1020400029B1064A12680243044B1A6004E0034AAD
:1020500012688243014B1A60704700004438024006
:1020600029B1064A12680243044B1A6004E0034A8D
:1020700012688243014B1A60704700002438024006
:10208000F0B5002100220024022500260223324F51
:102090003F6807F00C0121B1042905D0082937D188
:1020A00005E02E4F076036E02D4F076033E02A4FE2
:1020B0003F1F3F68C7F38056274F3F1F3F6807F019
:1020C0003F036EB1264FB7FBF3F7DFF88CC0ACF1DE
:1020D000040CDCF800C0CCF3881C07FB0CF40CE00B
:1020E0001E4FB7FBF3F7DFF870C0ACF1040CDCF85F
:1020F00000C0CCF3881C07FB0CF4174F3F1F3F6850
:10210000C7F301477F1C7D00B4FBF5F7076002E0D1
:10211000124F076000BF00BF0F4F3F6807F0F0018C
:102120000909104F7A5C0768D74047600A4F3F683B
:1021300007F4E051890A0B4F7A5C4768D740876003
:10214000054F3F6807F46041490B064F7A5C4768CA
:10215000D740C760F0BD0000083802400024F400FA
:1021600000366E01140000207CB5054600240020D6
:102170000090019000F0EAF800F0007010B10E2419
:1021800020467CBD3D49098888B26946FEF76CFF50
:1021900004460CB12046F4E7012D36D1019800F435
:1021A000802000282ED0354800880004344908607B
:1021B00037204860402088600020C860A80208617D
:1021C000084600F001F93720FEF712FB04460CB177
:1021D0002046D6E702202A490860062048604020B1
:1021E00088600020C8604FF480600861084600F0F5
:1021F000EBF80620FEF7FCFA04460CB12046C0E7D7
:102200002046BEE725242046BBE7019800F4803035
:1022100078B31A48008800041949086037204860DC
:10222000402088600020C8604FF480600861084644
:1022300000F0CAF83720FEF7DBFA04460CB120465E
:102240009FE700200E490860062048604020886013
:102250000020C8604FF480600861084600F0B4F8C0
:102260000620FEF7C5FA04460CB1204689E7204651
:1022700087E7FFE72524204683E700004000002091
:10228000C80100200149086070470000382C014057
:102290000149086070470000382C0140014908607E
:1022A00070470000A0802542014908607047000087
:1022B0008C85254200210B4B02681A601B1D426869
:1022C0001A601A1D116821F0F701D0E902231A43A0
:1022D00003691A4343691A431143024A08321160E1
:1022E00070470000242C014010B50121C802FFF7FF
:1022F000B7FE00214FF40060FFF7B2FE10BD0000F2
:1023000001480068C0B27047102C0140014600200F
:10231000034A12680A400AB1012000E00020704719
:10232000342C014001460020034A12680A400AB1D9
:10233000012000E000207047342C01400248006872
:1023400000F0030070470000002C014008B5014672
:10235000002000900248084400900098006808BDE2
:10236000142C014010B500F007FD10BD29B1064A3C
:1023700012680243044B1A6004E0034A1268824365
:10238000014B1A60704700003C2C014000210A4AB2
:10239000116847F6FF629143027D83681A434368E0
:1023A0001A43C3681A4303681A4303691A43114363
:1023B000014A116070470000042C01400148006888
:1023C00070470000802C01400021094B02681A6010
:1023D0001A1D11686FF30A01D0E901231A43C3687B
:1023E0001A4303691A431143014A121D11607047D1
:1023F000082C01400149086070470000002C014092
:1024000008B5012000909DF8000008BD70B5044695
:10241000002520480068032802D12725284670BDE2
:102420001C48006838B11B480068012803D01948CF
:10243000006802282CD1B4F5805F02D127252846F8
:10244000EDE7B4F5006F13D10120FFF78DFE0546CF
:10245000F5B90020104908750860486088604FF49D
:102460000060C860002008610846FFF78FFF0FE09A
:102470000020FFF779FE054655B90020064908758A
:10248000086048608860C86008610846FFF77EFF02
:102490002846C4E73C000020B0010020F0B501460A
:1024A00000200022C04B1B7881F85630BF4B1B88A0
:1024B000A1F85430BE4B1B681A0E93090B70C2F37F
:1024C00083034B7002F003038B70B94B1B68C3F39B
:1024D0000742CA70B64B1B88C3F307220A71B44B7C
:1024E0001A784A715B681A0E1301CB80B04B5B6897
:1024F000C3F30742CB8843EA1213CB8002F00F03E9
:102500000B72AB4B9B88C3F30722D3094B72C2F308
:1025100080138B72C2F34013CB72C2F300130B73A0
:1025200000234B73A04B1B681BB19F4B1B68012BF7
:102530004FD193071B0D0B619D4B1A790B6943EA31
:1025400082030B619A4B9B681A0E0B6943EA921344
:102550000B61C2F3C2030B7502F007034B75944B7A
:102560009B68C3F3074253098B75C2F38203CB7593
:1025700093075B0F0B768E4B1B89C3F307220B7EF1
:1025800043EAD2130B760B695B1C0024C1E91234B9
:102590000B7ED1E912649B1C012505FA03F3DD17BC
:1025A000A6FB037C04FB03C306FB0533C1E91273DE
:1025B0000C7A0123A3400B650027D1E912560B6D5D
:1025C000A5FB034C06FB03C305FB0733C1E912431C
:1025D00036E0754B1B68022B32D1754B1A79930686
:1025E0009B0A0B61724B9B681A0E0B6943EA02232C
:1025F0000B616F4B9B68C3F307420B6913430B617D
:102600006B4B1B89C3F307220B6900245B1C6441DD
:102610004FF400770026A3FB075C04FB07C403FB11
:1026200006474FF4806600242B463D46A3FB067CFC
:1026300005FB06C503FB0453C1E9127373100B6558
:10264000C2F3801301F8193F93065B0E4B70584B91
:102650001A7A4B7843EAD2134B7002F07F038B70E7
:10266000534BDB681A0ED309CB70C2F341130B71C5
:10267000C2F382034B7193071B0F8B714C4BDB68CA
:10268000C3F307428B7943EA92138B71C2F3401371
:10269000CB7100230B7202F001034B72444B9B89F8
:1026A000C3F30722D3098B72C2F38013CB72C2F338
:1026B00040130B73C2F300134B73C2F381038B738C
:1026C00002F00303CB733A4B1A7B53080B740123BC
:1026D0004B74384B1B681A0ECA741939354B1B687A
:1026E000C3F307421402CC85324B1B88C3F3072285
:1026F000CB8D1343CB852F4B1A7814060C635B6884
:102700001A0E0B6B43EA02440C632A4B5B68C3F35B
:1027100007420B6B43EA02240C63264B9B88C3F3EE
:1027200007220B6B13430B63224B1A7934235A5441
:10273000204B9B681A0E35235A541E4B9B68C3F3DB
:10274000074214068C631B4B1B89C3F307228B6B58
:1027500043EA02448C63174B1A7A8B6B43EA0224D8
:102760008C63144BDB681A0E8B6B13438B63114B1A
:10277000DB68C3F307423C235B5C43EA12143C234F
:102780005C5413071C0DCC870A4B9B89C3F30722AB
:10279000CB8F1343CB87074B1A7B540840235C54E1
:1027A000012441235C54F0BD3C0000204000002087
:1027B000280100203801002008B500200090FFF714
:1027C0001FFE012809D1684600F0C4FB08B1FF20B4
:1027D00008BD0098C0F34320FAE7FF20F8E710B5E2
:1027E0000424FFF7E9FF0446042C01D1002010BDAA
:1027F000FF2C01D10220FAE70120F8E71CB50020E8
:10280000019031208DF8000005208DF80100002096
:102810008DF8020001208DF803006846FFF774FB75
:102820003B208DF8000001208DF801006846FFF77D
:102830006BFB00F06BF9FFF757FD00F0B9F9019061
:102840009DF8040010B19DF804001CBD00F032F8A2
:1028500001909DF8040010B19DF80400F5E70020F8
:1028600012490875086048608860C86008610846B9
:10287000FFF78CFD0E48FFF711FE01909DF8040054
:1028800040B90B48B0F8540002041046002100F093
:1028900045FB01909DF8040020B94FF40060FFF75C
:1028A000B5FD01909DF80400CFE70000B0010020C5
:1028B0005801002038B5002401200090FFF73EFDAC
:1028C00010B92524204638BD44480068042828D083
:1028D00000204349086002204860C0208860002032
:1028E000C8604FF4806008610846FFF76DFDFEF791
:1028F00019F804460CB12046E5E70020FFF726FD55
:10290000384908600420FFF721FD36494860082057
:10291000FFF71CFD334988600C20FFF717FD314994
:10292000C8602E48006858B12C480068012807D0BC
:102930002A480068062803D028480068022816D1D3
:10294000002027490860032048604020886000205C
:10295000C8604FF4806008610846FFF735FD69469E
:102960000320FEF721F804460CB12046ABE71B48D4
:10297000006804282ED0BDF800001B490860BDF88F
:10298000000000041649086009204860C0208860E3
:102990000020C8604FF4806008610846FFF714FD0E
:1029A000FDF7C0FF04460CB120468CE70020FFF77E
:1029B000CDFC0E4908600420FFF7C8FC0B494860B5
:1029C0000820FFF7C3FC094988600C20FFF7BEFC14
:1029D0000649C8600024204675E700003C0000203E
:1029E000C8010020380100204000002028010020FC
:1029F00030B58FB005460C464FF0FA511D48FEF732
:102A00008DF900211B48FEF7BDF91A48FEF7C6F9FB
:102A10004FF000600090184801900295002003904C
:102A2000049405904FF48060069080000790800029
:102A30000890002009904FF440300A9004200B9039
:102A400003200C904FF400000D9080100E9069460A
:102A50000848FEF7ABFA012210210648FEF788FA73
:102A600020210448FEF746FA01210248FEF78AF9C0
:102A70000FB030BD58640240802C014030B58FB09B
:102A800005460C464FF0FA511E48FEF747F9002163
:102A90001C48FEF777F91B48FEF780F94FF00060FD
:102AA0000090194801900295402003900494002062
:102AB00005904FF480600690800007908000089099
:102AC000002009904FF440300A9004200B9003201E
:102AD0000C904FF400000D9080100E90694609484C
:102AE000FEF764FA012210210648FEF741FA202180
:102AF0000448FEF7FFF901210248FEF743F90FB041
:102B000030BD000058640240802C01401CB50121FA
:102B10000C20FFF775FA0C2208212348FEF7B6FBBC
:102B20000C2209212048FEF7B1FB0C220A211E4885
:102B3000FEF7ACFB0C220B211B48FEF7A7FB0C2277
:102B400011461948FEF7A2FB0C2202211748FEF796
:102B50009DFB4FF47060009002208DF805008DF809
:102B6000040000208DF8060001208DF8070069465A
:102B70000D48FEF743FB0420009069460B48FEF722
:102B80003DFB4FF48050009000208DF8070069460F
:102B90000548FEF733FB0121C802FFF751FA012176
:102BA0008805FFF72DFA1CBD00080240000C02400A
:102BB000F8B500200090002500240026002776208C
:102BC0005F4908750020086048608860C860086137
:102BD0000846FFF7DBFB0320FFF70CFC0120FFF7A3
:102BE0005DFB00205749086048608860C8604FF46A
:102BF000806008610846FFF7E7FBFDF7E3FD009002
:102C00009DF8000010B19DF80000F8BD4FF4D5709C
:102C10004C49086008204860402088600020C86057
:102C20004FF4806008610846FFF7CEFBFDF70AFF0E
:102C300000909DF8000020B90120434908608707F3
:102C400012E000203F49086037204860402088603B
:102C50000020C8604FF4806008610846FFF7B4FBAD
:102C60003720FDF7C5FD0090002036490860372069
:102C70004860402088600020C8604FF48060086190
:102C80000846FFF7A1FB3720FDF7B2FD00909DF845
:102C90000000002851D13BE000202A49086037207D
:102CA0004860402088600020C8604FF48060086160
:102CB0000846FFF789FB3720FDF79AFD00909DF845
:102CC000000010B19DF800009FE7204838431D49DF
:102CD000086029204860402088600020C8604FF4C8
:102CE000806008610846FFF76FFBFDF741FE00902A
:102CF0009DF8000010B19DF8000086E70020FFF766
:102D000025FB0546012080EAD57080F00106641C91
:102D10001EB94FF6FF708442BED34FF6FF70844257
:102D200004D31B2000909DF800006EE705F0804062
:102D3000051E02D00220044908609DF8000064E7E7
:102D4000B0010020C80100203C00002000001080DD
:102D500010B50748006800F0C05040B10120054997
:102D600008604FF0C25102485830FDF7D7FF10BD40
:102D7000006402405000002010B54FF48070FFF74F
:102D8000D1FA50B10020254908704FF48070FFF748
:102D90007FFA01202249086037E00220FFF7C2FADB
:102DA00030B10220FFF774FA02201C4908702CE0B1
:102DB0000820FFF7B7FA30B10820FFF769FA0420BE
:102DC0001649087021E02020FFF7ACFA30B120202E
:102DD000FFF75EFA06201149087016E01020FFF791
:102DE000A1FA30B11020FFF753FA05200B49087003
:102DF0000BE04FF40070FFF795FA30B14FF400701C
:102E0000FFF746FA07200549087000214CF23A30D6
:102E1000FFF7ACFA0148007810BD00004800002020
:102E20004C0000202DE9F047814614461D46DDE99F
:102E300008680027002032490870324908600120E4
:102E400031490860002031490860012140F22A30F0
:102E5000FFF78CFA08FB06F14846FFF7C9FD012091
:102E6000FFF722FA2A480068022808D10602020267
:102E7000002320462946FDF7B7F904460D462548AC
:102E80000660102023494860402088600020C86008
:102E90004FF4806008610846FFF796FA1020FDF7AE
:102EA000A7FC074617B13846BDE8F0874FF0FF3062
:102EB0001949086008FB06F04860902088600220ED
:102EC000C86000200861012048610846FFF7F2F958
:102ED0001048046012200F4948604020886000209C
:102EE000C8604FF4806008610846FFF76DFA122051
:102EF000FDF77EFC07460FB13846D5E73846D3E7E5
:102F0000480000204C000020440000202C2C0140F0
:102F10003C000020C8010020DC01002070B5044600
:102F20000D4600260A4804600720094948604020F1
:102F300088600020C8604FF4806008610846FFF791
:102F400043FA0720FDF754FC0646304670BD0000EA
:102F5000C801002070B50446002514B9262528466E
:102F600070BD0F48008800040E4908600D204860BD
:102F7000402088600020C8604FF4806008610846E7
:102F8000FFF722FA0D20FDF733FC05460DB1284668
:102F9000E6E70020FFF7DAF920602846E0E70000C6
:102FA00040000020C801002010B5002400200A497C
:102FB00008600C204860402088600020C8604FF402
:102FC000806008610846FFF7FFF90C20FDF710FC50
:102FD0000446204610BD0000C801002000BF07487D
:102FE00080680649C968401A0449096908440349C8
:102FF0000969B0FBF1F201FB120070476C3500204B
:1030000010B5034A4FF42051024804F07BFE10BD76
:103010006C350020843500200148007D7047000099
:103020006C350020014600BF0D4880680C4AD2680C
:10303000904201D1002012E00948C0680078087071
:103040000748C068401C064AD0601046C0685268F5
:10305000904203D102480068014AD06001207047C5
:103060006C35002070B500256C1E00E0641E184809
:10307000006838B91748006820B91748007808B9BF
:10308000002CF3D1002012490860441E00E0641EA9
:103090001248006800F4005008B1002CF7D1104825
:1030A0000068012805D1FFF77FFF054600200C4985
:1030B00008600CB905B9042540F2FF50FFF7E2F8AB
:1030C0000548007810B10448007870BD2846FCE738
:1030D000500000204C00002048000020342C01400B
:1030E0004400002070B500256C1E00E0641E1848E6
:1030F000006838B91748006820B91748007808B93F
:10310000002CF3D1002012490860441E00E0641E28
:103110001248006800F4805008B1002CF7D1104824
:103120000068012805D1FFF73FFF054600200C4944
:1031300008600CB905B9042540F2FF50FFF7A2F86A
:103140000548007810B10448007870BD2846FCE7B7
:10315000500000204C00002048000020342C01408A
:10316000440000202DE9F047814615461E46DDE962
:103170000878002400204949087049490860012066
:1031800048490860002048490860012140F21A308F
:10319000FFF7ECF808FB07F14846FFF76FFC01204A
:1031A000FFF782F841480068022808D107020202AE
:1031B000002328463146FDF717F805460E463C48E1
:1031C000076010203A494860402088600020C860AD
:1031D0004FF4806008610846FFF7F6F81020FDF70D
:1031E00007FB044614B12046BDE8F087314800884B
:1031F00000042F4908603720486040208860002084
:10320000C8604FF4806008610846FFF7DDF837209A
:10321000FDF7EEFA04460CB12046E5E72448C0F875
:103220000080172022494860402088600020C86044
:103230004FF4806008610846FFF7C6F81720FDF7D5
:10324000D7FA04460CB12046CEE71948056019208C
:1032500017494860402088600020C8604FF48060B3
:1032600008610846FFF7B0F81920FDF7C1FA0446D7
:103270000CB12046B8E74FF0FF300F49086008FB5B
:1032800007F04860902088600020C8600861012035
:1032900048610846FFF70EF82046A5E748000020E1
:1032A0004C000020440000202C2C01403C00002059
:1032B000C801002040000020DC01002021B102886C
:1032C00042F04002028004E002884FF6BF731A40C9
:1032D0000280704700B587B001210803FEF7B0FEF9
:1032E00001210520FEF78CFE02208DF8040000204D
:1032F0008DF806002020009000208DF807000320A4
:103300008DF8050069462648FDF778FF802000907B
:1033100069462348FDF772FF402000906946204827
:10332000FDF76CFF052211461D48FDF7AFFF052292
:1033300006211B48FDF7AAFF052207211848FDF7C3
:10334000A5FF01208DF8040000208DF80600042060
:10335000009000208DF8070069461248FDF74EFFE7
:103360001820ADF814000120ADF810000220ADF8CF
:103370000E000020ADF81800ADF80C00ADF8080004
:10338000ADF816004FF48270ADF80A004FF40070EB
:10339000ADF8120002A9044800F016F807B000BD0D
:1033A00000000240000802400030014002460020B8
:1033B00013890B400BB1012000E00020704701464B
:1033C000888970478181704710B50022028802F415
:1033D00041520B884C8823438C882343CC88234359
:1033E0000C8923434C8923438C892343CC89234371
:1033F0001A430280838B4FF2FF74234083830B8A2E
:10340000038210BD70B50446FDF772FF054606E065
:10341000FDF76EFF401B642801D9002070BD02211A
:103420000F48FFF7C3FF0028F2D021460C48FFF7F2
:10343000C9FFFDF75DFF054606E0FDF759FF401B9C
:10344000642801D90020E9E701210548FFF7AEFF14
:103450000028F2D00248FFF7B2FFC0B2DEE700005A
:103460000030014010B58CB0474890ED000A8DED5A
:10347000060A90ED010A8DED070A90ED020A8DED26
:10348000080A90ED030A8DED090A90ED040A8DED0E
:103490000A0A90ED050A8DED0B0A3C4890ED000AF2
:1034A0008DED000A90ED010A8DED010A90ED020A02
:1034B0008DED020A90ED030A8DED030A90ED040AEA
:1034C0008DED040A90ED050A8DED050AFDF710FF5C
:1034D00004462F4804602C4890ED000A2C4880EDEB
:1034E000010A294890ED010A294880ED020A264880
:1034F00090ED020A264880ED030A234890ED030A66
:10350000234880ED040A204890ED040A204880ED0D
:10351000050A1D4890ED050A1D4880ED060A1D4864
:1035200004601A4890ED000A1A4880ED010A174815
:1035300090ED010A174880ED020A144890ED020A46
:10354000144880ED030A114890ED030A114880EDFC
:10355000040A0E4890ED040A0E4880ED050A0B4857
:1035600090ED050A0B4880ED060A0B4B182206A9C0
:103570000120FEF70FFD084B182269460220FEF7D6
:1035800009FD0CB010BD0000F40000200C0100206B
:10359000C4140020E01400206C3500200CB500207D
:1035A000019000904148006840F480303F49086035
:1035B00000BF3E48006800F4003000900198401CB5
:1035C0000190009818B90198B0F5A04FF1D1374893
:1035D000006800F4003010B10120009001E00020EC
:1035E00000900098012860D130484030006840F0D9
:1035F00080502E49403108602D48006840F440401A
:103600002B490860294808300068284908310860BB
:103610000846006840F4004008600846006840F42E
:10362000A05008602348091F0860081F006840F088
:103630008070091F086000BF1C48006800F000701F
:103640000028F9D01A48006840F480301849086012
:1036500000BF1748406800F480300028F9D01448B3
:10366000006840F400301249086000BF104840680C
:1036700000F400300028F9D040F205700E490860CF
:103680000A480830006820F0030008490831086043
:103690000846006840F00200086000BF0348083098
:1036A000006800F00C000828F8D10CBD003802407A
:1036B00000700040185A4007003C02400248006871
:1036C000401C0149086070473400002010B51548BF
:1036D000006840F47000134908601348006840F027
:1036E00001001149086000200F49083108600E48A8
:1036F00000680E4908400C4908600D48091D086023
:10370000081F006820F48020091F08600020064977
:103710000C310860FFF742FF4FF00060014980392B
:10372000086010BD88ED00E000380240FFFFF6FEA3
:103730001030002410B501210C4800F02CF80128AD
:1037400012D10121094800F017F80120084908703A
:103750000848007800F0010008B900F07FF805483B
:103760000068401C0349086010BD000000100040C4
:10377000380000207C000020CA430282704721B13B
:10378000028842F00102028004E002884FF6FE73D4
:103790001A400280704730B5024600200023002402
:1037A000158A05EA0103958905EA010413B10CB1F4
:1037B000012000E0002030BD1AB183890B438381D2
:1037C00002E083898B438381704701894FF6F87249
:1037D000114001817047000000220288184B984276
:1037E0000ED0184B98420BD0B0F1804F08D0164B3A
:1037F000984205D0154B984202D0154B984204D1FF
:103800004FF68F731A404B881A43124B984207D0D9
:10381000114B984204D04FF6FF431A400B891A43CC
:1038200002804B68C3620B880385054B984202D027
:10383000044B984201D18B7A03860123838270471F
:103840000000014000040140000400400008004066
:10385000000C0040001000400014004010B52B493F
:10386000881FFEF7DFFA2A492848801FFEF77AF8FA
:103870002748D0ED030AB0EE600A2648FEF7ECF9BF
:10388000254880ED030A2248D0ED040AB0EE600A14
:1038900020481C30FEF7E0F9B1EE400A1E4880EDEA
:1038A000040A1B48D0ED050AB0EE600A194838300A
:1038B000FEF7D2F9B1EE400A174880ED050A144828
:1038C000D0ED000AB0EE600A1448FEF7C5F91248C0
:1038D00080ED000A0E48D0ED010AB0EE600A0F48F4
:1038E0001C30FEF7B9F90C4880ED010A0848D0ED0C
:1038F000020AB0EE600A09483830FEF7ADF9064812
:1039000080ED020AFFF7AEFD10BD0000EE000020C2
:10391000F40000201C1400200C0100207014002072
:1039200010B504F0B9F80F48FEF7C8F8002416E007
:10393000C4EBC4010C4A02EB8100DFED0C0A9FEDE1
:103940000C0AFEF715F9C4EBC4010A4A02EB810028
:10395000DFED060A9FED060AFEF70AF9641C032C48
:10396000E6DB10BDE80000201C1400200000FA4334
:1039700000004842701400201FB504460121C8040D
:10398000FEF74EFB00940020ADF80C000C20ADF8C3
:103990000A000020ADF80800ADF80600ADF80400FC
:1039A0006946024800F034F91FBD0000004C004099
:1039B0001CB501210846FEF723FB02208DF8040008
:1039C00000208DF80600012000908DF807000320EC
:1039D0008DF8050069460A48FDF710FC02200090AA
:1039E00069460748FDF70AFC082200210448FDF754
:1039F0004DFC082201210248FDF748FC1CBD0000D7
:103A00000000024010B51021044800F087F801289A
:103A100003D11021014800F003F810BD004C004014
:103A200010B50022002340F66A14A14200D100BF65
:103A30000A1201249440A3B2DC43048010BD21B1DA
:103A4000828942F40052828104E082894DF6FF733C
:103A50001A4082817047000000B587B00121102014
:103A6000FEF7CEFA01218807FEF7DAFA082211469E
:103A70001D48FDF70BFC082207211B48FDF706FC3B
:103A800002208DF8180000208DF81A004FF4807085
:103A9000059001208DF81B0003208DF8190005A961
:103AA0001148FDF7ABFB8020059005A90E48FDF7F6
:103AB000A5FB4FF4E13001900020ADF810000C2080
:103AC000ADF80E000020ADF80C00ADF80A00ADF81E
:103AD000080001A9054800F09BF801210348FFF701
:103AE000AEFF07B000BD00000010024000780040AB
:103AF0001AB1838A0B43838202E0838A8B438382D9
:103B0000704702460020B1F5007F00D100BF138846
:103B10000B400BB1012000E00020704770B5024659
:103B2000002400230025002040F66A16B14200D18F
:103B300000BFC1F3421501F01F03012606FA03F38B
:103B4000012D02D19689334006E0022D02D1168A5A
:103B5000334001E0968A33400C12012606FA04F441
:103B60001688344013B10CB1012000E0002070BD74
:103B700000B587B001210420FEF742FA0121202080
:103B8000FEF75EFA082206211F48FDF77FFB082298
:103B900007211D48FDF77AFB02208DF81800002050
:103BA0008DF81A004020059001208DF81B0003209D
:103BB0008DF8190005A91448FDF720FB8020059019
:103BC00005A91148FDF71AFB4FF4E13001900020E0
:103BD000ADF810000C20ADF80E000020ADF80C0080
:103BE000ADF80A00ADF8080001A9084800F010F887
:103BF0000122C0210548FFF77BFF01210348FFF7A1
:103C00001EFF07B000BD0000000802400014014084
:103C10002DE9FF4705460E460024A14600BFA046F9
:103C2000B08900B100BF2C8A24F44054F0880443CA
:103C30002C82AC8941F20C608443B08831890843FE
:103C4000718908430443AC81AC8A24F44074B08980
:103C50000443AC826846FEF713FA2048854202D03E
:103C60001F48854202D1DDF80C9001E0DDF8089094
:103C7000A88900F4004040B109EBC90000EB09102D
:103C800031684900B0FBF1F707E009EBC90000EB30
:103C9000091031688900B0FBF1F76420B7FBF0F040
:103CA00004012009642101FB1078A88900F4004078
:103CB00040B1322000EBC800B0FBF1F000F007008B
:103CC000044308E0322000EB08106421B0FBF1F05F
:103CD00000F00F0004432C81BDE8FF870010014075
:103CE0000014014000B587B001211020FEF788F9CB
:103CF0000121C807FEF794F9082201211F48FDF7AA
:103D0000C5FA082200211D48FDF7C0FA02208DF8EF
:103D1000180000208DF81A000220059001208DF86F
:103D20001B0003208DF8190005A91448FDF766FA59
:103D30000120059005A91148FDF760FA4FF4E13024
:103D400001900020ADF810000C20ADF80E0000200E
:103D5000ADF80C00ADF80A00ADF8080001A908485C
:103D6000FFF756FF012240210548FFF7C1FE012160
:103D70000348FFF764FE07B000BD000000100240DA
:103D8000007C0040C1F30802828070470FB4054BED
:103D900010B503A9044A029800F03AFB10BC5DF884
:103DA00014FB0000C96700088000002041000802E1
:103DB00018BF04200A0E18BF40F001004FF07F42E8
:103DC00032EA010108BF40F00200012808BF0520C7
:103DD0007047000010EE101A08B5444A6846B2EB6E
:103DE000410F28D94FF0E640B0EB410F94BF0020BF
:103DF0004FF0FF3000900098002861DB60EE000A71
:103E000010F0010F45D010F0020FDFED391A9FEDD1
:103E1000391A00EEE11ADFED381A40EE811A21EE70
:103E2000A01AF0EE400A40EE010A08BFF1EE600A67
:103E3000B0EE600A08BD314B21F0004293423CD9FC
:103E400011F0004FDFED2E0A20EE201ADFED2D0AD3
:103E500019BF31EE601A71EE200A31EE201A71EEB0
:103E6000600ABDEEE01A11EE100A9FED271A00F06D
:103E7000030000EEC10A9FED251A009000EEC10A72
:103E80009FED231A00EEC10A9FED221A00EEC10A2F
:103E9000B1E79FED211A9FED210A10F0020F00EE0D
:103EA000810A9FED1F1A00EE801AB7EE000A00EE9D
:103EB000810A18BFB1EE400A08BD00F023F99AE765
:103EC00010EE100A4000B0F17F4F3CBFB7EE000A81
:103ED00008BD07D14FF0010000F0CEF9BDE8084061
:103EE00000F000B9BDE8084000F0F8B8B61F927EB7
:103EF000336D4C39DA82083CA0AA2ABE490E4946E5
:103F000083F9223F0000004B0000C93F00A0FD39AB
:103F10000020A2331A61342CB93AB2BACA9F2A3DA2
:103F2000DDFFFFBE10B52DED028BB1EEC08A18EE9D
:103F3000100A20F00040C0F1FF40C00F0AD010EE80
:103F4000100A20F00040C0F1FF40C00F04BF012064
:103F500000F092F9B0EE480ABDEC028B10BD0000F3
:103F600000B510EE101A2DED028B81B04D4A684657
:103F7000B2EB410F3CD94FF0E640B0EB410F94BF9C
:103F800000204FF0FF3000900098B0EE408A0028EB
:103F90005FDB28EE080ADFED440A9FED441A00EECD
:103FA000201ADFED430A40EE010A9FED421A00EEAF
:103FB000201ADFED410A10F0010F40EE010A9FEDDB
:103FC0003F1A00EE201A61EE000AB0EE480A08EE31
:103FD000200A02BF01B0BDEC028B00BDBFEE001A8B
:103FE00001B0C1EE000ABDEC028BB0EE600A00BD6C
:103FF000334B21F00042934228D911F0004FDFEDFE
:10400000310A20EE201ADFED300A19BF31EE601AB6
:1040100071EE200A31EE201A71EE600ABDEEE01A50
:1040200011EE100A9FED291A00F0030000EEC10AFC
:104030009FED271A009000EEC10A9FED261A00EEB0
:10404000C10A9FED251A00EEC10A9DE700F05AF85B
:104050009AE718EE100A4000B0F17F4F0DD218EE2B
:10406000100AFFF7A3FE042808BF00F043F8B0EEE3
:10407000480A01B0BDEC028B00BD09D1012000F05F
:10408000FBF801B0BDEC028B5DF804EB00F02AB840
:1040900001B0B0EE480ABDEC028B5DF804EB00F015
:1040A0001DB80000B61F927EBBE9223C0C6D063B9A
:1040B0008A76CE3CACB5593D35A1083E29AAAA3E28
:1040C000490E494683F9223F0000004B0000C93FDA
:1040D00000A0FD390020A2331A61342C30EE000A12
:1040E00070470000DFED020A80EEA00A7047000072
:1040F000000000009FED020A20EE000A7047000059
:10410000000000102DE9F0014FF07F42B2EB410FAB
:104110009FBF4FF0FF310160BDE8F00170474FF0E5
:10412000004242EA0123C1F3C752783A551112F016
:104130001F0C434CCCF120067C44C1F3C752A2F1C2
:1041400078024FEA621204EB820254F8254008BF5D
:10415000D2E9015612D0556804FA0CF425FA06F794
:104160003C43976805FA0CF527FA06F8D26807FA77
:104170000CFCF24045EA08054CEA0206A4FB034C9D
:10418000A5FB0352A6FB03631D449D4234BF0126D9
:1041900000261319334416B1934202D903E0934227
:1041A00001D2012200E00022624402F1200C9206BA
:1041B000DC0C42EA443200EE102A5B03DFED210AF8
:1041C000F8EEC01A00EE103A4FEA9C1C11F0004FB6
:1041D000B8EE400AC0F800C020EE201A00EE105AD7
:1041E000DFED190AB8EE400A20EE200A71EE810ACE
:1041F00070EE800A10EE902A02F500626FF30B0257
:1042000000EE902A70EEE11A31EEC11ADFED101ABD
:1042100030EE411A9FED0D0A20EE800A01EE210AD0
:104220009FED0C1A00EE810A04BFBDE8F001704753
:10423000CCF180510160BDE8F001B1EE400A704759
:1042400014FB0200000000360000802C22AAFD2989
:10425000DB0FC92F0000C92F02E008C8121F08C1D8
:10426000002AFAD170477047002001E001C1121FF7
:10427000002AFBD170470000014908607047000028
:10428000840000202DE9FF5F82B00021DDE90430C9
:10429000020DDDF840B0034318D044F61050A2F2EE
:1042A000FF3242431514119801281FD0A5EB0B00D3
:1042B000401C5FEA000A4FF000064E4FDFF83891CD
:1042C000B046504615D5CAF1000413E011980124F8
:1042D0004AA3012801D16FEA0B010298119AC0E9A3
:1042E0000031C0E9024206B0BDE8F09FCBF100000A
:1042F000DFE704460021404A491842EB0450CDE96B
:10430000001012E0E00707D032463B4640464946DF
:10431000FCF791F98046894632463B4610461946DD
:10432000FCF789F906460F466410002CEAD1DDE956
:104330000401DDE90023BAF1000F06DAFCF77BF98E
:1043400042464B46FCF777F905E0FBF7B9FF4246DA
:104350004B46FBF7B5FF04460E460022284BFCF700
:10436000F5F903D84FF0FF30014607E00022254B56
:1043700020463146FCF7B8F8FCF7CFF9102409E0E5
:10438000002C0ADB0A220023FBF72EFF039B3032AE
:104390001A55641E50EA0102F2D1641C039AC4F15A
:1043A00011031444119A012A03D0012208430DD1AC
:1043B0000AE0084304D000204FF0110B119072E77F
:1043C000A3EB0B056D1E0DE05B4504DD4FF0000215
:1043D00005F1010504E003DA4FF00002A5F1010543
:1043E000002AECD002981199C0E90231C0E90045D9
:1043F00079E70000000014400000F03F30000000AA
:104400000000F0430000E03F8178491C8170704754
:104410002DE9FF4F95B09A46884606460025EEE105
:10442000252877D100242746F94A0121039400E08A
:10443000044316F8013F203B01FA03F01042F7D184
:1044400030782A2811D06FF02F033078A0F1300295
:10445000092A16D8039A44F0020402EB820203EB05
:1044600042021044761C0390EFE758F8042B0392A5
:10447000002A03DA504244F40054039044F002044A
:10448000761C30782E2816D116F8010F44F004045B
:104490002A280DD06FF02F023078A0F13003092BBD
:1044A00009D807EB870302EB4303C718761CF3E731
:1044B00058F8047B761C30786C280FD006DC4C282A
:1044C00017D068280DD06A2814D104E0742810D0C1
:1044D0007A280FD10DE044F400140AE044F480146B
:1044E00001E044F440147278824202D104F5801451
:1044F000761C761C307866280BD013DC582877D0D1
:1045000009DC002875D04528F6D04628F4D0472885
:104510001AD193E118E0632835D0642879D0652852
:1045200012D18BE1702873D008DC6728F1D069289C
:104530006FD06E280DD06F2806D1ACE073282CD038
:10454000752874D0782853D05246179990476D1C1F
:1045500054E1C4F30250022809D003280DD0D8F842
:10456000001004280DD00D6008F1040846E1D8F8C9
:104570000010EA17C1E90052F6E7D8F800100D80E4
:10458000F2E70D70F0E718F8041B8DF8001000201A
:104590008DF80100EB46012003E058F804BB4FF012
:1045A000FF3061074FF0000102D40DE009F1010175
:1045B0008946B9420FDA8145F8DB1BF8091000295A
:1045C000F4D108E009F1010189468142FADB1BF8C8
:1045D00009100029F6D103985346A0EB090721469C
:1045E0003846179A00F080FA284400EB090507E0E6
:1045F00044E008E10DE01BF8010B52461799904783
:10460000B9F10109F7D2534621463846179AF2E02C
:1046100039E00A21C4F302524FF0000B0091022A44
:1046200006D058F8040BC117032A09D00AE023E08A
:1046300008F1070020F00702F2E80201904605E0C9
:1046400000B2C117042A01D140B2C117002906DA0D
:104650000A460021404261EB02012D2202E02205C0
:1046600004D52B228DF80420012203E0E20701D0BB
:104670002022F7E7914657E00A2100E010214FF091
:10468000000B00910BE010214FF0000B44F00404EC
:104690000827009103E008204FF0000B0090C4F3BE
:1046A0000252022A05D058F8040B0021032A08D030
:1046B00008E008F1070020F00702F2E80201904646
:1046C00003E080B2042A00D1C0B24FF000092207F3
:1046D0002AD53278702A07D0DDF800C08CF0100C93
:1046E0005CEA0B0C05D00EE040228DF8042001227C
:1046F00008E050EA010306D030238DF804308DF82D
:10470000052002229146009B83F0080353EA0B0325
:104710000AD150EA010201D1620705D530228DF895
:1047200004204FF001097F1E3278582A04D039A2A4
:104730000C920CAA02920BE03BA2F9E75B46009AAE
:10474000FBF752FD0C9B9B5C029A521E0292137067
:1047500050EA0102F2D1029804A9081A00F1200BD4
:10476000600702D524F4803400E001275F4502DDB4
:10477000A7EB0B0000E0002000EB0B01009003987A
:104780004944401A0390E00306D453462146179A41
:10479000039800F0A9F90544002706E001A8524655
:1047A000C05D179990476D1C7F1C4F45F6DBE003F9
:1047B0000CD553462146179A039800F095F9054405
:1047C00004E030205246179990476D1C0099481E0E
:1047D00000900029F5DC08E0029802995246007822
:1047E000491C0291179990476D1CBBF10001ABF178
:1047F000010BF1DC5BE100F065F90544761C3078D3
:1048000000287FF40DAE19B02846BDE8F08F0000F7
:104810000928010030313233343536373839616296
:10482000636465660000000030313233343536375A
:10483000383941424344454600000000600700D437
:10484000062708F1070020F00700F0E80223804661
:1048500003F0004C5FEA0C0001D097A009E02005AE
:1048600001D596A005E0E00701D095A001E0AFF2E8
:104870004C001390307823F0004365280CD006DC00
:10488000452809D046281DD047287FD13BE066281F
:1048900018D067287AD136E00021112F01DB1120D2
:1048A00000E0781CCDE9000104A90CA8FFF7EAFCA0
:1048B000DDE90D010C9A4FF0000B07F10109109290
:1048C00000914EE04FF000400097CDE9011004A99F
:1048D0000CA8FFF7D7FCDDE90D020C9B0F994FF0F8
:1048E000000B91461093009211B9791C00EB01095D
:1048F000B7EB090003D4C0F1FF3B07F10109A9EBB5
:104900000700019042E0012F00DA01270021112F5A
:1049100001DD112000E03846CDE9000104A90CA812
:10492000FFF7B0FCDDE90D010C9A00914FF0000B90
:10493000B946109221070FD4009A4A4503DA9146EE
:1049400001E0A9F10109B9F1010F05DD109AA9F102
:104950000101515C3029F4D0B84202DA10F1040FA1
:1049600003DA0121CDE9011010E0002803DC8344C3
:10497000A9EB000102E0411C494500DD8946A0EB9E
:104980000B00401C01904FF000400290200705D41E
:104990000198484502DB4FF0FF30019000208DF870
:1049A0004B0002980DF14B07B0F1004F25D00220CB
:1049B0000C902B200D90029800280CDA40420290B7
:1049C0002D200D9007E00A210298FBF7FBFC303107
:1049D000029007F8011D0C99481E0C900029F2DC8A
:1049E00002980028EFD1791E0D980870307800F0F9
:1049F000200040F0450007F8020D11A8C01BC01DA3
:104A000002901398007800B1012000EB0901019891
:104A100001EBE071029801440398401A401E039094
:104A2000E00306D453462146179A039800F05CF839
:104A300005441398007818B15246179990476D1C99
:104A4000E00323D553462146179A039800F04CF80B
:104A500005441BE0BBF1000F07DB0098584504DD5F
:104A60001098179910F80B0001E017993020524662
:104A7000904701980BF1010B401E05F101050190D3
:104A800004D12E205246179990476D1CB9F10001B0
:104A9000A9F10109DEDC05E017F8010B5246179970
:104AA00090476D1C0299481E02900029F4DC534681
:104AB0002146179A03989EE62D0000002B00000067
:104AC000200000002DE9F041044600251E4617464F
:104AD000880404D405E039462020B0476D1C641ECC
:104AE000F9D52846BDE8F0812DE9F04104460025BE
:104AF0001E469046C80301D5302700E020278804D1
:104B000004D505E041463846B0476D1C641EF9D512
:104B10002846BDE8F08100002DE9F04104468846B2
:104B200000202071401E60624146204602F09AFF3C
:104B300010B10420BDE8F08104F2362002F07AF8CA
:104B4000074694F83850EB2D03D0E92D01D0E82D1D
:104B500043D14AF65520874208D1082223A104F107
:104B60008A00FBF7A0FB08B90020E3E704F143004B
:104B700002F060F806464520055D701E304060BBBF
:104B8000B6F5007F29DBB6F5805F26DC2DB3681E05
:104B9000284010BB04F1460002F04CF8E8B1482070
:104BA000005D401E012818D804F1490002F042F8C7
:104BB00098B104F14B0002F03DF8802806DA04F1C8
:104BC000580002F03DF8B0F5803F06D304F14E00E6
:104BD00002F030F808B10020ACE74AF655208742D1
:104BE00001D10220A6E70320A4E700004641543388
:104BF00032202020000000000246891ED069801E5D
:104C0000884201D8002070475389506B03FB010094
:104C1000F9E700002DE9F04780460C4604F11A0040
:104C200002F008F810B10020BDE8F087207800F00D
:104C30003F00401E00EB800101EBC0054FF0010971
:104C4000002621E01849895D081901F0F3FF0746A5
:104C5000B9F1000F11D0FF2D0BD8384601F0CCFC74
:104C6000824629466D1C38F8110001F0C5FC8245CA
:104C700001D00020D8E7B94605E04FF6FF70874223
:104C800001D00020D0E7761C0D2EDBD3207800F079
:104C9000400038B1B9F1000F04D038F8150008B160
:104CA0000020C1E70120BFE78C84000802460B7892
:104CB00083EA020080EA0013D8B20B881B1283EA51
:104CC000002383EAC00383EA20130B80704738B5C2
:104CD00002460B4600BF4FF6FF70009000BF13E086
:104CE00012F8014B6846057885EA040181EA01154E
:104CF000E9B205882D1285EA012585EAC10585EA14
:104D00002115058000BF00BF181EA3F101018BB261
:104D1000E6D1BDF8000038BD2DE9F047824688464F
:104D2000DAF80040B8F1000F06D1676917B1E06901
:104D3000B84215D8012713E04146504601F0CAFD9C
:104D40000546022D02D20120BDE8F087681C08B993
:104D50002846F9E7E069A84201D92846F4E7474622
:104D6000A06908B90020EFE70026474518D17E1C4E
:104D7000E069B04200D802263146504601F0AAFD53
:104D80000546012D01D0681C08B92846DCE73DB175
:104D90006569022D03D3E069A84200D92F46002699
:104DA000E6B93E4600BF761CE069B04204D8022650
:104DB000BE4201D90020C7E73146504601F08AFDC6
:104DC000054605B909E0012D01D0681C08B928463F
:104DD000BAE7BE42E7D10020B6E700BF4FF0FF328E
:104DE0003146204602F085FE8146B9F1000F08D118
:104DF000B8F1000F05D032464146204602F079FE58
:104E00008146B9F1000F0FD16661A069A0B1D4E964
:104E10000610801E81420FD8A069401EA0616079F3
:104E200040F00100607107E0B9F1010F02D14FF0CD
:104E3000FF3000E001200646304685E72DE9F34FBC
:104E400085B08146069800680490D9F80000D0F833
:104E500010A0002500BF04A803F058FA83460BF108
:104E6000010018B9062007B0BDE8F08FBBF5803F00
:104E700005D34FEA1B4228466D1C2AF810201FFA62
:104E80008BF4202C03DB2F2C01D05C2C00D111E003
:104E9000802C06DA21467BA0FBF7FBF908B106203F
:104EA000E1E7FF2D01D30620DDE728466D1C2AF837
:104EB0001040D0E700BF202C01DA042611E002E008
:104EC0000498401C0490049800782F28F8D0049887
:104ED00000785C28F4D0002604980078202800D2BE
:104EE000042604990698016008E0681E3AF810400C
:104EF000202C02D02E2C00D002E06D1E002DF4D10B
:104F000000BF00202AF815000DB90620ABE70027E6
:104F100000E07F1C3AF817002028FAD01FB93AF8B1
:104F200017002E2801D146F0030600E06D1E25B1C2
:104F3000681E3AF810002E28F8D120220B2109F122
:104F40002000FBF794F94FF00008CDF80C80082002
:104F5000029000BF38467F1C3AF8104004B966E062
:104F6000202C03D02E2C04D1AF4202D046F00306F1
:104F7000F0E7DDE90210884201D2AF4216D1029873
:104F80000B2802D146F0030651E0AF4201D046F0B3
:104F90000306AF4200D94AE02F46082003900B20B9
:104FA00002904FEA88604FEA1068D3E7802C0ADB52
:104FB00046F00206204601F01FFB4FF46A71019093
:104FC00001F0E0FA0446FF2C11DD0298401E03991F
:104FD000884204D846F0030602980390BAE72212EA
:104FE0000398411C039109F120010A5418E024B1EF
:104FF000214627A0FBF74DF918B15F2446F00306C0
:105000000EE0412C03DB5A2C01DC48F00208612C35
:1050100006DB7A2C04DC48F00108A4F1200084B2FD
:105020000398411C039109F120010C5492E700BF41
:1050300099F82000E52802D1052089F8200002987F
:10504000082803D14FEA88604FEA106808F00C0086
:105050000C2803D008F00300032801D146F0020613
:1050600006F0020048B908F0010008B146F0100649
:1050700008F0040008B146F008062B2000F809608B
:105080000020F0E62A3A3C3E7C223F7F00000000F0
:105090002B2C3B3D5B5D00002DE9FF4F85B09A4610
:1050A00003AA0121059800F04FFB18B1012009B0B7
:1050B000BDE8F08FDDF80C904FF03F08082701E0C5
:1050C0007806070E37B1B9FBF7F0B0FBF8F0B0F592
:1050D000806FF5D807B9FF274FF480515046FBF792
:1050E000CDF80AF5DF764FF0000B444669E00698EC
:1050F00050F82B50642D07D801D1484603E06420B6
:10510000B9FBF0F0684305466019484501D86019BD
:1051100001D3A9EB040505B959E0214606F10800C1
:1051200002F0C2FE294606F10C0002F0BDFE07980F
:105130003071B4FBF8F0B0FBF7F00490B4FBF8F07A
:10514000B0FBF7F107FB1100C0B20290B4FBF8F01E
:1051500008FB1040401CC0B2019002987070C02142
:10516000049801EA900001990843B0700498F07027
:105170006019401EB0FBF8F0B0FBF7F00490601926
:10518000401EB0FBF8F0B0FBF7F107FB1100C0B216
:1051900002906019401EB0FBF8F108FB1100401CA2
:1051A000C0B2019002987071C021049801EA900089
:1051B00001990843B0710498F07110360BF1010B9E
:1051C0002C44BBF1040F02D20CB14C458FD300BF6D
:1051D0004AF655210AF5FF7002F060FE0123002215
:1051E0005146059800F04EFB08B101205FE7002012
:1051F0005DE7000001460B48007888420FDC094853
:105200004078884201DB0120704706488078884258
:1052100005DC0448C078884201DB0120F4E7002067
:10522000F2E700009984000800B50146FCF760F839
:10523000024600E030BFFCF75BF8801A8842F9D3E1
:1052400000BD0000F0B5034600224FF0E02675696E
:105250000F4E36680F4FB6FBF7F606FB03F44FF020
:10526000E026B16910E04FF0E026B06988420BD02B
:10527000884202D20E1A324402E02E1A0E44324400
:105280000146A24200D300E0EDE700BFF0BD000000
:105290000000002040420F002DE9F04104460E4678
:1052A000D4F800800021204600F0E5F90546EDB96C
:1052B000002700BF4046A16902F0D4FB054605B1B6
:1052C00013E0E0690078E52802D0E069007820B9B1
:1052D000781C0746B04201D107E000270121204693
:1052E00000F0B7F80546002DE4D000BF042D00D132
:1052F00007252846BDE8F0812DE9F0470446894698
:10530000204602F047FE10B10120BDE8F087494673
:105310002046FFF771FC064666624FF4805104F1A7
:105320003800FAF7ABFF04F138080127002500E048
:105330003D446089A84207D9721960783B464146CE
:1053400000F0A0FA0028F3D06089A84201D0012023
:10535000DBE70020D9E72DE9F0470446D4F800A0A8
:105360000021204600F087F9064616B13046BDE818
:10537000F0874FF0FF08C1464FF0FF30E06200BFFA
:105380005046A16902F06EFB064606B15EE0E06998
:1053900005780DB9042659E0E069C07A00F03F07AE
:1053A000A771E52D04D007F0080038B10F2F05D004
:1053B0004FF0FF084FF0FF30E06240E00F2F22D1A6
:1053C0002B20005D00F0400098BB05F0400038B194
:1053D00005F0BF05A8462069E062E06990F80D90ED
:1053E00045450CD1E069407B484508D1E169DAF8D0
:1053F0001000FFF70FFC10B1A8F1010000E0FF2042
:1054000000F0FF081BE0B8F1000F05D1E06902F0E1
:1054100069FD484500D119E02B20005D00F0010036
:1054200040B90B2204F12001E069FAF73CFF08B90A
:105430000CE004E04FF0FF084FF0FF30E062002185
:10544000204600F006F80646002E99D000BF3046F0
:105450008DE72DE9F041044688462668206900F171
:105460002007B7F5001F01D30020A061A06910B983
:105470000420BDE8F081B089B7FBF0F100FB1170AA
:10548000002847D1A069401CA061606938B9308903
:10549000B0EB571F3ED80020A0610420E9E7B08997
:1054A000B7FBF0F07189491E084098BB204661693E
:1054B00001F010FA0546012D01D80220D9E7681C39
:1054C00008B90120D5E7F069A8421DD8B8F1000F4E
:1054D00003D10020A0610420CBE720466169FFF7DB
:1054E0001BFC05460DB90720C3E7012D01D10220A1
:1054F000BFE7681C08B90120BBE729463046FFF723
:10550000FBFE08B10120B4E7656129463046FFF78C
:1055100073FBA0612761B089B7FBF0F100FB11714B
:1055200006F138000844E0610020A2E72DE9FE4FB3
:10553000044626682B20005D00F0A00010B1062074
:10554000BDE8FE8F4FF0000901E009F10109306963
:1055500030F819000028F8D1D4E90912206A8DE842
:1055600007009DF80B0000F0010030B340212B2014
:1055700001554FF001080FE01FFA88F3694604F166
:105580002000326901F032F92046FFF7E4FE0546BB
:1055900005B104E008F10108B8F1640FECD300BFD5
:1055A000B8F1640F01D10720CAE7042D01D02846C5
:1055B000C6E79DF80B102B2001559DF80B0000F05D
:1055C000020030B109F10C000D21B0FBF1F0401CDC
:1055D00000E00120074639462046FFF75DFE0546FC
:1055E00055BB781E071E27D02069A0EB4711204627
:1055F00000F041F80546FDB904F1200002F072FC0C
:10560000824600BF3046A16902F02CFA054605B17A
:1056100010E0FAB2E1695346306902F033FB012031
:10562000307100212046FFF714FF054615B9781E9A
:10563000071EE7D100BF00BFDDB93046A16902F007
:1056400011FA0546ADB92021E069FAF717FEE069C5
:10565000216A0160616A4160218D018194F82A10FC
:1056600081722B20005D00F01800E16908730120B1
:105670003071284664E72DE9F04104460E4625685E
:10568000B6F5001F02D206F01F0010B10220BDE8DF
:10569000F0812661A7681FB92878032800DB2F6BEB
:1056A00047B92889B0EB561F01D80220EFE7286BD5
:1056B000A0611DE06889A98900FB01F811E0394665
:1056C000204601F007F90746781C08B90120DEE7FB
:1056D000022F02D3E869B84201D80220D7E7A6EB2F
:1056E00008064645EBD239462846FFF785FAA06101
:1056F0006761A06908B90220C9E7A889B6FBF0F084
:10570000A1690844A061A889B6FBF0F100FB116112
:1057100005F138000844E0610020B8E770B50446A0
:10572000012514B1012C09D107E0FDF767F810B984
:1057300025F0010500E0012502E001E0012500BFA0
:1057400000BF284670BD00002DE9F04705460E4613
:1057500014464FF0040915B1012D21D11FE0CEB13F
:10576000012E0BD0022E02D0032E14D103E04FF4F1
:10577000007020800FE0012020600CE00C48D0F881
:1057800050C062460023D0E912713846FAF72CFD6A
:10579000206000E000BF00BF4FF0000903E002E01E
:1057A0004FF0040900BF00BF4846BDE8F087000085
:1057B000580100202DE9F047ADF5007D07460C4665
:1057C00015461E464FF0040A4FF0000817B1012F8E
:1057D00044D142E004F0030000B34FF0000913E0AD
:1057E0002A466D1C012369460020FFF7E3FF81462E
:1057F000B9F1000F00D00BE04FF40072694620466B
:10580000FAF723FD04F50074301EA6F10106E7D176
:1058100000BF48460DF5007DBDE8F0874FF40070ED
:1058200069020A460023CDE900062046FDF7FAFA90
:105830008046B8F1000F07D1FDF714FC804600BF89
:10584000FCF7CDFF0028FBD1B8F1000F02D04FF0DC
:10585000040A01E04FF0000A03E002E04FF0040AFE
:1058600000BF00BF5046D5E70146012011B1012914
:1058700004D102E020F0010002E001E0012000BFBD
:1058800000BF70472DE9F047ADF5007D07460C4697
:1058900016461D464FF0040A4FF0000825B90420B3
:1058A0000DF5007DBDE8F08717B1012F41D13FE034
:1058B00004F00300E8B14FF0000913E04FF4007268
:1058C00021466846FAF7C1FC3246761C0123694638
:1058D0000020FFF7D7FF8146B9F1000F00D005E0A7
:1058E00004F50074281EA5F10105E7D100BF484664
:1058F000D6E74FF4007071020A460023CDE9000597
:105900002046FDF72FFC8046B8F1000F07D1FDF7C8
:10591000E9FB804600BFFCF762FF0028FBD1B8F12D
:10592000000F02D04FF0040A01E04FF0000A03E03C
:1059300002E04FF0040A00BF00BF5046B0E710B5C8
:10594000FBF760FBFBF7A4F8FBF7CEF8FBF73EF99B
:1059500010BD38B50546284600F0B9FC04463CB9F0
:105960006946284602F074FD04460CB90020286000
:10597000204638BD2DE9FF4F99B00E4619A801F019
:1059800047F803900398002803DA0B201DB0BDE808
:10599000F08FFE49039851F8200028B10021FB4AFE
:1059A000039852F8200001700398C0B216900020AE
:1059B00015901698FFF7B2FE0290029800F00100D1
:1059C00008B10320E2E7029800F0040008B10A20C1
:1059D000DCE706B9EE4E70681290129820B912AA50
:1059E00003211698FFF7B0FE129840B11298B0F557
:1059F000004F04D81298401E1299084008B10120A7
:105A0000129014AA02211698FFF79EFE08B10120F9
:105A1000BCE7BDF85000B0F5805F0BDCBDF850006E
:105A2000B0F5007F06DBBDF85000401EBDF85010F9
:105A3000084008B10120A9E7307800F00F00189065
:105A40007078012804DB7078022801DC707800E0AF
:105A500001200590B16889B1B168B1F5004F0DD84A
:105A6000BDF85000C11700EBD1614911B268B2FB1B
:105A7000F1F301FB132109B9B16801E04FF40071A2
:105A80000491F068B0F1807F05D8F068411E0840AD
:105A900008B9F06800E000200690BDF850100698A4
:105AA000B0FBF1F00690BDF850101C98B0FBF1F07F
:105AB0001390139808B9112068E71B9C0CB91120AA
:105AC00064E74FF0000ACDF83CA000BF0FAA012107
:105AD0001698FFF739FE08B1012057E7189800F033
