:020000040800F2
:10000000080800204901000849080008D70700082F
:1000100045080008AD060008F510000800000000C3
:10002000000000000000000000000000290E000891
:10003000B106000800000000E70D0008610100089B
:100040006301000863010008630100086301000800
:1000500063010008630100086301000863010008F0
:1000600063010008630100086301000863010008E0
:1000700063010008630100086301000863010008D0
:1000800063010008630100086301000863010008C0
:1000900063010008630100086301000863010008B0
:1000A00063010008630100086301000863010008A0
:1000B0006301000863010008630100086301000890
:1000C0006301000863010008630100086301000880
:1000D0006301000863010008630100086301000870
:1000E0006301000863010008630100086301000860
:1000F0006301000863010008630100086301000850
:10010000630100086301000863010008630100083F
:10011000630100086301000863010008750F00080F
:10012000630100086301000863010008630100081F
:10013000DFF810D000F0A8FA00480047D1190008F5
:10014000AFF30080080800200648804706480047B3
:10015000FEE7FEE7FEE7FEE7FEE7FEE7FEE7FEE777
:10016000FEE7FEE7150F0008310100082DE9FE4FFC
:10017000804681EA0300C00F0C46009021F0004148
:1001800023F00045B8EB0200A94105D240462146C4
:1001900090461C460B46024623F00040104347D0D1
:1001A000270DC7F30A00C3F30A510290401A0190C9
:1001B00040286BDAC3F3130040F4801B009892468A
:1001C00020B10023D2EB030A63EB0B0B01985946D5
:1001D000C0F14002504600F0B0F906460D465046C8
:1001E0005946019A00F0C8F910EB0800614100245B
:1001F00087EA115284EAE7731A4340D0009A62B347
:10020000019A012A4FEA075215DC001B61EB02013B
:100210004FF0004202EA0752CDE90042001C41F5CE
:10022000801132462B4600F0C8F903B0BDE8F08FCC
:1002300040462146F9E7001B61EB0201001C41F535
:10024000801300185B412018A2F5001747EB03014B
:1002500040EAD570B6196D4111E06D084FEA3606D7
:1002600045EAC0754FEA0752001B61EB0201001C12
:1002700041F5801149084FEA3000001951413246DA
:100280002B4603B0BDE8F04F00F088B9009801227A
:1002900040000023D0EB020263EBE073009821469C
:1002A0004FEAE074B8EB000061EB0401E9E783F08A
:1002B00000435BE781F0004158E72DE9FE4F81EAFA
:1002C000030404F0004421F0004100944FF0000BBF
:1002D00023F0004350EA01045ED052EA03045BD0ED
:1002E000C3F30A54C1F30A552C44A4F2F334019425
:1002F000A0FB0254C1F3130141F48011C3F31303B3
:1003000043F4801301FB024400FB034E840A970A66
:1003100044EA815447EA8357A4FB076802958D0A93
:1003200005FB07854FEA932C04FB0C542705029D1F
:100330004FEA065847EA1637B5EB08056EEB070C8F
:10034000870E920E47EA811742EA8312A7FB020149
:10035000B6EB0B0164EB00042B0D43EA0C335E1883
:1003600044EB1C50DA465146E7FB0201C5F3130487
:100370004FEA0B3343EA14534FEA0432019C43EA39
:100380000603A4F10C040294009CCDE900B400F033
:1003900014F903B0BDE8F08F00200146F9E72DE91C
:1003A000F04D81EA030404F0004B21F000451446AF
:1003B0004FF0000A23F0004150EA050220D054EA31
:1003C00001021DD0C5F30A570246C5F31303C1F35A
:1003D0001300C1F30A5640F4801543F48013A7EBD1
:1003E0000608101BD64608F2FD3873EB050002D351
:1003F00008F1010801E092185B41B8F1000F03DA3F
:1004000000200146BDE8F08D00204FF48011064623
:1004100084460EE0171B73EB050705D3121B63EB35
:10042000050306434CEA010C49084FEA30009218D4
:100430005B4150EA0107EDD152EA030012D082EA93
:10044000040083EA0501084305D0101BAB4106D226
:100450000122002306E000224FF0004302E06FF08B
:10046000010253101AEB06004CEB085110EB0A0086
:1004700041EB0B01BDE8F04D00F090B830B5041E23
:1004800071F1000404DB4FF00044404264EB0101D1
:10049000141E73F1000405DB1C464FF0004352426A
:1004A00063EB0403994208BF904230BD30B50B4660
:1004B000014600202022012409E021FA02F59D4294
:1004C00005D303FA02F5491B04FA02F52844151E68
:1004D000A2F10102F1DC30BD2DE9F05F05460020FC
:1004E00092469B4688460646814640241BE02846A5
:1004F00041464746224600F02FF853465A46C01A56
:10050000914110D311461846224600F016F82D1AD4
:1005100067EB01084F4622460120002100F00DF84C
:1005200017EB00094E41201EA4F10104DFDC484610
:1005300031462A464346BDE8F09F202A04DB203A94
:1005400000FA02F1002070479140C2F1200320FA26
:1005500003F3194390407047202A04DB203A21FA24
:1005600002F00021704721FA02F3D040C2F12002CC
:100570009140084319467047202A06DBCB17203AE2
:1005800041FA02F043EAE07306E041FA02F3D04098
:10059000C2F12002914008431946704710B5141E5D
:1005A00073F1000408DA401C41F1000192185B412C
:1005B0001A4301D120F0010010BD2DE9F04D924603
:1005C0009B4611B1B1FA81F202E0B0FA80F220321A
:1005D0009046FFF7B2FF04460F4640EA0A0041EAA0
:1005E0000B0153465A46084313D0114653EA010003
:1005F00019D0C8F140025046FFF7AEFF05460E463F
:10060000504659464246FFF798FF084305D001205F
:1006100004E020463946BDE8F08D0020054346EA57
:10062000E0762C4337430A986305E40AA0EB080000
:100630000022FD0A44EA47540A3002D50020014650
:10064000E9E7010510196941DDE90845001969412B
:10065000BDE8F04DA2E7C1F30A52C1F3130140F225
:10066000FF3341F480119A4202DA002001467047BC
:1006700040F233439A42A2F2334202DC5242FFF785
:100680006BBFFFF75ABF0000064C074D06E0E0685D
:1006900040F0010394E8070098471034AC42F6D3C9
:1006A000FFF74AFD582300087823000800BFFEE743
:1006B00070472DE9F0410246002500260020002366
:1006C0000024002791F803C00CF00F0591F803C037
:1006D0000CF0100CBCF1000F03D091F802C04CEAF2
:1006E000050591F800C0BCF1000F31D0146800205E
:1006F0002BE04FF0010C0CFA00F3B1F800C00CEA4B
:1007000003069E4220D183004FF00F0C0CFA03F732
:10071000BC4305FA03FC4CEA040491F803C0BCF1A5
:10072000280F06D14FF0010C0CFA00FCC2F814C0DF
:100730000AE091F803C0BCF1480F05D14FF0010C5D
:100740000CFA00FCC2F810C0401C0828D1D3146079
:10075000B1F800C0BCF1FF0F34DD546800202EE07A
:1007600000F1080C4FF0010808FA0CF3B1F800C0D2
:100770000CEA03069E4221D183004FF00F0C0CFAC5
:1007800003F7BC4305FA03FC4CEA040491F803C0E8
:10079000BCF1280F05D100F1080C08FA0CF8C2F8DA
:1007A000148091F803C0BCF1480F07D100F1080C88
:1007B0004FF0010808FA0CF8C2F81080401C082815
:1007C000CED35460BDE8F081016170470AB1016188
:1007D00000E04161704700BFFEE7000008B501215D
:1007E000082000F011FB10208DF803002020ADF848
:1007F000000003208DF8020069460F48FFF759FFFB
:100800000120ADF8000069460B48FFF752FF0220B7
:10081000ADF8000069460848FFF74BFF0221064883
:10082000FFF7D2FF01210448FFF7CEFF2021024845
:10083000FFF7CAFF08BD0000000C014010B5FFF72C
:10084000CDFF10BD00BFFEE7704708B54FF4A060B4
:1008500000F046F837208DF8000001208DF80300E5
:100860008DF801008DF80200684600F001F808BD1F
:1008700070B5002100230F22C47804B3154C2468FE
:1008800004F4E064C4F5E064210AC1F10403CA4041
:10089000447804FA03F184781440214309010E4C92
:1008A0000678A155047804F01F050124AC400578B2
:1008B0006D11AD0005F1E025C5F8004109E00478AF
:1008C00004F01F050124AC40044D0678761145F86C
:1008D000264070BD0CED00E000E400E080E100E0A7
:1008E00002490143024A1160704700000000FA0506
:1008F0000CED00E000200CE0002106E00022064B99
:1009000003EBC0135A544A1CD1B28029F6DB421CB7
:10091000D0B20828F0DB7047040000202DE9F04336
:1009200004460D4616461F46284638E0224631E06A
:10093000002A2DDB7F2A2BDC002829DB3F2827DC3F
:100940004FEAE07C00EB5C7C4FEAEC0CDFF858806F
:1009500008EBCC1C1CF802C003464FEAE07800EB21
:1009600058784FEAE808A0EBC8094FF0010808FAE8
:1009700009F82CEA080C01464FEAE07800EB5878B9
:100980004FEAE808DFF8209009EBC81808F802C021
:10099000511C0AB2A1199142CADC411C08B2E919E2
:1009A0008142C3DCBDE8F0830400002038B5002498
:1009B00006E0002500E06D1CB5F57A7FFBD3641CD2
:1009C000B4F57A7FF5D30121042000F01DFA14203C
:1009D0008DF8030003208DF802001020ADF8000010
:1009E00069460848FFF765FE2020ADF8000069461B
:1009F0000448FFF75EFE012000F0BAF9012000F084
:100A0000C1F938BD0008014070B50546002411E069
:100A100080212141294009B1012100E0002108463F
:100A200000F0B0F9012000F0A3F9002000F0A0F9D7
:100A3000601CC4B2082CEBDB012000F099F9002007
:100A400000F096F970BD10B5012000F09BF901206F
:100A500000F08EF9002000F095F9002000F088F9F0
:100A600010BD10B5002000F08DF9012000F080F9D4
:100A7000012000F087F910BD10B5FFF797FFAE20F9
:100A800000F08AF9D52000F087F9802000F084F981
:100A9000A82000F081F93F2000F07EF9D32000F07B
:100AA0007BF9002000F078F9402000F075F9A120D2
:100AB00000F072F9C82000F06FF9DA2000F06CF94C
:100AC000122000F069F9812000F066F9CF2000F0D3
:100AD00063F9D92000F060F9F12000F05DF9DB2026
:100AE00000F05AF9302000F057F9A42000F054F932
:100AF000A62000F051F98D2000F04EF9142000F0EE
:100B00004BF9AF2000F048F9FFF7F4FE00F01CF9B4
:100B100010BD10B50246012000E050430B1EA1F1AC
:100B20000101FAD110BD0FB470B5C2B005460E4632
:100B300014464AA8019002A8019A499900F0DCFAEB
:100B400000200190234602AA3146284600F0E4F82E
:100B500042B070BC5DF814FB70B505460C4645F01C
:100B6000B00000F019F9102141EA141000F014F956
:100B700004F00F0000F010F970BD0000F8B5064653
:100B80000F4614461D46082D0CD1A4F120000E4935
:100B900001EB00101023082239460090304600F087
:100BA00017F80FE0062D0DD1A4F1200000EB400056
:100BB000064901EB400008230622394600903046E2
:100BC00000F006F8F8BD0000181A00080820000818
:100BD0002DE9FF4F80460E469146DDF834B00025E2
:100BE00000244A4631464046039BFFF797FE00BF6C
:100BF0005EE0002558E008EB0500002852DB08EB1A
:100C000005007F284EDC3046F11706EB5171C91004
:100C10000FB2F11706EB5171C910A6EBC10A002EF5
:100C200005DA781E07B20AF108000FFA80FA3819BF
:100C3000002817DB3819072814DC3819224901EB82
:100C4000C01008EB0501405C04FB09511BF80110C2
:100C500001FA0AF1084339191B4A02EBC11108EBEA
:100C6000050288543819401C00281BDB3819401C29
:100C7000072817DC3819401C134901EBC01008EB9A
:100C80000501405C04FB09511BF80110CAF1080280
:100C9000114108433919491C0B4A02EBC11108EBF9
:100CA00005028854681CC5B24D45A4DB601CC4B263
:100CB0000399481EC11700EB5171012202EBE101BB
:100CC000A14296DCBDE8FF8F040000202DE9F0472B
:100CD0000646894617461D46DDF82080002417E0A9
:100CE000281B411E0A20FFF714FFB7FBF0F00A2172
:100CF000B0FBF1F201FB120000F1300A04FB0861C5
:100D000008B2434652464946FFF738FF601CC4B25A
:100D1000AC42E5DBBDE8F0872DE9F04106468846A8
:100D200015461F46002409E02A5D04FB076108B24E
:100D30003B464146FFF722FF601CC4B2285D0028F5
:100D4000F2D1BDE8F081000010B500240BE00021D5
:100D50002046FFF701FF054901EBC410802100F098
:100D60002BF8601CC4B2082CF1DB10BD040000207D
:100D700010B50446224610210148FFF727FD10BD9B
:100D80000008014010B50446224620210148FFF723
:100D90001DFD10BD0008014010B50446FFF753FECD
:100DA0007820FFF731FE0020FFF72EFE2046FFF7E8
:100DB0002BFEFFF756FE10BD70B505460E46FFF739
:100DC00042FE7820FFF720FE4020FFF71DFE0024A2
:100DD00004E0285DFFF718FE601CC4B2B442F8DBE3
:100DE000FFF73FFE70BD704729B1064AD269024342
:100DF000044BDA6104E0034AD2698243014BDA61B1
:100E0000704700000010024029B1064A926902436F
:100E1000044B9A6104E0034A92698243014B9A6150
:100E20007047000000100240704710B500F002F853
:100E300010BD00000CB50020019000903348006800
:100E400040F480303149086000BF3048006800F449
:100E5000003000900198401C0190009818B901984A
:100E6000B0F5A06FF1D12948006800F4003010B14E
:100E70000120009001E0002000900098012843D15B
:100E80002348006840F010002149086008460068C7
:100E900020F0070008600846006840F00200086083
:100EA0001A48406819494860084640684860084642
:100EB000406840F4806048600846406820F47C1038
:100EC00048600846406840F4E810486008460068FA
:100ED00040F08070086000BF0C48006800F00070AF
:100EE0000028F9D00948406820F00300074948600D
:100EF0000846406840F00200486000BF0348406870
:100F000000F00C000828F9D10CBD000000100240D0
:100F10000020024010B51348006840F0010011495C
:100F2000086008464068104908400E494860084675
:100F300000680E4908400B4908600846006820F424
:100F4000802008600846406820F4FE0048604FF4A6
:100F50001F008860FFF769FF4FF0006004490860D8
:100F600010BD0000001002400000FFF8FFFFF6FE79
:100F700008ED00E010B50EE00A480088401C094961
:100F800008800121084800F013F80848006880F044
:100F90000100064908600121034800F018F8002804
:100FA000EAD110BD00000020001400400C0C0140EC
:100FB000CA430282704721B1028842F001020280D6
:100FC00004E002884FF6FE731A400280704730B585
:100FD0000246002000230024158A05EA01039589B2
:100FE00005EA010413B10CB1012000E0002030BD7E
:100FF0001AB183890B43838102E083898B43838108
:1010000070470000002202881D4B98420ED01D4BF5
:1010100098420BD0B0F1804F08D01B4B984205D0BE
:101020001A4B984202D01A4B984204D14FF68F7354
:101030001A404B881A43174B984207D0164B9842D8
:1010400004D04FF6FF431A40CB881A4302808B88A6
:1010500083850B8803850A4B98420BD0094B984235
:1010600008D00E4B984205D00D4B984202D00D4B44
:10107000984201D10B7A03860123838270470000D6
:10108000002C0140003401400004004000080040F2
:10109000000C0040001000400014004000400140DF
:1010A00000440140004801400EB501212020FFF717
:1010B0009BFE0020ADF8020041F61F40ADF8040091
:1010C00042F20F70ADF8000069460948FFF79AFF39
:1010D00001210748FFF76CFFFFF7B7FB012211461C
:1010E0000348FFF785FF01210148FFF764FF0EBDAC
:1010F0000014004000BFFEE737B514460846064B13
:101100006A46214600F0DCF804466946002000F0FB
:101110005AFC20463EBD0000C719000802E008C87E
:10112000121F08C1002AFAD170477047002001E061
:1011300001C1121F002AFBD1704700002DE9FF5F9B
:1011400082B00021DDE90430020DDDF840B0034338
:1011500018D044F61050A2F2FF32424315141198F1
:1011600001281FD0A5EB0B00401C5FEA000A4FF0DE
:1011700000064E4FDFF83891B046504615D5CAF1FB
:10118000000413E0119801244AA3012801D16FEA59
:101190000B010298119AC0E90031C0E9024206B081
:1011A000BDE8F09FCBF10000DFE704460021404A94
:1011B000491842EB0450CDE9001012E0E00707D0D7
:1011C00032463B4640464946FFF777F88046894617
:1011D00032463B4610461946FFF76FF806460F4663
:1011E0006410002CEAD1DDE90401DDE90023BAF145
:1011F000000F06DAFFF761F842464B46FFF75DF84D
:1012000005E0FFF7CCF842464B46FFF7C8F8044626
:101210000E460022284BFFF731F903D84FF0FF307C
:10122000014607E00022254B20463146FEF79EFF8F
:10123000FFF711FA102409E0002C0ADB0A22002330
:10124000FFF74AF9039B30321A55641E50EA010237
:10125000F2D1641C039AC4F111031444119A012AB7
:1012600003D0012208430DD10AE0084304D0002036
:101270004FF0110B119072E7A3EB0B056D1E0DE003
:101280005B4504DD4FF0000205F1010504E003DADF
:101290004FF00002A5F10105002AECD00298119947
:1012A000C0E90231C0E9004579E7000000001440C0
:1012B0000000F03F300000000000F0430000E03F7D
:1012C0002DE9FF4F95B09A46884606460025EEE187
:1012D000252877D100242746F94A0121039400E00C
:1012E000044316F8013F203B01FA03F01042F7D106
:1012F00030782A2811D06FF02F033078A0F1300217
:10130000092A16D8039A44F0020402EB820203EB86
:1013100042021044761C0390EFE758F8042B039226
:10132000002A03DA504244F40054039044F00204CB
:10133000761C30782E2816D116F8010F44F00404DC
:101340002A280DD06FF02F023078A0F13003092B3E
:1013500009D807EB870302EB4303C718761CF3E7B2
:1013600058F8047B761C30786C280FD006DC4C28AB
:1013700017D068280DD06A2814D104E0742810D042
:101380007A280FD10DE044F400140AE044F48014EC
:1013900001E044F440147278824202D104F58014D2
:1013A000761C761C307866280BD013DC582877D052
:1013B00009DC002875D04528F6D04628F4D0472807
:1013C0001AD193E118E0632835D0642879D06528D4
:1013D00012D18BE1702873D008DC6728F1D069281E
:1013E0006FD06E280DD06F2806D1ACE073282CD0BA
:1013F000752874D0782853D05246179990476D1CA1
:1014000054E1C4F30250022809D003280DD0D8F8C3
:10141000001004280DD00D6008F1040846E1D8F84A
:101420000010EA17C1E90052F6E7D8F800100D8065
:10143000F2E70D70F0E718F8041B8DF8001000209B
:101440008DF80100EB46012003E058F804BB4FF093
:10145000FF3061074FF0000102D40DE009F10101F6
:101460008946B9420FDA8145F8DB1BF809100029DB
:10147000F4D108E009F1010189468142FADB1BF849
:1014800009100029F6D103985346A0EB090721461D
:101490003846179A00F080FA284400EB090507E067
:1014A00044E008E10DE01BF8010B52461799904704
:1014B000B9F10109F7D2534621463846179AF2E0AE
:1014C00039E00A21C4F302524FF0000B0091022AC6
:1014D00006D058F8040BC117032A09D00AE023E00C
:1014E00008F1070020F00702F2E80201904605E04B
:1014F00000B2C117042A01D140B2C117002906DA8F
:101500000A460021404261EB02012D2202E0220541
:1015100004D52B228DF80420012203E0E20701D03C
:101520002022F7E7914657E00A2100E010214FF012
:10153000000B00910BE010214FF0000B44F004046D
:101540000827009103E008204FF0000B0090C4F33F
:101550000252022A05D058F8040B0021032A08D0B1
:1015600008E008F1070020F00702F2E802019046C7
:1015700003E080B2042A00D1C0B24FF00009220774
:101580002AD53278702A07D0DDF800C08CF0100C14
:101590005CEA0B0C05D00EE040228DF804200122FD
:1015A00008E050EA010306D030238DF804308DF8AE
:1015B000052002229146009B83F0080353EA0B03A7
:1015C0000AD150EA010201D1620705D530228DF817
:1015D00004204FF001097F1E3278582A04D039A226
:1015E0000C920CAA02920BE03BA2F9E75B46009A30
:1015F000FEF772FF0C9B9B5C029A521E02921370C4
:1016000050EA0102F2D1029804A9081A00F1200B55
:10161000600702D524F4803400E001275F4502DD35
:10162000A7EB0B0000E0002000EB0B0100900398FB
:101630004944401A0390E00306D453462146179AC2
:10164000039800F0A9F90544002706E001A85246D6
:10165000C05D179990476D1C7F1C4F45F6DBE0037A
:101660000CD553462146179A039800F095F9054486
:1016700004E030205246179990476D1C0099481E8F
:1016800000900029F5DC08E00298029952460078A3
:10169000491C0291179990476D1CBBF10001ABF1F9
:1016A000010BF1DC5BE100F065F90544761C307854
:1016B00000287FF40DAE19B02846BDE8F08F000079
:1016C0000928010030313233343536373839616218
:1016D00063646566000000003031323334353637DC
:1016E000383941424344454600000000600700D4B9
:1016F000062708F1070020F00700F0E802238046E3
:1017000003F0004C5FEA0C0001D097A009E020052F
:1017100001D596A005E0E00701D095A001E0AFF269
:101720004C001390307823F0004365280CD006DC81
:10173000452809D046281DD047287FD13BE06628A0
:1017400018D067287AD136E00021112F01DB112053
:1017500000E0781CCDE9000104A90CA8FFF7EEFC1D
:10176000DDE90D010C9A4FF0000B07F10109109211
:1017700000914EE04FF000400097CDE9011004A920
:101780000CA8FFF7DBFCDDE90D020C9B0F994FF075
:10179000000B91461093009211B9791C00EB0109DE
:1017A000B7EB090003D4C0F1FF3B07F10109A9EB36
:1017B0000700019042E0012F00DA01270021112FDC
:1017C00001DD112000E03846CDE9000104A90CA894
:1017D000FFF7B4FCDDE90D010C9A00914FF0000B0E
:1017E000B946109221070FD4009A4A4503DA914670
:1017F00001E0A9F10109B9F1010F05DD109AA9F184
:101800000101515C3029F4D0B84202DA10F1040F22
:1018100003DA0121CDE9011010E0002803DC834444
:10182000A9EB000102E0411C494500DD8946A0EB1F
:101830000B00401C01904FF000400290200705D49F
:101840000198484502DB4FF0FF30019000208DF8F1
:101850004B0002980DF14B07B0F1004F25D002204C
:101860000C902B200D90029800280CDA4042029038
:101870002D200D9007E00A210298FEF717FE303167
:10188000029007F8011D0C99481E0C900029F2DC0B
:1018900002980028EFD1791E0D980870307800F07A
:1018A000200040F0450007F8020D11A8C01BC01D24
:1018B00002901398007800B1012000EB0901019813
:1018C00001EBE071029801440398401A401E039016
:1018D000E00306D453462146179A039800F05CF8BB
:1018E00005441398007818B15246179990476D1C1B
:1018F000E00323D553462146179A039800F04CF88D
:1019000005441BE0BBF1000F07DB0098584504DDE0
:101910001098179910F80B0001E0179930205246E3
:10192000904701980BF1010B401E05F10105019054
:1019300004D12E205246179990476D1CB9F1000131
:10194000A9F10109DEDC05E017F8010B52461799F1
:1019500090476D1C0299481E02900029F4DC534602
:101960002146179A03989EE62D0000002B000000E8
:10197000200000002DE9F041044600251E461746D0
:10198000880404D405E039462020B0476D1C641E4D
:10199000F9D52846BDE8F0812DE9F041044600253F
:1019A0001E469046C80301D5302700E02027880452
:1019B00004D505E041463846B0476D1C641EF9D594
:1019C0002846BDE8F0810A68531C0B601070704710
:1019D00008B5FEF733FFFFF74FF8FFF765FB0AA0E6
:1019E0000BA30822002100900846FFF79CF80AE0AC
:1019F0000820052300900748028814213220FFF7B1
:101A000065F9FFF7A1F9F3E776616C75653D0000B4
:101A1000257300000000002000000000000000000E
:101A20000000000000000000000000F800000000BE
:101A3000000000333000000000160E00160E0000FB
:101A4000000000000000000040C07840C078400066
:101A5000043F04043F040400007088FC08300000C8
:101A6000001820FF211E0000F008F000E018000020
:101A700000211C031E211E0000F0088870000000D9
:101A80001E21232419272110000000160E0000003B
:101A90000000000000000000000000E01804020048
:101AA000000000071820400000020418E0000000B9
:101AB0000040201807000000404080F080404000B7
:101AC0000202010F01020200000000F0000000000D
:101AD0000101011F010101000000000000000000E1
:101AE00000B07000000000000000000000000000D6
:101AF00000010101010101010000000000000000DF
:101B00000030300000000000000000008060180479
:101B1000006018060100000000E010080810E00056
:101B2000000F102020100F00001010F8000000001F
:101B30000020203F20200000007008080888700066
:101B400000302824222130000030088888483000E6
:101B50000018202020110E000000C02010F8000006
:101B600000070424243F240000F80888880808009F
:101B70000019212020110E0000E0108888180000B4
:101B8000000F112020110E0000380808C838080086
:101B90000000003F00000000007088080888700006
:101BA000001C222121221C0000E010080810E00087
:101BB0000000312222110F00000000C0C000000010
:101BC0000000003030000000000000C0C000000035
:101BD000000080B07000000000008040201008006D
:101BE00000010204081020004040404040404000F6
:101BF00004040404040404000008102040800000D1
:101C00000020100804020100007048080808F000D5
:101C10000000003036010000C030C828E810E000A5
:101C20000718272423140B000000C038E000000030
:101C3000203C23020227382008F88888887000009A
:101C4000203F202020110E00C0300808080838006E
:101C5000071820202010080008F808080810E000E5
:101C6000203F202020100F0008F88888E808100086
:101C7000203F20202320180008F88888E80810005A
:101C8000203F200003000000C03008080838000092
:101C900007182020221E020008F808000008F80893
:101CA000203F210101213F20000808F8080800001A
:101CB0000020203F2020000000000808F80808004D
:101CC000C08080807F00000008F888C028180800C5
:101CD000203F20012638200008F8080000000000FE
:101CE000203F20202020300008F8F800F8F80800F5
:101CF000203F003F003F200008F830C00008F808EF
:101D0000203F200007183F00E01008080810E000FE
:101D10000F10202020100F0008F808080808F00015
:101D2000203F210101010000E01008080810E00038
:101D30000F18242438504F0008F8888888887000CD
:101D4000203F2000030C302000708808080838006D
:101D50000038202121221C00180808F80808180063
:101D60000000203F2000000008F808000008F808E4
:101D7000001F202020201F000878880000C8380895
:101D8000000007380E010000F80800F80008F8000D
:101D9000033C0700073C03000818688080681808A7
:101DA00020302C03032C30200838C800C838080025
:101DB0000000203F2000000010080808C838080074
:101DC0002038262120201800000000FE0202020018
:101DD0000000007F40404000000C30C000000000C8
:101DE000000000010638C00000020202FE000000F0
:101DF000004040407F000000002010080408102030
:101E000000000000000000000000000000000000D2
:101E100080808080808080800002040800000000B4
:101E200000000000000000000000808080800000B2
:101E30000019242222223F2008F8008080000000A0
:101E4000003F112020110E00000000808080000063
:101E5000000E112020201100000000808088F80072
:101E6000000E112020103F200000808080800000A4
:101E7000001F222222221300008080F08888881808
:101E80000020203F20200000000080808080800013
:101E9000006B94949493600008F8008080800000A8
:101EA000203F210000203F20008098980000000083
:101EB0000020203F202000000000008098980000B3
:101EC00000C08080807F000008F8000080808000D3
:101ED000203F24022D302000000808F800000000F8
:101EE0000020203F202000008080808080808000B3
:101EF000203F20003F20003F0080800080800000C5
:101F000000203F2100203F200000808080800000D2
:101F1000001F202020201F00808000808000000003
:101F200080FFA12020110E00000000808080800032
:101F3000000E112020A0FF80808080008080800023
:101F400020203F2120000100000080808080800050
:101F50000033242424241900008080E080800000C5
:101F60000000001F20200000808000000080800012
:101F7000001F202020103F20808080000080808073
:101F800000010E3008060100808000800080808003
:101F90000F300C030C300F00008080008080800028
:101FA0000020312E0E312000808080000080808053
:101FB00080818E7018060100008080808080800003
:101FC0000021302C2221300000000000807C020221
:101FD00000000000003F404000000000FF00000043
:101FE00000000000FF0000000002027C80000000F2
:101FF0000040403F00000000008040408000008022
:1020000000000000000101000000000000000000CE
:10201000002F000000000700070000147F147F1449
:1020200000242A7F2A1200231308646200364955CF
:10203000225000000007000000001C2241000000A8
:1020400041221C000014083E08140008083E08083D
:10205000000000A060000008080808080000606098
:102060000000002010080402003E5149453E0000D7
:10207000427F4000004261514946002141454B31B9
:10208000001814127F10002745454539003C4A4985
:1020900049300001710905030036494949360006F7
:1020A0004949291E0000363600000000563600005F
:1020B00000081422410000141414141400004122DA
:1020C0001408000201510906003E4955592E007CB2
:1020D0001211127C007F49494936003E414141229C
:1020E000007F4141221C007F49494941007F090985
:1020F0000901003E4149497A007F0808087F000035
:10210000417F4100002040413F01007F08142241EF
:10211000007F40404040007F020C027F007F0408A7
:10212000107F003E4141413E007F09090906003E03
:102130004151215E007F091929460046494949312C
:102140000001017F0101003F4040403F001F20404F
:10215000201F003F4038403F00631408146300070D
:102160000870080700615149454300007F41410064
:10217000000204081020000041417F000004020119
:1021800002040040404040400000010204000020E2
:1021900054545478007F4844443800384444442020
:1021A00000384444487F00385454541800087E09CD
:1021B00001020018A4A4A47C007F08040478000095
:1021C000447D4000004080847D00007F1028440052
:1021D0000000417F4000007C04180478007C080463
:1021E000047800384444443800FC2424241800189F
:1021F000242418FC007C080404080048545454208B
:1022000000043F444020003C4040207C001C204013
:10221000201C003C4030403C004428102844001C56
:10222000A0A0A07C004464544C440000087F4100FE
:102230000000007F00000000417F08000008040843
:102240001008A3AC00000000000000000000000027
:1022500000000000000000583800000000000000EE
:102260000000000000A1A30000000000000000002A
:1022700000000000000000000000182424180000E6
:102280000000000000000000C4E300008060F807C8
:102290004020180F08C80808281800010000FF0097
:1022A000100C0340807F0001061800BAC300101014
:1022B000F01F10F000808282E2928A868000402225
:1022C00015081661000040807F0000000000CAC0B1
:1022D00000202020FE2020FF202020FF2020202082
:1022E000000000007F4040474444444740404000D5
:1022F00000BDE700000000FE929292FE929292FED4
:102300000000000008080484621E010001FE0204AF
:1023100004080800000000FF010101310909090952
:10232000897101010101FFFF80808080808096819A
:10233000808080808080FFFF01818181FD8991A163
:10234000C1FD81818101FFFF808080809F88848220
:10235000819F80808080FF0078230008000000209B
:10236000040000001C1100087C2300080400002069
:0C237000040800002C1100080000000010
:0400000508000131BD
:00000001FF
