:020000040800F2
:10000000A8170020C5010008CD010008CF01000895
:10001000D1010008D3010008D5010008000000004C
:10002000000000000000000000000000D7010008F0
:10003000D901000800000000DB010008C91C00080D
:10004000DF010008DF010008DF010008DF01000810
:10005000DF010008DF010008DF010008DF01000800
:10006000DF010008DF010008DF010008DF010008F0
:10007000DF01000865090008DF010008DF01000852
:10008000DF01000895090008DF010008DF01000812
:10009000DF010008DF010008DF010008DF010008C0
:1000A000DF010008DF010008DF010008DF010008B0
:1000B000DF010008DF010008DF010008DF010008A0
:1000C000DF010008DF010008DF010008DF01000890
:1000D000DF010008DF010008DF010008DF01000880
:1000E000890C0008DF010008DF010008DF010008BB
:1000F000DF010008DF010008DF010008DF01000860
:10010000DF010008DF010008DF010008DF0100084F
:10011000D91E0008DF010008411D0008DF010008AA
:10012000DF010008B50A0008DF010008DF01000850
:10013000DF010008DF010008DF010008DF0100081F
:10014000DF010008DF010008DF010008DF0100080F
:10015000DF010008E50A0008DF010008DF010008F0
:10016000DF010008DF010008DF010008DF010008EF
:10017000DF010008DF010008DF010008DF010008DF
:10018000DF010008DF010008DF010008DF010008CF
:10019000DF010008DF010008DF010008DF010008BF
:1001A0000000000000000000DF010008DFF810D0B0
:1001B00000F026FB00480047DD370008AFF3008061
:1001C000A81700200648804706480047FEE7FEE7DC
:1001D000FEE7FEE7FEE7FEE7FEE7FEE7FEE7FEE7F7
:1001E000D91C0008AD0100082DE9F0410024061BD0
:1001F000254671F1000605DA01240027D0EB07003F
:1002000067EB0101161E73F1000605DA0027D2EB39
:100210000702012567EB030300F0E3F886460E466C
:1002200017469C46AC4204D00025D0EB050E65EB8A
:10023000010624B10020D2EB000760EB030C7046EE
:1002400031463A466346BDE8F08140EA01039B0728
:1002500003D009E008C9121F08C0042AFAD203E03B
:1002600011F8013B00F8013B521EF9D27047D2B29F
:1002700001E000F8012B491EFBD270470022F6E78F
:1002800010B513460A4604461946FFF7F0FF20460C
:1002900010BD30B504460020034600E05B1C9342CD
:1002A00003D2E05CCD5C401BF8D030BD2DE9F04DB1
:1002B00081EA030404F0004B21F0004514464FF09E
:1002C000000A23F0004150EA050220D054EA01025E
:1002D0001DD0C5F30A570246C5F31303C1F313003B
:1002E000C1F30A5640F4801543F48013A7EB0608C7
:1002F000101BD64608F2FD3873EB050002D308F157
:10030000010801E092185B41B8F1000F03DA002008
:100310000146BDE8F08D00204FF48011064684466A
:100320000EE0171B73EB050705D3121B63EB0503E8
:1003300006434CEA010C49084FEA300092185B4131
:1003400050EA0107EDD152EA030012D082EA04001C
:1003500083EA0501084305D0101BAB4106D20122F8
:10036000002306E000224FF0004302E06FF001029C
:1003700053101AEB06004CEB085110EB0A0041EB4E
:100380000B01BDE8F04D00F094B8F0B4CA17CB0FE4
:1003900050405140C61841F100054FEAC372314642
:1003A00028004FF0960303D0B623F0BC00F053B8FA
:1003B00030460021F9E730B50B46014600202022E7
:1003C000012409E021FA02F59D4205D303FA02F562
:1003D000491B04FA02F52844151EA2F10102F1DCC2
:1003E00030BD2DE9F05F0546002092469B468846C9
:1003F0000646814640241BE02846414647462246A1
:1004000000F01FFA53465A46C01A914110D31146C4
:100410001846224600F006FA2D1A67EB01084F46EF
:1004200022460120002100F0FDF917EB00094E41A2
:10043000201EA4F10104DFDC484631462A4643462B
:10044000BDE8F09F0029A8BF7047401C490008BFC5
:1004500020F00100704710B4B0FA80FC00FA0CF0F4
:1004600050EA010404BF10BC704749B1CCF120042C
:1004700021FA04F411FA0CF118BF012121430843B9
:10048000A3EB0C01CB1D4FEA00614FEA102042BFE5
:10049000002010BC704700EBC35010440029A4BFDB
:1004A00010BC7047401C490008BF20F0010010BC80
:1004B000704710B5141E73F1000408DA401C41F1B6
:1004C000000192185B411A4301D120F0010010BDD8
:1004D0002DE9F04D92469B4611B1B1FA81F202E04E
:1004E000B0FA80F22032904600F09CF904460F46A4
:1004F00040EA0A0041EA0B0153465A46084313D02A
:10050000114653EA010019D0C8F14002504600F0EC
:1005100098F905460E4650465946424600F082F983
:10052000084305D0012004E020463946BDE8F08D9F
:100530000020054346EAE0762C4337430A986305DA
:10054000E40AA0EB08000022FD0A44EA47540A30FE
:1005500002D500200146E9E7010510196941DDE9EE
:10056000084500196941BDE8F04DA2E72DE9FE4FAD
:10057000804681EA0300C00F0C46009021F0004144
:1005800023F00045B8EB0200A94105D240462146C0
:1005900090461C460B46024623F00040104347D0CD
:1005A000270DC7F30A00C3F30A510290401A0190C5
:1005B00040286BDAC3F3130040F4801B0098924686
:1005C00020B10023D2EB030A63EB0B0B01985946D1
:1005D000C0F14002504600F025F906460D4650464F
:1005E0005946019A00F03DF910EB080061410024E2
:1005F00087EA115284EAE7731A4340D0009A62B343
:10060000019A012A4FEA075215DC001B61EB020137
:100610004FF0004202EA0752CDE90042001C41F5CA
:10062000801132462B46FFF753FF03B0BDE8F08F31
:1006300040462146F9E7001B61EB0201001C41F531
:10064000801300185B412018A2F5001747EB030147
:1006500040EAD570B6196D4111E06D084FEA3606D3
:1006600045EAC0754FEA0752001B61EB0201001C0E
:1006700041F5801149084FEA3000001951413246D6
:100680002B4603B0BDE8F04FFFF713BF00980122DF
:1006900040000023D0EB020263EBE0730098214698
:1006A0004FEAE074B8EB000061EB0401E9E783F086
:1006B00000435BE781F0004158E72DE9FE4F81EAF6
:1006C000030404F0004421F0004100944FF0000BBB
:1006D00023F0004350EA01045ED052EA03045BD0E9
:1006E000C3F30A54C1F30A552C44A4F2F334019421
:1006F000A0FB0254C1F3130141F48011C3F31303AF
:1007000043F4801301FB024400FB034E840A970A62
:1007100044EA815447EA8357A4FB076802958D0A8F
:1007200005FB07854FEA932C04FB0C542705029D1B
:100730004FEA065847EA1637B5EB08056EEB070C8B
:10074000870E920E47EA811742EA8312A7FB020145
:10075000B6EB0B0164EB00042B0D43EA0C335E187F
:1007600044EB1C50DA465146E7FB0201C5F3130483
:100770004FEA0B3343EA14534FEA0432019C43EA35
:100780000603A4F10C040294009CCDE900B4FFF729
:100790009FFE03B0BDE8F08F00200146F9E7C1F3EA
:1007A0000A52C1F3130140F2FF3341F480119A421F
:1007B00002DA00200146704740F233439A42A2F227
:1007C000334202DC524200F03CB800F02BB800008B
:1007D00030B5041E71F1000404DB4FF000444042C8
:1007E00064EB0101141E73F1000405DB1C464FF09D
:1007F0000043524263EB0403994208BF904230BD6C
:10080000064C074D06E0E06840F0010394E807005D
:1008100098471034AC42F6D3FFF7CCFCC052000826
:10082000E0520008202A04DB203A00FA02F10020FE
:1008300070479140C2F1200320FA03F3194390401E
:100840007047202A04DB203A21FA02F00021704789
:1008500021FA02F3D040C2F1200291400843194628
:100860007047202A06DBCB17203A41FA02F043EA10
:10087000E07306E041FA02F3D040C2F12002914059
:10088000084319467047000000B58FB001214805A4
:1008900001F026F8012004900E4802904FF000600D
:1008A0000090002003900B900C900D900890069003
:1008B0004FF4807009900848019000200E90079036
:1008C00005904FF440300A906946044800F09EF9C4
:1008D0000FB000BD24000020044C004040600240E6
:1008E00000B591B00121480500F0FAFF11208DF804
:1008F000040001208DF807008DF805008DF8060032
:1009000001A800F0A7FF01200690134804904FF0C3
:1009100020600290002005900D900E900F900A909C
:1009200008904FF480700B900C48039000201090BA
:10093000099007904FF440300C9002A9084800F04D
:1009400065F901221021064800F042F9012104480E
:1009500000F0F6F811B000BD25000020047C004036
:10096000A060024010B50749074800F0FFF840B109
:100970000449054800F0CAF804490548007803F026
:10098000CEFD10BD00802010406002408801002094
:100990002400002010B50749074800F0E7F840B1EF
:1009A0000449054800F0B2F804490548007803F00E
:1009B000B6FD10BD00802020A0600240A0060020EF
:1009C0002500002000B591B00121880500F088FFC6
:1009D00039208DF8040001208DF807008DF80500FE
:1009E0008DF8060001A800F035FF45208DF80400C1
:1009F00001208DF807008DF805008DF8060001A88C
:100A000000F028FF01200690264804904FF0206057
:100A10000290002005900D900E900F900A90089083
:100A20004FF480700B9020480390002010900990A4
:100A300007904FF440300C9002A91C4800F0E6F8F3
:100A400001221021194800F0C3F80121174800F0D5
:100A500077F801200690164804904FF0206002902D
:100A60004020059000200D900E900F900A904FF4BA
:100A70008060089000200B900B480390002010909D
:100A8000099007904FF440300C9002A90748783045
:100A900000F0BCF8012210210448783000F098F8EA
:100AA00011B000BD2600002004140140286402405B
:100AB0002700002010B50749074800F057F840B15B
:100AC0000449054800F022F804490548007803F07D
:100AD00026FD10BD0088001028640240E0110020AF
:100AE0002600002010B50649064800F03FF830B156
:100AF0000349044800F00AF801200349087010BDBA
:100B000000802020A0640240390000200246094BEA
:100B10009A4201D2084801E00648103801F000531B
:100B20001BB1064B0B40C36002E0044B0B408360DB
:100B30007047000010640240006002407D0F7D0F8E
:100B400021B1026842F00102026003E0026822F073
:100B5000010202607047014600200A6802F00102AB
:100B60000AB1012000E000207047000070B5024685
:100B7000002000240025124EB24201D2114B01E0A8
:100B80000F4B103B104E0E4036B11E2606EAD12404
:100B9000166806EA040502E0566906F0800501F0D1
:100BA00000560EB15C6800E01C68084E344004EA50
:100BB000010616B10DB1012000E0002070BD00005B
:100BC00010640240006002403C0F3C0F7D0F7D0F1F
:100BD00010B501F080034BB122B1436943F08003AB
:100BE000436103E0436923F08003436180290BD014
:100BF0002AB1036801F01E042343036004E0036884
:100C000001F01E04A343036010BD000010B50022D4
:100C10000268134B1A40CC680B6823434C6923438A
:100C20008C692343CC6923430C6A23434C6A2343D6
:100C30008C6A23434C6B23438C6B23431A4302601F
:100C4000426922F00702D1E90B3423431A4342617F
:100C50000B6943604B6883608B68C36010BD000004
:100C60003F801CF008B50D208DF8000001208DF8A4
:100C700003008DF801008DF80200684600F0EAFDDF
:100C800008BD41607047000010B54FF4004000F00F
:100C900011F8012805D1C00300F006F80120014930
:100CA000087010BD2800002001490860704700004E
:100CB000143C014001460020034A12680A400AB170
:100CC000012000E000207047143C0140F0B50A46C6
:100CD00000210023002400BF3DE0012505FA01F3B7
:100CE000156805EA03049C4234D105684F000326C9
:100CF000BE40B543056015794E00B54006683543E2
:100D000005601579012D02D01579022D16D185685F
:100D10004F000326BE40B543856055794E00B5406F
:100D2000866835438560456801268E40B543456039
:100D3000456896798E40B6B235434560C5684F0028
:100D40000326BE40B543C560D5794E00B540C668A0
:100D50003543C560491C1029BFD3F0BDF0B5002351
:100D600000244D07ED0E02FA05F3CE1000F1200528
:100D700055F826504E07F70E0F26BE40B543CF104C
:100D800000F1200646F82750CE1000F1200555F856
:100D9000265045EA0304CE1000F1200545F8264010
:100DA000F0BD0246002013690B400BB1012000E0AA
:100DB000002070470A04826170478161704700001B
:100DC00001480068704700002C00002010B54FF467
:100DD00080710348FFF7F1FF012002F0D1FB10BD45
:100DE0000004024010B54FF480710348FFF7E2FFA2
:100DF000012002F0C5FB10BD0004024010B54FF405
:100E000000710348FFF7D9FF012002F0B9FB10BDC4
:100E1000000402401CB54FF40070009000208DF8D3
:100E200004008DF8070003208DF80500694602488C
:100E3000FFF74CFF1CBD00000004024010B54FF44A
:100E400000710348FFF7B6FF012002F099FB10BDC7
:100E5000000402401CB54FF40070009001208DF892
:100E600004008DF8060000208DF8070003208DF89F
:100E7000050069460148FFF729FF1CBD0004024038
:100E800010B54FF400710248FFF78BFF10BD000052
:100E90000004024010B500F015FA00F081F908488E
:100EA0000078012806D1002005490870FFF788FF67
:100EB000044908600248007808B9FFF781FF10BDB7
:100EC0003B0000204C00002010B50446207830B1D3
:100ED000012808D0022807D003280AD105E0601CA9
:100EE00000F038F806E005E004E0601C00F03EF891
:100EF00000E000BF00BF10BD06480088064908801A
:100F00000448408848800348808888800148C08819
:100F1000C8807047F81100203E00002000200249E0
:100F20000870024908807047380000204600002001
:100F300010B5002004490880044908808021044835
:100F4000FFF79CF910BD000046000020480000207B
:100F50000A1300200178034A11700121024A11701E
:100F6000704700003C0000203B00002085B0014697
:100F700000200DE011F810200DF81020012202EBE6
:100F800040028A5C6B4603EB40035A70421CD0B2AD
:100F90000928EFDBBDF800000F4A1080BDF8020001
:100FA0005080BDF804009080BDF80600D080BDF8E8
:100FB00008001081BDF80A005081BDF80C00908136
:100FC000BDF80E00D081BDF8100010820120034A48
:100FD000107005B070470000F81100203A000020A2
:100FE00000BF054800680449C8600846006888607A
:100FF0000020087500BF7047E011002000BF0648C0
:1010000080680549C968884201D1012000E00020BC
:1010100080F0010070470000E011002010B5034A85
:101020008021034803F072FA10BD0000E011002097
:101030000A1200200148007D70470000E0110020E6
:1010400000BF0E4989680D4AD268914201D15321EF
:1010500011E00A49C96808780849C968491C074A63
:10106000D1601146C9685268914203D103490968A9
:10107000024AD1600146084670470000E011002096
:101080001CB5AA208DF8000055208DF80100022023
:101090008DF8020000208DF803008DF80400032174
:1010A0000DF1020002F039FA044600BFE0B28DF8FB
:1010B0000500200A8DF8060000BF0721684600F0F1
:1010C0004FF81CBD1FB5AA208DF8000055208DF8E3
:1010D000010009208DF8020004208DF8030000BFF4
:1010E0001E4800788DF804001C480088000A8DF81E
:1010F000050000BF00BF194880788DF8060017482A
:101100004088000A8DF8070000BF00BF134800792F
:101110008DF8080011488088000A8DF8090000BF8A
:1011200000BF0E4880798DF80A000C48C088000A7C
:101130008DF80B0000BF0A210DF1020002F0EDF95D
:10114000044600BFE0B28DF80C00200A8DF80D00B7
:1011500000BF0E21684600F003F81FBD3E000020CE
:1011600070B504460D4600BF084800780028FBD043
:101170000020064908702A4621460548FFF765F811
:101180002A460349034800F026FF70BD39000020BD
:101190008A120020A064024010B5FFF73FFF10BD87
:1011A00070B5FFF747FF012801D1FFF719FF7BE07A
:1011B000FFF746FF04463F48007806286CD2DFE878
:1011C00000F0030912253844AA2C02D10120394924
:1011D000087067E0552C03D102203649087001E001
:1011E000FFF79CFE5EE0FFF7A3FE3348048000207B
:1011F00032490880084601880088401C2F4A108028
:101200002F48445403202B4908704BE02B48018899
:101210000088401C294A10802948445410460188FF
:1012200025480088401C814202D1042021490870D1
:1012300038E0224801880088401C204A108020485D
:10124000445405201B4908702CE01C480188008884
:10125000401C1A4A10801A48445401461648008817
:10126000401C095C164A14480088801C105C41EA46
:10127000002511480088401C81B2104602F04DF94B
:10128000A84203D10E48401CFFF71EFEFFF750FE98
:1012900000200849087005E0002006490870FFF7A3
:1012A00047FE00BF00BF00BFFFF7A8FE00287FF485
:1012B0007FAF70BD380000204600002048000020AD
:1012C0000A13002010B507480078012808D1002033
:1012D00004490870FFF710FEFFF7F4FEFFF7D0FE99
:1012E00010BD00003A000020F0EE400A90ED072A01
:1012F000D0ED022AF0EE601A42EE621A90ED082A52
:10130000D0ED032A42EE621AB0EE611AD0ED051A52
:1013100090ED022A61EE821A90ED042A42EE011A43
:1013200090ED062AD0ED032A42EE221AB0EE610AB1
:10133000D0ED021AC0ED031A80ED021A704710B505
:101340002DED028B0446F0EE408AB0EE608AC4EDCB
:10135000008A84ED018A204600F004F8BDEC028B7F
:1013600010BD000010B52DED048B044694ED000A6D
:10137000D4ED010A80EE201AB0EE419A9FED2B0ABF
:10138000C0EE090AF0EE609AB0EE690A01F094F836
:10139000B0EE408A9FED260A00F0C8FFF0EE000A8A
:1013A00060EE200AB7EE000A00EE880A08EE080A8E
:1013B000F0EE408A28EE080AC0EE280AC4ED040ABE
:1013C00094ED040AF0EE000A20EE200A84ED050AEE
:1013D00094ED040A84ED060AB7EE000A18EE080A36
:1013E000F0EE000A20EE200AC0EE280AC4ED070A3B
:1013F0009FED0F0A00F09AFFF0EE000A60EE200A5F
:10140000B7EE000A00EEC80A08EE080AC0EE280A85
:10141000C4ED080A9FED070A84ED020A9FED050A54
:1014200084ED030ABDEC048B10BD0000DA0F4940C7
:10143000DA0F493F000000000FB410B50498000A0D
:1014400010B1012805D103E004A000F04BFF01E03A
:1014500000E000BF00BF10BC5DF814FB7468697346
:1014600020697320686561727462656174206672B8
:101470006F6D205147432F722F6E000030B5ADF5D0
:101480000F7D002400F058F8012805D100F02AF85B
:1014900020460DF50F7D30BD00F032F8E0B100F0D0
:1014A00051F805460D4B0E4A2946002002F006FC75
:1014B00088B140F213120A4910316846FEF7C5FEA2
:1014C0004FF49272064946A8FEF7BFFE46A80FC821
:1014D000FFF7B2FF012400BF2046DAE7DC0C002052
:1014E000B80B002000BF054800680449C8600846E2
:1014F000006888600020087500BF7047A0060020C3
:1015000000BF064880680549C968884201D10120AA
:1015100000E0002080F0010070470000A0060020DD
:1015200010B5034A4FF4A061024802F0EFFF10BD6E
:10153000A0060020B80600200148007D704700008A
:10154000A006002000BF0E4989680D4AD26891426A
:1015500001D1532111E00A49C96808780849C968CE
:10156000491C074AD1601146C9685268914203D1AB
:1015700003490968024AD1600146084670470000E5
:10158000A006002070B506460D461446A2B24FF4E0
:10159000FA632946014800F077FE70BD007C0040E8
:1015A0007FB505460C46684600F020F99DF801001D
:1015B0009DF8001040EA012000B228809DF8030049
:1015C0009DF8021040EA012000B268809DF80500F5
:1015D0009DF8041040EA012000B2A8809DF809009F
:1015E0009DF8081040EA012000B220809DF80B0011
:1015F0009DF80A1040EA012000B260809DF80D00BD
:101600009DF80C1040EA012000B2A0807FBD0000D0
:101610002DE9F05F81460E4614461D466D48007860
:1016200058B9304601F06CFE38B1012069490870A4
:101630009FED690A084680ED0E0A6648007848B1B9
:101640006448407830B9484601F0F6FD10B10120F9
:1016500060494870B9F9000000EE100AF8EEC00ABF
:101660009FED5E1A80EE810A5A48D0ED0F0A80EE97
:10167000201A84ED001AB9F9020000EE100AF8EE03
:10168000C00A9FED561A80EE810A5248D0ED0F0A2B
:1016900080EE201A84ED011AB9F9040000EE100A58
:1016A000F8EEC00A9FED4D1A80EE810A4948D0ED50
:1016B0000F0A80EE201A84ED021A4FF48062002394
:1016C000D0E902713846FEF78FFDB6F90020D31736
:1016D000B2EB000A63EB01015046FEF756FE00EE46
:1016E000100ADFED3F0A80EE201A85ED001A394816
:1016F0004FF480620023D0E904713846FEF774FD90
:10170000B6F90220D317B2EB000A63EB0101504691
:10171000FEF73BFE00EE100ADFED310A80EE201AE4
:1017200085ED011A2B484FF480620023D0E9067141
:101730003846FEF759FDB6F90420D317B2EB000A7C
:1017400063EB01015046FEF720FE00EE100ADFEDCC
:10175000240A80EE201A85ED021AD4ED000AB0EEBC
:10176000600A2048FFF7C0FD84ED000AD4ED010AAD
:10177000B0EE600A1B482430FFF7B6FD84ED010A85
:10178000D4ED020AB0EE600A16484830FFF7ACFD0F
:1017900084ED020AD5ED000AB0EE600A1248FFF7A8
:1017A000A3FD85ED000AD5ED010AB0EE600A0E48F2
:1017B0002430FFF799FD85ED010AD5ED020AB0EE60
:1017C000600A09484830FFF78FFD85ED020ABDE841
:1017D000F09F000040010020000000000000804653
:1017E0006F128341D40000206800002070B50546C8
:1017F00004210A48FFF7DEFABB2000F0B9F9002403
:1018000005E0002000F0B4F92855601CC4B20E2C8D
:10181000F7DB04210148FFF7D0FA70BD0008024051
:1018200070B505460C4604210948FFF7C3FA0120AC
:1018300001F0A6FE284600F09BF9204600F098F93A
:1018400004210348FFF7B9FA012001F099FE70BDA9
:101850000008024070B5002100230F22C4781CB399
:10186000174C246804F4E064C4F5E064C4F3072171
:10187000C1F10404E3B20A4144789C40E1B28478A7
:10188000144021430C07210E0E4C05786155047855
:1018900004F01F050124AC4005786D11AD0005F181
:1018A000E025C5F8004109E0047804F01F05012493
:1018B000AC40054D0678761145F8264070BD000015
:1018C0000CED00E000E400E080E100E002490143AB
:1018D000024A1160704700000000FA050CED00E0BC
:1018E00029B1064A12680243044B1A6004E0034A15
:1018F00012688243014B1A60704700003038024082
:1019000029B1064A12680243044B1A6004E0034AF4
:1019100012688243014B1A60704700004038024051
:1019200029B1064A12680243044B1A6004E0034AD4
:1019300012688243014B1A6070470000443802402D
:10194000F0B5002100220024022500260223324F98
:101950003F6807F00C0121B1042905D0082937D1CF
:1019600005E02E4F076036E02D4F076033E02A4F29
:101970003F1F3F68C7F38056274F3F1F3F6807F060
:101980003F036EB1264FB7FBF3F7DFF88CC0ACF125
:10199000040CDCF800C0CCF3881C07FB0CF40CE052
:1019A0001E4FB7FBF3F7DFF870C0ACF1040CDCF8A6
:1019B00000C0CCF3881C07FB0CF4174F3F1F3F6897
:1019C000C7F301477F1C7D00B4FBF5F7076002E019
:1019D000124F076000BF00BF0F4F3F6807F0F001D4
:1019E0000909104F7A5C0768D74047600A4F3F6883
:1019F00007F4E051890A0B4F7A5C4768D74087604B
:101A0000054F3F6807F46041490B064F7A5C476811
:101A1000D740C760F0BD0000083802400024F40041
:101A200000366E011400002021B1028842F040020D
:101A3000028004E002884FF6BF731A4002807047AC
:101A400000B587B001210803FFF76AFF01210520D7
:101A5000FFF746FF02208DF8040000208DF80600F5
:101A60002020009000208DF8070003208DF805004D
:101A700069462648FFF72AF98020009069462348E6
:101A8000FFF724F94020009069462048FFF71EF92F
:101A9000052211461D48FFF761F9052206211B4862
:101AA000FFF75CF9052207211848FFF757F90120D5
:101AB0008DF8040000208DF806000420009000201E
:101AC0008DF8070069461248FFF700F91820ADF8B5
:101AD00014000120ADF810000220ADF80E00002027
:101AE000ADF81800ADF80C00ADF80800ADF8160020
:101AF0004FF48270ADF80A004FF40070ADF8120098
:101B000002A9044800F016F807B000BD000002402A
:101B100000080240003001400246002013890B40BB
:101B20000BB1012000E00020704701468889704712
:101B30008181704710B50022028802F441520B885F
:101B40004C8823438C882343CC8823430C8923432C
:101B50004C8923438C892343CC8923431A43028035
:101B6000838B4FF2FF74234083830B8A038210BD63
:101B700010B5044600BF02210A48FFF7CDFF002838
:101B8000F9D021460748FFF7D3FF00BF01210548E0
:101B9000FFF7C2FF0028F9D00248FFF7C6FFC0B226
:101BA00010BD0000003001400CB5002001900090F5
:101BB0004148006840F480303F49086000BF3E481B
:101BC000006800F4003000900198401C01900098DB
:101BD00018B90198B0F5A04FF1D13748006800F46A
:101BE000003010B10120009001E00020009000982A
:101BF000012860D130484030006840F080502E49C4
:101C0000403108602D48006840F440402B4908608E
:101C100029480830006828490831086008460068EB
:101C200040F4004008600846006840F4A050086096
:101C30002348091F0860081F006840F08070091FD2
:101C4000086000BF1C48006800F000700028F9D050
:101C50001A48006840F480301849086000BF1748EF
:101C6000406800F480300028F9D01448006840F43F
:101C700000301249086000BF1048406800F400308E
:101C80000028F9D040F205700E4908600A48083073
:101C9000006820F003000849083108600846006821
:101CA00040F00200086000BF03480830006800F000
:101CB0000C000828F8D10CBD00380240007000402C
:101CC000185A4007003C024002480068401C014985
:101CD000086070472C00002010B51548006840F4DB
:101CE0007000134908601348006840F00100114972
:101CF000086000200F49083108600E4800680E494E
:101D000008400C4908600D48091D0860081F00685C
:101D100020F48020091F0860002006490C3108606B
:101D2000FFF742FF4FF0006001498039086010BDA5
:101D300088ED00E000380240FFFFF6FE103000247E
:101D400010B50121064800F01EF8012806D1012136
:101D5000034800F009F801200249087010BD000096
:101D60000010004030000020CA430282704721B1B9
:101D7000028842F00102028004E002884FF6FE73FE
:101D80001A400280704730B502460020002300242C
:101D9000158A05EA0103958905EA010413B10CB11E
:101DA000012000E0002030BD1AB183890B438381FC
:101DB00002E083898B438381704701894FF6F87273
:101DC000114001817047000000220288184B9842A0
:101DD0000ED0184B98420BD0B0F1804F08D0164B64
:101DE000984205D0154B984202D0154B984204D129
:101DF0004FF68F731A404B881A43124B984207D004
:101E0000114B984204D04FF6FF431A400B891A43F6
:101E100002804B68C3620B880385054B984202D051
:101E2000044B984201D18B7A038601238382704749
:101E30000000014000040140000400400008004090
:101E4000000C004000100040001400401FB5044684
:101E50000121C804FFF754FD00940020ADF80C00E8
:101E60000C20ADF80A000020ADF80800ADF806001F
:101E7000ADF804006946024800F04CF91FBD0000AF
:101E8000004C00401CB501210846FFF729FD022047
:101E90008DF8040000208DF80600012000908DF8D8
:101EA000070003208DF8050069460A48FEF70EFF7B
:101EB0000220009069460748FEF708FF082200212B
:101EC0000448FEF74BFF082201210248FEF746FFB7
:101ED0001CBD00000000024010B51021044800F0B5
:101EE0009FF8012803D11021014800F003F810BD2C
:101EF000004C004010B50022002340F66A14A142B5
:101F000000D100BF0A1201249440A3B2DC43048034
:101F100010BD21B1828942F40052828104E082899D
:101F20004DF6FF731A4082817047000000B587B0FC
:101F300001211020FFF7D4FC01218807FFF7E0FC06
:101F4000082211461D48FEF709FF082207211B48F9
:101F5000FEF704FF02208DF8180000208DF81A000B
:101F60004FF48070059001208DF81B0003208DF840
:101F7000190005A91148FEF7A9FE8020059005A9C2
:101F80000E48FEF7A3FE4FF4E13001900020ADF8BB
:101F900010000C20ADF80E000020ADF80C00ADF8DC
:101FA0000A00ADF8080001A9054800F0B3F80121C6
:101FB0000348FFF7AEFF07B000BD0000001002406D
:101FC000007800401AB1838A0B43838202E0838A3F
:101FD0008B438382704770B504460D461646002138
:101FE0002046FEF7ADFD00BF2046FEF7B4FD0028F9
:101FF000FAD1E56031462046FEF743FE0121204636
:10200000FEF79EFD70BD02460020B1F5007F00D1B5
:1020100000BF13880B400BB1012000E00020704787
:1020200070B50246002400230025002040F66A1601
:10203000B14200D100BFC1F3421501F01F030126D8
:1020400006FA03F3012D02D19689334006E0022DF2
:1020500002D1168A334001E0968A33400C120126E1
:1020600006FA04F41688344013B10CB1012000E0E4
:10207000002070BD00B587B001210420FFF730FCBF
:1020800001212020FFF74CFC082206211F48FEF703
:1020900065FE082207211D48FEF760FE02208DF82C
:1020A000180000208DF81A004020059001208DF8BE
:1020B0001B0003208DF8190005A91448FEF706FE41
:1020C0008020059005A91148FEF700FE4FF4E1308D
:1020D00001900020ADF810000C20ADF80E0000209B
:1020E000ADF80C00ADF80A00ADF8080001A90848E9
:1020F00000F010F80122C0210548FFF763FF01211D
:102100000348FFF706FF07B000BD000000080240CB
:10211000001401402DE9FF4705460E460024A14664
:1021200000BFA046B08900B100BF2C8A24F44054FF
:10213000F08804432C82AC8941F20C608443B0885F
:1021400031890843718908430443AC81AC8A24F483
:102150004074B0890443AC826846FFF7F1FB204825
:10216000854202D01F48854202D1DDF80C9001E083
:10217000DDF80890A88900F4004040B109EBC900DF
:1021800000EB091031684900B0FBF1F707E009EBFB
:10219000C90000EB091031688900B0FBF1F7642039
:1021A000B7FBF0F004012009642101FB1078A88935
:1021B00000F4004040B1322000EBC800B0FBF1F069
:1021C00000F00700044308E0322000EB081064210F
:1021D000B0FBF1F000F00F0004432C81BDE8FF8755
:1021E000001001400014014000B587B0012110200B
:1021F000FFF776FB0121C807FFF782FB08220121C8
:102200001F48FEF7ABFD082200211D48FEF7A6FD82
:1022100002208DF8180000208DF81A000220059089
:1022200001208DF81B0003208DF8190005A9144822
:10223000FEF74CFD0120059005A91148FEF746FD6B
:102240004FF4E13001900020ADF810000C20ADF803
:102250000E000020ADF80C00ADF80A00ADF8080043
:1022600001A90848FFF756FF012240210548FFF762
:10227000A9FE01210348FFF74CFE07B000BD000096
:1022800000100240007C00402DE9F04780460D46DA
:1022900016461F46FEF794FD814605B116B900208B
:1022A000BDE8F087002414E0295D404600F015F8F1
:1022B00007E0FEF785FDA0EB0900B84201D9002038
:1022C000EEE780214046FFF79EFE0028F1D0601C1B
:1022D00084B2B442E8DB0120E2E7C1F30802828065
:1022E000704700000FB4054B10B503A9044A0298CB
:1022F00000F01EFC10BC5DF814FB0000E93500087E
:102300005C0000204100080218BF04200A0E18BF1C
:1023100040F001004FF07F4232EA010108BF40F077
:102320000200012808BF05207047000010EE101AB7
:1023300008B5444A6846B2EB410F28D94FF0E64051
:10234000B0EB410F94BF00204FF0FF300090009899
:10235000002861DB60EE000A10F0010F45D010F09C
:10236000020FDFED391A9FED391A00EEE11ADFEDA9
:10237000381A40EE811A21EEA01AF0EE400A40EE23
:10238000010A08BFF1EE600AB0EE600A08BD314BE9
:1023900021F0004293423CD911F0004FDFED2E0AAC
:1023A00020EE201ADFED2D0A19BF31EE601A71EE12
:1023B000200A31EE201A71EE600ABDEEE01A11EE2D
:1023C000100A9FED271A00F0030000EEC10A9FEDEE
:1023D000251A009000EEC10A9FED231A00EEC10AF3
:1023E0009FED221A00EEC10AB1E79FED211A9FED81
:1023F000210A10F0020F00EE810A9FED1F1A00EE75
:10240000801AB7EE000A00EE810A18BFB1EE400A4A
:1024100008BD00F023F99AE710EE100A4000B0F171
:102420007F4F3CBFB7EE000A08BD07D14FF0010057
:1024300000F0CEF9BDE8084000F000B9BDE8084062
:1024400000F0F8B8B61F927E336D4C39DA82083C42
:10245000A0AA2ABE490E494683F9223F0000004B3C
:102460000000C93F00A0FD390020A2331A61342CBE
:10247000B93AB2BACA9F2A3DDDFFFFBE10B52DEDB5
:10248000028BB1EEC08A18EE100A20F00040C0F1B5
:10249000FF40C00F0AD010EE100A20F00040C0F13B
:1024A000FF40C00F04BF012000F092F9B0EE480ACF
:1024B000BDEC028B10BD000000B510EE101A2DED22
:1024C000028B81B04D4A6846B2EB410F3CD94FF0C8
:1024D000E640B0EB410F94BF00204FF0FF3000907A
:1024E0000098B0EE408A00285FDB28EE080ADFED96
:1024F000440A9FED441A00EE201ADFED430A40EE35
:10250000010A9FED421A00EE201ADFED410A10F099
:10251000010F40EE010A9FED3F1A00EE201A61EE16
:10252000000AB0EE480A08EE200A02BF01B0BDEC76
:10253000028B00BDBFEE001A01B0C1EE000ABDEC77
:10254000028BB0EE600A00BD334B21F00042934293
:1025500028D911F0004FDFED310A20EE201ADFED0F
:10256000300A19BF31EE601A71EE200A31EE201ADE
:1025700071EE600ABDEEE01A11EE100A9FED291A05
:1025800000F0030000EEC10A9FED271A009000EE54
:10259000C10A9FED261A00EEC10A9FED251A00EE32
:1025A000C10A9DE700F05AF89AE718EE100A4000B9
:1025B000B0F17F4F0DD218EE100AFFF7A3FE0428EA
:1025C00008BF00F043F8B0EE480A01B0BDEC028B42
:1025D00000BD09D1012000F0FBF801B0BDEC028B79
:1025E0005DF804EB00F02AB801B0B0EE480ABDEC8B
:1025F000028B5DF804EB00F01DB80000B61F927E60
:10260000BBE9223C0C6D063B8A76CE3CACB5593D0D
:1026100035A1083E29AAAA3E490E494683F9223F20
:102620000000004B0000C93F00A0FD390020A2338C
:102630001A61342C30EE000A70470000DFED020A08
:1026400080EEA00A70470000000000009FED020A23
:1026500020EE000A70470000000000102DE9F00194
:102660004FF07F42B2EB410F9FBF4FF0FF3101604F
:10267000BDE8F00170474FF0004242EA0123C1F388
:10268000C752783A551112F01F0C434CCCF120067A
:102690007C44C1F3C752A2F178024FEA621204EB04
:1026A000820254F8254008BFD2E9015612D055687D
:1026B00004FA0CF425FA06F73C43976805FA0CF582
:1026C00027FA06F8D26807FA0CFCF24045EA08053A
:1026D0004CEA0206A4FB034CA5FB0352A6FB0363D2
:1026E0001D449D4234BF012600261319334416B100
:1026F000934202D903E0934201D2012200E000227A
:10270000624402F1200C9206DC0C42EA443200EEF4
:10271000102A5B03DFED210AF8EEC01A00EE103A32
:102720004FEA9C1C11F0004FB8EE400AC0F800C000
:1027300020EE201A00EE105ADFED190AB8EE400A1A
:1027400020EE200A71EE810A70EE800A10EE902AC7
:1027500002F500626FF30B0200EE902A70EEE11AB0
:1027600031EEC11ADFED101A30EE411A9FED0D0A5D
:1027700020EE800A01EE210A9FED0C1A00EE810A7C
:1027800004BFBDE8F0017047CCF180510160BDE8A5
:10279000F001B1EE400A70470C2C0000000000363A
:1027A0000000802C22AAFD29DB0FC92F0000C92FB1
:1027B00002E008C8121F08C1002AFAD1704770470A
:1027C000002001E001C1121F002AFBD17047000068
:1027D0000149086070470000600000202DE9FF5F9C
:1027E00082B00021DDE90430020DDDF840B0034382
:1027F00018D044F61050A2F2FF324243151411983B
:1028000001281FD0A5EB0B00401C5FEA000A4FF027
:1028100000064E4FDFF83891B046504615D5CAF144
:10282000000413E0119801244AA3012801D16FEAA2
:102830000B010298119AC0E90031C0E9024206B0CA
:10284000BDE8F09FCBF10000DFE704460021404ADD
:10285000491842EB0450CDE9001012E0E00707D020
:1028600032463B4640464946FDF727FF80468946AB
:1028700032463B4610461946FDF71FFF06460F46F7
:102880006410002CEAD1DDE90401DDE90023BAF18E
:10289000000F06DAFDF711FF42464B46FDF70DFF2C
:1028A00005E0FDF703FD42464B46FDF7FFFC0446FD
:1028B0000E460022284BFDF78BFF03D84FF0FF3068
:1028C000014607E00022254B20463146FDF74EFE2B
:1028D000FDF765FF102409E0002C0ADB0A22002323
:1028E000FDF77FFD039B30321A55641E50EA01024A
:1028F000F2D1641C039AC4F111031444119A012A01
:1029000003D0012208430DD10AE0084304D000207F
:102910004FF0110B119072E7A3EB0B056D1E0DE04C
:102920005B4504DD4FF0000205F1010504E003DA28
:102930004FF00002A5F10105002AECD00298119990
:10294000C0E90231C0E9004579E700000000144009
:102950000000F03F300000000000F0430000E03FC6
:102960002DE9FF4F8FB00D4617461C9E0F9801F0C2
:1029700039F904464FF0090800200990207BC0F384
:1029800040000490049840B9206930B12069007873
:1029900000F0010008B1012000E00020039004983D
:1029A000F0B1129EFF2D05D9204600F0B3F813B008
:1029B000BDE8F08F4FF00508FE208DF82C008DF853
:1029C0002D60A0798DF82E00514800788DF82F00E9
:1029D0004F4840788DF83000E8B28DF831002FE094
:1029E0000021039808B141F001013A46304601E068
:1029F000431ED8B2012803DD431ED35C002BF7D061
:102A00000646FD208DF82C008DF82D608DF82E10D7
:102A100000208DF82F00A0798DF830003C48007818
:102A20008DF831003A4840788DF83200E8B28DF8E0
:102A30003300280A8DF83400280C8DF8350000BFCB
:102A4000A079401CA0710DF12D09C24600BF4FF6C0
:102A5000FF70029000BF04E019F8010B02A900F01A
:102A60004BFDBAF10000AAF101011FFA81FAF3D17E
:102A7000BDF808000E900DF13809BA46B346CDF8FE
:102A800008A006E0029911F8010B0291494600F0F6
:102A900033FDBBF10000ABF101011FFA81FBF1D165
:102AA00000BF0EA91D9800F027FDBDF83800C0B288
:102AB0008DF82800BDF8380000128DF82900039821
:102AC00060B10AA808F10101CBB2CDE9007602900D
:102AD0000BAA05A9206901F083FB099008F1010206
:102AE0000BA90F9800F01AF8324639460F9800F0FB
:102AF00015F802220AA90F9800F010F8099820B1E1
:102B000005A9099A0F9800F009F800BF4FE70000E7
:102B1000340000208178491C8170704770B50446EC
:102B20000D461646324629462046FEF72BFD70BD5F
:102B30002DE9FF4F95B09A46884606460025EEE1FE
:102B4000252877D100242746F94A0121039400E083
:102B5000044316F8013F203B01FA03F01042F7D17D
:102B600030782A2811D06FF02F033078A0F130028E
:102B7000092A16D8039A44F0020402EB820203EBFE
:102B800042021044761C0390EFE758F8042B03929E
:102B9000002A03DA504244F40054039044F0020443
:102BA000761C30782E2816D116F8010F44F0040454
:102BB0002A280DD06FF02F023078A0F13003092BB6
:102BC00009D807EB870302EB4303C718761CF3E72A
:102BD00058F8047B761C30786C280FD006DC4C2823
:102BE00017D068280DD06A2814D104E0742810D0BA
:102BF0007A280FD10DE044F400140AE044F4801464
:102C000001E044F440147278824202D104F5801449
:102C1000761C761C307866280BD013DC582877D0C9
:102C200009DC002875D04528F6D04628F4D047287E
:102C30001AD193E118E0632835D0642879D065284B
:102C400012D18BE1702873D008DC6728F1D0692895
:102C50006FD06E280DD06F2806D1ACE073282CD031
:102C6000752874D0782853D05246179990476D1C18
:102C700054E1C4F30250022809D003280DD0D8F83B
:102C8000001004280DD00D6008F1040846E1D8F8C2
:102C90000010EA17C1E90052F6E7D8F800100D80DD
:102CA000F2E70D70F0E718F8041B8DF80010002013
:102CB0008DF80100EB46012003E058F804BB4FF00B
:102CC000FF3061074FF0000102D40DE009F101016E
:102CD0008946B9420FDA8145F8DB1BF80910002953
:102CE000F4D108E009F1010189468142FADB1BF8C1
:102CF00009100029F6D103985346A0EB0907214695
:102D00003846179A00F080FA284400EB090507E0DE
:102D100044E008E10DE01BF8010B5246179990477B
:102D2000B9F10109F7D2534621463846179AF2E025
:102D300039E00A21C4F302524FF0000B0091022A3D
:102D400006D058F8040BC117032A09D00AE023E083
:102D500008F1070020F00702F2E80201904605E0C2
:102D600000B2C117042A01D140B2C117002906DA06
:102D70000A460021404261EB02012D2202E02205B9
:102D800004D52B228DF80420012203E0E20701D0B4
:102D90002022F7E7914657E00A2100E010214FF08A
:102DA000000B00910BE010214FF0000B44F00404E5
:102DB0000827009103E008204FF0000B0090C4F3B7
:102DC0000252022A05D058F8040B0021032A08D029
:102DD00008E008F1070020F00702F2E8020190463F
:102DE00003E080B2042A00D1C0B24FF000092207EC
:102DF0002AD53278702A07D0DDF800C08CF0100C8C
:102E00005CEA0B0C05D00EE040228DF80420012274
:102E100008E050EA010306D030238DF804308DF825
:102E2000052002229146009B83F0080353EA0B031E
:102E30000AD150EA010201D1620705D530228DF88E
:102E400004204FF001097F1E3278582A04D039A29D
:102E50000C920CAA02920BE03BA2F9E75B46009AA7
:102E6000FDF7BFFA0C9B9B5C029A521E02921370F4
:102E700050EA0102F2D1029804A9081A00F1200BCD
:102E8000600702D524F4803400E001275F4502DDAD
:102E9000A7EB0B0000E0002000EB0B010090039873
:102EA0004944401A0390E00306D453462146179A3A
:102EB000039800F0A9F90544002706E001A852464E
:102EC000C05D179990476D1C7F1C4F45F6DBE003F2
:102ED0000CD553462146179A039800F095F90544FE
:102EE00004E030205246179990476D1C0099481E07
:102EF00000900029F5DC08E002980299524600781B
:102F0000491C0291179990476D1CBBF10001ABF170
:102F1000010BF1DC5BE100F065F90544761C3078CB
:102F200000287FF40DAE19B02846BDE8F08F0000F0
:102F3000092801003031323334353637383961628F
:102F40006364656600000000303132333435363753
:102F5000383941424344454600000000600700D430
:102F6000062708F1070020F00700F0E8022380465A
:102F700003F0004C5FEA0C0001D097A009E02005A7
:102F800001D596A005E0E00701D095A001E0AFF2E1
:102F90004C001390307823F0004365280CD006DCF9
:102FA000452809D046281DD047287FD13BE0662818
:102FB00018D067287AD136E00021112F01DB1120CB
:102FC00000E0781CCDE9000104A90CA8FFF706FC7D
:102FD000DDE90D010C9A4FF0000B07F10109109289
:102FE00000914EE04FF000400097CDE9011004A998
:102FF0000CA8FFF7F3FBDDE90D020C9B0F994FF0D6
:10300000000B91461093009211B9791C00EB010955
:10301000B7EB090003D4C0F1FF3B07F10109A9EBAD
:103020000700019042E0012F00DA01270021112F53
:1030300001DD112000E03846CDE9000104A90CA80B
:10304000FFF7CCFBDDE90D010C9A00914FF0000B6E
:10305000B946109221070FD4009A4A4503DA9146E7
:1030600001E0A9F10109B9F1010F05DD109AA9F1FB
:103070000101515C3029F4D0B84202DA10F1040F9A
:1030800003DA0121CDE9011010E0002803DC8344BC
:10309000A9EB000102E0411C494500DD8946A0EB97
:1030A0000B00401C01904FF000400290200705D417
:1030B0000198484502DB4FF0FF30019000208DF869
:1030C0004B0002980DF14B07B0F1004F25D00220C4
:1030D0000C902B200D90029800280CDA40420290B0
:1030E0002D200D9007E00A210298FDF764F9303198
:1030F000029007F8011D0C99481E0C900029F2DC83
:1031000002980028EFD1791E0D980870307800F0F1
:10311000200040F0450007F8020D11A8C01BC01D9B
:1031200002901398007800B1012000EB090101988A
:1031300001EBE071029801440398401A401E03908D
:10314000E00306D453462146179A039800F05CF832
:1031500005441398007818B15246179990476D1C92
:10316000E00323D553462146179A039800F04CF804
:1031700005441BE0BBF1000F07DB0098584504DD58
:103180001098179910F80B0001E01799302052465B
:10319000904701980BF1010B401E05F101050190CC
:1031A00004D12E205246179990476D1CB9F10001A9
:1031B000A9F10109DEDC05E017F8010B5246179969
:1031C00090476D1C0299481E02900029F4DC53467A
:1031D0002146179A03989EE62D0000002B00000060
:1031E000200000002DE9F041044600251E46174648
:1031F000880404D405E039462020B0476D1C641EC5
:10320000F9D52846BDE8F0812DE9F04104460025B6
:103210001E469046C80301D5302700E020278804C9
:1032200004D505E041463846B0476D1C641EF9D50B
:103230002846BDE8F081000010B52DED028B044654
:10324000B4F9000000EE100AB8EEC00ADFED290A5A
:1032500080EE201A21EE010AB4F9020000EE900A75
:10326000F8EEE00ADFED231A80EEA11A00EE900AD4
:10327000F8EEE01A9FED1F2AC1EE820A01EE200A45
:10328000B4F9040000EE900AF8EEE00ADFED191A36
:1032900080EEA11A00EE900AF8EEE01A9FED152AD2
:1032A000C1EE820A01EE200AB0EE408AB0EE480A72
:1032B000FFF7E4F81048D0ED0E0A30EE200A80ED5A
:1032C0000E0A006C401C0C4908640846006CB0F5FE
:1032D000C87F03D20020BDEC028B10BD064890EDE4
:1032E0000E0ADFED060A80EE201A80ED0F1A01208B
:1032F000F1E7000000008046400100200000C843C4
:1033000070B52DED028B82B004467848D0E90231C9
:10331000B4F90000C21718185141744AC2E90201F9
:103320001046D0E90431B4F90200C217181851410F
:103330006E4AC2E904011046D0E90631B4F904002E
:10334000C21718185141694AC2E90601208810FBCA
:1033500000F0C117D2E90832C0185141634AC2E9EE
:103360000801608810FB00F0C1171346D3E90A2357
:10337000801859415D4AC2E90A01A08810FB00F09B
:10338000C117D2E90C32C0185141584AC2E90C01A8
:103390001046006C401C114608640846006CB0F5ED
:1033A000806F04D2002002B0BDEC028B70BD4F488C
:1033B000D0E908211046FCF7E8FF08EE100A4B4858
:1033C000D0E90210A1FB012600FB016601FB0061B0
:1033D0001046FCF7DAFF00EE100ADFED450A80EE3A
:1033E000201A38EE410ADFED430A80EE201ABDEEC6
:1033F000C10A10EE100A00B2ADF800003B49D1E955
:103400000A211046FCF7C1FF08EE100A3748D0E940
:103410000410A1FB012600FB016601FB00611046C0
:10342000FCF7B3FF00EE100ADFED310A80EE201A40
:1034300038EE410ADFED2F0A80EE201ABDEEC10AF8
:1034400010EE100A00B2ADF802002849D1E90C21B3
:103450001046FCF79AFF08EE100A2448D0E906103F
:10346000A1FB012600FB016601FB00611046FCF791
:103470008CFF00EE100ADFED1E0A80EE201A38EEF7
:10348000410ADFED1C0A80EE201ABDEEC10A10EEE3
:10349000100A00B2ADF80400BDF90000042807DCF2
:1034A000BDF90200042803DCBDF90400042817DD7F
:1034B00000200E4908640A469060D0600022084649
:1034C000026142618261C26100200A46106250625C
:1034D0009062D0620022084602634263002062E7E5
:1034E00000200249086401205DE70000400100203F
:1034F0000000804400C07F4402460B7883EA02004B
:1035000080EA0013D8B20B881B1283EA002383EAF7
:10351000C00383EA20130B80704738B502460B4680
:1035200000BF4FF6FF70009000BF13E012F8014B90
:103530006846057885EA040181EA0115E9B2058843
:103540002D1285EA012585EAC10585EA2115058048
:1035500000BF00BF181EA3F101018BB2E6D1BDF878
:10356000000038BD00B50146FDF72AFC024600E028
:1035700030BFFDF725FC801A8842F9D300BD00005A
:10358000F0B5034600224FF0E02675690F4E36680D
:103590000F4FB6FBF7F606FB03F44FF0E026B169D8
:1035A00010E04FF0E026B06988420BD0884202D28A
:1035B0000E1A324402E02E1A0E4432440146A24250
:1035C00000D300E0EDE700BFF0BD000000000020E8
:1035D00040420F0010B5FDF745FBFDF755F9FDF72B
:1035E0007FF9FDF7EFF910BD70B504460D46E1B265
:1035F0000548FEF772FE00BF80210348FEF703FD79
:103600000028F9D0204670BD007800401CB501218B
:103610000220FEF765F94FF48070009001208DF8CC
:10362000040000208DF806008DF8070003208DF8B7
:10363000050069460148FDF749FB1CBD0004024036
:1036400010B50A20FFF78EFF00F010F8702100205F
:1036500000F03CF8202000F073FF0121022000F070
:1036600035F80A20FFF77EFF10BD00001CB50121D0
:103670000220FEF735F94FF48070009001208DF89C
:1036800004008DF8060000208DF8070003208DF857
:10369000050069460C48FDF719FB4FF400700090D7
:1036A00001208DF804008DF8060000208DF8070039
:1036B00003208DF8050069460348FDF707FBFDF779
:1036C00085FBFDF79BFB1CBD0004024070B5054661
:1036D0000C46002600F03EF83C2000F018F800F000
:1036E0005DF800B10FE0284600F011F800F056F840
:1036F00000B108E0204600F00AF800F04FF800B1F1
:1037000001E0012600BF00F037F8304670BD70B50B
:103710000446FDF79FFBFDF765FB002517E0E00978
:1037200010B1FDF76BFB01E0FDF788FB0120FFF70F
:1037300027FFFDF74BFB0420FFF722FFFDF752FBAD
:103740000520FFF71DFF6006040E681CC5B2082D9A
:10375000E5DB70BD10B5FDF77DFBFDF74FFBFDF719
:1037600035FB0520FFF70CFFFDF768FB0420FFF792
:1037700007FFFDF737FB10BD10B5FDF76BFBFDF73D
:1037800031FBFDF75BFBFDF721FB0420FFF7F8FEA3
:10379000FDF734FB0520FFF7F3FE10BD10B5FDF774
:1037A0002DFBFDF737FB0024FDF710FB0520FFF78D
:1037B000E7FE08E0601C84B20120FFF7E1FEFA2C6E
:1037C00001DD012010BDFDF75BFB0028F2D1FDF704
:1037D00009FB0520FFF7D4FE0020F3E700244FF497
:1037E0004070FEF773F800F0F5FEFDF799FEFDF767
:1037F000D3FCFFF7EFFE00F061FF00F0E1FE00F008
:1038000057FFFFF71DFF00F029FE28E0144800785D
:10381000012822D100201249087004F0010048B9A3
:1038200010491148FDF7BCFE104B114A0D490E48D6
:10383000FDF7EEFEC820B4FBF0F100FB114008B923
:1038400000F078FA2820B4FBF0F100FB114008B931
:1038500000F0B2FA641CFDF711FEFDF71BFBD5E783
:103860003000002056000020500000209813002057
:103870008C1300202DE9F04705460C4616461F46DE
:10388000DDF8208000202070E078102827D2DFE8C3
:1038900000F0080927485C646C747C94A3B8C9FCE8
:1038A000FDF900BFFD2E0CD10220E0700020E87071
:1038B000AE70207B20F001002073284600F0B4FD9C
:1038C0000DE0FE2E0BD10220E0700020E870AE70FB
:1038D000207B40F001002073284600F0A5FD40E168
:1038E000207850B16078401C60702046FFF712F9D4
:1038F000002020700120E07012E0EE7000202071A6
:103900003146284600F09CFD207B00F0010028B1E4
:103910000020287168710520E07001E00320E0704C
:103920001FE12E71287920F0010038B12046FFF701
:10393000F1F8002020700120E07012E131462846A5
:1039400000F07EFD0420E0700BE16E7131462846E8
:1039500000F076FD0520E07003E1AE7131462846A7
:1039600000F06EFD0620E070FBE0EE713146284667
:1039700000F066FD0720E070F3E02E723146284625
:1039800000F05EFD0820E070EBE0A86866F31F2001
:10399000A8603146284600F053FD207B00F001006E
:1039A00040B1E878002802DD0B20E07004E00C2034
:1039B000E07001E00920E070D3E0A868000A40EA66
:1039C0000621A86861F31F20A8603146284600F050
:1039D00037FD0A20E070C4E0A868000A40EA06410A
:1039E000A86861F31F20A8603146284600F028FD32
:1039F000E878002802DD0B20E07001E00C20E07088
:103A0000AFE02179481C207105F10C004654314685
:103A1000284600F015FD2079E978884201D10C2074
:103A2000E0709EE0A968080A00F0E6F88146B9F166
:103A3000000F04D10E20E07085F8146121E099F8A0
:103A400004A05146284600F0FBFC2878B04202D082
:103A50000E20E07001E00D20E07085F81461B9F1EE
:103A6000000F0DD0207999F80610884208DA99F8ED
:103A700006202379D11A05F10C029818FCF7FEFBF9
:103A800000BF6EE03AE001E0FFE700BFE0780E28FB
:103A900003D02888B6EB202F02D00220207001E04E
:103AA0000120207040F215104655287900F00100E1
:103AB00048B10F20E0700D206073207802281CD0E0
:103AC0000020207019E0206970B12069006B30B1CE
:103AD000A868010A2069026B2046904720B9207827
:103AE000022801D0032020700120E0702FB140F2A5
:103AF000231229463846FCF7A8FB32E0607BC0F170
:103B00000D0105F58B704654607B401E6073607B31
:103B100030BB2A46D4E9040100F0AEFB8146B9F17E
:103B2000000F0BD12069006B40B1A868010A206921
:103B3000026B2046904708B14FF00109B9F1000F20
:103B400002D00120207001E0032020700120E070ED
:103B50002FB140F2231229463846FCF776FB00BF0E
:103B600000BF00BF2078012808D1A87960712089A2
:103B700008B9002060812089401C20810FB1E878BD
:103B8000F870B8F1000F12D0E07888F803002079BF
:103B900088F804006079401C88F805002089A8F89E
:103BA0000800A078A8F80A00207B88F80C00002004
:103BB000A0702078022808D13FB195F8141140F286
:103BC0001510405D41EA002038802078BDE8F0877C
:103BD000014640F223104843014A10447047000058
:103BE000540D0020014601EB4100024A02EBC000E7
:103BF00070470000F40C002030B501460022E42399
:103C000016E0541C1C44600800EB4004114D55F8AC
:103C100024408C4201D9431E0AE000EB40040D4DC4
:103C200055F824408C4201D2024601E0024601E0F0
:103C30009A42E6D300BF02EB4200064C54F8200043
:103C4000884201D0002030BD02EB4200014C04EB61
:103C50008000F8E7D84700082DE9FF5F8AB01446D6
:103C60001D4618AE96E8C00FCDE90245ADF81060CC
:103C7000ADF81270ADF81480ADF81690ADF818A03C
:103C8000ADF81AB01E98ADF81C001F98ADF81E00D4
:103C90002098ADF8200021988DF822002298ADF8E8
:103CA000230090201D211A2302AACDE900101B2118
:103CB0000A98FEF755FE0EB0BDE8F09F2DE9F84FCB
:103CC00080460C4616461D4600BF4046FFF78AFF59
:103CD00081464046FFF77CFF8246334622464946EE
:103CE0000095FFF7C7FD0746022F01D0032F1ED115
:103CF0004046FFF76DFF82464046FFF773FF81465F
:103D00004846FEF707FF002089F80000012089F8E7
:103D10000300FD2C08D1022089F8030000208AF856
:103D20000300504600F080FB0020BDE8F88F3846C5
:103D3000FBE700002DE9F04788B00020FFF752FFB5
:103D40000446207B00F0020000B100BF194A07CAF8
:103D500005AB07C3207B00F0020020B10020ADF8C6
:103D60001D008DF81F0000259DF818609DF8197042
:103D70009DF81A809DF81B90DDF814A0CDF808A0DE
:103D80008DF80C608DF80D708DF80E808DF80F9009
:103D900003208DF81000322009210B4602AACDE93C
:103DA000001000212846FEF7DBFD00BF08B0BDE88B
:103DB000F08700009452000870B594B00020FFF71F
:103DC00011FF0446207B00F0020000B100BF27482D
:103DD0000088ADF8380025484088ADF83A002348FF
:103DE0008088ADF83C0022480088ADF83E002048AD
:103DF0004088ADF840001E488088ADF84200FCF7CE
:103E0000DFFF0021CDE90C01207B00F0020020B192
:103E10000020ADF84A008DF84C00BDF94B009DF82C
:103E20004A10BDF94820BDF94630CDE90732CDE949
:103E30000910BDF94400BDF94210BDF94020BDF99B
:103E40003E30CDE90332CDE90510BDF93C00BDF9A6
:103E50003A10BDF93820CDE900210290DDE90C537C
:103E60002A460020FFF7F8FE14B070BD5000002075
:103E7000560000202DE9F34FC1B08268C46805697F
:103E8000D0F814C08369C669076AD0F82480CDF8D9
:103E90000081002106E0DDF8088158F821804DF806
:103EA0002180491C1029F6DB10214DE0A1F1020808
:103EB0005DF828804FEA5849A1F102085DF8288092
:103EC00049EAC838A1F102095DF829904FEAD94AB8
:103ED000A1F102095DF829904AEA493988EA0908FE
:103EE000A1F102095DF8299088EA9929A1F1070852
:103EF0005DF82880C844A1F10F095DF829904FEAC8
:103F0000D91AA1F10F091DF829904AEA4969A1F1CE
:103F10000F0A5DF82AA04FEA9A4BA1F10F0A5DF84B
:103F20002AA04BEA8A3A89EA0A09A1F10F0A5DF848
:103F30002AA089EADA09C144A1F110085DF82880B5
:103F4000C8444DF82180491C4029AFDB002149E0DD
:103F50004FEA931A4AEA836A4FEAD32B4BEA435B50
:103F60008AEA0B0A4FEA536B4BEAC31B8AEA0B0A35
:103F7000DDF800B1D34403EA060A27EA030E8AEA11
:103F80000E0ADA44DFF8C8B05BF821B0DA445DF815
:103F900021B00AEB0B084FEA920A4AEA827B4FEA09
:103FA000523A4AEAC24A8BEA0A0B4FEA925A4AEA62
:103FB000822A8BEA0A0B02EA040A02EA050E8AEA5E
:103FC0000E0A04EA050E8AEA0E0A0BEB0A0940976C
:103FD00037461E460CEB0803AC462546144608EB54
:103FE0000902491C4029B3DBD0F808809044C0F88E
:103FF0000880D0F80C8008EB0409C0F80C90D0F8C9
:10400000108008EB0509C0F81090D0F8148008EB78
:104010000C09C0F81490D0F8188008EB0309C0F818
:104020001890D0F81C8008EB0609C0F81C90D0F856
:10403000208008EB0709C0F82090D0F82490DDF824
:104040000081C144C0F8249043B0BDE8F08F000067
:10405000D84600082DE9F04192B004460E4620886B
:10406000C0F3C508C8F1770000F03F00451C04F11B
:10407000080780208DF8000047210DF10100FCF7B2
:10408000FDF82178E81D0DF800102088C0F3072105
:10409000A81D0DF800102068C0F30741681D0DF839
:1040A00000102068000E291D0DF801002179E81C80
:1040B0000DF80010A088C0F30721A81C0DF800100F
:1040C0006068C0F30741681C0DF800106068000EBE
:1040D0000DF8050005F108026946204600F034F8A5
:1040E000F8783070B87870707878B0703878F07090
:1040F000F8793071B879707112B0BDE8F0810000C4
:1041000000210160416008498160084AC260084A94
:104110000261084A4261084A8261084AC261084A4B
:104120000262084A4262704767E6096A85AE67BB69
:1041300072F36E3C3AF54FA57F520E518C68059B89
:10414000ABD9831F19CDE05B2DE9F04F91B0044648
:1041500089461546CA46D4F800B0206800EBC50071
:1041600020602068584502D26068401C6060CBF334
:10417000C50630E0C6F14007BD4200D22F4604F12B
:10418000280188193A465146FCF75FF83E44BA4484
:10419000ED1B402E1ED104F1280000904FF00008C6
:1041A0000FE0009A02EB880001AA02EB8801C278B6
:1041B0000A7082784A7042788A700278CA7008F170
:1041C0000108B8F1100FECDB01A92046FFF752FE01
:1041D000002600BF00BF002DCCD111B0BDE8F08F8C
:1041E0002DE9F0479CB004460D4616461F46DDE912
:1041F000259ADDF890801CB1207800F0010018B9F4
:1042000000201CB0BDE8F08760782870D4E9020176
:10421000CDE900010098C5F80100BDF80400A5F83B
:104220000500D4E90220521C40F10000C4E902203C
:1042300002A8FFF765FF202204F1100102A8FFF792
:1042400083FF3A46314602A8FFF77EFF4A464146C1
:1042500002A8FFF779FF0222514602A8FFF774FF78
:104260000722294602A8FFF76FFFE91D02A8FFF702
:10427000F1FE0D20C5E700002DE9F04FA1B0054685
:104280000C4617461DB9012021B0BDE8F08F07F19B
:10429000020A07F58B7808F1070B06A8FFF730FF35
:1042A000202205F1100106A8FFF74EFF0A22514611
:1042B00006A8FFF749FFFA7807F10C0106A8FFF7F7
:1042C00043FF022207F58A7106A8FFF73DFF072288
:1042D000414606A8FFF738FF04A906A8FFF7BAFE73
:1042E0000622594604A8FBF7D4FF20B1022085F826
:1042F00034000020C8E798F8009000210291039153
:10430000D8F801000290B8F80500ADF80C0024B907
:10431000032085F834000020B6E7002618E0F9797C
:1043200006EBC602A01C1044407881420ED1397AB7
:1043300006EBC602A01C10448078814206D106EB31
:10434000C601A01C405C484500D104E0701C86B248
:104350002088B042E3DC00BF2088B0422CD1208806
:10436000102804DB042085F8340000208CE72D4B56
:10437000DDE90220D11840F10000D5E90223891AB5
:10438000984104D2052085F8340000207CE7F979B3
:1043900006EBC602A01C10444170397A06EBC60237
:1043A000A01C1044817006EBC601A01C00F801900F
:1043B0002088401C208019E000210091019106EB2B
:1043C000C601A01C084450F8031F00918088ADF876
:1043D0000400DDE90232DDE90010C91A904104D37E
:1043E000062085F8340000204EE700BF06EBC6012A
:1043F000A01C0844D8F8011040F8031FB8F80510B5
:104400008180D5E90220DDE90231D21A884103D248
:10441000DDE90201C5E90201012085F8340000BF91
:1044200032E70000808D5B0008B50021009100BFDD
:104430004FF6FF71009100BFBDF80010018008BD6C
:1044400038B504460D462088009069462846FFF797
:1044500053F8BDF80000208038BD000010B5802161
:104460006B20FDF7DDF96420FFF77CF800216B205D
:10447000FDF7D6F918211B20FDF7D2F900211C20E9
:10448000FDF7CEF900216C20FDF7CAF901216B2060
:10449000FDF7C6F900211920FDF7C2F903211A2002
:1044A000FDF7BEF980213720FDF7BAF90121382048
:1044B000FDF7B6F9002417E004EBC4010E4A02EB45
:1044C0008100DFED0E0A9FED0E0AFCF738FF04EBCA
:1044D000C4010C4A02EB8100F3EE0E0A9FED080ABC
:1044E000FCF72DFF601CC4B2032CE5DBB7EE000A1D
:1044F000054880ED0F0A10BD680000200000A042B2
:1045000000007A44D40000204001002010604318CD
:104510005360D060906011610023137570470246AC
:104520008B68581C4B68834200D10868CB68834273
:1045300003D08B681A70886001E001230B75704707
:1045400010B5044621460120FFF7C0F804F01F0013
:1045500078BB601108282DD2DFE800F004090E13A3
:10456000181D222740F25A501449088023E040F2D7
:104570004240124908801EE04FF44D700F490880F8
:1045800019E04FF425700D49088014E04FF4DC70F9
:104590000A4908800FE04FF4C370084908800AE018
:1045A0004FF4A5700549088005E0E620034908801E
:1045B00001E0FFE700BF00BF10BD00003200002097
:1045C00010B5FDF73DFA01210148FDF72DFA10BDA8
:1045D0000030014030B500204FF0E021086116485E
:1045E00000684FF47A72B0FBF2F1481EB0F1807FA0
:1045F00001D301201BE0481E4FF0E022506150170C
:104600000F22002807DA13071D0E0C4B00F00F04D1
:10461000241F1D5503E013071C0E094B1C5400BF3B
:1046200000204FF0E022906107201061002008B1C7
:1046300000BFFEE730BD00000000002018ED00E0E4
:1046400000E400E01FB536208DF80C0001208DF845
:104650000F000F208DF80D0000208DF80E0003A82C
:10466000FDF7F8F801211020FDF74AF90F48FDF792
:10467000A4FB0020ADF80800ADF8020040F2E730DE
:1046800001905920ADF8000000208DF80A0069461D
:104690000648FDF799FB012211460448FDF784FB0B
:1046A00001210248FDF763FB1FBD00000010004020
:1046B00010B5FEF7ABFFFFF7C5FF10BD10B5FDF756
:1046C00035FCFDF791FDFDF7D5FCFDF7DBFB4FF465
:1046D0001650FDF7BBFB10BD982F8A4291443771ED
:1046E000CFFBC0B5A5DBB5E95BC25639F111F15975
:1046F000A4823F92D55E1CAB98AA07D8015B8312B7
:10470000BE853124C37D0C55745DBE72FEB1DE8062
:10471000A706DC9B74F19BC1C1699BE48647BEEF91
:10472000C69DC10FCCA10C246F2CE92DAA84744A1C
:10473000DCA9B05CDA88F97652513E986DC631A892
:10474000C82703B0C77F59BFF30BE0C64791A7D571
:104750005163CA0667292914850AB72738211B2EF9
:10476000FC6D2C4D130D385354730A65BB0A6A76E1
:104770002EC9C281852C7292A1E8BFA24B661AA8ED
:10478000708B4BC2A3516CC719E892D1240699D6FD
:1047900085350EF470A06A1016C1A419086C371E76
:1047A0004C774827B5BCB034B30C1C394AAAD84E54
:1047B0004FCA9C5BF36F2E68EE828F746F63A5788F
:1047C0001478C8840802C78CFAFFBE90EB6C50A422
:1047D000F7A3F9BEF27871C60000000032090900A3
:1047E00000000000010000007C1F2B000000000002
:1047F00002000000890C0C00000000000400000012
:10480000ED0E0E030C0D000005000000D91C1C016C
:104810000000000006000000680303000000000024
:1048200007000000772020000000000008000000C2
:1048300075242400000000000B000000590606014A
:104840000400000014000000D6141403020300004A
:10485000150000009F020203000100001600000086
:10486000DC1919000000000017000000A81717034A
:104870000405000018000000181E340000000000AD
:104880001900000017656500000000001A00000014
:10489000AA161800000000001B000000901A1D005E
:1048A000000000001C000000431010000000000089
:1048B0001D000000730E1000000000001E0000002C
:1048C000271C1C00000000001F000000F620300024
:1048D0000000000020000000B91C1C0000000000C7
:1048E00021000000681C1C000000000022000000E5
:1048F000ED1616000000000023000000F41616005C
:104900000000000024000000DE152500000000006B
:1049100025000000D406070304050000260000005F
:10492000090607030405000027000000FE252603F2
:104930002021000028000000E60405030203000017
:10494000290000001C040403020300002A000000E8
:104950001C021200000000002B0000008402030370
:10496000000100002C000000DD0409030203000028
:104970002D000000E8020303000100002E000000EB
:104980000B020200000000002F0000009903080342
:104990000001000030000000290D15010C0000008E
:1049A00031000000270C140000000000320000005D
:1049B0004E2525031213000033000000C404050334
:1049C00002030000360000000F1B1B031819000033
:1049D0003700000003191900000000003D0000002E
:1049E000A7484800000000003E000000B71A1A0067
:1049F000000000003F00000077B5B5000000000097
:104A000040000000BFE1E1000000000041000000A4
:104A1000762A2A00000000004200000094060603E7
:104A20000203000043000000150404000000000021
:104A300045000000F30B1E010A00000046000000C4
:104A40007C122603101100004900000026252603D1
:104A5000202100004A00000014141400000000008F
:104A60004B0000009E2323031E1F00004C0000008B
:104A7000982121031E1F00004D0000008F030A0330
:104A800008090000500000000E04040302030000A7
:104A9000510000006A1616000000000052000000DD
:104AA000312733032425000053000000162525007C
:104AB00000000000540000008F3535033233000041
:104AC000550000008C333300000000005600000049
:104AD00005353503323300005700000096333300AC
:104AE0000000000059000000E71C1C00000000004E
:104AF0005A000000B7383800000000005B000000DA
:104B00003F2A2A00000000005C000000362121003E
:104B1000000000005D0000002F5151000000000067
:104B200064000000AF1A22000000000065000000D1
:104B30006620750000000000660000009E207500E1
:104B40000000000067000000D014390000000000E1
:104B500068000000382074000000000069000000B8
:104B60005D3E3F00000000006A0000008A2C2C001F
:104B7000000000006B0000006C40410000000000DD
:104B80006C00000020545C00000000006D0000007C
:104B9000B9090900000000006E00000054FEFE0389
:104BA000010200006F00000022101203101100002B
:104BB00070000000AE0C0C0000000000710000004E
:104BC0007C2427000000000072000000ED2C2C0067
:104BD00000000000730000000440400000000000DE
:104BE000740000004C161800000000007500000062
:104BF000800606030405000076000000380E0E0053
:104C00000000000077000000740C0C030A0B000089
:104C1000780000008661610000000000790000005B
:104C2000ED020203000100007A000000CB02020343
:104C3000000100007B000000FA7171030001000018
:104C40007C00000057233900000000007D000000B8
:104C5000CB060600000000007E000000DC4F510380
:104C60004F5000007F0000001923230000000000C7
:104C700080000000E223230000000000810000000B
:104C80002E16180000000000820000001D0D0D000F
:104C90000000000083000000DFFFFF0000000000B4
:104CA00084000000550E2700000000008500000071
:104CB000061212000000000086000000E52B2B0009
:104CC0000000000087000000CB0808000000000082
:104CD0008800000001161600000000008900000096
:104CE000C30E1000000000008A0000006D24780050
:104CF000000000008B000000A82B2B03292A0000D5
:104D00008C000000B5292900000000008D00000083
:104D10002F202000000000008E00000048F3F30068
:104D2000000000008F000000830E10000000000053
:104D3000900000007F5D5D00000000009200000018
:104D40006764640000000000930000009A243600AD
:104D50000000000094000000B23C4E000000000083
:104D600095000000C81E3C0000000000A2000000EA
:104D7000BD08090000000000C0000000242C36001F
:104D800000000000E1000000D041490000000000E8
:104D9000E6000000A32A2A0000000000E70000004F
:104DA0006928280000000000E8000000973F41004B
:104DB00000000000E900000023B6B600000000007B
:104DC000EA0000009628280000000000EB00000028
:104DD000B32A2A0000000000F10000005A20200041
:104DE00000000000F200000068343C0000000000F9
:104DF000F300000055353D0134000000F4000000D0
:104E00005F06060000000000F500000082020200BC
:104E100000000000F6000000B82626000000000098
:104E2000F70000005113130000000000F80000001C
:104E300008FEFE0303040000F9000000CC24240057
:104E400000000000FA000000311E1E0000000000FB
:104E5000FB000000AA12120000000000FC0000008D
:104E60002C12120000000000FD0000005333360039
:104E700000000000FE0000002E09090000000000F4
:104E800000010000472A2A03080900000101000070
:104E9000830909000000000002010000BB20E803B4
:104EA00000010000030100005CEBED0000000000C9
:104EB0000401000092050E00000000000501000042
:104EC000B31B3D0000000000060100000C1217009B
:104ED000000000000701000085FFFF000000000047
:104EE00008010000311C2000000000000901000042
:104EF0001A101400000000000A010000C1FFFF03A7
:104F0000020300000B01000023FFFF030203000067
:104F10000C0100000E040403020300000D01000058
:104F20006DD5D700000000000E0100003B131400F7
:104F3000000000000F0100001634350000000000E2
:104F4000130100007E1F200000000000140100007B
:104F50001231320000000000150100003E1E1E004C
:104F600000000000180100004621210000000000A0
:104F700019010000300D0D00000000001A010000B2
:104F80007B232303202100001B0100004A90910095
:104F9000000000001C010000632020031E1F000011
:104FA0001D01000089283103262700001E01000092
:104FB000D2353903323300001F01000001171703F7
:104FC0001415000020010000141717031415000029
:104FD00022010000FB2E2E00000000002301000033
:104FE0000A393900000000002B0100001360620044
:104FF000000000002C010000D9161600000000007F
:105000002D010000F33A3A000000000036010000D4
:105010001C11110000000000370100005F747400D3
:105020000000000040010000F3141403020300001C
:10503000410100005802020300010000420100008B
:10504000F395950000000000430100004E93930388
:105050000001000044010000849292000000000062
:105060004A010000179EA700000000004B0100004D
:105070005BE6E900000000004C010000ECEFEF00EF
:10508000000000004D010000E76D6D000000000011
:105090004E010000480A0A00000000004F01000015
:1050A000E11818000000000050010000F554540001
:1050B0000000000053010000C705050000000000CB
:1050C0005401000063464600000000005E0100003D
:1050D000E814FC0000000000680100000B19190032
:1050E00000000000720100004B576D00000000003E
:1050F000730100000A1A1A00000000007401000089
:105100001A8C8C000000000075010000752A2A002E
:105110000000000077010000FB8C8C000000000004
:105120007C010000E8141400000000008101000070
:1051300093858503020300008201000084101003A0
:105140000405000083010000044848030405000032
:1051500084010000082525032021000086010000AD
:105160009CEEEE00000000008B01000000D4D40093
:10517000000000008C01000032A0A0000000000030
:105180008D010000B66C6C00000000009001000072
:105190006EFEFE030405000091010000B706060341
:1051A000040500009A010000A03535000000000051
:1051B0009B0100006A030300000000009C01000046
:1051C00021060603040500009D0100004D070703AA
:1051D00004050000B3010000862E2E000000000030
:1051E000B4010000C109090000000000B501000081
:1051F0001E01010000000000B8010000422323004E
:1052000000000000282300007189890000000000D0
:105210002D230000752222000000000064320000EF
:10522000722C2C030001000065320000FE3B3B03A2
:105230001E1F0000663200008C3535030405000097
:1052400067320000F92E2E030001000068320000D2
:105250004D3636031C1D000069320000312B2B0334
:1052600000010000733200005EF9F9030001000044
:10527000763200008B3333000000000077320000EC
:105280000712120310110000783200001405050007
:1052900000000000F8CD6D39115497DA03000000CA
:1052A000000000006E83F9A22915444ED15727FC57
:1052B000C0DD34F5999562DB4190433CAB6351FE10
:1052C000E05200080000002064000000B027000841
:1052D000445300086400002044170000C027000861
:1052E0000095BA0A0000000000000000010203045B
:1052F000060708090000000001020304010203047C
:10530000060708090000000000000000000000007F
:10531000000000000101000000010000000000008A
:10532000000000000000000000000000000000007D
:10533000000000000000000000000000000000006D
:045340000000000069
:04000005080001AD41
:00000001FF
